{
  "contractName": "XDaiStarterFactory",
  "abi": [
    {
      "inputs": [
        {
          "internalType": "address",
          "name": "_xdpInfoAddress",
          "type": "address"
        },
        {
          "internalType": "address",
          "name": "_xdpToken",
          "type": "address"
        },
        {
          "internalType": "address",
          "name": "_xdpStakingPool",
          "type": "address"
        }
      ],
      "stateMutability": "nonpayable",
      "type": "constructor"
    },
    {
      "anonymous": false,
      "inputs": [
        {
          "indexed": false,
          "internalType": "bytes32",
          "name": "title",
          "type": "bytes32"
        },
        {
          "indexed": false,
          "internalType": "uint256",
          "name": "xdpId",
          "type": "uint256"
        },
        {
          "indexed": false,
          "internalType": "address",
          "name": "creator",
          "type": "address"
        }
      ],
      "name": "PresaleCreated",
      "type": "event"
    },
    {
      "anonymous": false,
      "inputs": [
        {
          "indexed": true,
          "internalType": "address",
          "name": "from",
          "type": "address"
        },
        {
          "indexed": false,
          "internalType": "uint256",
          "name": "amount",
          "type": "uint256"
        }
      ],
      "name": "Received",
      "type": "event"
    },
    {
      "inputs": [],
      "name": "XDP",
      "outputs": [
        {
          "internalType": "contract XDaiStarterInfo",
          "name": "",
          "type": "address"
        }
      ],
      "stateMutability": "view",
      "type": "function"
    },
    {
      "inputs": [
        {
          "internalType": "address",
          "name": "",
          "type": "address"
        }
      ],
      "name": "lastClaimedTimestamp",
      "outputs": [
        {
          "internalType": "uint256",
          "name": "",
          "type": "uint256"
        }
      ],
      "stateMutability": "view",
      "type": "function"
    },
    {
      "inputs": [],
      "name": "xdpStakingPool",
      "outputs": [
        {
          "internalType": "contract XDaiStarterStaking",
          "name": "",
          "type": "address"
        }
      ],
      "stateMutability": "view",
      "type": "function"
    },
    {
      "inputs": [],
      "name": "xdpToken",
      "outputs": [
        {
          "internalType": "contract XDSToken",
          "name": "",
          "type": "address"
        }
      ],
      "stateMutability": "view",
      "type": "function"
    },
    {
      "stateMutability": "payable",
      "type": "receive"
    },
    {
      "inputs": [
        {
          "components": [
            {
              "internalType": "address",
              "name": "tokenAddress",
              "type": "address"
            },
            {
              "internalType": "address",
              "name": "unsoldTokensDumpAddress",
              "type": "address"
            },
            {
              "internalType": "address[]",
              "name": "whitelistedAddresses",
              "type": "address[]"
            },
            {
              "internalType": "uint256",
              "name": "tokenPriceInWei",
              "type": "uint256"
            },
            {
              "internalType": "uint256",
              "name": "hardCapInWei",
              "type": "uint256"
            },
            {
              "internalType": "uint256",
              "name": "softCapInWei",
              "type": "uint256"
            },
            {
              "internalType": "uint256",
              "name": "maxInvestInWei",
              "type": "uint256"
            },
            {
              "internalType": "uint256",
              "name": "minInvestInWei",
              "type": "uint256"
            },
            {
              "internalType": "uint256",
              "name": "openTime",
              "type": "uint256"
            },
            {
              "internalType": "uint256",
              "name": "closeTime",
              "type": "uint256"
            }
          ],
          "internalType": "struct XDaiStarterFactory.PresaleInfo",
          "name": "_info",
          "type": "tuple"
        },
        {
          "components": [
            {
              "internalType": "uint256",
              "name": "listingPriceInWei",
              "type": "uint256"
            },
            {
              "internalType": "uint256",
              "name": "liquidityAddingTime",
              "type": "uint256"
            },
            {
              "internalType": "uint256",
              "name": "lpTokensLockDurationInDays",
              "type": "uint256"
            },
            {
              "internalType": "uint256",
              "name": "liquidityPercentageAllocation",
              "type": "uint256"
            }
          ],
          "internalType": "struct XDaiStarterFactory.PresaleHoneySwapInfo",
          "name": "_honeyInfo",
          "type": "tuple"
        },
        {
          "components": [
            {
              "internalType": "bytes32",
              "name": "saleTitle",
              "type": "bytes32"
            },
            {
              "internalType": "bytes32",
              "name": "linkTelegram",
              "type": "bytes32"
            },
            {
              "internalType": "bytes32",
              "name": "linkGithub",
              "type": "bytes32"
            },
            {
              "internalType": "bytes32",
              "name": "linkTwitter",
              "type": "bytes32"
            },
            {
              "internalType": "bytes32",
              "name": "linkWebsite",
              "type": "bytes32"
            },
            {
              "internalType": "bytes32",
              "name": "linkLogo",
              "type": "bytes32"
            }
          ],
          "internalType": "struct XDaiStarterFactory.PresaleStringInfo",
          "name": "_stringInfo",
          "type": "tuple"
        }
      ],
      "name": "createPresale",
      "outputs": [],
      "stateMutability": "nonpayable",
      "type": "function"
    },
    {
      "inputs": [],
      "name": "claimHodlerFund",
      "outputs": [],
      "stateMutability": "nonpayable",
      "type": "function"
    }
  ],
  "bytecode": "0x60a06040523480156200001157600080fd5b5060405162009b8438038062009b84833981810160405281019062000037919062000118565b60016000819055508273ffffffffffffffffffffffffffffffffffffffff1660808173ffffffffffffffffffffffffffffffffffffffff1660601b8152505081600160006101000a81548173ffffffffffffffffffffffffffffffffffffffff021916908373ffffffffffffffffffffffffffffffffffffffff16021790555080600260006101000a81548173ffffffffffffffffffffffffffffffffffffffff021916908373ffffffffffffffffffffffffffffffffffffffff160217905550505050620001bc565b6000815190506200011281620001a2565b92915050565b6000806000606084860312156200012e57600080fd5b60006200013e8682870162000101565b9350506020620001518682870162000101565b9250506040620001648682870162000101565b9150509250925092565b60006200017b8262000182565b9050919050565b600073ffffffffffffffffffffffffffffffffffffffff82169050919050565b620001ad816200016e565b8114620001b957600080fd5b50565b60805160601c61994b6200023960003980610210528061023152806102d352806103755280610457528061065852806107e052806108ff5280610a175280610ae85280610be75280610cb75280610d595280610ec85280610fd052806111bb5280611261528061133452806113e15280611a60525061994b6000f3fe608060405260043610620000615760003560e01c806302ee0efb14620000be5780631d1e053e1462000102578063755a1919146200013057806378d7be7314620001605780639d526e831462000190578063b9227bb314620001c057620000b9565b36620000b9573373ffffffffffffffffffffffffffffffffffffffff167f88a5966d370b9919b20f3e2c13ff65706f196a4e32cc2c12bf57088f8852587434604051620000af919062002724565b60405180910390a2005b600080fd5b348015620000cb57600080fd5b50620000ea6004803603810190620000e4919062001cd2565b620001da565b604051620000f9919062002724565b60405180910390f35b3480156200010f57600080fd5b506200012e600480360381019062000128919062001d56565b620001f2565b005b3480156200013d57600080fd5b506200014862000ec6565b604051620001579190620025fc565b60405180910390f35b3480156200016d57600080fd5b506200017862000eea565b60405162000187919062002592565b60405180910390f35b3480156200019d57600080fd5b50620001a862000f10565b604051620001b7919062002619565b60405180910390f35b348015620001cd57600080fd5b50620001d862000f36565b005b60036020528060005260406000206000915090505481565b600083600001602081019062000209919062001cd2565b90506000307f00000000000000000000000000000000000000000000000000000000000000007f000000000000000000000000000000000000000000000000000000000000000073ffffffffffffffffffffffffffffffffffffffff16638da5cb5b6040518163ffffffff1660e01b815260040160206040518083038186803b1580156200029657600080fd5b505afa158015620002ab573d6000803e3d6000fd5b505050506040513d601f19601f82011682018060405250810190620002d1919062001cfe565b7f000000000000000000000000000000000000000000000000000000000000000073ffffffffffffffffffffffffffffffffffffffff1663aabea7836040518163ffffffff1660e01b815260040160206040518083038186803b1580156200033857600080fd5b505afa1580156200034d573d6000803e3d6000fd5b505050506040513d601f19601f8201168201806040525081019062000373919062001dc6565b7f000000000000000000000000000000000000000000000000000000000000000073ffffffffffffffffffffffffffffffffffffffff1663be0247ad6040518163ffffffff1660e01b815260040160206040518083038186803b158015620003da57600080fd5b505afa158015620003ef573d6000803e3d6000fd5b505050506040513d601f19601f8201168201806040525081019062000415919062001dc6565b604051620004239062001c05565b620004339594939291906200237e565b604051809103906000f08015801562000450573d6000803e3d6000fd5b50905060007f000000000000000000000000000000000000000000000000000000000000000073ffffffffffffffffffffffffffffffffffffffff1663be19292f6040518163ffffffff1660e01b815260040160206040518083038186803b158015620004bc57600080fd5b505afa158015620004d1573d6000803e3d6000fd5b505050506040513d601f19601f82011682018060405250810190620004f7919062001cfe565b905060006200052d60646200051e88606001358a608001356200162d90919063ffffffff16565b620016a390919063ffffffff16565b9050600062000566876000013562000557670de0b6b3a7640000856200162d90919063ffffffff16565b620016a390919063ffffffff16565b90506000620005a3896060013562000594670de0b6b3a76400008c608001356200162d90919063ffffffff16565b620016a390919063ffffffff16565b90506000620005bc8284620016fd90919063ffffffff16565b90508673ffffffffffffffffffffffffffffffffffffffff166323b872dd3388846040518463ffffffff1660e01b8152600401620005fd93929190620022f4565b602060405180830381600087803b1580156200061857600080fd5b505af11580156200062d573d6000803e3d6000fd5b505050506040513d601f19601f8201168201806040525081019062000653919062001d2a565b5060007f000000000000000000000000000000000000000000000000000000000000000073ffffffffffffffffffffffffffffffffffffffff166333835b966040518163ffffffff1660e01b815260040160206040518083038186803b158015620006bd57600080fd5b505afa158015620006d2573d6000803e3d6000fd5b505050506040513d601f19601f82011682018060405250810190620006f8919062001dc6565b600160009054906101000a900473ffffffffffffffffffffffffffffffffffffffff1673ffffffffffffffffffffffffffffffffffffffff166370a08231306040518263ffffffff1660e01b8152600401620007559190620022ba565b60206040518083038186803b1580156200076e57600080fd5b505afa15801562000783573d6000803e3d6000fd5b505050506040513d601f19601f82011682018060405250810190620007a9919062001dc6565b1062000aca576000600160009054906101000a900473ffffffffffffffffffffffffffffffffffffffff1662278d008c60200135017f000000000000000000000000000000000000000000000000000000000000000073ffffffffffffffffffffffffffffffffffffffff16635f75856f6040518163ffffffff1660e01b815260040160206040518083038186803b1580156200084557600080fd5b505afa1580156200085a573d6000803e3d6000fd5b505050506040513d601f19601f8201168201806040525081019062000880919062001cfe565b336040516200088f9062001c13565b6200089e9493929190620025af565b604051809103906000f080158015620008bb573d6000803e3d6000fd5b509050600160009054906101000a900473ffffffffffffffffffffffffffffffffffffffff1673ffffffffffffffffffffffffffffffffffffffff1663a9059cbb827f000000000000000000000000000000000000000000000000000000000000000073ffffffffffffffffffffffffffffffffffffffff166333835b966040518163ffffffff1660e01b815260040160206040518083038186803b1580156200096457600080fd5b505afa15801562000979573d6000803e3d6000fd5b505050506040513d601f19601f820116820180604052508101906200099f919062001dc6565b6040518363ffffffff1660e01b8152600401620009be929190620023db565b602060405180830381600087803b158015620009d957600080fd5b505af1158015620009ee573d6000803e3d6000fd5b505050506040513d601f19601f8201168201806040525081019062000a14919062001d2a565b507f000000000000000000000000000000000000000000000000000000000000000073ffffffffffffffffffffffffffffffffffffffff1663a0ae93d4826040518263ffffffff1660e01b815260040162000a7091906200229d565b602060405180830381600087803b15801562000a8b57600080fd5b505af115801562000aa0573d6000803e3d6000fd5b505050506040513d601f19601f8201168201806040525081019062000ac6919062001dc6565b9150505b62000ade87848d606001358e8e8e62001755565b600062000b8e878a7f000000000000000000000000000000000000000000000000000000000000000073ffffffffffffffffffffffffffffffffffffffff16636ac3861a6040518163ffffffff1660e01b815260040160206040518083038186803b15801562000b4d57600080fd5b505afa15801562000b62573d6000803e3d6000fd5b505050506040513d601f19601f8201168201806040525081019062000b88919062001cfe565b62001b5a565b9050600081620151808d60400135028d602001350133600060405162000bb49062001c13565b62000bc3949392919062002545565b604051809103906000f08015801562000be0573d6000803e3d6000fd5b50905060007f000000000000000000000000000000000000000000000000000000000000000073ffffffffffffffffffffffffffffffffffffffff16633cd221a28b6040518263ffffffff1660e01b815260040162000c409190620022ba565b602060405180830381600087803b15801562000c5b57600080fd5b505af115801562000c70573d6000803e3d6000fd5b505050506040513d601f19601f8201168201806040525081019062000c96919062001dc6565b90508973ffffffffffffffffffffffffffffffffffffffff16630cef47f9837f000000000000000000000000000000000000000000000000000000000000000073ffffffffffffffffffffffffffffffffffffffff166305a911676040518163ffffffff1660e01b815260040160206040518083038186803b15801562000d1c57600080fd5b505afa15801562000d31573d6000803e3d6000fd5b505050506040513d601f19601f8201168201806040525081019062000d57919062001dc6565b7f000000000000000000000000000000000000000000000000000000000000000073ffffffffffffffffffffffffffffffffffffffff16630e34c01b6040518163ffffffff1660e01b815260040160206040518083038186803b15801562000dbe57600080fd5b505afa15801562000dd3573d6000803e3d6000fd5b505050506040513d601f19601f8201168201806040525081019062000df9919062001dc6565b8589600260009054906101000a900473ffffffffffffffffffffffffffffffffffffffff166040518763ffffffff1660e01b815260040162000e419695949392919062002408565b600060405180830381600087803b15801562000e5c57600080fd5b505af115801562000e71573d6000803e3d6000fd5b505050507f35133d54289054f67a6ef6fa793e5c9d0db708d85ce5c2045cfacdd5748862468c60000135823360405162000eae9392919062002508565b60405180910390a15050505050505050505050505050565b7f000000000000000000000000000000000000000000000000000000000000000081565b600160009054906101000a900473ffffffffffffffffffffffffffffffffffffffff1681565b600260009054906101000a900473ffffffffffffffffffffffffffffffffffffffff1681565b6002600054141562000f7f576040517f08c379a000000000000000000000000000000000000000000000000000000000815260040162000f769062002702565b60405180910390fd5b60026000819055506000471162000fcd576040517f08c379a000000000000000000000000000000000000000000000000000000000815260040162000fc4906200267a565b60405180910390fd5b427f000000000000000000000000000000000000000000000000000000000000000073ffffffffffffffffffffffffffffffffffffffff1663716eede46040518163ffffffff1660e01b815260040160206040518083038186803b1580156200103557600080fd5b505afa1580156200104a573d6000803e3d6000fd5b505050506040513d601f19601f8201168201806040525081019062001070919062001dc6565b600360003373ffffffffffffffffffffffffffffffffffffffff1673ffffffffffffffffffffffffffffffffffffffff16815260200190815260200160002054011115620010f5576040517f08c379a0000000000000000000000000000000000000000000000000000000008152600401620010ec9062002636565b60405180910390fd5b6000806000600260009054906101000a900473ffffffffffffffffffffffffffffffffffffffff1673ffffffffffffffffffffffffffffffffffffffff166387cad0bf336040518263ffffffff1660e01b8152600401620011579190620022ba565b60606040518083038186803b1580156200117057600080fd5b505afa15801562001185573d6000803e3d6000fd5b505050506040513d601f19601f82011682018060405250810190620011ab919062001df2565b80935081945082955050505060007f000000000000000000000000000000000000000000000000000000000000000073ffffffffffffffffffffffffffffffffffffffff16638d3af9a26040518163ffffffff1660e01b815260040160206040518083038186803b1580156200122057600080fd5b505afa15801562001235573d6000803e3d6000fd5b505050506040513d601f19601f820116820180604052508101906200125b919062001dc6565b905060007f000000000000000000000000000000000000000000000000000000000000000073ffffffffffffffffffffffffffffffffffffffff1663c4086893336040518263ffffffff1660e01b8152600401620012ba9190620022d7565b60206040518083038186803b158015620012d357600080fd5b505afa158015620012e8573d6000803e3d6000fd5b505050506040513d601f19601f820116820180604052508101906200130e919062001dc6565b9050428285011162001332576200132f8582620016fd90919063ffffffff16565b90505b7f000000000000000000000000000000000000000000000000000000000000000073ffffffffffffffffffffffffffffffffffffffff1663aabea7836040518163ffffffff1660e01b815260040160206040518083038186803b1580156200139957600080fd5b505afa158015620013ae573d6000803e3d6000fd5b505050506040513d601f19601f82011682018060405250810190620013d4919062001dc6565b81101580156200148557507f000000000000000000000000000000000000000000000000000000000000000073ffffffffffffffffffffffffffffffffffffffff16635d5ce3cf6040518163ffffffff1660e01b815260040160206040518083038186803b1580156200144657600080fd5b505afa1580156200145b573d6000803e3d6000fd5b505050506040513d601f19601f8201168201806040525081019062001481919062001dc6565b8111155b620014c7576040517f08c379a0000000000000000000000000000000000000000000000000000000008152600401620014be90620026be565b60405180910390fd5b42600360003373ffffffffffffffffffffffffffffffffffffffff1673ffffffffffffffffffffffffffffffffffffffff168152602001908152602001600020819055503373ffffffffffffffffffffffffffffffffffffffff166108fc620015f147620015e2600160009054906101000a900473ffffffffffffffffffffffffffffffffffffffff1673ffffffffffffffffffffffffffffffffffffffff166318160ddd6040518163ffffffff1660e01b815260040160206040518083038186803b1580156200159757600080fd5b505afa158015620015ac573d6000803e3d6000fd5b505050506040513d601f19601f82011682018060405250810190620015d2919062001dc6565b86620016a390919063ffffffff16565b6200162d90919063ffffffff16565b9081150290604051600060405180830381858888f193505050501580156200161d573d6000803e3d6000fd5b5050505050506001600081905550565b6000808314156200164257600090506200169d565b60008284029050828482816200165457fe5b041462001698576040517f08c379a00000000000000000000000000000000000000000000000000000000081526004016200168f90620026e0565b60405180910390fd5b809150505b92915050565b6000808211620016ea576040517f08c379a0000000000000000000000000000000000000000000000000000000008152600401620016e1906200269c565b60405180910390fd5b818381620016f457fe5b04905092915050565b6000808284019050838110156200174b576040517f08c379a0000000000000000000000000000000000000000000000000000000008152600401620017429062002658565b60405180910390fd5b8091505092915050565b8573ffffffffffffffffffffffffffffffffffffffff166380e2bc273385600001602081019062001787919062001cd2565b600160009054906101000a900473ffffffffffffffffffffffffffffffffffffffff16876020016020810190620017bf919062001cd2565b6040518563ffffffff1660e01b8152600401620017e0949392919062002331565b600060405180830381600087803b158015620017fb57600080fd5b505af115801562001810573d6000803e3d6000fd5b505050508573ffffffffffffffffffffffffffffffffffffffff16631c194ba9868686608001358760a001358860c001358960e001358a61010001358b61012001356040518963ffffffff1660e01b8152600401620018779897969594939291906200278e565b600060405180830381600087803b1580156200189257600080fd5b505af1158015620018a7573d6000803e3d6000fd5b505050508573ffffffffffffffffffffffffffffffffffffffff16634526c54483600001358460200135856040013586606001356040518563ffffffff1660e01b8152600401620018fc949392919062002741565b600060405180830381600087803b1580156200191757600080fd5b505af11580156200192c573d6000803e3d6000fd5b505050508573ffffffffffffffffffffffffffffffffffffffff16632b24a878826000013583602001358460400135856060013586608001358760a001356040518763ffffffff1660e01b81526004016200198d969594939291906200249b565b600060405180830381600087803b158015620019a857600080fd5b505af1158015620019bd573d6000803e3d6000fd5b505050508573ffffffffffffffffffffffffffffffffffffffff1663ca2cfc20848060400190620019ef91906200281c565b6040518363ffffffff1660e01b815260040162001a0e92919062002475565b600060405180830381600087803b15801562001a2957600080fd5b505af115801562001a3e573d6000803e3d6000fd5b505050508573ffffffffffffffffffffffffffffffffffffffff1663986960a37f000000000000000000000000000000000000000000000000000000000000000073ffffffffffffffffffffffffffffffffffffffff166356c97e996040518163ffffffff1660e01b815260040160206040518083038186803b15801562001ac557600080fd5b505afa15801562001ada573d6000803e3d6000fd5b505050506040513d601f19601f8201168201806040525081019062001b00919062001dc6565b6040518263ffffffff1660e01b815260040162001b1e919062002724565b600060405180830381600087803b15801562001b3957600080fd5b505af115801562001b4e573d6000803e3d6000fd5b50505050505050505050565b60008060008373ffffffffffffffffffffffffffffffffffffffff168573ffffffffffffffffffffffffffffffffffffffff161062001b9b57838562001b9e565b84845b9150915085828260405160200162001bb892919062002223565b6040516020818303038152906040528051906020012060405160200162001be192919062002253565b6040516020818303038152906040528051906020012060001c925050509392505050565b61607d8062002aa583390190565b610df48062008b2283390190565b60008135905062001c328162002a56565b92915050565b60008151905062001c498162002a56565b92915050565b60008151905062001c608162002a70565b92915050565b60006080828403121562001c7957600080fd5b81905092915050565b6000610140828403121562001c9657600080fd5b81905092915050565b600060c0828403121562001cb257600080fd5b81905092915050565b60008151905062001ccc8162002a8a565b92915050565b60006020828403121562001ce557600080fd5b600062001cf58482850162001c21565b91505092915050565b60006020828403121562001d1157600080fd5b600062001d218482850162001c38565b91505092915050565b60006020828403121562001d3d57600080fd5b600062001d4d8482850162001c4f565b91505092915050565b6000806000610160848603121562001d6d57600080fd5b600084013567ffffffffffffffff81111562001d8857600080fd5b62001d968682870162001c82565b935050602062001da98682870162001c66565b92505060a062001dbc8682870162001c9f565b9150509250925092565b60006020828403121562001dd957600080fd5b600062001de98482850162001cbb565b91505092915050565b60008060006060848603121562001e0857600080fd5b600062001e188682870162001cbb565b935050602062001e2b8682870162001cbb565b925050604062001e3e8682870162001cbb565b9150509250925092565b600062001e56838362001e84565b60208301905092915050565b62001e6d816200293b565b82525050565b62001e7e81620028e7565b82525050565b62001e8f81620028d3565b82525050565b62001ea081620028d3565b82525050565b62001ebb62001eb582620028d3565b62002a17565b82525050565b600062001ecf83856200288d565b935062001edc8262002876565b8060005b8581101562001f1d5762001ef58284620028ba565b62001f01888262001e48565b975062001f0e8362002880565b92505060018101905062001ee0565b5085925050509392505050565b62001f358162002907565b82525050565b62001f5062001f4a8262002907565b62002a2b565b82525050565b62001f61816200294f565b82525050565b62001f728162002977565b82525050565b62001f83816200299f565b82525050565b62001f9481620029c7565b82525050565b600062001fa96012836200289e565b91507f496e76616c696420436c61696d2054696d6500000000000000000000000000006000830152602082019050919050565b600062001feb601b836200289e565b91507f536166654d6174683a206164646974696f6e206f766572666c6f7700000000006000830152602082019050919050565b60006200202d6013836200289e565b91507f4e6f207265776172647320746f20636c61696d000000000000000000000000006000830152602082019050919050565b60006200206f601a836200289e565b91507f536166654d6174683a206469766973696f6e206279207a65726f0000000000006000830152602082019050919050565b6000620020b1601a836200289e565b91507f446f206e6f74207175616c69667920666f7220726577617264730000000000006000830152602082019050919050565b6000620020f3600183620028af565b91507fff000000000000000000000000000000000000000000000000000000000000006000830152600182019050919050565b6000620021356021836200289e565b91507f536166654d6174683a206d756c7469706c69636174696f6e206f766572666c6f60008301527f77000000000000000000000000000000000000000000000000000000000000006020830152604082019050919050565b60006200219d601f836200289e565b91507f5265656e7472616e637947756172643a207265656e7472616e742063616c6c006000830152602082019050919050565b6000620021df602083620028af565b91507fd0d4c4cd0848c93cb4fd1f498d7013ee6bfb25783ea21593d5834f5d250ece666000830152602082019050919050565b6200221d8162002931565b82525050565b600062002231828562001ea6565b60148201915062002243828462001ea6565b6014820191508190509392505050565b60006200226082620020e4565b91506200226e828562001ea6565b60148201915062002280828462001f3b565b6020820191506200229182620021d0565b91508190509392505050565b6000602082019050620022b4600083018462001e95565b92915050565b6000602082019050620022d1600083018462001e62565b92915050565b6000602082019050620022ee600083018462001e73565b92915050565b60006060820190506200230b600083018662001e62565b6200231a602083018562001e62565b62002329604083018462002212565b949350505050565b600060808201905062002348600083018762001e62565b62002357602083018662001e95565b62002366604083018562001e95565b62002375606083018462001e95565b95945050505050565b600060a08201905062002395600083018862001e62565b620023a4602083018762001e95565b620023b3604083018662001e95565b620023c2606083018562002212565b620023d1608083018462002212565b9695505050505050565b6000604082019050620023f2600083018562001e95565b62002401602083018462002212565b9392505050565b600060c0820190506200241f600083018962001e95565b6200242e602083018862002212565b6200243d604083018762002212565b6200244c606083018662002212565b6200245b608083018562002212565b6200246a60a083018462001e95565b979650505050505050565b600060208201905081810360008301526200249281848662001ec1565b90509392505050565b600060c082019050620024b2600083018962001f2a565b620024c1602083018862001f2a565b620024d0604083018762001f2a565b620024df606083018662001f2a565b620024ee608083018562001f2a565b620024fd60a083018462001f2a565b979650505050505050565b60006060820190506200251f600083018662001f2a565b6200252e602083018562002212565b6200253d604083018462001e62565b949350505050565b60006080820190506200255c600083018762001f56565b6200256b602083018662002212565b6200257a604083018562001e62565b62002589606083018462001e62565b95945050505050565b6000602082019050620025a9600083018462001f67565b92915050565b6000608082019050620025c6600083018762001f67565b620025d5602083018662002212565b620025e4604083018562001e95565b620025f3606083018462001e62565b95945050505050565b600060208201905062002613600083018462001f78565b92915050565b600060208201905062002630600083018462001f89565b92915050565b60006020820190508181036000830152620026518162001f9a565b9050919050565b60006020820190508181036000830152620026738162001fdc565b9050919050565b6000602082019050818103600083015262002695816200201e565b9050919050565b60006020820190508181036000830152620026b78162002060565b9050919050565b60006020820190508181036000830152620026d981620020a2565b9050919050565b60006020820190508181036000830152620026fb8162002126565b9050919050565b600060208201905081810360008301526200271d816200218e565b9050919050565b60006020820190506200273b600083018462002212565b92915050565b600060808201905062002758600083018762002212565b62002767602083018662002212565b62002776604083018562002212565b62002785606083018462002212565b95945050505050565b600061010082019050620027a6600083018b62002212565b620027b5602083018a62002212565b620027c4604083018962002212565b620027d3606083018862002212565b620027e2608083018762002212565b620027f160a083018662002212565b6200280060c083018562002212565b6200280f60e083018462002212565b9998505050505050505050565b600080833560016020038436030381126200283657600080fd5b80840192508235915067ffffffffffffffff8211156200285557600080fd5b6020830192506020820236038313156200286e57600080fd5b509250929050565b6000819050919050565b6000602082019050919050565b600082825260208201905092915050565b600082825260208201905092915050565b600081905092915050565b6000620028cb602084018462001c21565b905092915050565b6000620028e08262002911565b9050919050565b6000620028f48262002911565b9050919050565b60008115159050919050565b6000819050919050565b600073ffffffffffffffffffffffffffffffffffffffff82169050919050565b6000819050919050565b60006200294882620029ef565b9050919050565b60006200295c8262002963565b9050919050565b6000620029708262002911565b9050919050565b600062002984826200298b565b9050919050565b6000620029988262002911565b9050919050565b6000620029ac82620029b3565b9050919050565b6000620029c08262002911565b9050919050565b6000620029d482620029db565b9050919050565b6000620029e88262002911565b9050919050565b6000620029fc8262002a03565b9050919050565b600062002a108262002911565b9050919050565b600062002a248262002a35565b9050919050565b6000819050919050565b600062002a428262002a49565b9050919050565b60008160601b9050919050565b62002a6181620028d3565b811462002a6d57600080fd5b50565b62002a7b81620028fb565b811462002a8757600080fd5b50565b62002a958162002931565b811462002aa157600080fd5b5056fe608060405269152d02c7e14af6800000602455683635c9adc5dea000006025556000602960006101000a81548160ff0219169083151502179055506000602960016101000a81548160ff0219169083151502179055506000602960026101000a81548160ff0219169083151502179055506000602960036101000a81548160ff0219169083151502179055503480156200009857600080fd5b506040516200607d3803806200607d833981810160405260a0811015620000be57600080fd5b810190808051906020019092919080519060200190929190805190602001909291908051906020019092919080519060200190929190505050600073ffffffffffffffffffffffffffffffffffffffff168573ffffffffffffffffffffffffffffffffffffffff1614156200013257600080fd5b600073ffffffffffffffffffffffffffffffffffffffff168373ffffffffffffffffffffffffffffffffffffffff1614156200016d57600080fd5b846000806101000a81548173ffffffffffffffffffffffffffffffffffffffff021916908373ffffffffffffffffffffffffffffffffffffffff16021790555082600160006101000a81548173ffffffffffffffffffffffffffffffffffffffff021916908373ffffffffffffffffffffffffffffffffffffffff160217905550816027819055508060288190555083600460006101000a81548173ffffffffffffffffffffffffffffffffffffffff021916908373ffffffffffffffffffffffffffffffffffffffff1602179055505050505050615e2b80620002526000396000f3fe6080604052600436106104145760003560e01c806396b988621161021e578063c6a4266911610123578063d6c86b1b116100ab578063e8b5e51f1161007a578063e8b5e51f14611451578063ebc9afcc1461145b578063fb286c6514611558578063fc0c546a14611583578063ffc1883b146115c457610423565b8063d6c86b1b146113a5578063d9c50320146113d0578063e47935e6146113fb578063e861e34d1461142657610423565b8063ccd11696116100f2578063ccd1169614611271578063ce8f582e1461129e578063d2257580146112b5578063d5933c2c146112f2578063d64d31381461131f57610423565b8063c6a426691461112e578063c884ef8314611159578063ca2cfc20146111c0578063cc9fb9fd1461124657610423565b8063b1406b79116101a6578063b5b47f4211610175578063b5b47f421461105b578063c04c8e9a14611086578063c36002c9146110c1578063c502b13b146110d8578063c51d16b61461110357610423565b8063b1406b7914610fb1578063b2d5ae4414610fee578063b31f8f9314611005578063b42568881461103057610423565b80639ee85385116101ed5780639ee8538514610e745780639fa1eccc14610eb5578063a2460d2e14610ee0578063a3ec138d14610f21578063ac42597a14610f8657610423565b806396b9886214610d685780639767b58c14610dcd578063986960a314610df85780639d526e8314610e3357610423565b80634b9f5c981161032457806373f7ef38116102ac5780637f0feacc1161027b5780637f0feacc14610b3557806380e2bc2714610c4a57806389771dd814610cfb5780639180033414610d26578063940bb34414610d5157610423565b806373f7ef3814610a735780637445830614610a9e57806378d7be7314610ac95780637e1c0c0914610b0a57610423565b8063627749e6116102f3578063627749e6146109985780636cb96287146109c35780636e961a5f146109da578063709b74ed14610a1b5780637275ae1414610a4857610423565b80634b9f5c98146108d85780634f7458eb1461091557806350c733911461094057806355973a901461096b57610423565b80632b24a878116103a7578063357176371161037657806335717637146107bb57806335d079de146107e65780633ad49c7b146108275780634526c5441461086857806348c54b9d146108c157610423565b80632b24a878146106bd5780632f8de8101461072a578063303ab2aa14610755578063303fb1701461078057610423565b80630cef47f9116103e35780630cef47f91461051057806316bc4f0e146105a95780631afb0220146106105780631c194ba91461063b57610423565b806301f009ae1461042857806306c933d8146104535780630ca99ca8146104ba5780630cdc1fc5146104e557610423565b36610423576104216115ef565b005b600080fd5b34801561043457600080fd5b5061043d612058565b6040518082815260200191505060405180910390f35b34801561045f57600080fd5b506104a26004803603602081101561047657600080fd5b81019080803573ffffffffffffffffffffffffffffffffffffffff16906020019092919050505061205e565b60405180821515815260200191505060405180910390f35b3480156104c657600080fd5b506104cf61207e565b6040518082815260200191505060405180910390f35b3480156104f157600080fd5b506104fa612084565b6040518082815260200191505060405180910390f35b34801561051c57600080fd5b506105a7600480360360c081101561053357600080fd5b81019080803573ffffffffffffffffffffffffffffffffffffffff16906020019092919080359060200190929190803590602001909291908035906020019092919080359060200190929190803573ffffffffffffffffffffffffffffffffffffffff16906020019092919050505061208a565b005b3480156105b557600080fd5b506105f8600480360360208110156105cc57600080fd5b81019080803573ffffffffffffffffffffffffffffffffffffffff1690602001909291905050506121e0565b60405180821515815260200191505060405180910390f35b34801561061c57600080fd5b50610625612200565b6040518082815260200191505060405180910390f35b34801561064757600080fd5b506106bb600480360361010081101561065f57600080fd5b810190808035906020019092919080359060200190929190803590602001909291908035906020019092919080359060200190929190803590602001909291908035906020019092919080359060200190929190505050612206565b005b3480156106c957600080fd5b50610728600480360360c08110156106e057600080fd5b810190808035906020019092919080359060200190929190803590602001909291908035906020019092919080359060200190929190803590602001909291905050506123ee565b005b34801561073657600080fd5b5061073f612539565b6040518082815260200191505060405180910390f35b34801561076157600080fd5b5061076a61253f565b6040518082815260200191505060405180910390f35b34801561078c57600080fd5b506107b9600480360360208110156107a357600080fd5b8101908080359060200190929190505050612545565b005b3480156107c757600080fd5b506107d061261e565b6040518082815260200191505060405180910390f35b3480156107f257600080fd5b506107fb612624565b604051808273ffffffffffffffffffffffffffffffffffffffff16815260200191505060405180910390f35b34801561083357600080fd5b5061083c61264a565b604051808273ffffffffffffffffffffffffffffffffffffffff16815260200191505060405180910390f35b34801561087457600080fd5b506108bf6004803603608081101561088b57600080fd5b8101908080359060200190929190803590602001909291908035906020019092919080359060200190929190505050612670565b005b3480156108cd57600080fd5b506108d66127fd565b005b3480156108e457600080fd5b50610913600480360360208110156108fb57600080fd5b81019080803515159060200190929190505050612d4f565b005b34801561092157600080fd5b5061092a613204565b6040518082815260200191505060405180910390f35b34801561094c57600080fd5b5061095561320a565b6040518082815260200191505060405180910390f35b34801561097757600080fd5b50610980613210565b60405180821515815260200191505060405180910390f35b3480156109a457600080fd5b506109ad613223565b6040518082815260200191505060405180910390f35b3480156109cf57600080fd5b506109d8613229565b005b3480156109e657600080fd5b506109ef6133a3565b604051808273ffffffffffffffffffffffffffffffffffffffff16815260200191505060405180910390f35b348015610a2757600080fd5b50610a306133c9565b60405180821515815260200191505060405180910390f35b348015610a5457600080fd5b50610a5d6133dc565b6040518082815260200191505060405180910390f35b348015610a7f57600080fd5b50610a886133e2565b6040518082815260200191505060405180910390f35b348015610aaa57600080fd5b50610ab36133e8565b6040518082815260200191505060405180910390f35b348015610ad557600080fd5b50610ade6133ee565b604051808273ffffffffffffffffffffffffffffffffffffffff16815260200191505060405180910390f35b348015610b1657600080fd5b50610b1f613414565b6040518082815260200191505060405180910390f35b348015610b4157600080fd5b50610b4a61341a565b60405180868152602001851515815260200184151581526020018060200180602001838103835285818151815260200191508051906020019080838360005b83811015610ba4578082015181840152602081019050610b89565b50505050905090810190601f168015610bd15780820380516001836020036101000a031916815260200191505b50838103825284818151815260200191508051906020019080838360005b83811015610c0a578082015181840152602081019050610bef565b50505050905090810190601f168015610c375780820380516001836020036101000a031916815260200191505b5097505050505050505060405180910390f35b348015610c5657600080fd5b50610cf960048036036080811015610c6d57600080fd5b81019080803573ffffffffffffffffffffffffffffffffffffffff169060200190929190803573ffffffffffffffffffffffffffffffffffffffff169060200190929190803573ffffffffffffffffffffffffffffffffffffffff169060200190929190803573ffffffffffffffffffffffffffffffffffffffff169060200190929190505050613588565b005b348015610d0757600080fd5b50610d10613859565b6040518082815260200191505060405180910390f35b348015610d3257600080fd5b50610d3b61385f565b6040518082815260200191505060405180910390f35b348015610d5d57600080fd5b50610d66613865565b005b348015610d7457600080fd5b50610db760048036036020811015610d8b57600080fd5b81019080803573ffffffffffffffffffffffffffffffffffffffff169060200190929190505050613b8d565b6040518082815260200191505060405180910390f35b348015610dd957600080fd5b50610de2613ba5565b6040518082815260200191505060405180910390f35b348015610e0457600080fd5b50610e3160048036036020811015610e1b57600080fd5b8101908080359060200190929190505050613bab565b005b348015610e3f57600080fd5b50610e48613c65565b604051808273ffffffffffffffffffffffffffffffffffffffff16815260200191505060405180910390f35b348015610e8057600080fd5b50610e89613c8b565b604051808273ffffffffffffffffffffffffffffffffffffffff16815260200191505060405180910390f35b348015610ec157600080fd5b50610eca613cb1565b6040518082815260200191505060405180910390f35b348015610eec57600080fd5b50610ef5613cb7565b604051808273ffffffffffffffffffffffffffffffffffffffff16815260200191505060405180910390f35b348015610f2d57600080fd5b50610f7060048036036020811015610f4457600080fd5b81019080803573ffffffffffffffffffffffffffffffffffffffff169060200190929190505050613cdd565b6040518082815260200191505060405180910390f35b348015610f9257600080fd5b50610f9b613cf5565b6040518082815260200191505060405180910390f35b348015610fbd57600080fd5b50610fec60048036036020811015610fd457600080fd5b81019080803515159060200190929190505050613cfb565b005b348015610ffa57600080fd5b50611003613e31565b005b34801561101157600080fd5b5061101a614382565b6040518082815260200191505060405180910390f35b34801561103c57600080fd5b50611045614388565b6040518082815260200191505060405180910390f35b34801561106757600080fd5b5061107061438e565b6040518082815260200191505060405180910390f35b34801561109257600080fd5b506110bf600480360360208110156110a957600080fd5b8101908080359060200190929190505050614394565b005b3480156110cd57600080fd5b506110d661446f565b005b3480156110e457600080fd5b506110ed6147ad565b6040518082815260200191505060405180910390f35b34801561110f57600080fd5b506111186147b3565b6040518082815260200191505060405180910390f35b34801561113a57600080fd5b506111436147b9565b6040518082815260200191505060405180910390f35b34801561116557600080fd5b506111a86004803603602081101561117c57600080fd5b81019080803573ffffffffffffffffffffffffffffffffffffffff1690602001909291905050506147bf565b60405180821515815260200191505060405180910390f35b3480156111cc57600080fd5b50611244600480360360208110156111e357600080fd5b810190808035906020019064010000000081111561120057600080fd5b82018360208201111561121257600080fd5b8035906020019184602083028401116401000000008311171561123457600080fd5b90919293919293905050506147df565b005b34801561125257600080fd5b5061125b6149b8565b6040518082815260200191505060405180910390f35b34801561127d57600080fd5b506112866149be565b60405180821515815260200191505060405180910390f35b3480156112aa57600080fd5b506112b36149d1565b005b3480156112c157600080fd5b506112f0600480360360208110156112d857600080fd5b8101908080351515906020019092919050505061540e565b005b3480156112fe57600080fd5b506113076154db565b60405180821515815260200191505060405180910390f35b34801561132b57600080fd5b506113a36004803603602081101561134257600080fd5b810190808035906020019064010000000081111561135f57600080fd5b82018360208201111561137157600080fd5b8035906020019184602083028401116401000000008311171561139357600080fd5b90919293919293905050506154ee565b005b3480156113b157600080fd5b506113ba61563e565b6040518082815260200191505060405180910390f35b3480156113dc57600080fd5b506113e5615644565b6040518082815260200191505060405180910390f35b34801561140757600080fd5b5061141061564a565b6040518082815260200191505060405180910390f35b34801561143257600080fd5b5061143b615650565b6040518082815260200191505060405180910390f35b6114596115ef565b005b34801561146757600080fd5b50611556600480360360a081101561147e57600080fd5b8101908080359060200190929190803515159060200190929190803515159060200190929190803590602001906401000000008111156114bd57600080fd5b8201836020820111156114cf57600080fd5b803590602001918460018302840111640100000000831117156114f157600080fd5b90919293919293908035906020019064010000000081111561151257600080fd5b82018360208201111561152457600080fd5b8035906020019184600183028401116401000000008311171561154657600080fd5b9091929391929390505050615656565b005b34801561156457600080fd5b5061156d61578c565b6040518082815260200191505060405180910390f35b34801561158f57600080fd5b50611598615792565b604051808273ffffffffffffffffffffffffffffffffffffffff16815260200191505060405180910390f35b3480156115d057600080fd5b506115d96157b8565b6040518082815260200191505060405180910390f35b602960019054906101000a900460ff1615806116545750600a60003373ffffffffffffffffffffffffffffffffffffffff1673ffffffffffffffffffffffffffffffffffffffff16815260200190815260200160002060009054906101000a900460ff165b6116c6576040517f08c379a00000000000000000000000000000000000000000000000000000000081526004018080602001828103825260178152602001807f41646472657373206e6f742077686974656c697374656400000000000000000081525060200191505060405180910390fd5b602960039054906101000a900460ff1615611749576040517f08c379a00000000000000000000000000000000000000000000000000000000081526004018080602001828103825260098152602001807f43616e63656c6c6564000000000000000000000000000000000000000000000081525060200191505060405180910390fd5b602254602354118015611760575060245460235410155b6117d2576040517f08c379a00000000000000000000000000000000000000000000000000000000081526004018080602001828103825260108152602001807f566f746573206e6f74207061737365640000000000000000000000000000000081525060200191505060405180910390fd5b601b5442101561184a576040517f08c379a000000000000000000000000000000000000000000000000000000000815260040180806020018281038252600e8152602001807f4e6f7420796574206f70656e656400000000000000000000000000000000000081525060200191505060405180910390fd5b601c5442106118c1576040517f08c379a00000000000000000000000000000000000000000000000000000000081526004018080602001828103825260068152602001807f436c6f736564000000000000000000000000000000000000000000000000000081525060200191505060405180910390fd5b6017546013541061193a576040517f08c379a00000000000000000000000000000000000000000000000000000000081526004018080602001828103825260108152602001807f486172642063617020726561636865640000000000000000000000000000000081525060200191505060405180910390fd5b60006015541161194957600080fd5b6000341161195657600080fd5b6000806000600360009054906101000a900473ffffffffffffffffffffffffffffffffffffffff1673ffffffffffffffffffffffffffffffffffffffff166387cad0bf336040518263ffffffff1660e01b8152600401808273ffffffffffffffffffffffffffffffffffffffff16815260200191505060606040518083038186803b1580156119e457600080fd5b505afa1580156119f8573d6000803e3d6000fd5b505050506040513d6060811015611a0e57600080fd5b810190808051906020019092919080519060200190929190805190602001909291905050508093508194508295505050506000600460009054906101000a900473ffffffffffffffffffffffffffffffffffffffff1673ffffffffffffffffffffffffffffffffffffffff16638d3af9a26040518163ffffffff1660e01b815260040160206040518083038186803b158015611aa957600080fd5b505afa158015611abd573d6000803e3d6000fd5b505050506040513d6020811015611ad357600080fd5b810190808051906020019092919050505090506000600460009054906101000a900473ffffffffffffffffffffffffffffffffffffffff1673ffffffffffffffffffffffffffffffffffffffff1663c4086893336040518263ffffffff1660e01b8152600401808273ffffffffffffffffffffffffffffffffffffffff16815260200191505060206040518083038186803b158015611b7157600080fd5b505afa158015611b85573d6000803e3d6000fd5b505050506040513d6020811015611b9b57600080fd5b810190808051906020019092919050505090504282850111611bcd57611bca85826157be90919063ffffffff16565b90505b6027548110611cc2576000611c026064611bf460285460165461584690919063ffffffff16565b6158cc90919063ffffffff16565b9050611c47670de0b6b3a7640000611c39611c288460165461595590919063ffffffff16565b60155461584690919063ffffffff16565b6158cc90919063ffffffff16565b341115611cbc576040517f08c379a00000000000000000000000000000000000000000000000000000000081526004018080602001828103825260168152602001807f4e6f7420656e6f75676820746f6b656e73206c6566740000000000000000000081525060200191505060405180910390fd5b50611d69565b611cf3670de0b6b3a7640000611ce560165460155461584690919063ffffffff16565b6158cc90919063ffffffff16565b341115611d68576040517f08c379a00000000000000000000000000000000000000000000000000000000081526004018080602001828103825260168152602001807f4e6f7420656e6f75676820746f6b656e73206c6566740000000000000000000081525060200191505060405180910390fd5b5b6000611dbd34600960003373ffffffffffffffffffffffffffffffffffffffff1673ffffffffffffffffffffffffffffffffffffffff168152602001908152602001600020546157be90919063ffffffff16565b9050601a5481101580611dee5750611de8670de0b6b3a764000060175461595590919063ffffffff16565b60135410155b611e60576040517f08c379a000000000000000000000000000000000000000000000000000000000815260040180806020018281038252601a8152602001807f4d696e20696e766573746d656e74206e6f74207265616368656400000000000081525060200191505060405180910390fd5b60006019541480611e7357506019548111155b611ee5576040517f08c379a00000000000000000000000000000000000000000000000000000000081526004018080602001828103825260168152602001807f4d617820696e766573746d656e7420726561636865640000000000000000000081525060200191505060405180910390fd5b60006026541115611f6957602654821015611f68576040517f08c379a00000000000000000000000000000000000000000000000000000000081526004018080602001828103825260198152602001807f4e6f7420656e6f75676820584450206f6e206163636f756e740000000000000081525060200191505060405180910390fd5b5b6000600960003373ffffffffffffffffffffffffffffffffffffffff1673ffffffffffffffffffffffffffffffffffffffff168152602001908152602001600020541415611fce57611fc760016010546157be90919063ffffffff16565b6010819055505b611fe3346013546157be90919063ffffffff16565b60138190555080600960003373ffffffffffffffffffffffffffffffffffffffff1673ffffffffffffffffffffffffffffffffffffffff1681526020019081526020016000208190555061204a612039346159d8565b60155461595590919063ffffffff16565b601581905550505050505050565b600f5481565b600a6020528060005260406000206000915054906101000a900460ff1681565b60175481565b602c5481565b3373ffffffffffffffffffffffffffffffffffffffff1660008054906101000a900473ffffffffffffffffffffffffffffffffffffffff1673ffffffffffffffffffffffffffffffffffffffff16148061213157503373ffffffffffffffffffffffffffffffffffffffff16600160009054906101000a900473ffffffffffffffffffffffffffffffffffffffff1673ffffffffffffffffffffffffffffffffffffffff16145b61213a57600080fd5b85600260006101000a81548173ffffffffffffffffffffffffffffffffffffffff021916908373ffffffffffffffffffffffffffffffffffffffff16021790555084600c8190555083600d8190555082600e8190555081600f8190555080600360006101000a81548173ffffffffffffffffffffffffffffffffffffffff021916908373ffffffffffffffffffffffffffffffffffffffff160217905550505050505050565b60306020528060005260406000206000915054906101000a900460ff1681565b60275481565b3373ffffffffffffffffffffffffffffffffffffffff16600760009054906101000a900473ffffffffffffffffffffffffffffffffffffffff1673ffffffffffffffffffffffffffffffffffffffff1614806122ad57503373ffffffffffffffffffffffffffffffffffffffff1660008054906101000a900473ffffffffffffffffffffffffffffffffffffffff1673ffffffffffffffffffffffffffffffffffffffff16145b61231f576040517f08c379a000000000000000000000000000000000000000000000000000000000815260040180806020018281038252601e8152602001807f4e6f742070726573616c652063726561746f72206f7220666163746f7279000081525060200191505060405180910390fd5b6000881161232c57600080fd5b6000871161233957600080fd5b6000821161234657600080fd5b6000811161235357600080fd5b6000861161236057600080fd5b612373878961584690919063ffffffff16565b86111561237f57600080fd5b8585111561238c57600080fd5b8383111561239957600080fd5b8082106123a557600080fd5b87601481905550876015819055508660168190555085601781905550846018819055508360198190555082601a8190555081601b8190555080601c819055505050505050505050565b3373ffffffffffffffffffffffffffffffffffffffff16600760009054906101000a900473ffffffffffffffffffffffffffffffffffffffff1673ffffffffffffffffffffffffffffffffffffffff16148061249557503373ffffffffffffffffffffffffffffffffffffffff1660008054906101000a900473ffffffffffffffffffffffffffffffffffffffff1673ffffffffffffffffffffffffffffffffffffffff16145b612507576040517f08c379a000000000000000000000000000000000000000000000000000000000815260040180806020018281038252601e8152602001807f4e6f742070726573616c652063726561746f72206f7220666163746f7279000081525060200191505060405180910390fd5b85602a8190555084602b8190555083602d8190555082602c8190555081602e8190555080602f81905550505050505050565b60165481565b60205481565b3373ffffffffffffffffffffffffffffffffffffffff1660008054906101000a900473ffffffffffffffffffffffffffffffffffffffff1673ffffffffffffffffffffffffffffffffffffffff1614806125ec57503373ffffffffffffffffffffffffffffffffffffffff16600160009054906101000a900473ffffffffffffffffffffffffffffffffffffffff1673ffffffffffffffffffffffffffffffffffffffff16145b6125f557600080fd5b678ac7230489e8000081101561260a57600080fd5b670de0b6b3a7640000810260258190555050565b60265481565b600760009054906101000a900473ffffffffffffffffffffffffffffffffffffffff1681565b600460009054906101000a900473ffffffffffffffffffffffffffffffffffffffff1681565b3373ffffffffffffffffffffffffffffffffffffffff16600760009054906101000a900473ffffffffffffffffffffffffffffffffffffffff1673ffffffffffffffffffffffffffffffffffffffff16148061271757503373ffffffffffffffffffffffffffffffffffffffff1660008054906101000a900473ffffffffffffffffffffffffffffffffffffffff1673ffffffffffffffffffffffffffffffffffffffff16145b612789576040517f08c379a000000000000000000000000000000000000000000000000000000000815260040180806020018281038252601e8152602001807f4e6f742070726573616c652063726561746f72206f7220666163746f7279000081525060200191505060405180910390fd5b6000841161279657600080fd5b600083116127a357600080fd5b600082116127b057600080fd5b600081116127bd57600080fd5b6000601c54116127cc57600080fd5b601c548310156127db57600080fd5b83601d8190555082601e8190555081601f819055508060208190555050505050565b602960019054906101000a900460ff1615806128625750600a60003373ffffffffffffffffffffffffffffffffffffffff1673ffffffffffffffffffffffffffffffffffffffff16815260200190815260200160002060009054906101000a900460ff165b6128d4576040517f08c379a00000000000000000000000000000000000000000000000000000000081526004018080602001828103825260178152602001807f41646472657373206e6f742077686974656c697374656400000000000000000081525060200191505060405180910390fd5b602960039054906101000a900460ff1615612957576040517f08c379a00000000000000000000000000000000000000000000000000000000081526004018080602001828103825260098152602001807f43616e63656c6c6564000000000000000000000000000000000000000000000081525060200191505060405180910390fd5b6000600960003373ffffffffffffffffffffffffffffffffffffffff1673ffffffffffffffffffffffffffffffffffffffff1681526020019081526020016000205411612a0c576040517f08c379a000000000000000000000000000000000000000000000000000000000815260040180806020018281038252600f8152602001807f4e6f7420616e20696e766573746f72000000000000000000000000000000000081525060200191505060405180910390fd5b600b60003373ffffffffffffffffffffffffffffffffffffffff1673ffffffffffffffffffffffffffffffffffffffff16815260200190815260200160002060009054906101000a900460ff1615612acc576040517f08c379a000000000000000000000000000000000000000000000000000000000815260040180806020018281038252601b8152602001807f416c726561647920636c61696d6564206f7220726566756e646564000000000081525060200191505060405180910390fd5b602960009054906101000a900460ff16612b4e576040517f08c379a00000000000000000000000000000000000000000000000000000000081526004018080602001828103825260178152602001807f4c6971756964697479206e6f742079657420616464656400000000000000000081525060200191505060405180910390fd5b6001600b60003373ffffffffffffffffffffffffffffffffffffffff1673ffffffffffffffffffffffffffffffffffffffff16815260200190815260200160002060006101000a81548160ff021916908315150217905550600560009054906101000a900473ffffffffffffffffffffffffffffffffffffffff1673ffffffffffffffffffffffffffffffffffffffff1663a9059cbb33612c2d600960003373ffffffffffffffffffffffffffffffffffffffff1673ffffffffffffffffffffffffffffffffffffffff168152602001908152602001600020546159d8565b6040518363ffffffff1660e01b8152600401808373ffffffffffffffffffffffffffffffffffffffff16815260200182815260200192505050602060405180830381600087803b158015612c8057600080fd5b505af1158015612c94573d6000803e3d6000fd5b505050506040513d6020811015612caa57600080fd5b81019080805190602001909291905050505060004790506000811115612d4c5760008160115411612cdd57601154612cdf565b815b9050600760009054906101000a900473ffffffffffffffffffffffffffffffffffffffff1673ffffffffffffffffffffffffffffffffffffffff166108fc829081150290604051600060405180830381858888f19350505050158015612d49573d6000803e3d6000fd5b50505b50565b602960039054906101000a900460ff1615612dd2576040517f08c379a00000000000000000000000000000000000000000000000000000000081526004018080602001828103825260098152602001807f43616e63656c6c6564000000000000000000000000000000000000000000000081525060200191505060405180910390fd5b6000806000600360009054906101000a900473ffffffffffffffffffffffffffffffffffffffff1673ffffffffffffffffffffffffffffffffffffffff166387cad0bf336040518263ffffffff1660e01b8152600401808273ffffffffffffffffffffffffffffffffffffffff16815260200191505060606040518083038186803b158015612e6057600080fd5b505afa158015612e74573d6000803e3d6000fd5b505050506040513d6060811015612e8a57600080fd5b810190808051906020019092919080519060200190929190805190602001909291905050508093508194508295505050506000600460009054906101000a900473ffffffffffffffffffffffffffffffffffffffff1673ffffffffffffffffffffffffffffffffffffffff16638d3af9a26040518163ffffffff1660e01b815260040160206040518083038186803b158015612f2557600080fd5b505afa158015612f39573d6000803e3d6000fd5b505050506040513d6020811015612f4f57600080fd5b810190808051906020019092919050505090506000600460009054906101000a900473ffffffffffffffffffffffffffffffffffffffff1673ffffffffffffffffffffffffffffffffffffffff1663c4086893336040518263ffffffff1660e01b8152600401808273ffffffffffffffffffffffffffffffffffffffff16815260200191505060206040518083038186803b158015612fed57600080fd5b505afa158015613001573d6000803e3d6000fd5b505050506040513d602081101561301757600080fd5b8101908080519060200190929190505050905042828501116130495761304685826157be90919063ffffffff16565b90505b6025548110156130c1576040517f08c379a00000000000000000000000000000000000000000000000000000000081526004018080602001828103825260168152602001807f4e6f7420656e6f7567682058445020746f20766f74650000000000000000000081525060200191505060405180910390fd5b6000602160003373ffffffffffffffffffffffffffffffffffffffff1673ffffffffffffffffffffffffffffffffffffffff1681526020019081526020016000205414613176576040517f08c379a00000000000000000000000000000000000000000000000000000000081526004018080602001828103825260138152602001807f566f746520616c7265616479206361737465640000000000000000000000000081525060200191505060405180910390fd5b80602160003373ffffffffffffffffffffffffffffffffffffffff1673ffffffffffffffffffffffffffffffffffffffff1681526020019081526020016000208190555085156131e0576131d5816023546157be90919063ffffffff16565b6023819055506131fc565b6131f5816022546157be90919063ffffffff16565b6022819055505b505050505050565b601f5481565b60125481565b602960019054906101000a900460ff1681565b601c5481565b3373ffffffffffffffffffffffffffffffffffffffff16600760009054906101000a900473ffffffffffffffffffffffffffffffffffffffff1673ffffffffffffffffffffffffffffffffffffffff16146132ec576040517f08c379a00000000000000000000000000000000000000000000000000000000081526004018080602001828103825260138152602001807f4e6f742070726573616c652063726561746f720000000000000000000000000081525060200191505060405180910390fd5b602960009054906101000a900460ff1661330557600080fd5b602960039054906101000a900460ff161561331f57600080fd5b60125442101561332e57600080fd5b60004711156133a157600760009054906101000a900473ffffffffffffffffffffffffffffffffffffffff1673ffffffffffffffffffffffffffffffffffffffff166108fc479081150290604051600060405180830381858888f1935050505015801561339f573d6000803e3d6000fd5b505b565b600260009054906101000a900473ffffffffffffffffffffffffffffffffffffffff1681565b602960009054906101000a900460ff1681565b60105481565b601d5481565b602b5481565b600660009054906101000a900473ffffffffffffffffffffffffffffffffffffffff1681565b60145481565b60318060000154908060010160009054906101000a900460ff16908060010160019054906101000a900460ff1690806002018054600181600116156101000203166002900480601f0160208091040260200160405190810160405280929190818152602001828054600181600116156101000203166002900480156134e05780601f106134b5576101008083540402835291602001916134e0565b820191906000526020600020905b8154815290600101906020018083116134c357829003601f168201915b505050505090806003018054600181600116156101000203166002900480601f01602080910402602001604051908101604052809291908181526020018280546001816001161561010002031660029004801561357e5780601f106135535761010080835404028352916020019161357e565b820191906000526020600020905b81548152906001019060200180831161356157829003601f168201915b5050505050905085565b3373ffffffffffffffffffffffffffffffffffffffff16600760009054906101000a900473ffffffffffffffffffffffffffffffffffffffff1673ffffffffffffffffffffffffffffffffffffffff16148061362f57503373ffffffffffffffffffffffffffffffffffffffff1660008054906101000a900473ffffffffffffffffffffffffffffffffffffffff1673ffffffffffffffffffffffffffffffffffffffff16145b6136a1576040517f08c379a000000000000000000000000000000000000000000000000000000000815260040180806020018281038252601e8152602001807f4e6f742070726573616c652063726561746f72206f7220666163746f7279000081525060200191505060405180910390fd5b600073ffffffffffffffffffffffffffffffffffffffff168473ffffffffffffffffffffffffffffffffffffffff1614156136db57600080fd5b600073ffffffffffffffffffffffffffffffffffffffff168373ffffffffffffffffffffffffffffffffffffffff16141561371557600080fd5b600073ffffffffffffffffffffffffffffffffffffffff168173ffffffffffffffffffffffffffffffffffffffff16141561374f57600080fd5b83600760006101000a81548173ffffffffffffffffffffffffffffffffffffffff021916908373ffffffffffffffffffffffffffffffffffffffff16021790555082600560006101000a81548173ffffffffffffffffffffffffffffffffffffffff021916908373ffffffffffffffffffffffffffffffffffffffff16021790555081600660006101000a81548173ffffffffffffffffffffffffffffffffffffffff021916908373ffffffffffffffffffffffffffffffffffffffff16021790555080600860006101000a81548173ffffffffffffffffffffffffffffffffffffffff021916908373ffffffffffffffffffffffffffffffffffffffff16021790555050505050565b602e5481565b60285481565b3373ffffffffffffffffffffffffffffffffffffffff16600760009054906101000a900473ffffffffffffffffffffffffffffffffffffffff1673ffffffffffffffffffffffffffffffffffffffff16148061390e57503373ffffffffffffffffffffffffffffffffffffffff16600160009054906101000a900473ffffffffffffffffffffffffffffffffffffffff1673ffffffffffffffffffffffffffffffffffffffff16145b613980576040517f08c379a000000000000000000000000000000000000000000000000000000000815260040180806020018281038252601a8152602001807f4e6f742070726573616c652063726561746f72206f722064657600000000000081525060200191505060405180910390fd5b602960009054906101000a900460ff1661399957600080fd5b602960039054906101000a900460ff16156139b357600080fd5b62015180601254014210156139c757600080fd5b6000600560009054906101000a900473ffffffffffffffffffffffffffffffffffffffff1673ffffffffffffffffffffffffffffffffffffffff166370a08231306040518263ffffffff1660e01b8152600401808273ffffffffffffffffffffffffffffffffffffffff16815260200191505060206040518083038186803b158015613a5257600080fd5b505afa158015613a66573d6000803e3d6000fd5b505050506040513d6020811015613a7c57600080fd5b810190808051906020019092919050505090506000811115613b8a57600560009054906101000a900473ffffffffffffffffffffffffffffffffffffffff1673ffffffffffffffffffffffffffffffffffffffff1663a9059cbb600860009054906101000a900473ffffffffffffffffffffffffffffffffffffffff16836040518363ffffffff1660e01b8152600401808373ffffffffffffffffffffffffffffffffffffffff16815260200182815260200192505050602060405180830381600087803b158015613b4d57600080fd5b505af1158015613b61573d6000803e3d6000fd5b505050506040513d6020811015613b7757600080fd5b8101908080519060200190929190505050505b50565b60096020528060005260406000206000915090505481565b602d5481565b3373ffffffffffffffffffffffffffffffffffffffff1660008054906101000a900473ffffffffffffffffffffffffffffffffffffffff1673ffffffffffffffffffffffffffffffffffffffff161480613c5257503373ffffffffffffffffffffffffffffffffffffffff16600160009054906101000a900473ffffffffffffffffffffffffffffffffffffffff1673ffffffffffffffffffffffffffffffffffffffff16145b613c5b57600080fd5b8060268190555050565b600360009054906101000a900473ffffffffffffffffffffffffffffffffffffffff1681565b600160009054906101000a900473ffffffffffffffffffffffffffffffffffffffff1681565b60195481565b600860009054906101000a900473ffffffffffffffffffffffffffffffffffffffff1681565b60216020528060005260406000206000915090505481565b60255481565b3373ffffffffffffffffffffffffffffffffffffffff16600760009054906101000a900473ffffffffffffffffffffffffffffffffffffffff1673ffffffffffffffffffffffffffffffffffffffff161480613da257503373ffffffffffffffffffffffffffffffffffffffff1660008054906101000a900473ffffffffffffffffffffffffffffffffffffffff1673ffffffffffffffffffffffffffffffffffffffff16145b613e14576040517f08c379a000000000000000000000000000000000000000000000000000000000815260040180806020018281038252601e8152602001807f4e6f742070726573616c652063726561746f72206f7220666163746f7279000081525060200191505060405180910390fd5b80602960016101000a81548160ff02191690831515021790555050565b602960019054906101000a900460ff161580613e965750600a60003373ffffffffffffffffffffffffffffffffffffffff1673ffffffffffffffffffffffffffffffffffffffff16815260200190815260200160002060009054906101000a900460ff165b613f08576040517f08c379a00000000000000000000000000000000000000000000000000000000081526004018080602001828103825260178152602001807f41646472657373206e6f742077686974656c697374656400000000000000000081525060200191505060405180910390fd5b6000600960003373ffffffffffffffffffffffffffffffffffffffff1673ffffffffffffffffffffffffffffffffffffffff1681526020019081526020016000205411613fbd576040517f08c379a000000000000000000000000000000000000000000000000000000000815260040180806020018281038252600f8152602001807f4e6f7420616e20696e766573746f72000000000000000000000000000000000081525060200191505060405180910390fd5b600b60003373ffffffffffffffffffffffffffffffffffffffff1673ffffffffffffffffffffffffffffffffffffffff16815260200190815260200160002060009054906101000a900460ff161561407d576040517f08c379a000000000000000000000000000000000000000000000000000000000815260040180806020018281038252601b8152602001807f416c726561647920636c61696d6564206f7220726566756e646564000000000081525060200191505060405180910390fd5b602960039054906101000a900460ff1661427357601b54421015614109576040517f08c379a000000000000000000000000000000000000000000000000000000000815260040180806020018281038252600e8152602001807f4e6f7420796574206f70656e656400000000000000000000000000000000000081525060200191505060405180910390fd5b601c54421015614181576040517f08c379a000000000000000000000000000000000000000000000000000000000815260040180806020018281038252600e8152602001807f4e6f742079657420636c6f73656400000000000000000000000000000000000081525060200191505060405180910390fd5b6000601854116141f9576040517f08c379a000000000000000000000000000000000000000000000000000000000815260040180806020018281038252600b8152602001807f4e6f20736f66742063617000000000000000000000000000000000000000000081525060200191505060405180910390fd5b60185460135410614272576040517f08c379a00000000000000000000000000000000000000000000000000000000081526004018080602001828103825260108152602001807f536f66742063617020726561636865640000000000000000000000000000000081525060200191505060405180910390fd5b5b6001600b60003373ffffffffffffffffffffffffffffffffffffffff1673ffffffffffffffffffffffffffffffffffffffff16815260200190815260200160002060006101000a81548160ff0219169083151502179055506000600960003373ffffffffffffffffffffffffffffffffffffffff1673ffffffffffffffffffffffffffffffffffffffff16815260200190815260200160002054905060004790506000811161432157600080fd5b8082111561432d578091505b600082111561437e573373ffffffffffffffffffffffffffffffffffffffff166108fc839081150290604051600060405180830381858888f1935050505015801561437c573d6000803e3d6000fd5b505b5050565b60155481565b601b5481565b60225481565b3373ffffffffffffffffffffffffffffffffffffffff1660008054906101000a900473ffffffffffffffffffffffffffffffffffffffff1673ffffffffffffffffffffffffffffffffffffffff16148061443b57503373ffffffffffffffffffffffffffffffffffffffff16600160009054906101000a900473ffffffffffffffffffffffffffffffffffffffff1673ffffffffffffffffffffffffffffffffffffffff16145b61444457600080fd5b69021e19e0c9bab240000081101561445b57600080fd5b670de0b6b3a7640000810260248190555050565b602960009054906101000a900460ff161580156144da57503373ffffffffffffffffffffffffffffffffffffffff16600760009054906101000a900473ffffffffffffffffffffffffffffffffffffffff1673ffffffffffffffffffffffffffffffffffffffff1614155b801561453457503373ffffffffffffffffffffffffffffffffffffffff16600160009054906101000a900473ffffffffffffffffffffffffffffffffffffffff1673ffffffffffffffffffffffffffffffffffffffff1614155b1561453e57600080fd5b602960009054906101000a900460ff1680156145a857503373ffffffffffffffffffffffffffffffffffffffff16600160009054906101000a900473ffffffffffffffffffffffffffffffffffffffff1673ffffffffffffffffffffffffffffffffffffffff1614155b156145b257600080fd5b602960039054906101000a900460ff16156145cc57600080fd5b6001602960036101000a81548160ff0219169083151502179055506000600560009054906101000a900473ffffffffffffffffffffffffffffffffffffffff1673ffffffffffffffffffffffffffffffffffffffff166370a08231306040518263ffffffff1660e01b8152600401808273ffffffffffffffffffffffffffffffffffffffff16815260200191505060206040518083038186803b15801561467257600080fd5b505afa158015614686573d6000803e3d6000fd5b505050506040513d602081101561469c57600080fd5b8101908080519060200190929190505050905060008111156147aa57600560009054906101000a900473ffffffffffffffffffffffffffffffffffffffff1673ffffffffffffffffffffffffffffffffffffffff1663a9059cbb600760009054906101000a900473ffffffffffffffffffffffffffffffffffffffff16836040518363ffffffff1660e01b8152600401808373ffffffffffffffffffffffffffffffffffffffff16815260200182815260200192505050602060405180830381600087803b15801561476d57600080fd5b505af1158015614781573d6000803e3d6000fd5b505050506040513d602081101561479757600080fd5b8101908080519060200190929190505050505b50565b602a5481565b60135481565b602f5481565b600b6020528060005260406000206000915054906101000a900460ff1681565b3373ffffffffffffffffffffffffffffffffffffffff16600760009054906101000a900473ffffffffffffffffffffffffffffffffffffffff1673ffffffffffffffffffffffffffffffffffffffff16148061488657503373ffffffffffffffffffffffffffffffffffffffff1660008054906101000a900473ffffffffffffffffffffffffffffffffffffffff1673ffffffffffffffffffffffffffffffffffffffff16145b6148f8576040517f08c379a000000000000000000000000000000000000000000000000000000000815260040180806020018281038252601e8152602001807f4e6f742070726573616c652063726561746f72206f7220666163746f7279000081525060200191505060405180910390fd5b60008282905011602960016101000a81548160ff02191690831515021790555060005b828290508110156149b3576001600a600085858581811061493857fe5b9050602002013573ffffffffffffffffffffffffffffffffffffffff1673ffffffffffffffffffffffffffffffffffffffff1673ffffffffffffffffffffffffffffffffffffffff16815260200190815260200160002060006101000a81548160ff021916908315150217905550808060010191505061491b565b505050565b601e5481565b602960029054906101000a900460ff1681565b602960039054906101000a900460ff1615614a54576040517f08c379a00000000000000000000000000000000000000000000000000000000081526004018080602001828103825260098152602001807f43616e63656c6c6564000000000000000000000000000000000000000000000081525060200191505060405180910390fd5b600060135411614a6357600080fd5b602960009054906101000a900460ff1615614ae6576040517f08c379a00000000000000000000000000000000000000000000000000000000081526004018080602001828103825260178152602001807f4c697175696469747920616c726561647920616464656400000000000000000081525060200191505060405180910390fd5b602960019054906101000a900460ff161580614b4b5750600a60003373ffffffffffffffffffffffffffffffffffffffff1673ffffffffffffffffffffffffffffffffffffffff16815260200190815260200160002060009054906101000a900460ff165b80614ba35750600760009054906101000a900473ffffffffffffffffffffffffffffffffffffffff1673ffffffffffffffffffffffffffffffffffffffff163373ffffffffffffffffffffffffffffffffffffffff16145b614bf8576040517f08c379a0000000000000000000000000000000000000000000000000000000008152600401808060200182810382526026815260200180615daf6026913960400191505060405180910390fd5b614c15670de0b6b3a764000060175461595590919063ffffffff16565b60135410158015614c275750601e5442105b15614cf457600760009054906101000a900473ffffffffffffffffffffffffffffffffffffffff1673ffffffffffffffffffffffffffffffffffffffff163373ffffffffffffffffffffffffffffffffffffffff1614614cef576040517f08c379a00000000000000000000000000000000000000000000000000000000081526004018080602001828103825260138152602001807f4e6f742070726573616c652063726561746f720000000000000000000000000081525060200191505060405180910390fd5b614ef8565b601e544210614e8957600760009054906101000a900473ffffffffffffffffffffffffffffffffffffffff1673ffffffffffffffffffffffffffffffffffffffff163373ffffffffffffffffffffffffffffffffffffffff161480614d9857506000600960003373ffffffffffffffffffffffffffffffffffffffff1673ffffffffffffffffffffffffffffffffffffffff16815260200190815260200160002054115b614e0a576040517f08c379a000000000000000000000000000000000000000000000000000000000815260040180806020018281038252601f8152602001807f4e6f742070726573616c652063726561746f72206f7220696e766573746f720081525060200191505060405180910390fd5b6018546013541015614e84576040517f08c379a00000000000000000000000000000000000000000000000000000000081526004018080602001828103825260148152602001807f536f667420636170206e6f74207265616368656400000000000000000000000081525060200191505060405180910390fd5b614ef7565b6040517f08c379a000000000000000000000000000000000000000000000000000000000815260040180806020018281038252601d8152602001807f4c69717569646974792063616e6e6f742062652061646465642079657400000081525060200191505060405180910390fd5b5b6001602960006101000a81548160ff021916908315150217905550600060135490506000602960029054906101000a900460ff16614f80576000614f5a6064614f4c600c548661584690919063ffffffff16565b6158cc90919063ffffffff16565b9050600d54811180614f6e575082600d5410155b614f7a57600d54614f7c565b805b9150505b600081111561508457614f9c818361595590919063ffffffff16565b9150600160009054906101000a900473ffffffffffffffffffffffffffffffffffffffff1673ffffffffffffffffffffffffffffffffffffffff166108fc829081150290604051600060405180830381858888f19350505050158015615006573d6000803e3d6000fd5b5061501a818361595590919063ffffffff16565b915060008054906101000a900473ffffffffffffffffffffffffffffffffffffffff1673ffffffffffffffffffffffffffffffffffffffff166108fc829081150290604051600060405180830381858888f19350505050158015615082573d6000803e3d6000fd5b505b60006150ae60646150a06020548661584690919063ffffffff16565b6158cc90919063ffffffff16565b905060006150e1601d546150d3670de0b6b3a76400008561584690919063ffffffff16565b6158cc90919063ffffffff16565b90506000600460009054906101000a900473ffffffffffffffffffffffffffffffffffffffff1673ffffffffffffffffffffffffffffffffffffffff16635a2b0c746040518163ffffffff1660e01b815260040160206040518083038186803b15801561514d57600080fd5b505afa158015615161573d6000803e3d6000fd5b505050506040513d602081101561517757600080fd5b81019080805190602001909291905050509050600560009054906101000a900473ffffffffffffffffffffffffffffffffffffffff1673ffffffffffffffffffffffffffffffffffffffff1663095ea7b382846040518363ffffffff1660e01b8152600401808373ffffffffffffffffffffffffffffffffffffffff16815260200182815260200192505050602060405180830381600087803b15801561521d57600080fd5b505af1158015615231573d6000803e3d6000fd5b505050506040513d602081101561524757600080fd5b8101908080519060200190929190505050508073ffffffffffffffffffffffffffffffffffffffff1663f305d71984600560009054906101000a900473ffffffffffffffffffffffffffffffffffffffff1685600080600260009054906101000a900473ffffffffffffffffffffffffffffffffffffffff166152d5610384426157be90919063ffffffff16565b6040518863ffffffff1660e01b8152600401808773ffffffffffffffffffffffffffffffffffffffff1681526020018681526020018581526020018481526020018373ffffffffffffffffffffffffffffffffffffffff16815260200182815260200196505050505050506060604051808303818588803b15801561535957600080fd5b505af115801561536d573d6000803e3d6000fd5b50505050506040513d606081101561538457600080fd5b810190808051906020019092919080519060200190929190805190602001909291905050505050506153f56153cc670de0b6b3a764000060105461584690919063ffffffff16565b6153e7670de0b6b3a76400004761584690919063ffffffff16565b6158cc90919063ffffffff16565b6011819055506201518042016012819055505050505050565b3373ffffffffffffffffffffffffffffffffffffffff1660008054906101000a900473ffffffffffffffffffffffffffffffffffffffff1673ffffffffffffffffffffffffffffffffffffffff1614806154b557503373ffffffffffffffffffffffffffffffffffffffff16600160009054906101000a900473ffffffffffffffffffffffffffffffffffffffff1673ffffffffffffffffffffffffffffffffffffffff16145b6154be57600080fd5b80602960026101000a81548160ff02191690831515021790555050565b602960039054906101000a900460ff1681565b3373ffffffffffffffffffffffffffffffffffffffff1660008054906101000a900473ffffffffffffffffffffffffffffffffffffffff1673ffffffffffffffffffffffffffffffffffffffff16148061559557503373ffffffffffffffffffffffffffffffffffffffff16600160009054906101000a900473ffffffffffffffffffffffffffffffffffffffff1673ffffffffffffffffffffffffffffffffffffffff16145b61559e57600080fd5b60005b82829050811015615639576001603060008585858181106155be57fe5b9050602002013573ffffffffffffffffffffffffffffffffffffffff1673ffffffffffffffffffffffffffffffffffffffff1673ffffffffffffffffffffffffffffffffffffffff16815260200190815260200160002060006101000a81548160ff02191690831515021790555080806001019150506155a1565b505050565b60185481565b60245481565b60115481565b601a5481565b603060003373ffffffffffffffffffffffffffffffffffffffff1673ffffffffffffffffffffffffffffffffffffffff16815260200190815260200160002060009054906101000a900460ff16615715576040517f08c379a000000000000000000000000000000000000000000000000000000000815260040180806020018281038252601f8152602001807f41756469746f722041646472657373206e6f742077686974656c69737465640081525060200191505060405180910390fd5b8660316000018190555085603160010160006101000a81548160ff02191690831515021790555084603160010160016101000a81548160ff02191690831515021790555083836031600201919061576d929190615d11565b50818160316003019190615782929190615d11565b5050505050505050565b60235481565b600560009054906101000a900473ffffffffffffffffffffffffffffffffffffffff1681565b600e5481565b60008082840190508381101561583c576040517f08c379a000000000000000000000000000000000000000000000000000000000815260040180806020018281038252601b8152602001807f536166654d6174683a206164646974696f6e206f766572666c6f77000000000081525060200191505060405180910390fd5b8091505092915050565b60008083141561585957600090506158c6565b600082840290508284828161586a57fe5b04146158c1576040517f08c379a0000000000000000000000000000000000000000000000000000000008152600401808060200182810382526021815260200180615dd56021913960400191505060405180910390fd5b809150505b92915050565b6000808211615943576040517f08c379a000000000000000000000000000000000000000000000000000000000815260040180806020018281038252601a8152602001807f536166654d6174683a206469766973696f6e206279207a65726f00000000000081525060200191505060405180910390fd5b81838161594c57fe5b04905092915050565b6000828211156159cd576040517f08c379a000000000000000000000000000000000000000000000000000000000815260040180806020018281038252601e8152602001807f536166654d6174683a207375627472616374696f6e206f766572666c6f77000081525060200191505060405180910390fd5b818303905092915050565b600080600080600360009054906101000a900473ffffffffffffffffffffffffffffffffffffffff1673ffffffffffffffffffffffffffffffffffffffff166387cad0bf336040518263ffffffff1660e01b8152600401808273ffffffffffffffffffffffffffffffffffffffff16815260200191505060606040518083038186803b158015615a6757600080fd5b505afa158015615a7b573d6000803e3d6000fd5b505050506040513d6060811015615a9157600080fd5b810190808051906020019092919080519060200190929190805190602001909291905050508093508194508295505050506000600460009054906101000a900473ffffffffffffffffffffffffffffffffffffffff1673ffffffffffffffffffffffffffffffffffffffff16638d3af9a26040518163ffffffff1660e01b815260040160206040518083038186803b158015615b2c57600080fd5b505afa158015615b40573d6000803e3d6000fd5b505050506040513d6020811015615b5657600080fd5b810190808051906020019092919050505090506000600460009054906101000a900473ffffffffffffffffffffffffffffffffffffffff1673ffffffffffffffffffffffffffffffffffffffff1663c4086893336040518263ffffffff1660e01b8152600401808273ffffffffffffffffffffffffffffffffffffffff16815260200191505060206040518083038186803b158015615bf457600080fd5b505afa158015615c08573d6000803e3d6000fd5b505050506040513d6020811015615c1e57600080fd5b810190808051906020019092919050505090504282850111615c5057615c4d85826157be90919063ffffffff16565b90505b6027548110615cd5576000615c856064615c7760285460165461584690919063ffffffff16565b6158cc90919063ffffffff16565b9050615cc8615c9f8260165461595590919063ffffffff16565b615cba670de0b6b3a76400008b61584690919063ffffffff16565b6158cc90919063ffffffff16565b9650505050505050615d0c565b615d04601654615cf6670de0b6b3a76400008a61584690919063ffffffff16565b6158cc90919063ffffffff16565b955050505050505b919050565b828054600181600116156101000203166002900490600052602060002090601f016020900481019282601f10615d5257803560ff1916838001178555615d80565b82800160010185558215615d80579182015b82811115615d7f578235825591602001919060010190615d64565b5b509050615d8d9190615d91565b5090565b5b80821115615daa576000816000905550600101615d92565b509056fe4e6f742077686974656c6973746564206f72206e6f742070726573616c652063726561746f72536166654d6174683a206d756c7469706c69636174696f6e206f766572666c6f77a26469706673582212207aa82c8ebfd01fb44c1052796c0d96fba765c2e6f0b12688a1cba21bbe8c65c664736f6c634300060c0033608060405234801561001057600080fd5b50604051610df4380380610df48339818101604052608081101561003357600080fd5b8101908080519060200190929190805190602001909291908051906020019092919080519060200190929190505050838383834283116100be576040517f08c379a0000000000000000000000000000000000000000000000000000000008152600401808060200182810382526032815260200180610dc26032913960400191505060405180910390fd5b836000806101000a81548173ffffffffffffffffffffffffffffffffffffffff021916908373ffffffffffffffffffffffffffffffffffffffff16021790555081600160006101000a81548173ffffffffffffffffffffffffffffffffffffffff021916908373ffffffffffffffffffffffffffffffffffffffff1602179055508260038190555080600260006101000a81548173ffffffffffffffffffffffffffffffffffffffff021916908373ffffffffffffffffffffffffffffffffffffffff1602179055505050505050505050610c248061019e6000396000f3fe608060405234801561001057600080fd5b50600436106100625760003560e01c80631e9ac3c8146100675780632609854e1461007157806338af3eed146100a557806386d1a69f146100d9578063b91d4001146100e3578063fc0c546a14610101575b600080fd5b61006f610135565b005b6100796103e3565b604051808273ffffffffffffffffffffffffffffffffffffffff16815260200191505060405180910390f35b6100ad61040d565b604051808273ffffffffffffffffffffffffffffffffffffffff16815260200191505060405180910390f35b6100e1610437565b005b6100eb6106e5565b6040518082815260200191505060405180910390f35b6101096106ef565b604051808273ffffffffffffffffffffffffffffffffffffffff16815260200191505060405180910390f35b600354421015610190576040517f08c379a0000000000000000000000000000000000000000000000000000000008152600401808060200182810382526032815260200180610b4a6032913960400191505060405180910390fd5b600160009054906101000a900473ffffffffffffffffffffffffffffffffffffffff1673ffffffffffffffffffffffffffffffffffffffff163373ffffffffffffffffffffffffffffffffffffffff1614610253576040517f08c379a000000000000000000000000000000000000000000000000000000000815260040180806020018281038252601c8152602001807f4f6e6c792062656e65666963696172792063616e20617070726f76650000000081525060200191505060405180910390fd5b60008060009054906101000a900473ffffffffffffffffffffffffffffffffffffffff1673ffffffffffffffffffffffffffffffffffffffff166370a08231306040518263ffffffff1660e01b8152600401808273ffffffffffffffffffffffffffffffffffffffff16815260200191505060206040518083038186803b1580156102dd57600080fd5b505afa1580156102f1573d6000803e3d6000fd5b505050506040513d602081101561030757600080fd5b8101908080519060200190929190505050905060008111610373576040517f08c379a0000000000000000000000000000000000000000000000000000000008152600401808060200182810382526023815260200180610bcc6023913960400191505060405180910390fd5b6103e0600260009054906101000a900473ffffffffffffffffffffffffffffffffffffffff168260008054906101000a900473ffffffffffffffffffffffffffffffffffffffff1673ffffffffffffffffffffffffffffffffffffffff166107189092919063ffffffff16565b50565b6000600260009054906101000a900473ffffffffffffffffffffffffffffffffffffffff16905090565b6000600160009054906101000a900473ffffffffffffffffffffffffffffffffffffffff16905090565b600354421015610492576040517f08c379a0000000000000000000000000000000000000000000000000000000008152600401808060200182810382526032815260200180610b4a6032913960400191505060405180910390fd5b600160009054906101000a900473ffffffffffffffffffffffffffffffffffffffff1673ffffffffffffffffffffffffffffffffffffffff163373ffffffffffffffffffffffffffffffffffffffff1614610555576040517f08c379a000000000000000000000000000000000000000000000000000000000815260040180806020018281038252601c8152602001807f4f6e6c792062656e65666963696172792063616e20617070726f76650000000081525060200191505060405180910390fd5b60008060009054906101000a900473ffffffffffffffffffffffffffffffffffffffff1673ffffffffffffffffffffffffffffffffffffffff166370a08231306040518263ffffffff1660e01b8152600401808273ffffffffffffffffffffffffffffffffffffffff16815260200191505060206040518083038186803b1580156105df57600080fd5b505afa1580156105f3573d6000803e3d6000fd5b505050506040513d602081101561060957600080fd5b8101908080519060200190929190505050905060008111610675576040517f08c379a0000000000000000000000000000000000000000000000000000000008152600401808060200182810382526023815260200180610bcc6023913960400191505060405180910390fd5b6106e2600160009054906101000a900473ffffffffffffffffffffffffffffffffffffffff168260008054906101000a900473ffffffffffffffffffffffffffffffffffffffff1673ffffffffffffffffffffffffffffffffffffffff166107189092919063ffffffff16565b50565b6000600354905090565b60008060009054906101000a900473ffffffffffffffffffffffffffffffffffffffff16905090565b6107b58363a9059cbb60e01b8484604051602401808373ffffffffffffffffffffffffffffffffffffffff16815260200182815260200192505050604051602081830303815290604052907bffffffffffffffffffffffffffffffffffffffffffffffffffffffff19166020820180517bffffffffffffffffffffffffffffffffffffffffffffffffffffffff83818316178352505050506107ba565b505050565b606061081c826040518060400160405280602081526020017f5361666545524332303a206c6f772d6c6576656c2063616c6c206661696c65648152508573ffffffffffffffffffffffffffffffffffffffff166108a99092919063ffffffff16565b90506000815111156108a45780806020019051602081101561083d57600080fd5b81019080805190602001909291905050506108a3576040517f08c379a000000000000000000000000000000000000000000000000000000000815260040180806020018281038252602a815260200180610ba2602a913960400191505060405180910390fd5b5b505050565b60606108b884846000856108c1565b90509392505050565b60608247101561091c576040517f08c379a0000000000000000000000000000000000000000000000000000000008152600401808060200182810382526026815260200180610b7c6026913960400191505060405180910390fd5b61092585610a6a565b610997576040517f08c379a000000000000000000000000000000000000000000000000000000000815260040180806020018281038252601d8152602001807f416464726573733a2063616c6c20746f206e6f6e2d636f6e747261637400000081525060200191505060405180910390fd5b600060608673ffffffffffffffffffffffffffffffffffffffff1685876040518082805190602001908083835b602083106109e757805182526020820191506020810190506020830392506109c4565b6001836020036101000a03801982511681845116808217855250505050505090500191505060006040518083038185875af1925050503d8060008114610a49576040519150601f19603f3d011682016040523d82523d6000602084013e610a4e565b606091505b5091509150610a5e828286610a7d565b92505050949350505050565b600080823b905060008111915050919050565b60608315610a8d57829050610b42565b600083511115610aa05782518084602001fd5b816040517f08c379a00000000000000000000000000000000000000000000000000000000081526004018080602001828103825283818151815260200191508051906020019080838360005b83811015610b07578082015181840152602081019050610aec565b50505050905090810190601f168015610b345780820380516001836020036101000a031916815260200191505b509250505060405180910390fd5b939250505056fe546f6b656e54696d656c6f636b3a2063757272656e742074696d65206973206265666f72652072656c656173652074696d65416464726573733a20696e73756666696369656e742062616c616e636520666f722063616c6c5361666545524332303a204552433230206f7065726174696f6e20646964206e6f742073756363656564546f6b656e54696d656c6f636b3a206e6f20746f6b656e7320746f2072656c65617365a2646970667358221220228c5d4101396d24274b421c44bd8b948e978b9ba4b18c72ab5c104b0aec9e3a64736f6c634300060c0033546f6b656e54696d656c6f636b3a2072656c656173652074696d65206973206265666f72652063757272656e742074696d65a264697066735822122086851911fbe3db5307b2258bf5a4d1a1f2893c2be62deaa0b750eca44b92568f64736f6c634300060c0033",
  "immutableReferences": {
    "1759": [
      {
        "length": 32,
        "start": 528
      },
      {
        "length": 32,
        "start": 561
      },
      {
        "length": 32,
        "start": 723
      },
      {
        "length": 32,
        "start": 885
      },
      {
        "length": 32,
        "start": 1111
      },
      {
        "length": 32,
        "start": 1624
      },
      {
        "length": 32,
        "start": 2016
      },
      {
        "length": 32,
        "start": 2303
      },
      {
        "length": 32,
        "start": 2583
      },
      {
        "length": 32,
        "start": 2792
      },
      {
        "length": 32,
        "start": 3047
      },
      {
        "length": 32,
        "start": 3255
      },
      {
        "length": 32,
        "start": 3417
      },
      {
        "length": 32,
        "start": 3784
      },
      {
        "length": 32,
        "start": 4048
      },
      {
        "length": 32,
        "start": 4539
      },
      {
        "length": 32,
        "start": 4705
      },
      {
        "length": 32,
        "start": 4916
      },
      {
        "length": 32,
        "start": 5089
      },
      {
        "length": 32,
        "start": 6752
      }
    ]
  },
  "source": "// SPDX-License-Identifier: MIT\npragma solidity 0.6.12;\npragma experimental ABIEncoderV2;\n\nimport \"@openzeppelin/contracts/token/ERC20/IERC20.sol\";\nimport \"@openzeppelin/contracts/utils/ReentrancyGuard.sol\";\nimport \"./XDaiStarterPresale.sol\";\nimport \"./XDaiStarterInfo.sol\";\nimport \"./XDaiStarterLiquidityLock.sol\";\nimport \"./XDSToken.sol\";\nimport \"./XDaiStarterStaking.sol\";\n\ninterface IHoneySwapV2Factory {\n    function getPair(address tokenA, address tokenB)\n        external\n        view\n        returns (address pair);\n}\n\ncontract XDaiStarterFactory is ReentrancyGuard {\n    using SafeMath for uint256;\n\n    event PresaleCreated(bytes32 title, uint256 xdpId, address creator);\n    event Received(address indexed from, uint256 amount);\n\n    XDaiStarterInfo public immutable XDP;\n    XDSToken public xdpToken;\n\n    XDaiStarterStaking public xdpStakingPool;\n\n    mapping(address => uint256) public lastClaimedTimestamp;\n\n    constructor(\n        address _xdpInfoAddress,\n        address _xdpToken,\n        address _xdpStakingPool\n    ) public {\n        XDP = XDaiStarterInfo(_xdpInfoAddress);\n        xdpToken = XDSToken(_xdpToken);\n        xdpStakingPool = XDaiStarterStaking(_xdpStakingPool);\n    }\n\n    receive() external payable {\n        emit Received(msg.sender, msg.value);\n    }\n\n    struct PresaleInfo {\n        address tokenAddress;\n        address unsoldTokensDumpAddress;\n        address[] whitelistedAddresses;\n        uint256 tokenPriceInWei;\n        uint256 hardCapInWei;\n        uint256 softCapInWei;\n        uint256 maxInvestInWei;\n        uint256 minInvestInWei;\n        uint256 openTime;\n        uint256 closeTime;\n    }\n\n    struct PresaleHoneySwapInfo {\n        uint256 listingPriceInWei;\n        uint256 liquidityAddingTime;\n        uint256 lpTokensLockDurationInDays;\n        uint256 liquidityPercentageAllocation;\n    }\n\n    struct PresaleStringInfo {\n        bytes32 saleTitle;\n        bytes32 linkTelegram;\n        bytes32 linkGithub;\n        bytes32 linkTwitter;\n        bytes32 linkWebsite;\n        bytes32 linkLogo;\n    }\n\n    // copied from https://github.com/honeyswap/honey-swap-periphery/blob/master/contracts/libraries/HoneyLibrary.sol\n    // calculates the CREATE2 address for a pair without making any external calls\n    function honeyV2LibPairFor(\n        address factory,\n        address tokenA,\n        address tokenB\n    ) internal pure returns (address pair) {\n        (address token0, address token1) =\n            tokenA < tokenB ? (tokenA, tokenB) : (tokenB, tokenA);\n        pair = address(\n            uint256(\n                keccak256(\n                    abi.encodePacked(\n                        hex\"ff\",\n                        factory,\n                        keccak256(abi.encodePacked(token0, token1)),\n                        hex\"d0d4c4cd0848c93cb4fd1f498d7013ee6bfb25783ea21593d5834f5d250ece66\" // init code hash\n                    )\n                )\n            )\n        );\n    }\n\n    function initializePresale(\n        XDaiStarterPresale _presale,\n        uint256 _totalTokens,\n        uint256 _finalTokenPriceInWei,\n        PresaleInfo calldata _info,\n        PresaleHoneySwapInfo calldata _honeyInfo,\n        PresaleStringInfo calldata _stringInfo\n    ) internal {\n        _presale.setAddressInfo(\n            msg.sender,\n            _info.tokenAddress,\n            address(xdpToken),\n            _info.unsoldTokensDumpAddress\n        );\n        _presale.setGeneralInfo(\n            _totalTokens,\n            _finalTokenPriceInWei,\n            _info.hardCapInWei,\n            _info.softCapInWei,\n            _info.maxInvestInWei,\n            _info.minInvestInWei,\n            _info.openTime,\n            _info.closeTime\n        );\n        _presale.setHoneySwapInfo(\n            _honeyInfo.listingPriceInWei,\n            _honeyInfo.liquidityAddingTime,\n            _honeyInfo.lpTokensLockDurationInDays,\n            _honeyInfo.liquidityPercentageAllocation\n        );\n        _presale.setStringInfo(\n            _stringInfo.saleTitle,\n            _stringInfo.linkTelegram,\n            _stringInfo.linkGithub,\n            _stringInfo.linkTwitter,\n            _stringInfo.linkWebsite,\n            _stringInfo.linkLogo\n        );\n\n        _presale.addWhitelistedAddresses(_info.whitelistedAddresses);\n        _presale.setMinInvestorXDPBalance(XDP.getMinInvestorXDPBalance());\n    }\n\n    function createPresale(\n        PresaleInfo calldata _info,\n        PresaleHoneySwapInfo calldata _honeyInfo,\n        PresaleStringInfo calldata _stringInfo\n    ) external {\n        IERC20 token = IERC20(_info.tokenAddress);\n\n        XDaiStarterPresale presale =\n            new XDaiStarterPresale(\n                address(this),\n                address(XDP),\n                XDP.owner(),\n                XDP.getMinRewardQualifyBal(),\n                XDP.getMinRewardQualifyPercentage()\n            );\n        IHoneySwapV2Factory honeySwapFactory =\n            IHoneySwapV2Factory(XDP.getHoneySwapFactory());\n\n        uint256 maxBnbPoolTokenAmount =\n            _info.hardCapInWei.mul(_honeyInfo.liquidityPercentageAllocation).div(\n                100\n            );\n        uint256 maxLiqPoolTokenAmount =\n            maxBnbPoolTokenAmount.mul(1e18).div(_honeyInfo.listingPriceInWei);\n\n        uint256 maxTokensToBeSold =\n            _info.hardCapInWei.mul(1e18).div(_info.tokenPriceInWei);\n        uint256 requiredTokenAmount =\n            maxLiqPoolTokenAmount.add(maxTokensToBeSold);\n        token.transferFrom(msg.sender, address(presale), requiredTokenAmount);\n\n        uint256 presaleGrantId;\n        if (\n            xdpToken.balanceOf(address(this)) >= XDP.getPresaleGrantAmount()\n        ) {\n            // locked incubator bonus XDP tokens if presale succeeds\n            XDaiStarterLiquidityLock incubatorLock =\n                new XDaiStarterLiquidityLock(\n                    xdpToken,\n                    _honeyInfo.liquidityAddingTime + 30 days,\n                    XDP.getIncubatorMsigAddress(),\n                    msg.sender\n                );\n            xdpToken.transfer(\n                address(incubatorLock),\n                XDP.getPresaleGrantAmount()\n            );\n            presaleGrantId = XDP.addPresaleGrantAddress(\n                address(incubatorLock)\n            );\n        }\n\n        initializePresale(\n            presale,\n            maxTokensToBeSold,\n            _info.tokenPriceInWei,\n            _info,\n            _honeyInfo,\n            _stringInfo\n        );\n\n        address pairAddress =\n            honeyV2LibPairFor(\n                address(honeySwapFactory),\n                address(token),\n                XDP.getWBNB()\n            );\n        XDaiStarterLiquidityLock liquidityLock =\n            new XDaiStarterLiquidityLock(\n                IERC20(pairAddress),\n                _honeyInfo.liquidityAddingTime +\n                    (_honeyInfo.lpTokensLockDurationInDays * 1 days),\n                msg.sender,\n                address(0)\n            );\n\n        uint256 xdpId = XDP.addPresaleAddress(address(presale));\n        presale.setXdpInfo(\n            address(liquidityLock),\n            XDP.getDevFeePercentage(),\n            XDP.getMinDevFeeInWei(),\n            xdpId,\n            presaleGrantId,\n            address(xdpStakingPool)\n        );\n\n        emit PresaleCreated(_stringInfo.saleTitle, xdpId, msg.sender);\n    }\n\n    function claimHodlerFund() external nonReentrant {\n        require(address(this).balance > 0, \"No rewards to claim\");\n        require(\n            lastClaimedTimestamp[msg.sender] + XDP.getMinClaimTime() <=\n                block.timestamp,\n            \"Invalid Claim Time\"\n        );\n\n        uint256 balance;\n        uint256 lastStakedTimestamp;\n        uint256 lastUnstakedTimestamp;\n        (balance, lastStakedTimestamp, lastUnstakedTimestamp) = xdpStakingPool\n            .accountInfos(msg.sender);\n        uint256 minStakeTime = XDP.getMinStakeTime();\n        uint256 totalHodlerBalance = XDP.getLockedBalance(msg.sender);\n\n        if (lastStakedTimestamp + minStakeTime <= block.timestamp) {\n            totalHodlerBalance = totalHodlerBalance.add(balance);\n        }\n\n        require(\n            totalHodlerBalance >= XDP.getMinRewardQualifyBal() &&\n                totalHodlerBalance <= XDP.getMaxRewardQualifyBal(),\n            \"Do not qualify for rewards\"\n        );\n        lastClaimedTimestamp[msg.sender] = block.timestamp;\n        msg.sender.transfer(\n            totalHodlerBalance.div(xdpToken.totalSupply()).mul(\n                address(this).balance\n            )\n        );\n    }\n}",
  "sourcePath": "/Users/macuser/Documents/Projects/Programming/xDaiStarterParent/xDaiStarter/contracts/XDaiStarterFactory.sol",
  "compiler": {
    "name": "solc",
    "version": "0.6.12+commit.27d51765.Emscripten.clang"
  },
  "schemaVersion": "3.3.4",
  "updatedAt": "2021-04-20T06:25:46.450Z",
  "devdoc": {
    "kind": "dev",
    "methods": {},
    "version": 1
  },
  "userdoc": {
    "kind": "user",
    "methods": {},
    "version": 1
  }
}