{
  "contractName": "XDaiStarterStaking",
  "abi": [
    {
      "inputs": [
        {
          "internalType": "address",
          "name": "_xdpToken",
          "type": "address"
        },
        {
          "internalType": "address",
          "name": "_xDaiStarterInfo",
          "type": "address"
        }
      ],
      "stateMutability": "nonpayable",
      "type": "constructor"
    },
    {
      "anonymous": false,
      "inputs": [
        {
          "indexed": true,
          "internalType": "address",
          "name": "from",
          "type": "address"
        },
        {
          "indexed": false,
          "internalType": "uint256",
          "name": "amount",
          "type": "uint256"
        }
      ],
      "name": "Staked",
      "type": "event"
    },
    {
      "anonymous": false,
      "inputs": [
        {
          "indexed": true,
          "internalType": "address",
          "name": "from",
          "type": "address"
        },
        {
          "indexed": false,
          "internalType": "uint256",
          "name": "amount",
          "type": "uint256"
        }
      ],
      "name": "Unstaked",
      "type": "event"
    },
    {
      "inputs": [
        {
          "internalType": "address",
          "name": "",
          "type": "address"
        }
      ],
      "name": "accountInfos",
      "outputs": [
        {
          "internalType": "uint256",
          "name": "balance",
          "type": "uint256"
        },
        {
          "internalType": "uint256",
          "name": "lastStakedTimestamp",
          "type": "uint256"
        },
        {
          "internalType": "uint256",
          "name": "lastUnstakedTimestamp",
          "type": "uint256"
        }
      ],
      "stateMutability": "view",
      "type": "function"
    },
    {
      "inputs": [],
      "name": "xDaiStarterInfo",
      "outputs": [
        {
          "internalType": "contract XDaiStarterInfo",
          "name": "",
          "type": "address"
        }
      ],
      "stateMutability": "view",
      "type": "function"
    },
    {
      "inputs": [],
      "name": "xdpToken",
      "outputs": [
        {
          "internalType": "contract XDPToken",
          "name": "",
          "type": "address"
        }
      ],
      "stateMutability": "view",
      "type": "function"
    },
    {
      "inputs": [
        {
          "internalType": "uint256",
          "name": "_amount",
          "type": "uint256"
        }
      ],
      "name": "stake",
      "outputs": [],
      "stateMutability": "nonpayable",
      "type": "function"
    },
    {
      "inputs": [
        {
          "internalType": "uint256",
          "name": "_amount",
          "type": "uint256"
        },
        {
          "internalType": "uint256",
          "name": "_burnFeePercent",
          "type": "uint256"
        }
      ],
      "name": "unstake",
      "outputs": [],
      "stateMutability": "nonpayable",
      "type": "function"
    }
  ],
  "bytecode": "0x60806040523480156200001157600080fd5b5060405162001274380380620012748339818101604052810190620000379190620000e0565b600160008190555081600160006101000a81548173ffffffffffffffffffffffffffffffffffffffff021916908373ffffffffffffffffffffffffffffffffffffffff16021790555080600260006101000a81548173ffffffffffffffffffffffffffffffffffffffff021916908373ffffffffffffffffffffffffffffffffffffffff16021790555050506200016f565b600081519050620000da8162000155565b92915050565b60008060408385031215620000f457600080fd5b60006200010485828601620000c9565b92505060206200011785828601620000c9565b9150509250929050565b60006200012e8262000135565b9050919050565b600073ffffffffffffffffffffffffffffffffffffffff82169050919050565b620001608162000121565b81146200016c57600080fd5b50565b6110f5806200017f6000396000f3fe608060405234801561001057600080fd5b50600436106100575760003560e01c80633ad49c7b1461005c57806378d7be731461007a57806387cad0bf146100985780639e2c8a5b146100ca578063a694fc3a146100e6575b600080fd5b610064610102565b6040516100719190610e36565b60405180910390f35b610082610128565b60405161008f9190610e1b565b60405180910390f35b6100b260048036038101906100ad9190610a26565b61014e565b6040516100c193929190610f6c565b60405180910390f35b6100e460048036038101906100df9190610aca565b610178565b005b61010060048036038101906100fb9190610a78565b6105b1565b005b600260009054906101000a900473ffffffffffffffffffffffffffffffffffffffff1681565b600160009054906101000a900473ffffffffffffffffffffffffffffffffffffffff1681565b60036020528060005260406000206000915090508060000154908060010154908060020154905083565b600260005414156101be576040517f08c379a00000000000000000000000000000000000000000000000000000000081526004016101b590610f11565b60405180910390fd5b60026000819055506000600360003373ffffffffffffffffffffffffffffffffffffffff1673ffffffffffffffffffffffffffffffffffffffff16815260200190815260200160002090506000600260009054906101000a900473ffffffffffffffffffffffffffffffffffffffff1673ffffffffffffffffffffffffffffffffffffffff16634810b4056040518163ffffffff1660e01b815260040160206040518083038186803b15801561027357600080fd5b505afa158015610287573d6000803e3d6000fd5b505050506040513d601f19601f820116820180604052508101906102ab9190610aa1565b9050428183600201540111156102f6576040517f08c379a00000000000000000000000000000000000000000000000000000000081526004016102ed90610e91565b60405180910390fd5b600082600001541161033d576040517f08c379a000000000000000000000000000000000000000000000000000000000815260040161033490610f31565b60405180910390fd5b60008411610380576040517f08c379a000000000000000000000000000000000000000000000000000000000815260040161037790610e51565b60405180910390fd5b838260000154101561039457816000015493505b6103ab8483600001546108bd90919063ffffffff16565b826000018190555042826002018190555060006103d1848661090d90919063ffffffff16565b905060008111156104a4576103ef81866108bd90919063ffffffff16565b9450600160009054906101000a900473ffffffffffffffffffffffffffffffffffffffff1673ffffffffffffffffffffffffffffffffffffffff1663a9059cbb61dead836040518363ffffffff1660e01b8152600401610450929190610df2565b602060405180830381600087803b15801561046a57600080fd5b505af115801561047e573d6000803e3d6000fd5b505050506040513d601f19601f820116820180604052508101906104a29190610a4f565b505b600160009054906101000a900473ffffffffffffffffffffffffffffffffffffffff1673ffffffffffffffffffffffffffffffffffffffff1663a9059cbb33876040518363ffffffff1660e01b8152600401610501929190610dc9565b602060405180830381600087803b15801561051b57600080fd5b505af115801561052f573d6000803e3d6000fd5b505050506040513d601f19601f820116820180604052508101906105539190610a4f565b503373ffffffffffffffffffffffffffffffffffffffff167f0f5bb82176feb1b5e747e28471aa92156a04d9f3ab9f45f28e2d704232b93f758660405161059a9190610f51565b60405180910390a250505060016000819055505050565b600260005414156105f7576040517f08c379a00000000000000000000000000000000000000000000000000000000081526004016105ee90610f11565b60405180910390fd5b600260008190555060008111610642576040517f08c379a000000000000000000000000000000000000000000000000000000000815260040161063990610e51565b60405180910390fd5b80600160009054906101000a900473ffffffffffffffffffffffffffffffffffffffff1673ffffffffffffffffffffffffffffffffffffffff166370a08231336040518263ffffffff1660e01b815260040161069e9190610d77565b60206040518083038186803b1580156106b657600080fd5b505afa1580156106ca573d6000803e3d6000fd5b505050506040513d601f19601f820116820180604052508101906106ee9190610aa1565b101561072f576040517f08c379a000000000000000000000000000000000000000000000000000000000815260040161072690610ef1565b60405180910390fd5b6000600360003373ffffffffffffffffffffffffffffffffffffffff1673ffffffffffffffffffffffffffffffffffffffff1681526020019081526020016000209050600160009054906101000a900473ffffffffffffffffffffffffffffffffffffffff1673ffffffffffffffffffffffffffffffffffffffff166323b872dd3330856040518463ffffffff1660e01b81526004016107d193929190610d92565b602060405180830381600087803b1580156107eb57600080fd5b505af11580156107ff573d6000803e3d6000fd5b505050506040513d601f19601f820116820180604052508101906108239190610a4f565b5061083b82826000015461097d90919063ffffffff16565b8160000181905550428160010181905550600081600201541415610863574281600201819055505b3373ffffffffffffffffffffffffffffffffffffffff167f9e71bc8eea02a63969f509818f2dafb9254532904319f9dbda79b67bd34a5f3d836040516108a99190610f51565b60405180910390a250600160008190555050565b600082821115610902576040517f08c379a00000000000000000000000000000000000000000000000000000000081526004016108f990610eb1565b60405180910390fd5b818303905092915050565b6000808314156109205760009050610977565b600082840290508284828161093157fe5b0414610972576040517f08c379a000000000000000000000000000000000000000000000000000000000815260040161096990610ed1565b60405180910390fd5b809150505b92915050565b6000808284019050838110156109c8576040517f08c379a00000000000000000000000000000000000000000000000000000000081526004016109bf90610e71565b60405180910390fd5b8091505092915050565b6000813590506109e18161107a565b92915050565b6000815190506109f681611091565b92915050565b600081359050610a0b816110a8565b92915050565b600081519050610a20816110a8565b92915050565b600060208284031215610a3857600080fd5b6000610a46848285016109d2565b91505092915050565b600060208284031215610a6157600080fd5b6000610a6f848285016109e7565b91505092915050565b600060208284031215610a8a57600080fd5b6000610a98848285016109fc565b91505092915050565b600060208284031215610ab357600080fd5b6000610ac184828501610a11565b91505092915050565b60008060408385031215610add57600080fd5b6000610aeb858286016109fc565b9250506020610afc858286016109fc565b9150509250929050565b610b0f81610ffc565b82525050565b610b1e81610fb4565b82525050565b610b2d8161100e565b82525050565b610b3c81611032565b82525050565b6000610b4f600e83610fa3565b91507f496e76616c696420616d6f756e740000000000000000000000000000000000006000830152602082019050919050565b6000610b8f601b83610fa3565b91507f536166654d6174683a206164646974696f6e206f766572666c6f7700000000006000830152602082019050919050565b6000610bcf601483610fa3565b91507f496e76616c696420756e7374616b652074696d650000000000000000000000006000830152602082019050919050565b6000610c0f601e83610fa3565b91507f536166654d6174683a207375627472616374696f6e206f766572666c6f7700006000830152602082019050919050565b6000610c4f602183610fa3565b91507f536166654d6174683a206d756c7469706c69636174696f6e206f766572666c6f60008301527f77000000000000000000000000000000000000000000000000000000000000006020830152604082019050919050565b6000610cb5600f83610fa3565b91507f496e76616c69642062616c616e636500000000000000000000000000000000006000830152602082019050919050565b6000610cf5601f83610fa3565b91507f5265656e7472616e637947756172643a207265656e7472616e742063616c6c006000830152602082019050919050565b6000610d35601283610fa3565b91507f4e6f7468696e6720746f20756e7374616b6500000000000000000000000000006000830152602082019050919050565b610d7181610ff2565b82525050565b6000602082019050610d8c6000830184610b06565b92915050565b6000606082019050610da76000830186610b06565b610db46020830185610b15565b610dc16040830184610d68565b949350505050565b6000604082019050610dde6000830185610b06565b610deb6020830184610d68565b9392505050565b6000604082019050610e076000830185610b15565b610e146020830184610d68565b9392505050565b6000602082019050610e306000830184610b24565b92915050565b6000602082019050610e4b6000830184610b33565b92915050565b60006020820190508181036000830152610e6a81610b42565b9050919050565b60006020820190508181036000830152610e8a81610b82565b9050919050565b60006020820190508181036000830152610eaa81610bc2565b9050919050565b60006020820190508181036000830152610eca81610c02565b9050919050565b60006020820190508181036000830152610eea81610c42565b9050919050565b60006020820190508181036000830152610f0a81610ca8565b9050919050565b60006020820190508181036000830152610f2a81610ce8565b9050919050565b60006020820190508181036000830152610f4a81610d28565b9050919050565b6000602082019050610f666000830184610d68565b92915050565b6000606082019050610f816000830186610d68565b610f8e6020830185610d68565b610f9b6040830184610d68565b949350505050565b600082825260208201905092915050565b6000610fbf82610fd2565b9050919050565b60008115159050919050565b600073ffffffffffffffffffffffffffffffffffffffff82169050919050565b6000819050919050565b600061100782611056565b9050919050565b600061101982611020565b9050919050565b600061102b82610fd2565b9050919050565b600061103d82611044565b9050919050565b600061104f82610fd2565b9050919050565b600061106182611068565b9050919050565b600061107382610fd2565b9050919050565b61108381610fb4565b811461108e57600080fd5b50565b61109a81610fc6565b81146110a557600080fd5b50565b6110b181610ff2565b81146110bc57600080fd5b5056fea2646970667358221220f36236d0a066923e37651f8c50dc505da67800d5b535a016c951c00b34532a9064736f6c634300060c0033",
  "immutableReferences": {},
  "source": "// SPDX-License-Identifier: MIT\npragma solidity 0.6.12;\npragma experimental ABIEncoderV2;\n\nimport \"@openzeppelin/contracts/token/ERC20/SafeERC20.sol\";\nimport \"@openzeppelin/contracts/math/SafeMath.sol\";\nimport \"@openzeppelin/contracts/utils/ReentrancyGuard.sol\";\nimport \"@openzeppelin/contracts/utils/Address.sol\";\n\nimport \"./XDPToken.sol\";\nimport \"./XDaiStarterInfo.sol\";\n\ncontract XDaiStarterStaking is ReentrancyGuard {\n    using SafeMath for uint256;\n    using Address for address;\n    using SafeERC20 for IERC20;\n\n    XDPToken public xdpToken;\n    XDaiStarterInfo public xDaiStarterInfo;\n\n    event Staked(address indexed from, uint256 amount);\n    event Unstaked(address indexed from, uint256 amount);\n\n    struct AccountInfo {\n        uint256 balance;\n        uint256 lastStakedTimestamp;\n        uint256 lastUnstakedTimestamp;\n    }\n    mapping(address => AccountInfo) public accountInfos;\n\n    constructor(address _xdpToken, address _xDaiStarterInfo) public {\n        xdpToken = XDPToken(_xdpToken);\n        xDaiStarterInfo = XDaiStarterInfo(_xDaiStarterInfo);\n    }\n\n    function stake(uint256 _amount) public nonReentrant {\n        require(_amount > 0, \"Invalid amount\");\n        require(xdpToken.balanceOf(msg.sender) >= _amount, \"Invalid balance\");\n\n        AccountInfo storage account = accountInfos[msg.sender];\n        xdpToken.transferFrom(msg.sender, address(this), _amount);\n        account.balance = account.balance.add(_amount);\n        account.lastStakedTimestamp = block.timestamp;\n        if (account.lastUnstakedTimestamp == 0) {\n            account.lastUnstakedTimestamp = block.timestamp;\n        }\n        emit Staked(msg.sender, _amount);\n    }\n\n    function unstake(uint256 _amount, uint256 _burnFeePercent)\n        external\n        nonReentrant\n    {\n        AccountInfo storage account = accountInfos[msg.sender];\n        uint256 minUnstakeTime = xDaiStarterInfo.getMinUnstakeTime();\n        require(\n            account.lastUnstakedTimestamp + minUnstakeTime <= block.timestamp,\n            \"Invalid unstake time\"\n        );\n        require(account.balance > 0, \"Nothing to unstake\");\n        require(_amount > 0, \"Invalid amount\");\n        if (account.balance < _amount) {\n            _amount = account.balance;\n        }\n        account.balance = account.balance.sub(_amount);\n        account.lastUnstakedTimestamp = block.timestamp;\n\n        uint256 burnAmount = _amount.mul(_burnFeePercent);\n        if (burnAmount > 0) {\n            _amount = _amount.sub(burnAmount);\n            xdpToken.transfer(\n                address(0x000000000000000000000000000000000000dEaD),\n                burnAmount\n            );\n        }\n\n        xdpToken.transfer(msg.sender, _amount);\n        emit Unstaked(msg.sender, _amount);\n    }\n}\n",
  "sourcePath": "/Users/macuser/Documents/Projects/Programming/xDaiStarterParent/xDaiStarter/contracts/XDaiStarterStaking.sol",
  "compiler": {
    "name": "solc",
    "version": "0.6.12+commit.27d51765.Emscripten.clang"
  },
  "schemaVersion": "3.3.4",
  "updatedAt": "2021-04-24T02:43:26.718Z",
  "devdoc": {
    "kind": "dev",
    "methods": {},
    "version": 1
  },
  "userdoc": {
    "kind": "user",
    "methods": {},
    "version": 1
  }
}