{
  "contractName": "XDaiStarterFactory",
  "abi": [
    {
      "inputs": [
        {
          "internalType": "address",
          "name": "_xdpToken",
          "type": "address"
        },
        {
          "internalType": "address",
          "name": "_xdsInfoAddress",
          "type": "address"
        },
        {
          "internalType": "address",
          "name": "_xdsStakingPool",
          "type": "address"
        }
      ],
      "stateMutability": "nonpayable",
      "type": "constructor"
    },
    {
      "anonymous": false,
      "inputs": [
        {
          "indexed": false,
          "internalType": "bytes32",
          "name": "title",
          "type": "bytes32"
        },
        {
          "indexed": false,
          "internalType": "uint256",
          "name": "xdsId",
          "type": "uint256"
        },
        {
          "indexed": false,
          "internalType": "address",
          "name": "creator",
          "type": "address"
        }
      ],
      "name": "PresaleCreated",
      "type": "event"
    },
    {
      "anonymous": false,
      "inputs": [
        {
          "indexed": true,
          "internalType": "address",
          "name": "from",
          "type": "address"
        },
        {
          "indexed": false,
          "internalType": "uint256",
          "name": "amount",
          "type": "uint256"
        }
      ],
      "name": "Received",
      "type": "event"
    },
    {
      "inputs": [],
      "name": "XDS",
      "outputs": [
        {
          "internalType": "contract XDaiStarterInfo",
          "name": "",
          "type": "address"
        }
      ],
      "stateMutability": "view",
      "type": "function"
    },
    {
      "inputs": [
        {
          "internalType": "address",
          "name": "",
          "type": "address"
        }
      ],
      "name": "lastClaimedTimestamp",
      "outputs": [
        {
          "internalType": "uint256",
          "name": "",
          "type": "uint256"
        }
      ],
      "stateMutability": "view",
      "type": "function"
    },
    {
      "inputs": [],
      "name": "xdpToken",
      "outputs": [
        {
          "internalType": "contract XDPToken",
          "name": "",
          "type": "address"
        }
      ],
      "stateMutability": "view",
      "type": "function"
    },
    {
      "inputs": [],
      "name": "xdsStakingPool",
      "outputs": [
        {
          "internalType": "contract XDaiStarterStaking",
          "name": "",
          "type": "address"
        }
      ],
      "stateMutability": "view",
      "type": "function"
    },
    {
      "stateMutability": "payable",
      "type": "receive"
    },
    {
      "inputs": [
        {
          "components": [
            {
              "internalType": "address",
              "name": "tokenAddress",
              "type": "address"
            },
            {
              "internalType": "address",
              "name": "unsoldTokensDumpAddress",
              "type": "address"
            },
            {
              "internalType": "address[]",
              "name": "whitelistedAddresses",
              "type": "address[]"
            },
            {
              "internalType": "uint256",
              "name": "tokenPriceInWei",
              "type": "uint256"
            },
            {
              "internalType": "uint256",
              "name": "hardCapInWei",
              "type": "uint256"
            },
            {
              "internalType": "uint256",
              "name": "softCapInWei",
              "type": "uint256"
            },
            {
              "internalType": "uint256",
              "name": "maxInvestInWei",
              "type": "uint256"
            },
            {
              "internalType": "uint256",
              "name": "minInvestInWei",
              "type": "uint256"
            },
            {
              "internalType": "uint256",
              "name": "openTime",
              "type": "uint256"
            },
            {
              "internalType": "uint256",
              "name": "closeTime",
              "type": "uint256"
            }
          ],
          "internalType": "struct XDaiStarterFactory.PresaleInfo",
          "name": "_info",
          "type": "tuple"
        },
        {
          "components": [
            {
              "internalType": "uint256",
              "name": "listingPriceInWei",
              "type": "uint256"
            },
            {
              "internalType": "uint256",
              "name": "liquidityAddingTime",
              "type": "uint256"
            },
            {
              "internalType": "uint256",
              "name": "lpTokensLockDurationInDays",
              "type": "uint256"
            },
            {
              "internalType": "uint256",
              "name": "liquidityPercentageAllocation",
              "type": "uint256"
            }
          ],
          "internalType": "struct XDaiStarterFactory.PresaleHoneySwapInfo",
          "name": "_honeyInfo",
          "type": "tuple"
        },
        {
          "components": [
            {
              "internalType": "bytes32",
              "name": "saleTitle",
              "type": "bytes32"
            },
            {
              "internalType": "bytes32",
              "name": "linkTelegram",
              "type": "bytes32"
            },
            {
              "internalType": "bytes32",
              "name": "linkGithub",
              "type": "bytes32"
            },
            {
              "internalType": "bytes32",
              "name": "linkTwitter",
              "type": "bytes32"
            },
            {
              "internalType": "bytes32",
              "name": "linkWebsite",
              "type": "bytes32"
            },
            {
              "internalType": "bytes32",
              "name": "linkLogo",
              "type": "bytes32"
            }
          ],
          "internalType": "struct XDaiStarterFactory.PresaleStringInfo",
          "name": "_stringInfo",
          "type": "tuple"
        }
      ],
      "name": "createPresale",
      "outputs": [],
      "stateMutability": "nonpayable",
      "type": "function"
    },
    {
      "inputs": [],
      "name": "claimHodlerFund",
      "outputs": [],
      "stateMutability": "nonpayable",
      "type": "function"
    }
  ],
  "bytecode": "0x60a06040523480156200001157600080fd5b5060405162009d7538038062009d75833981810160405281019062000037919062000118565b600160008190555082600160006101000a81548173ffffffffffffffffffffffffffffffffffffffff021916908373ffffffffffffffffffffffffffffffffffffffff1602179055508173ffffffffffffffffffffffffffffffffffffffff1660808173ffffffffffffffffffffffffffffffffffffffff1660601b8152505080600260006101000a81548173ffffffffffffffffffffffffffffffffffffffff021916908373ffffffffffffffffffffffffffffffffffffffff160217905550505050620001bc565b6000815190506200011281620001a2565b92915050565b6000806000606084860312156200012e57600080fd5b60006200013e8682870162000101565b9350506020620001518682870162000101565b9250506040620001648682870162000101565b9150509250925092565b60006200017b8262000182565b9050919050565b600073ffffffffffffffffffffffffffffffffffffffff82169050919050565b620001ad816200016e565b8114620001b957600080fd5b50565b60805160601c619b3c62000239600039806101f45280610234528061025552806102f7528061039952806105d6528061075e528061087d52806109955280610a605280610b0c5280610c0b5280610cdb5280610d7d5280610fd052806111bb5280611261528061133452806113e15280611a605250619b3c6000f3fe608060405260043610620000615760003560e01c806302ee0efb14620000be5780631b57364814620001025780631d1e053e14620001325780636d37054c146200016057806378d7be731462000190578063b9227bb314620001c057620000b9565b36620000b9573373ffffffffffffffffffffffffffffffffffffffff167f88a5966d370b9919b20f3e2c13ff65706f196a4e32cc2c12bf57088f8852587434604051620000af919062002915565b60405180910390a2005b600080fd5b348015620000cb57600080fd5b50620000ea6004803603810190620000e4919062001dd5565b620001da565b604051620000f9919062002915565b60405180910390f35b3480156200010f57600080fd5b506200011a620001f2565b604051620001299190620027a9565b60405180910390f35b3480156200013f57600080fd5b506200015e600480360381019062000158919062001e59565b62000216565b005b3480156200016d57600080fd5b506200017862000eea565b604051620001879190620027c6565b60405180910390f35b3480156200019d57600080fd5b50620001a862000f10565b604051620001b791906200273f565b60405180910390f35b348015620001cd57600080fd5b50620001d862000f36565b005b60036020528060005260406000206000915090505481565b7f000000000000000000000000000000000000000000000000000000000000000081565b60008360000160208101906200022d919062001dd5565b90506000307f00000000000000000000000000000000000000000000000000000000000000007f000000000000000000000000000000000000000000000000000000000000000073ffffffffffffffffffffffffffffffffffffffff16638da5cb5b6040518163ffffffff1660e01b815260040160206040518083038186803b158015620002ba57600080fd5b505afa158015620002cf573d6000803e3d6000fd5b505050506040513d601f19601f82011682018060405250810190620002f5919062001e01565b7f000000000000000000000000000000000000000000000000000000000000000073ffffffffffffffffffffffffffffffffffffffff1663aabea7836040518163ffffffff1660e01b815260040160206040518083038186803b1580156200035c57600080fd5b505afa15801562000371573d6000803e3d6000fd5b505050506040513d601f19601f8201168201806040525081019062000397919062001ec9565b7f000000000000000000000000000000000000000000000000000000000000000073ffffffffffffffffffffffffffffffffffffffff1663be0247ad6040518163ffffffff1660e01b815260040160206040518083038186803b158015620003fe57600080fd5b505afa15801562000413573d6000803e3d6000fd5b505050506040513d601f19601f8201168201806040525081019062000439919062001ec9565b604051620004479062001d08565b620004579594939291906200252b565b604051809103906000f08015801562000474573d6000803e3d6000fd5b5090506000620004ab60646200049c876060013589608001356200162d90919063ffffffff16565b620016a390919063ffffffff16565b90506000620004e48660000135620004d5670de0b6b3a7640000856200162d90919063ffffffff16565b620016a390919063ffffffff16565b9050600062000521886060013562000512670de0b6b3a76400008b608001356200162d90919063ffffffff16565b620016a390919063ffffffff16565b905060006200053a8284620016fd90919063ffffffff16565b90508573ffffffffffffffffffffffffffffffffffffffff166323b872dd3387846040518463ffffffff1660e01b81526004016200057b93929190620024a1565b602060405180830381600087803b1580156200059657600080fd5b505af1158015620005ab573d6000803e3d6000fd5b505050506040513d601f19601f82011682018060405250810190620005d1919062001e2d565b5060007f000000000000000000000000000000000000000000000000000000000000000073ffffffffffffffffffffffffffffffffffffffff166333835b966040518163ffffffff1660e01b815260040160206040518083038186803b1580156200063b57600080fd5b505afa15801562000650573d6000803e3d6000fd5b505050506040513d601f19601f8201168201806040525081019062000676919062001ec9565b600160009054906101000a900473ffffffffffffffffffffffffffffffffffffffff1673ffffffffffffffffffffffffffffffffffffffff166370a08231306040518263ffffffff1660e01b8152600401620006d3919062002467565b60206040518083038186803b158015620006ec57600080fd5b505afa15801562000701573d6000803e3d6000fd5b505050506040513d601f19601f8201168201806040525081019062000727919062001ec9565b1062000a48576000600160009054906101000a900473ffffffffffffffffffffffffffffffffffffffff1662278d008b60200135017f000000000000000000000000000000000000000000000000000000000000000073ffffffffffffffffffffffffffffffffffffffff16635f75856f6040518163ffffffff1660e01b815260040160206040518083038186803b158015620007c357600080fd5b505afa158015620007d8573d6000803e3d6000fd5b505050506040513d601f19601f82011682018060405250810190620007fe919062001e01565b336040516200080d9062001d16565b6200081c94939291906200275c565b604051809103906000f08015801562000839573d6000803e3d6000fd5b509050600160009054906101000a900473ffffffffffffffffffffffffffffffffffffffff1673ffffffffffffffffffffffffffffffffffffffff1663a9059cbb827f000000000000000000000000000000000000000000000000000000000000000073ffffffffffffffffffffffffffffffffffffffff166333835b966040518163ffffffff1660e01b815260040160206040518083038186803b158015620008e257600080fd5b505afa158015620008f7573d6000803e3d6000fd5b505050506040513d601f19601f820116820180604052508101906200091d919062001ec9565b6040518363ffffffff1660e01b81526004016200093c92919062002588565b602060405180830381600087803b1580156200095757600080fd5b505af11580156200096c573d6000803e3d6000fd5b505050506040513d601f19601f8201168201806040525081019062000992919062001e2d565b507f000000000000000000000000000000000000000000000000000000000000000073ffffffffffffffffffffffffffffffffffffffff1663a0ae93d4826040518263ffffffff1660e01b8152600401620009ee91906200244a565b602060405180830381600087803b15801562000a0957600080fd5b505af115801562000a1e573d6000803e3d6000fd5b505050506040513d601f19601f8201168201806040525081019062000a44919062001ec9565b9150505b62000a5c86848c606001358d8d8d62001755565b60007f000000000000000000000000000000000000000000000000000000000000000073ffffffffffffffffffffffffffffffffffffffff1663be19292f6040518163ffffffff1660e01b815260040160206040518083038186803b15801562000ac557600080fd5b505afa15801562000ada573d6000803e3d6000fd5b505050506040513d601f19601f8201168201806040525081019062000b00919062001e01565b9050600062000bb2828a7f000000000000000000000000000000000000000000000000000000000000000073ffffffffffffffffffffffffffffffffffffffff1663b1cb45d56040518163ffffffff1660e01b815260040160206040518083038186803b15801562000b7157600080fd5b505afa15801562000b86573d6000803e3d6000fd5b505050506040513d601f19601f8201168201806040525081019062000bac919062001e01565b62001b5a565b9050600081620151808d60400135028d602001350133600060405162000bd89062001d16565b62000be79493929190620026f2565b604051809103906000f08015801562000c04573d6000803e3d6000fd5b50905060007f000000000000000000000000000000000000000000000000000000000000000073ffffffffffffffffffffffffffffffffffffffff16633cd221a28b6040518263ffffffff1660e01b815260040162000c64919062002467565b602060405180830381600087803b15801562000c7f57600080fd5b505af115801562000c94573d6000803e3d6000fd5b505050506040513d601f19601f8201168201806040525081019062000cba919062001ec9565b90508973ffffffffffffffffffffffffffffffffffffffff16630d5dfdcd837f000000000000000000000000000000000000000000000000000000000000000073ffffffffffffffffffffffffffffffffffffffff166305a911676040518163ffffffff1660e01b815260040160206040518083038186803b15801562000d4057600080fd5b505afa15801562000d55573d6000803e3d6000fd5b505050506040513d601f19601f8201168201806040525081019062000d7b919062001ec9565b7f000000000000000000000000000000000000000000000000000000000000000073ffffffffffffffffffffffffffffffffffffffff16630e34c01b6040518163ffffffff1660e01b815260040160206040518083038186803b15801562000de257600080fd5b505afa15801562000df7573d6000803e3d6000fd5b505050506040513d601f19601f8201168201806040525081019062000e1d919062001ec9565b858a600260009054906101000a900473ffffffffffffffffffffffffffffffffffffffff166040518763ffffffff1660e01b815260040162000e6596959493929190620025b5565b600060405180830381600087803b15801562000e8057600080fd5b505af115801562000e95573d6000803e3d6000fd5b505050507f35133d54289054f67a6ef6fa793e5c9d0db708d85ce5c2045cfacdd5748862468c60000135823360405162000ed293929190620026b5565b60405180910390a15050505050505050505050505050565b600260009054906101000a900473ffffffffffffffffffffffffffffffffffffffff1681565b600160009054906101000a900473ffffffffffffffffffffffffffffffffffffffff1681565b6002600054141562000f7f576040517f08c379a000000000000000000000000000000000000000000000000000000000815260040162000f7690620028f3565b60405180910390fd5b60026000819055506000471162000fcd576040517f08c379a000000000000000000000000000000000000000000000000000000000815260040162000fc49062002827565b60405180910390fd5b427f000000000000000000000000000000000000000000000000000000000000000073ffffffffffffffffffffffffffffffffffffffff1663716eede46040518163ffffffff1660e01b815260040160206040518083038186803b1580156200103557600080fd5b505afa1580156200104a573d6000803e3d6000fd5b505050506040513d601f19601f8201168201806040525081019062001070919062001ec9565b600360003373ffffffffffffffffffffffffffffffffffffffff1673ffffffffffffffffffffffffffffffffffffffff16815260200190815260200160002054011115620010f5576040517f08c379a0000000000000000000000000000000000000000000000000000000008152600401620010ec90620027e3565b60405180910390fd5b6000806000600260009054906101000a900473ffffffffffffffffffffffffffffffffffffffff1673ffffffffffffffffffffffffffffffffffffffff166387cad0bf336040518263ffffffff1660e01b815260040162001157919062002467565b60606040518083038186803b1580156200117057600080fd5b505afa15801562001185573d6000803e3d6000fd5b505050506040513d601f19601f82011682018060405250810190620011ab919062001ef5565b80935081945082955050505060007f000000000000000000000000000000000000000000000000000000000000000073ffffffffffffffffffffffffffffffffffffffff16638d3af9a26040518163ffffffff1660e01b815260040160206040518083038186803b1580156200122057600080fd5b505afa15801562001235573d6000803e3d6000fd5b505050506040513d601f19601f820116820180604052508101906200125b919062001ec9565b905060007f000000000000000000000000000000000000000000000000000000000000000073ffffffffffffffffffffffffffffffffffffffff1663c4086893336040518263ffffffff1660e01b8152600401620012ba919062002484565b60206040518083038186803b158015620012d357600080fd5b505afa158015620012e8573d6000803e3d6000fd5b505050506040513d601f19601f820116820180604052508101906200130e919062001ec9565b9050428285011162001332576200132f8582620016fd90919063ffffffff16565b90505b7f000000000000000000000000000000000000000000000000000000000000000073ffffffffffffffffffffffffffffffffffffffff1663aabea7836040518163ffffffff1660e01b815260040160206040518083038186803b1580156200139957600080fd5b505afa158015620013ae573d6000803e3d6000fd5b505050506040513d601f19601f82011682018060405250810190620013d4919062001ec9565b81101580156200148557507f000000000000000000000000000000000000000000000000000000000000000073ffffffffffffffffffffffffffffffffffffffff16635d5ce3cf6040518163ffffffff1660e01b815260040160206040518083038186803b1580156200144657600080fd5b505afa1580156200145b573d6000803e3d6000fd5b505050506040513d601f19601f8201168201806040525081019062001481919062001ec9565b8111155b620014c7576040517f08c379a0000000000000000000000000000000000000000000000000000000008152600401620014be906200288d565b60405180910390fd5b42600360003373ffffffffffffffffffffffffffffffffffffffff1673ffffffffffffffffffffffffffffffffffffffff168152602001908152602001600020819055503373ffffffffffffffffffffffffffffffffffffffff166108fc620015f147620015e2600160009054906101000a900473ffffffffffffffffffffffffffffffffffffffff1673ffffffffffffffffffffffffffffffffffffffff166318160ddd6040518163ffffffff1660e01b815260040160206040518083038186803b1580156200159757600080fd5b505afa158015620015ac573d6000803e3d6000fd5b505050506040513d601f19601f82011682018060405250810190620015d2919062001ec9565b86620016a390919063ffffffff16565b6200162d90919063ffffffff16565b9081150290604051600060405180830381858888f193505050501580156200161d573d6000803e3d6000fd5b5050505050506001600081905550565b6000808314156200164257600090506200169d565b60008284029050828482816200165457fe5b041462001698576040517f08c379a00000000000000000000000000000000000000000000000000000000081526004016200168f90620028d1565b60405180910390fd5b809150505b92915050565b6000808211620016ea576040517f08c379a0000000000000000000000000000000000000000000000000000000008152600401620016e19062002849565b60405180910390fd5b818381620016f457fe5b04905092915050565b6000808284019050838110156200174b576040517f08c379a0000000000000000000000000000000000000000000000000000000008152600401620017429062002805565b60405180910390fd5b8091505092915050565b8573ffffffffffffffffffffffffffffffffffffffff166380e2bc273385600001602081019062001787919062001dd5565b600160009054906101000a900473ffffffffffffffffffffffffffffffffffffffff16876020016020810190620017bf919062001dd5565b6040518563ffffffff1660e01b8152600401620017e09493929190620024de565b600060405180830381600087803b158015620017fb57600080fd5b505af115801562001810573d6000803e3d6000fd5b505050508573ffffffffffffffffffffffffffffffffffffffff16631c194ba9868686608001358760a001358860c001358960e001358a61010001358b61012001356040518963ffffffff1660e01b8152600401620018779897969594939291906200297f565b600060405180830381600087803b1580156200189257600080fd5b505af1158015620018a7573d6000803e3d6000fd5b505050508573ffffffffffffffffffffffffffffffffffffffff16634526c54483600001358460200135856040013586606001356040518563ffffffff1660e01b8152600401620018fc949392919062002932565b600060405180830381600087803b1580156200191757600080fd5b505af11580156200192c573d6000803e3d6000fd5b505050508573ffffffffffffffffffffffffffffffffffffffff16632b24a878826000013583602001358460400135856060013586608001358760a001356040518763ffffffff1660e01b81526004016200198d9695949392919062002648565b600060405180830381600087803b158015620019a857600080fd5b505af1158015620019bd573d6000803e3d6000fd5b505050508573ffffffffffffffffffffffffffffffffffffffff1663ca2cfc20848060400190620019ef919062002a0d565b6040518363ffffffff1660e01b815260040162001a0e92919062002622565b600060405180830381600087803b15801562001a2957600080fd5b505af115801562001a3e573d6000803e3d6000fd5b505050508573ffffffffffffffffffffffffffffffffffffffff16638bd8260c7f000000000000000000000000000000000000000000000000000000000000000073ffffffffffffffffffffffffffffffffffffffff166356c97e996040518163ffffffff1660e01b815260040160206040518083038186803b15801562001ac557600080fd5b505afa15801562001ada573d6000803e3d6000fd5b505050506040513d601f19601f8201168201806040525081019062001b00919062001ec9565b6040518263ffffffff1660e01b815260040162001b1e919062002915565b600060405180830381600087803b15801562001b3957600080fd5b505af115801562001b4e573d6000803e3d6000fd5b50505050505050505050565b600080600062001b6b858562001bd2565b9150915085828260405160200162001b85929190620023d0565b6040516020818303038152906040528051906020012060405160200162001bae92919062002400565b6040516020818303038152906040528051906020012060001c925050509392505050565b6000808273ffffffffffffffffffffffffffffffffffffffff168473ffffffffffffffffffffffffffffffffffffffff16141562001c47576040517f08c379a000000000000000000000000000000000000000000000000000000000815260040162001c3e906200286b565b60405180910390fd5b8273ffffffffffffffffffffffffffffffffffffffff168473ffffffffffffffffffffffffffffffffffffffff161062001c8357828462001c86565b83835b8092508193505050600073ffffffffffffffffffffffffffffffffffffffff168273ffffffffffffffffffffffffffffffffffffffff16141562001d01576040517f08c379a000000000000000000000000000000000000000000000000000000000815260040162001cf890620028af565b60405180910390fd5b9250929050565b61607d8062002c9683390190565b610df48062008d1383390190565b60008135905062001d358162002c47565b92915050565b60008151905062001d4c8162002c47565b92915050565b60008151905062001d638162002c61565b92915050565b60006080828403121562001d7c57600080fd5b81905092915050565b6000610140828403121562001d9957600080fd5b81905092915050565b600060c0828403121562001db557600080fd5b81905092915050565b60008151905062001dcf8162002c7b565b92915050565b60006020828403121562001de857600080fd5b600062001df88482850162001d24565b91505092915050565b60006020828403121562001e1457600080fd5b600062001e248482850162001d3b565b91505092915050565b60006020828403121562001e4057600080fd5b600062001e508482850162001d52565b91505092915050565b6000806000610160848603121562001e7057600080fd5b600084013567ffffffffffffffff81111562001e8b57600080fd5b62001e998682870162001d85565b935050602062001eac8682870162001d69565b92505060a062001ebf8682870162001da2565b9150509250925092565b60006020828403121562001edc57600080fd5b600062001eec8482850162001dbe565b91505092915050565b60008060006060848603121562001f0b57600080fd5b600062001f1b8682870162001dbe565b935050602062001f2e8682870162001dbe565b925050604062001f418682870162001dbe565b9150509250925092565b600062001f59838362001f87565b60208301905092915050565b62001f708162002b2c565b82525050565b62001f818162002ad8565b82525050565b62001f928162002ac4565b82525050565b62001fa38162002ac4565b82525050565b62001fbe62001fb88262002ac4565b62002c08565b82525050565b600062001fd2838562002a7e565b935062001fdf8262002a67565b8060005b85811015620020205762001ff8828462002aab565b62002004888262001f4b565b9750620020118362002a71565b92505060018101905062001fe3565b5085925050509392505050565b620020388162002af8565b82525050565b620020536200204d8262002af8565b62002c1c565b82525050565b620020648162002b40565b82525050565b620020758162002b68565b82525050565b620020868162002b90565b82525050565b620020978162002bb8565b82525050565b6000620020ac60128362002a8f565b91507f496e76616c696420436c61696d2054696d6500000000000000000000000000006000830152602082019050919050565b6000620020ee601b8362002a8f565b91507f536166654d6174683a206164646974696f6e206f766572666c6f7700000000006000830152602082019050919050565b60006200213060138362002a8f565b91507f4e6f207265776172647320746f20636c61696d000000000000000000000000006000830152602082019050919050565b600062002172601a8362002a8f565b91507f536166654d6174683a206469766973696f6e206279207a65726f0000000000006000830152602082019050919050565b6000620021b460278362002a8f565b91507f5844616953746172746572466163746f72793a204944454e544943414c5f414460008301527f44524553534553000000000000000000000000000000000000000000000000006020830152604082019050919050565b60006200221c601a8362002a8f565b91507f446f206e6f74207175616c69667920666f7220726577617264730000000000006000830152602082019050919050565b60006200225e60018362002aa0565b91507fff000000000000000000000000000000000000000000000000000000000000006000830152600182019050919050565b6000620022a060208362002a8f565b91507f5844616953746172746572466163746f72793a205a45524f5f414444524553536000830152602082019050919050565b6000620022e260218362002a8f565b91507f536166654d6174683a206d756c7469706c69636174696f6e206f766572666c6f60008301527f77000000000000000000000000000000000000000000000000000000000000006020830152604082019050919050565b60006200234a60208362002aa0565b91507f3f88503e8580ab941773b59034fb4b2a63e86dbc031b3633a925533ad3ed2b936000830152602082019050919050565b60006200238c601f8362002a8f565b91507f5265656e7472616e637947756172643a207265656e7472616e742063616c6c006000830152602082019050919050565b620023ca8162002b22565b82525050565b6000620023de828562001fa9565b601482019150620023f0828462001fa9565b6014820191508190509392505050565b60006200240d826200224f565b91506200241b828562001fa9565b6014820191506200242d82846200203e565b6020820191506200243e826200233b565b91508190509392505050565b600060208201905062002461600083018462001f98565b92915050565b60006020820190506200247e600083018462001f65565b92915050565b60006020820190506200249b600083018462001f76565b92915050565b6000606082019050620024b8600083018662001f65565b620024c7602083018562001f65565b620024d66040830184620023bf565b949350505050565b6000608082019050620024f5600083018762001f65565b62002504602083018662001f98565b62002513604083018562001f98565b62002522606083018462001f98565b95945050505050565b600060a08201905062002542600083018862001f65565b62002551602083018762001f98565b62002560604083018662001f98565b6200256f6060830185620023bf565b6200257e6080830184620023bf565b9695505050505050565b60006040820190506200259f600083018562001f98565b620025ae6020830184620023bf565b9392505050565b600060c082019050620025cc600083018962001f98565b620025db6020830188620023bf565b620025ea6040830187620023bf565b620025f96060830186620023bf565b620026086080830185620023bf565b6200261760a083018462001f98565b979650505050505050565b600060208201905081810360008301526200263f81848662001fc4565b90509392505050565b600060c0820190506200265f60008301896200202d565b6200266e60208301886200202d565b6200267d60408301876200202d565b6200268c60608301866200202d565b6200269b60808301856200202d565b620026aa60a08301846200202d565b979650505050505050565b6000606082019050620026cc60008301866200202d565b620026db6020830185620023bf565b620026ea604083018462001f65565b949350505050565b600060808201905062002709600083018762002059565b620027186020830186620023bf565b62002727604083018562001f65565b62002736606083018462001f65565b95945050505050565b60006020820190506200275660008301846200206a565b92915050565b60006080820190506200277360008301876200206a565b620027826020830186620023bf565b62002791604083018562001f98565b620027a0606083018462001f65565b95945050505050565b6000602082019050620027c060008301846200207b565b92915050565b6000602082019050620027dd60008301846200208c565b92915050565b60006020820190508181036000830152620027fe816200209d565b9050919050565b600060208201905081810360008301526200282081620020df565b9050919050565b60006020820190508181036000830152620028428162002121565b9050919050565b60006020820190508181036000830152620028648162002163565b9050919050565b600060208201905081810360008301526200288681620021a5565b9050919050565b60006020820190508181036000830152620028a8816200220d565b9050919050565b60006020820190508181036000830152620028ca8162002291565b9050919050565b60006020820190508181036000830152620028ec81620022d3565b9050919050565b600060208201905081810360008301526200290e816200237d565b9050919050565b60006020820190506200292c6000830184620023bf565b92915050565b6000608082019050620029496000830187620023bf565b620029586020830186620023bf565b620029676040830185620023bf565b620029766060830184620023bf565b95945050505050565b60006101008201905062002997600083018b620023bf565b620029a6602083018a620023bf565b620029b56040830189620023bf565b620029c46060830188620023bf565b620029d36080830187620023bf565b620029e260a0830186620023bf565b620029f160c0830185620023bf565b62002a0060e0830184620023bf565b9998505050505050505050565b6000808335600160200384360303811262002a2757600080fd5b80840192508235915067ffffffffffffffff82111562002a4657600080fd5b60208301925060208202360383131562002a5f57600080fd5b509250929050565b6000819050919050565b6000602082019050919050565b600082825260208201905092915050565b600082825260208201905092915050565b600081905092915050565b600062002abc602084018462001d24565b905092915050565b600062002ad18262002b02565b9050919050565b600062002ae58262002b02565b9050919050565b60008115159050919050565b6000819050919050565b600073ffffffffffffffffffffffffffffffffffffffff82169050919050565b6000819050919050565b600062002b398262002be0565b9050919050565b600062002b4d8262002b54565b9050919050565b600062002b618262002b02565b9050919050565b600062002b758262002b7c565b9050919050565b600062002b898262002b02565b9050919050565b600062002b9d8262002ba4565b9050919050565b600062002bb18262002b02565b9050919050565b600062002bc58262002bcc565b9050919050565b600062002bd98262002b02565b9050919050565b600062002bed8262002bf4565b9050919050565b600062002c018262002b02565b9050919050565b600062002c158262002c26565b9050919050565b6000819050919050565b600062002c338262002c3a565b9050919050565b60008160601b9050919050565b62002c528162002ac4565b811462002c5e57600080fd5b50565b62002c6c8162002aec565b811462002c7857600080fd5b50565b62002c868162002b22565b811462002c9257600080fd5b5056fe608060405269152d02c7e14af6800000602455683635c9adc5dea000006025556000602960006101000a81548160ff0219169083151502179055506000602960016101000a81548160ff0219169083151502179055506000602960026101000a81548160ff0219169083151502179055506000602960036101000a81548160ff0219169083151502179055503480156200009857600080fd5b506040516200607d3803806200607d833981810160405260a0811015620000be57600080fd5b810190808051906020019092919080519060200190929190805190602001909291908051906020019092919080519060200190929190505050600073ffffffffffffffffffffffffffffffffffffffff168573ffffffffffffffffffffffffffffffffffffffff1614156200013257600080fd5b600073ffffffffffffffffffffffffffffffffffffffff168373ffffffffffffffffffffffffffffffffffffffff1614156200016d57600080fd5b846000806101000a81548173ffffffffffffffffffffffffffffffffffffffff021916908373ffffffffffffffffffffffffffffffffffffffff16021790555082600160006101000a81548173ffffffffffffffffffffffffffffffffffffffff021916908373ffffffffffffffffffffffffffffffffffffffff160217905550816027819055508060288190555083600460006101000a81548173ffffffffffffffffffffffffffffffffffffffff021916908373ffffffffffffffffffffffffffffffffffffffff1602179055505050505050615e2b80620002526000396000f3fe6080604052600436106104145760003560e01c80638bd8260c1161021e578063c502b13b11610123578063d64d3138116100ab578063e861e34d1161007a578063e861e34d14611451578063e8b5e51f1461147c578063ebc9afcc14611486578063fb286c6514611583578063fc0c546a146115ae57610423565b8063d64d31381461134a578063d6c86b1b146113d0578063d9c50320146113fb578063e47935e61461142657610423565b8063ca2cfc20116100f2578063ca2cfc2014611214578063cc9fb9fd1461129a578063ce8f582e146112c5578063d58e89a0146112dc578063d5933c2c1461131d57610423565b8063c502b13b1461112c578063c51d16b614611157578063c6a4266914611182578063c884ef83146111ad57610423565b8063b2716d89116101a6578063b44dd0c111610175578063b44dd0c114611047578063b5b47f4214611084578063bfbcec3a146110af578063c04c8e9a146110da578063c36002c91461111557610423565b8063b2716d8914610faf578063b2d5ae4414610fda578063b31f8f9314610ff1578063b42568881461101c57610423565b80639767b58c116101ed5780639767b58c14610e765780639fa1eccc14610ea1578063a2460d2e14610ecc578063a3ec138d14610f0d578063b1406b7914610f7257610423565b80638bd8260c14610d945780639180033414610dcf578063940bb34414610dfa57806396b9886214610e1157610423565b806348c54b9d11610324578063709b74ed116102ac57806378d7be731161027b57806378d7be7314610b375780637e1c0c0914610b785780637f0feacc14610ba357806380e2bc2714610cb857806389771dd814610d6957610423565b8063709b74ed14610a895780637275ae1414610ab657806373f7ef3814610ae15780637445830614610b0c57610423565b806350c73391116102f357806350c73391146109ae57806355973a90146109d9578063627749e614610a065780636cb9628714610a315780636d37054c14610a4857610423565b806348c54b9d146109045780634926e5801461091b5780634b9f5c98146109465780634f7458eb1461098357610423565b80631afb0220116103a7578063303ab2aa11610376578063303ab2aa146107bd57806335d079de146107e85780633ad49c7b1461082957806341038a771461086a5780634526c544146108ab57610423565b80631afb0220146106785780631c194ba9146106a35780632b24a878146107255780632f8de8101461079257610423565b80630d5dfdcd116103e35780630d5dfdcd1461051057806312d5a26c146105a957806316bc4f0e146105d65780631ac2a3b81461063d57610423565b806301f009ae1461042857806306c933d8146104535780630ca99ca8146104ba5780630cdc1fc5146104e557610423565b36610423576104216115ef565b005b600080fd5b34801561043457600080fd5b5061043d612058565b6040518082815260200191505060405180910390f35b34801561045f57600080fd5b506104a26004803603602081101561047657600080fd5b81019080803573ffffffffffffffffffffffffffffffffffffffff16906020019092919050505061205e565b60405180821515815260200191505060405180910390f35b3480156104c657600080fd5b506104cf61207e565b6040518082815260200191505060405180910390f35b3480156104f157600080fd5b506104fa612084565b6040518082815260200191505060405180910390f35b34801561051c57600080fd5b506105a7600480360360c081101561053357600080fd5b81019080803573ffffffffffffffffffffffffffffffffffffffff16906020019092919080359060200190929190803590602001909291908035906020019092919080359060200190929190803573ffffffffffffffffffffffffffffffffffffffff16906020019092919050505061208a565b005b3480156105b557600080fd5b506105be6121e0565b60405180821515815260200191505060405180910390f35b3480156105e257600080fd5b50610625600480360360208110156105f957600080fd5b81019080803573ffffffffffffffffffffffffffffffffffffffff1690602001909291905050506121f3565b60405180821515815260200191505060405180910390f35b34801561064957600080fd5b506106766004803603602081101561066057600080fd5b8101908080359060200190929190505050612213565b005b34801561068457600080fd5b5061068d6122ec565b6040518082815260200191505060405180910390f35b3480156106af57600080fd5b5061072360048036036101008110156106c757600080fd5b8101908080359060200190929190803590602001909291908035906020019092919080359060200190929190803590602001909291908035906020019092919080359060200190929190803590602001909291905050506122f2565b005b34801561073157600080fd5b50610790600480360360c081101561074857600080fd5b810190808035906020019092919080359060200190929190803590602001909291908035906020019092919080359060200190929190803590602001909291905050506124da565b005b34801561079e57600080fd5b506107a7612625565b6040518082815260200191505060405180910390f35b3480156107c957600080fd5b506107d261262b565b6040518082815260200191505060405180910390f35b3480156107f457600080fd5b506107fd612631565b604051808273ffffffffffffffffffffffffffffffffffffffff16815260200191505060405180910390f35b34801561083557600080fd5b5061083e612657565b604051808273ffffffffffffffffffffffffffffffffffffffff16815260200191505060405180910390f35b34801561087657600080fd5b5061087f61267d565b604051808273ffffffffffffffffffffffffffffffffffffffff16815260200191505060405180910390f35b3480156108b757600080fd5b50610902600480360360808110156108ce57600080fd5b81019080803590602001909291908035906020019092919080359060200190929190803590602001909291905050506126a3565b005b34801561091057600080fd5b50610919612830565b005b34801561092757600080fd5b50610930612d82565b6040518082815260200191505060405180910390f35b34801561095257600080fd5b506109816004803603602081101561096957600080fd5b81019080803515159060200190929190505050612d88565b005b34801561098f57600080fd5b5061099861323d565b6040518082815260200191505060405180910390f35b3480156109ba57600080fd5b506109c3613243565b6040518082815260200191505060405180910390f35b3480156109e557600080fd5b506109ee613249565b60405180821515815260200191505060405180910390f35b348015610a1257600080fd5b50610a1b61325c565b6040518082815260200191505060405180910390f35b348015610a3d57600080fd5b50610a46613262565b005b348015610a5457600080fd5b50610a5d6133dc565b604051808273ffffffffffffffffffffffffffffffffffffffff16815260200191505060405180910390f35b348015610a9557600080fd5b50610a9e613402565b60405180821515815260200191505060405180910390f35b348015610ac257600080fd5b50610acb613415565b6040518082815260200191505060405180910390f35b348015610aed57600080fd5b50610af661341b565b6040518082815260200191505060405180910390f35b348015610b1857600080fd5b50610b21613421565b6040518082815260200191505060405180910390f35b348015610b4357600080fd5b50610b4c613427565b604051808273ffffffffffffffffffffffffffffffffffffffff16815260200191505060405180910390f35b348015610b8457600080fd5b50610b8d61344d565b6040518082815260200191505060405180910390f35b348015610baf57600080fd5b50610bb8613453565b60405180868152602001851515815260200184151581526020018060200180602001838103835285818151815260200191508051906020019080838360005b83811015610c12578082015181840152602081019050610bf7565b50505050905090810190601f168015610c3f5780820380516001836020036101000a031916815260200191505b50838103825284818151815260200191508051906020019080838360005b83811015610c78578082015181840152602081019050610c5d565b50505050905090810190601f168015610ca55780820380516001836020036101000a031916815260200191505b5097505050505050505060405180910390f35b348015610cc457600080fd5b50610d6760048036036080811015610cdb57600080fd5b81019080803573ffffffffffffffffffffffffffffffffffffffff169060200190929190803573ffffffffffffffffffffffffffffffffffffffff169060200190929190803573ffffffffffffffffffffffffffffffffffffffff169060200190929190803573ffffffffffffffffffffffffffffffffffffffff1690602001909291905050506135c1565b005b348015610d7557600080fd5b50610d7e613892565b6040518082815260200191505060405180910390f35b348015610da057600080fd5b50610dcd60048036036020811015610db757600080fd5b8101908080359060200190929190505050613898565b005b348015610ddb57600080fd5b50610de4613952565b6040518082815260200191505060405180910390f35b348015610e0657600080fd5b50610e0f613958565b005b348015610e1d57600080fd5b50610e6060048036036020811015610e3457600080fd5b81019080803573ffffffffffffffffffffffffffffffffffffffff169060200190929190505050613c80565b6040518082815260200191505060405180910390f35b348015610e8257600080fd5b50610e8b613c98565b6040518082815260200191505060405180910390f35b348015610ead57600080fd5b50610eb6613c9e565b6040518082815260200191505060405180910390f35b348015610ed857600080fd5b50610ee1613ca4565b604051808273ffffffffffffffffffffffffffffffffffffffff16815260200191505060405180910390f35b348015610f1957600080fd5b50610f5c60048036036020811015610f3057600080fd5b81019080803573ffffffffffffffffffffffffffffffffffffffff169060200190929190505050613cca565b6040518082815260200191505060405180910390f35b348015610f7e57600080fd5b50610fad60048036036020811015610f9557600080fd5b81019080803515159060200190929190505050613ce2565b005b348015610fbb57600080fd5b50610fc4613e18565b6040518082815260200191505060405180910390f35b348015610fe657600080fd5b50610fef613e1e565b005b348015610ffd57600080fd5b5061100661436f565b6040518082815260200191505060405180910390f35b34801561102857600080fd5b50611031614375565b6040518082815260200191505060405180910390f35b34801561105357600080fd5b506110826004803603602081101561106a57600080fd5b8101908080351515906020019092919050505061437b565b005b34801561109057600080fd5b50611099614448565b6040518082815260200191505060405180910390f35b3480156110bb57600080fd5b506110c461444e565b6040518082815260200191505060405180910390f35b3480156110e657600080fd5b50611113600480360360208110156110fd57600080fd5b8101908080359060200190929190505050614454565b005b34801561112157600080fd5b5061112a61452f565b005b34801561113857600080fd5b5061114161486d565b6040518082815260200191505060405180910390f35b34801561116357600080fd5b5061116c614873565b6040518082815260200191505060405180910390f35b34801561118e57600080fd5b50611197614879565b6040518082815260200191505060405180910390f35b3480156111b957600080fd5b506111fc600480360360208110156111d057600080fd5b81019080803573ffffffffffffffffffffffffffffffffffffffff16906020019092919050505061487f565b60405180821515815260200191505060405180910390f35b34801561122057600080fd5b506112986004803603602081101561123757600080fd5b810190808035906020019064010000000081111561125457600080fd5b82018360208201111561126657600080fd5b8035906020019184602083028401116401000000008311171561128857600080fd5b909192939192939050505061489f565b005b3480156112a657600080fd5b506112af614a78565b6040518082815260200191505060405180910390f35b3480156112d157600080fd5b506112da614a7e565b005b3480156112e857600080fd5b506112f16154bb565b604051808273ffffffffffffffffffffffffffffffffffffffff16815260200191505060405180910390f35b34801561132957600080fd5b506113326154e1565b60405180821515815260200191505060405180910390f35b34801561135657600080fd5b506113ce6004803603602081101561136d57600080fd5b810190808035906020019064010000000081111561138a57600080fd5b82018360208201111561139c57600080fd5b803590602001918460208302840111640100000000831117156113be57600080fd5b90919293919293905050506154f4565b005b3480156113dc57600080fd5b506113e5615644565b6040518082815260200191505060405180910390f35b34801561140757600080fd5b5061141061564a565b6040518082815260200191505060405180910390f35b34801561143257600080fd5b5061143b615650565b6040518082815260200191505060405180910390f35b34801561145d57600080fd5b50611466615656565b6040518082815260200191505060405180910390f35b6114846115ef565b005b34801561149257600080fd5b50611581600480360360a08110156114a957600080fd5b8101908080359060200190929190803515159060200190929190803515159060200190929190803590602001906401000000008111156114e857600080fd5b8201836020820111156114fa57600080fd5b8035906020019184600183028401116401000000008311171561151c57600080fd5b90919293919293908035906020019064010000000081111561153d57600080fd5b82018360208201111561154f57600080fd5b8035906020019184600183028401116401000000008311171561157157600080fd5b909192939192939050505061565c565b005b34801561158f57600080fd5b50611598615792565b6040518082815260200191505060405180910390f35b3480156115ba57600080fd5b506115c3615798565b604051808273ffffffffffffffffffffffffffffffffffffffff16815260200191505060405180910390f35b602960019054906101000a900460ff1615806116545750600a60003373ffffffffffffffffffffffffffffffffffffffff1673ffffffffffffffffffffffffffffffffffffffff16815260200190815260200160002060009054906101000a900460ff165b6116c6576040517f08c379a00000000000000000000000000000000000000000000000000000000081526004018080602001828103825260178152602001807f41646472657373206e6f742077686974656c697374656400000000000000000081525060200191505060405180910390fd5b602960039054906101000a900460ff1615611749576040517f08c379a00000000000000000000000000000000000000000000000000000000081526004018080602001828103825260098152602001807f43616e63656c6c6564000000000000000000000000000000000000000000000081525060200191505060405180910390fd5b602254602354118015611760575060245460235410155b6117d2576040517f08c379a00000000000000000000000000000000000000000000000000000000081526004018080602001828103825260108152602001807f566f746573206e6f74207061737365640000000000000000000000000000000081525060200191505060405180910390fd5b601b5442101561184a576040517f08c379a000000000000000000000000000000000000000000000000000000000815260040180806020018281038252600e8152602001807f4e6f7420796574206f70656e656400000000000000000000000000000000000081525060200191505060405180910390fd5b601c5442106118c1576040517f08c379a00000000000000000000000000000000000000000000000000000000081526004018080602001828103825260068152602001807f436c6f736564000000000000000000000000000000000000000000000000000081525060200191505060405180910390fd5b6017546013541061193a576040517f08c379a00000000000000000000000000000000000000000000000000000000081526004018080602001828103825260108152602001807f486172642063617020726561636865640000000000000000000000000000000081525060200191505060405180910390fd5b60006015541161194957600080fd5b6000341161195657600080fd5b6000806000600360009054906101000a900473ffffffffffffffffffffffffffffffffffffffff1673ffffffffffffffffffffffffffffffffffffffff166387cad0bf336040518263ffffffff1660e01b8152600401808273ffffffffffffffffffffffffffffffffffffffff16815260200191505060606040518083038186803b1580156119e457600080fd5b505afa1580156119f8573d6000803e3d6000fd5b505050506040513d6060811015611a0e57600080fd5b810190808051906020019092919080519060200190929190805190602001909291905050508093508194508295505050506000600460009054906101000a900473ffffffffffffffffffffffffffffffffffffffff1673ffffffffffffffffffffffffffffffffffffffff16638d3af9a26040518163ffffffff1660e01b815260040160206040518083038186803b158015611aa957600080fd5b505afa158015611abd573d6000803e3d6000fd5b505050506040513d6020811015611ad357600080fd5b810190808051906020019092919050505090506000600460009054906101000a900473ffffffffffffffffffffffffffffffffffffffff1673ffffffffffffffffffffffffffffffffffffffff1663c4086893336040518263ffffffff1660e01b8152600401808273ffffffffffffffffffffffffffffffffffffffff16815260200191505060206040518083038186803b158015611b7157600080fd5b505afa158015611b85573d6000803e3d6000fd5b505050506040513d6020811015611b9b57600080fd5b810190808051906020019092919050505090504282850111611bcd57611bca85826157be90919063ffffffff16565b90505b6027548110611cc2576000611c026064611bf460285460165461584690919063ffffffff16565b6158cc90919063ffffffff16565b9050611c47670de0b6b3a7640000611c39611c288460165461595590919063ffffffff16565b60155461584690919063ffffffff16565b6158cc90919063ffffffff16565b341115611cbc576040517f08c379a00000000000000000000000000000000000000000000000000000000081526004018080602001828103825260168152602001807f4e6f7420656e6f75676820746f6b656e73206c6566740000000000000000000081525060200191505060405180910390fd5b50611d69565b611cf3670de0b6b3a7640000611ce560165460155461584690919063ffffffff16565b6158cc90919063ffffffff16565b341115611d68576040517f08c379a00000000000000000000000000000000000000000000000000000000081526004018080602001828103825260168152602001807f4e6f7420656e6f75676820746f6b656e73206c6566740000000000000000000081525060200191505060405180910390fd5b5b6000611dbd34600960003373ffffffffffffffffffffffffffffffffffffffff1673ffffffffffffffffffffffffffffffffffffffff168152602001908152602001600020546157be90919063ffffffff16565b9050601a5481101580611dee5750611de8670de0b6b3a764000060175461595590919063ffffffff16565b60135410155b611e60576040517f08c379a000000000000000000000000000000000000000000000000000000000815260040180806020018281038252601a8152602001807f4d696e20696e766573746d656e74206e6f74207265616368656400000000000081525060200191505060405180910390fd5b60006019541480611e7357506019548111155b611ee5576040517f08c379a00000000000000000000000000000000000000000000000000000000081526004018080602001828103825260168152602001807f4d617820696e766573746d656e7420726561636865640000000000000000000081525060200191505060405180910390fd5b60006026541115611f6957602654821015611f68576040517f08c379a00000000000000000000000000000000000000000000000000000000081526004018080602001828103825260198152602001807f4e6f7420656e6f75676820584453206f6e206163636f756e740000000000000081525060200191505060405180910390fd5b5b6000600960003373ffffffffffffffffffffffffffffffffffffffff1673ffffffffffffffffffffffffffffffffffffffff168152602001908152602001600020541415611fce57611fc760016010546157be90919063ffffffff16565b6010819055505b611fe3346013546157be90919063ffffffff16565b60138190555080600960003373ffffffffffffffffffffffffffffffffffffffff1673ffffffffffffffffffffffffffffffffffffffff1681526020019081526020016000208190555061204a612039346159d8565b60155461595590919063ffffffff16565b601581905550505050505050565b600f5481565b600a6020528060005260406000206000915054906101000a900460ff1681565b60175481565b602c5481565b3373ffffffffffffffffffffffffffffffffffffffff1660008054906101000a900473ffffffffffffffffffffffffffffffffffffffff1673ffffffffffffffffffffffffffffffffffffffff16148061213157503373ffffffffffffffffffffffffffffffffffffffff16600160009054906101000a900473ffffffffffffffffffffffffffffffffffffffff1673ffffffffffffffffffffffffffffffffffffffff16145b61213a57600080fd5b85600260006101000a81548173ffffffffffffffffffffffffffffffffffffffff021916908373ffffffffffffffffffffffffffffffffffffffff16021790555084600c8190555083600d8190555082600e8190555081600f8190555080600360006101000a81548173ffffffffffffffffffffffffffffffffffffffff021916908373ffffffffffffffffffffffffffffffffffffffff160217905550505050505050565b602960029054906101000a900460ff1681565b60306020528060005260406000206000915054906101000a900460ff1681565b3373ffffffffffffffffffffffffffffffffffffffff1660008054906101000a900473ffffffffffffffffffffffffffffffffffffffff1673ffffffffffffffffffffffffffffffffffffffff1614806122ba57503373ffffffffffffffffffffffffffffffffffffffff16600160009054906101000a900473ffffffffffffffffffffffffffffffffffffffff1673ffffffffffffffffffffffffffffffffffffffff16145b6122c357600080fd5b678ac7230489e800008110156122d857600080fd5b670de0b6b3a7640000810260258190555050565b60275481565b3373ffffffffffffffffffffffffffffffffffffffff16600760009054906101000a900473ffffffffffffffffffffffffffffffffffffffff1673ffffffffffffffffffffffffffffffffffffffff16148061239957503373ffffffffffffffffffffffffffffffffffffffff1660008054906101000a900473ffffffffffffffffffffffffffffffffffffffff1673ffffffffffffffffffffffffffffffffffffffff16145b61240b576040517f08c379a000000000000000000000000000000000000000000000000000000000815260040180806020018281038252601e8152602001807f4e6f742070726573616c652063726561746f72206f7220666163746f7279000081525060200191505060405180910390fd5b6000881161241857600080fd5b6000871161242557600080fd5b6000821161243257600080fd5b6000811161243f57600080fd5b6000861161244c57600080fd5b61245f878961584690919063ffffffff16565b86111561246b57600080fd5b8585111561247857600080fd5b8383111561248557600080fd5b80821061249157600080fd5b87601481905550876015819055508660168190555085601781905550846018819055508360198190555082601a8190555081601b8190555080601c819055505050505050505050565b3373ffffffffffffffffffffffffffffffffffffffff16600760009054906101000a900473ffffffffffffffffffffffffffffffffffffffff1673ffffffffffffffffffffffffffffffffffffffff16148061258157503373ffffffffffffffffffffffffffffffffffffffff1660008054906101000a900473ffffffffffffffffffffffffffffffffffffffff1673ffffffffffffffffffffffffffffffffffffffff16145b6125f3576040517f08c379a000000000000000000000000000000000000000000000000000000000815260040180806020018281038252601e8152602001807f4e6f742070726573616c652063726561746f72206f7220666163746f7279000081525060200191505060405180910390fd5b85602a8190555084602b8190555083602d8190555082602c8190555081602e8190555080602f81905550505050505050565b60165481565b60205481565b600760009054906101000a900473ffffffffffffffffffffffffffffffffffffffff1681565b600460009054906101000a900473ffffffffffffffffffffffffffffffffffffffff1681565b600160009054906101000a900473ffffffffffffffffffffffffffffffffffffffff1681565b3373ffffffffffffffffffffffffffffffffffffffff16600760009054906101000a900473ffffffffffffffffffffffffffffffffffffffff1673ffffffffffffffffffffffffffffffffffffffff16148061274a57503373ffffffffffffffffffffffffffffffffffffffff1660008054906101000a900473ffffffffffffffffffffffffffffffffffffffff1673ffffffffffffffffffffffffffffffffffffffff16145b6127bc576040517f08c379a000000000000000000000000000000000000000000000000000000000815260040180806020018281038252601e8152602001807f4e6f742070726573616c652063726561746f72206f7220666163746f7279000081525060200191505060405180910390fd5b600084116127c957600080fd5b600083116127d657600080fd5b600082116127e357600080fd5b600081116127f057600080fd5b6000601c54116127ff57600080fd5b601c5483101561280e57600080fd5b83601d8190555082601e8190555081601f819055508060208190555050505050565b602960019054906101000a900460ff1615806128955750600a60003373ffffffffffffffffffffffffffffffffffffffff1673ffffffffffffffffffffffffffffffffffffffff16815260200190815260200160002060009054906101000a900460ff165b612907576040517f08c379a00000000000000000000000000000000000000000000000000000000081526004018080602001828103825260178152602001807f41646472657373206e6f742077686974656c697374656400000000000000000081525060200191505060405180910390fd5b602960039054906101000a900460ff161561298a576040517f08c379a00000000000000000000000000000000000000000000000000000000081526004018080602001828103825260098152602001807f43616e63656c6c6564000000000000000000000000000000000000000000000081525060200191505060405180910390fd5b6000600960003373ffffffffffffffffffffffffffffffffffffffff1673ffffffffffffffffffffffffffffffffffffffff1681526020019081526020016000205411612a3f576040517f08c379a000000000000000000000000000000000000000000000000000000000815260040180806020018281038252600f8152602001807f4e6f7420616e20696e766573746f72000000000000000000000000000000000081525060200191505060405180910390fd5b600b60003373ffffffffffffffffffffffffffffffffffffffff1673ffffffffffffffffffffffffffffffffffffffff16815260200190815260200160002060009054906101000a900460ff1615612aff576040517f08c379a000000000000000000000000000000000000000000000000000000000815260040180806020018281038252601b8152602001807f416c726561647920636c61696d6564206f7220726566756e646564000000000081525060200191505060405180910390fd5b602960009054906101000a900460ff16612b81576040517f08c379a00000000000000000000000000000000000000000000000000000000081526004018080602001828103825260178152602001807f4c6971756964697479206e6f742079657420616464656400000000000000000081525060200191505060405180910390fd5b6001600b60003373ffffffffffffffffffffffffffffffffffffffff1673ffffffffffffffffffffffffffffffffffffffff16815260200190815260200160002060006101000a81548160ff021916908315150217905550600560009054906101000a900473ffffffffffffffffffffffffffffffffffffffff1673ffffffffffffffffffffffffffffffffffffffff1663a9059cbb33612c60600960003373ffffffffffffffffffffffffffffffffffffffff1673ffffffffffffffffffffffffffffffffffffffff168152602001908152602001600020546159d8565b6040518363ffffffff1660e01b8152600401808373ffffffffffffffffffffffffffffffffffffffff16815260200182815260200192505050602060405180830381600087803b158015612cb357600080fd5b505af1158015612cc7573d6000803e3d6000fd5b505050506040513d6020811015612cdd57600080fd5b81019080805190602001909291905050505060004790506000811115612d7f5760008160115411612d1057601154612d12565b815b9050600760009054906101000a900473ffffffffffffffffffffffffffffffffffffffff1673ffffffffffffffffffffffffffffffffffffffff166108fc829081150290604051600060405180830381858888f19350505050158015612d7c573d6000803e3d6000fd5b50505b50565b600e5481565b602960039054906101000a900460ff1615612e0b576040517f08c379a00000000000000000000000000000000000000000000000000000000081526004018080602001828103825260098152602001807f43616e63656c6c6564000000000000000000000000000000000000000000000081525060200191505060405180910390fd5b6000806000600360009054906101000a900473ffffffffffffffffffffffffffffffffffffffff1673ffffffffffffffffffffffffffffffffffffffff166387cad0bf336040518263ffffffff1660e01b8152600401808273ffffffffffffffffffffffffffffffffffffffff16815260200191505060606040518083038186803b158015612e9957600080fd5b505afa158015612ead573d6000803e3d6000fd5b505050506040513d6060811015612ec357600080fd5b810190808051906020019092919080519060200190929190805190602001909291905050508093508194508295505050506000600460009054906101000a900473ffffffffffffffffffffffffffffffffffffffff1673ffffffffffffffffffffffffffffffffffffffff16638d3af9a26040518163ffffffff1660e01b815260040160206040518083038186803b158015612f5e57600080fd5b505afa158015612f72573d6000803e3d6000fd5b505050506040513d6020811015612f8857600080fd5b810190808051906020019092919050505090506000600460009054906101000a900473ffffffffffffffffffffffffffffffffffffffff1673ffffffffffffffffffffffffffffffffffffffff1663c4086893336040518263ffffffff1660e01b8152600401808273ffffffffffffffffffffffffffffffffffffffff16815260200191505060206040518083038186803b15801561302657600080fd5b505afa15801561303a573d6000803e3d6000fd5b505050506040513d602081101561305057600080fd5b8101908080519060200190929190505050905042828501116130825761307f85826157be90919063ffffffff16565b90505b6025548110156130fa576040517f08c379a00000000000000000000000000000000000000000000000000000000081526004018080602001828103825260168152602001807f4e6f7420656e6f7567682058445320746f20766f74650000000000000000000081525060200191505060405180910390fd5b6000602160003373ffffffffffffffffffffffffffffffffffffffff1673ffffffffffffffffffffffffffffffffffffffff16815260200190815260200160002054146131af576040517f08c379a00000000000000000000000000000000000000000000000000000000081526004018080602001828103825260138152602001807f566f746520616c7265616479206361737465640000000000000000000000000081525060200191505060405180910390fd5b80602160003373ffffffffffffffffffffffffffffffffffffffff1673ffffffffffffffffffffffffffffffffffffffff1681526020019081526020016000208190555085156132195761320e816023546157be90919063ffffffff16565b602381905550613235565b61322e816022546157be90919063ffffffff16565b6022819055505b505050505050565b601f5481565b60125481565b602960019054906101000a900460ff1681565b601c5481565b3373ffffffffffffffffffffffffffffffffffffffff16600760009054906101000a900473ffffffffffffffffffffffffffffffffffffffff1673ffffffffffffffffffffffffffffffffffffffff1614613325576040517f08c379a00000000000000000000000000000000000000000000000000000000081526004018080602001828103825260138152602001807f4e6f742070726573616c652063726561746f720000000000000000000000000081525060200191505060405180910390fd5b602960009054906101000a900460ff1661333e57600080fd5b602960039054906101000a900460ff161561335857600080fd5b60125442101561336757600080fd5b60004711156133da57600760009054906101000a900473ffffffffffffffffffffffffffffffffffffffff1673ffffffffffffffffffffffffffffffffffffffff166108fc479081150290604051600060405180830381858888f193505050501580156133d8573d6000803e3d6000fd5b505b565b600360009054906101000a900473ffffffffffffffffffffffffffffffffffffffff1681565b602960009054906101000a900460ff1681565b60105481565b601d5481565b602b5481565b600660009054906101000a900473ffffffffffffffffffffffffffffffffffffffff1681565b60145481565b60318060000154908060010160009054906101000a900460ff16908060010160019054906101000a900460ff1690806002018054600181600116156101000203166002900480601f0160208091040260200160405190810160405280929190818152602001828054600181600116156101000203166002900480156135195780601f106134ee57610100808354040283529160200191613519565b820191906000526020600020905b8154815290600101906020018083116134fc57829003601f168201915b505050505090806003018054600181600116156101000203166002900480601f0160208091040260200160405190810160405280929190818152602001828054600181600116156101000203166002900480156135b75780601f1061358c576101008083540402835291602001916135b7565b820191906000526020600020905b81548152906001019060200180831161359a57829003601f168201915b5050505050905085565b3373ffffffffffffffffffffffffffffffffffffffff16600760009054906101000a900473ffffffffffffffffffffffffffffffffffffffff1673ffffffffffffffffffffffffffffffffffffffff16148061366857503373ffffffffffffffffffffffffffffffffffffffff1660008054906101000a900473ffffffffffffffffffffffffffffffffffffffff1673ffffffffffffffffffffffffffffffffffffffff16145b6136da576040517f08c379a000000000000000000000000000000000000000000000000000000000815260040180806020018281038252601e8152602001807f4e6f742070726573616c652063726561746f72206f7220666163746f7279000081525060200191505060405180910390fd5b600073ffffffffffffffffffffffffffffffffffffffff168473ffffffffffffffffffffffffffffffffffffffff16141561371457600080fd5b600073ffffffffffffffffffffffffffffffffffffffff168373ffffffffffffffffffffffffffffffffffffffff16141561374e57600080fd5b600073ffffffffffffffffffffffffffffffffffffffff168173ffffffffffffffffffffffffffffffffffffffff16141561378857600080fd5b83600760006101000a81548173ffffffffffffffffffffffffffffffffffffffff021916908373ffffffffffffffffffffffffffffffffffffffff16021790555082600560006101000a81548173ffffffffffffffffffffffffffffffffffffffff021916908373ffffffffffffffffffffffffffffffffffffffff16021790555081600660006101000a81548173ffffffffffffffffffffffffffffffffffffffff021916908373ffffffffffffffffffffffffffffffffffffffff16021790555080600860006101000a81548173ffffffffffffffffffffffffffffffffffffffff021916908373ffffffffffffffffffffffffffffffffffffffff16021790555050505050565b602e5481565b3373ffffffffffffffffffffffffffffffffffffffff1660008054906101000a900473ffffffffffffffffffffffffffffffffffffffff1673ffffffffffffffffffffffffffffffffffffffff16148061393f57503373ffffffffffffffffffffffffffffffffffffffff16600160009054906101000a900473ffffffffffffffffffffffffffffffffffffffff1673ffffffffffffffffffffffffffffffffffffffff16145b61394857600080fd5b8060268190555050565b60285481565b3373ffffffffffffffffffffffffffffffffffffffff16600760009054906101000a900473ffffffffffffffffffffffffffffffffffffffff1673ffffffffffffffffffffffffffffffffffffffff161480613a0157503373ffffffffffffffffffffffffffffffffffffffff16600160009054906101000a900473ffffffffffffffffffffffffffffffffffffffff1673ffffffffffffffffffffffffffffffffffffffff16145b613a73576040517f08c379a000000000000000000000000000000000000000000000000000000000815260040180806020018281038252601a8152602001807f4e6f742070726573616c652063726561746f72206f722064657600000000000081525060200191505060405180910390fd5b602960009054906101000a900460ff16613a8c57600080fd5b602960039054906101000a900460ff1615613aa657600080fd5b6201518060125401421015613aba57600080fd5b6000600560009054906101000a900473ffffffffffffffffffffffffffffffffffffffff1673ffffffffffffffffffffffffffffffffffffffff166370a08231306040518263ffffffff1660e01b8152600401808273ffffffffffffffffffffffffffffffffffffffff16815260200191505060206040518083038186803b158015613b4557600080fd5b505afa158015613b59573d6000803e3d6000fd5b505050506040513d6020811015613b6f57600080fd5b810190808051906020019092919050505090506000811115613c7d57600560009054906101000a900473ffffffffffffffffffffffffffffffffffffffff1673ffffffffffffffffffffffffffffffffffffffff1663a9059cbb600860009054906101000a900473ffffffffffffffffffffffffffffffffffffffff16836040518363ffffffff1660e01b8152600401808373ffffffffffffffffffffffffffffffffffffffff16815260200182815260200192505050602060405180830381600087803b158015613c4057600080fd5b505af1158015613c54573d6000803e3d6000fd5b505050506040513d6020811015613c6a57600080fd5b8101908080519060200190929190505050505b50565b60096020528060005260406000206000915090505481565b602d5481565b60195481565b600860009054906101000a900473ffffffffffffffffffffffffffffffffffffffff1681565b60216020528060005260406000206000915090505481565b3373ffffffffffffffffffffffffffffffffffffffff16600760009054906101000a900473ffffffffffffffffffffffffffffffffffffffff1673ffffffffffffffffffffffffffffffffffffffff161480613d8957503373ffffffffffffffffffffffffffffffffffffffff1660008054906101000a900473ffffffffffffffffffffffffffffffffffffffff1673ffffffffffffffffffffffffffffffffffffffff16145b613dfb576040517f08c379a000000000000000000000000000000000000000000000000000000000815260040180806020018281038252601e8152602001807f4e6f742070726573616c652063726561746f72206f7220666163746f7279000081525060200191505060405180910390fd5b80602960016101000a81548160ff02191690831515021790555050565b60255481565b602960019054906101000a900460ff161580613e835750600a60003373ffffffffffffffffffffffffffffffffffffffff1673ffffffffffffffffffffffffffffffffffffffff16815260200190815260200160002060009054906101000a900460ff165b613ef5576040517f08c379a00000000000000000000000000000000000000000000000000000000081526004018080602001828103825260178152602001807f41646472657373206e6f742077686974656c697374656400000000000000000081525060200191505060405180910390fd5b6000600960003373ffffffffffffffffffffffffffffffffffffffff1673ffffffffffffffffffffffffffffffffffffffff1681526020019081526020016000205411613faa576040517f08c379a000000000000000000000000000000000000000000000000000000000815260040180806020018281038252600f8152602001807f4e6f7420616e20696e766573746f72000000000000000000000000000000000081525060200191505060405180910390fd5b600b60003373ffffffffffffffffffffffffffffffffffffffff1673ffffffffffffffffffffffffffffffffffffffff16815260200190815260200160002060009054906101000a900460ff161561406a576040517f08c379a000000000000000000000000000000000000000000000000000000000815260040180806020018281038252601b8152602001807f416c726561647920636c61696d6564206f7220726566756e646564000000000081525060200191505060405180910390fd5b602960039054906101000a900460ff1661426057601b544210156140f6576040517f08c379a000000000000000000000000000000000000000000000000000000000815260040180806020018281038252600e8152602001807f4e6f7420796574206f70656e656400000000000000000000000000000000000081525060200191505060405180910390fd5b601c5442101561416e576040517f08c379a000000000000000000000000000000000000000000000000000000000815260040180806020018281038252600e8152602001807f4e6f742079657420636c6f73656400000000000000000000000000000000000081525060200191505060405180910390fd5b6000601854116141e6576040517f08c379a000000000000000000000000000000000000000000000000000000000815260040180806020018281038252600b8152602001807f4e6f20736f66742063617000000000000000000000000000000000000000000081525060200191505060405180910390fd5b6018546013541061425f576040517f08c379a00000000000000000000000000000000000000000000000000000000081526004018080602001828103825260108152602001807f536f66742063617020726561636865640000000000000000000000000000000081525060200191505060405180910390fd5b5b6001600b60003373ffffffffffffffffffffffffffffffffffffffff1673ffffffffffffffffffffffffffffffffffffffff16815260200190815260200160002060006101000a81548160ff0219169083151502179055506000600960003373ffffffffffffffffffffffffffffffffffffffff1673ffffffffffffffffffffffffffffffffffffffff16815260200190815260200160002054905060004790506000811161430e57600080fd5b8082111561431a578091505b600082111561436b573373ffffffffffffffffffffffffffffffffffffffff166108fc839081150290604051600060405180830381858888f19350505050158015614369573d6000803e3d6000fd5b505b5050565b60155481565b601b5481565b3373ffffffffffffffffffffffffffffffffffffffff1660008054906101000a900473ffffffffffffffffffffffffffffffffffffffff1673ffffffffffffffffffffffffffffffffffffffff16148061442257503373ffffffffffffffffffffffffffffffffffffffff16600160009054906101000a900473ffffffffffffffffffffffffffffffffffffffff1673ffffffffffffffffffffffffffffffffffffffff16145b61442b57600080fd5b80602960026101000a81548160ff02191690831515021790555050565b60225481565b60265481565b3373ffffffffffffffffffffffffffffffffffffffff1660008054906101000a900473ffffffffffffffffffffffffffffffffffffffff1673ffffffffffffffffffffffffffffffffffffffff1614806144fb57503373ffffffffffffffffffffffffffffffffffffffff16600160009054906101000a900473ffffffffffffffffffffffffffffffffffffffff1673ffffffffffffffffffffffffffffffffffffffff16145b61450457600080fd5b69021e19e0c9bab240000081101561451b57600080fd5b670de0b6b3a7640000810260248190555050565b602960009054906101000a900460ff1615801561459a57503373ffffffffffffffffffffffffffffffffffffffff16600760009054906101000a900473ffffffffffffffffffffffffffffffffffffffff1673ffffffffffffffffffffffffffffffffffffffff1614155b80156145f457503373ffffffffffffffffffffffffffffffffffffffff16600160009054906101000a900473ffffffffffffffffffffffffffffffffffffffff1673ffffffffffffffffffffffffffffffffffffffff1614155b156145fe57600080fd5b602960009054906101000a900460ff16801561466857503373ffffffffffffffffffffffffffffffffffffffff16600160009054906101000a900473ffffffffffffffffffffffffffffffffffffffff1673ffffffffffffffffffffffffffffffffffffffff1614155b1561467257600080fd5b602960039054906101000a900460ff161561468c57600080fd5b6001602960036101000a81548160ff0219169083151502179055506000600560009054906101000a900473ffffffffffffffffffffffffffffffffffffffff1673ffffffffffffffffffffffffffffffffffffffff166370a08231306040518263ffffffff1660e01b8152600401808273ffffffffffffffffffffffffffffffffffffffff16815260200191505060206040518083038186803b15801561473257600080fd5b505afa158015614746573d6000803e3d6000fd5b505050506040513d602081101561475c57600080fd5b81019080805190602001909291905050509050600081111561486a57600560009054906101000a900473ffffffffffffffffffffffffffffffffffffffff1673ffffffffffffffffffffffffffffffffffffffff1663a9059cbb600760009054906101000a900473ffffffffffffffffffffffffffffffffffffffff16836040518363ffffffff1660e01b8152600401808373ffffffffffffffffffffffffffffffffffffffff16815260200182815260200192505050602060405180830381600087803b15801561482d57600080fd5b505af1158015614841573d6000803e3d6000fd5b505050506040513d602081101561485757600080fd5b8101908080519060200190929190505050505b50565b602a5481565b60135481565b602f5481565b600b6020528060005260406000206000915054906101000a900460ff1681565b3373ffffffffffffffffffffffffffffffffffffffff16600760009054906101000a900473ffffffffffffffffffffffffffffffffffffffff1673ffffffffffffffffffffffffffffffffffffffff16148061494657503373ffffffffffffffffffffffffffffffffffffffff1660008054906101000a900473ffffffffffffffffffffffffffffffffffffffff1673ffffffffffffffffffffffffffffffffffffffff16145b6149b8576040517f08c379a000000000000000000000000000000000000000000000000000000000815260040180806020018281038252601e8152602001807f4e6f742070726573616c652063726561746f72206f7220666163746f7279000081525060200191505060405180910390fd5b60008282905011602960016101000a81548160ff02191690831515021790555060005b82829050811015614a73576001600a60008585858181106149f857fe5b9050602002013573ffffffffffffffffffffffffffffffffffffffff1673ffffffffffffffffffffffffffffffffffffffff1673ffffffffffffffffffffffffffffffffffffffff16815260200190815260200160002060006101000a81548160ff02191690831515021790555080806001019150506149db565b505050565b601e5481565b602960039054906101000a900460ff1615614b01576040517f08c379a00000000000000000000000000000000000000000000000000000000081526004018080602001828103825260098152602001807f43616e63656c6c6564000000000000000000000000000000000000000000000081525060200191505060405180910390fd5b600060135411614b1057600080fd5b602960009054906101000a900460ff1615614b93576040517f08c379a00000000000000000000000000000000000000000000000000000000081526004018080602001828103825260178152602001807f4c697175696469747920616c726561647920616464656400000000000000000081525060200191505060405180910390fd5b602960019054906101000a900460ff161580614bf85750600a60003373ffffffffffffffffffffffffffffffffffffffff1673ffffffffffffffffffffffffffffffffffffffff16815260200190815260200160002060009054906101000a900460ff165b80614c505750600760009054906101000a900473ffffffffffffffffffffffffffffffffffffffff1673ffffffffffffffffffffffffffffffffffffffff163373ffffffffffffffffffffffffffffffffffffffff16145b614ca5576040517f08c379a0000000000000000000000000000000000000000000000000000000008152600401808060200182810382526026815260200180615daf6026913960400191505060405180910390fd5b614cc2670de0b6b3a764000060175461595590919063ffffffff16565b60135410158015614cd45750601e5442105b15614da157600760009054906101000a900473ffffffffffffffffffffffffffffffffffffffff1673ffffffffffffffffffffffffffffffffffffffff163373ffffffffffffffffffffffffffffffffffffffff1614614d9c576040517f08c379a00000000000000000000000000000000000000000000000000000000081526004018080602001828103825260138152602001807f4e6f742070726573616c652063726561746f720000000000000000000000000081525060200191505060405180910390fd5b614fa5565b601e544210614f3657600760009054906101000a900473ffffffffffffffffffffffffffffffffffffffff1673ffffffffffffffffffffffffffffffffffffffff163373ffffffffffffffffffffffffffffffffffffffff161480614e4557506000600960003373ffffffffffffffffffffffffffffffffffffffff1673ffffffffffffffffffffffffffffffffffffffff16815260200190815260200160002054115b614eb7576040517f08c379a000000000000000000000000000000000000000000000000000000000815260040180806020018281038252601f8152602001807f4e6f742070726573616c652063726561746f72206f7220696e766573746f720081525060200191505060405180910390fd5b6018546013541015614f31576040517f08c379a00000000000000000000000000000000000000000000000000000000081526004018080602001828103825260148152602001807f536f667420636170206e6f74207265616368656400000000000000000000000081525060200191505060405180910390fd5b614fa4565b6040517f08c379a000000000000000000000000000000000000000000000000000000000815260040180806020018281038252601d8152602001807f4c69717569646974792063616e6e6f742062652061646465642079657400000081525060200191505060405180910390fd5b5b6001602960006101000a81548160ff021916908315150217905550600060135490506000602960029054906101000a900460ff1661502d5760006150076064614ff9600c548661584690919063ffffffff16565b6158cc90919063ffffffff16565b9050600d5481118061501b575082600d5410155b61502757600d54615029565b805b9150505b600081111561513157615049818361595590919063ffffffff16565b9150600160009054906101000a900473ffffffffffffffffffffffffffffffffffffffff1673ffffffffffffffffffffffffffffffffffffffff166108fc829081150290604051600060405180830381858888f193505050501580156150b3573d6000803e3d6000fd5b506150c7818361595590919063ffffffff16565b915060008054906101000a900473ffffffffffffffffffffffffffffffffffffffff1673ffffffffffffffffffffffffffffffffffffffff166108fc829081150290604051600060405180830381858888f1935050505015801561512f573d6000803e3d6000fd5b505b600061515b606461514d6020548661584690919063ffffffff16565b6158cc90919063ffffffff16565b9050600061518e601d54615180670de0b6b3a76400008561584690919063ffffffff16565b6158cc90919063ffffffff16565b90506000600460009054906101000a900473ffffffffffffffffffffffffffffffffffffffff1673ffffffffffffffffffffffffffffffffffffffff16635a2b0c746040518163ffffffff1660e01b815260040160206040518083038186803b1580156151fa57600080fd5b505afa15801561520e573d6000803e3d6000fd5b505050506040513d602081101561522457600080fd5b81019080805190602001909291905050509050600560009054906101000a900473ffffffffffffffffffffffffffffffffffffffff1673ffffffffffffffffffffffffffffffffffffffff1663095ea7b382846040518363ffffffff1660e01b8152600401808373ffffffffffffffffffffffffffffffffffffffff16815260200182815260200192505050602060405180830381600087803b1580156152ca57600080fd5b505af11580156152de573d6000803e3d6000fd5b505050506040513d60208110156152f457600080fd5b8101908080519060200190929190505050508073ffffffffffffffffffffffffffffffffffffffff1663f305d71984600560009054906101000a900473ffffffffffffffffffffffffffffffffffffffff1685600080600260009054906101000a900473ffffffffffffffffffffffffffffffffffffffff16615382610384426157be90919063ffffffff16565b6040518863ffffffff1660e01b8152600401808773ffffffffffffffffffffffffffffffffffffffff1681526020018681526020018581526020018481526020018373ffffffffffffffffffffffffffffffffffffffff16815260200182815260200196505050505050506060604051808303818588803b15801561540657600080fd5b505af115801561541a573d6000803e3d6000fd5b50505050506040513d606081101561543157600080fd5b810190808051906020019092919080519060200190929190805190602001909291905050505050506154a2615479670de0b6b3a764000060105461584690919063ffffffff16565b615494670de0b6b3a76400004761584690919063ffffffff16565b6158cc90919063ffffffff16565b6011819055506201518042016012819055505050505050565b600260009054906101000a900473ffffffffffffffffffffffffffffffffffffffff1681565b602960039054906101000a900460ff1681565b3373ffffffffffffffffffffffffffffffffffffffff1660008054906101000a900473ffffffffffffffffffffffffffffffffffffffff1673ffffffffffffffffffffffffffffffffffffffff16148061559b57503373ffffffffffffffffffffffffffffffffffffffff16600160009054906101000a900473ffffffffffffffffffffffffffffffffffffffff1673ffffffffffffffffffffffffffffffffffffffff16145b6155a457600080fd5b60005b8282905081101561563f576001603060008585858181106155c457fe5b9050602002013573ffffffffffffffffffffffffffffffffffffffff1673ffffffffffffffffffffffffffffffffffffffff1673ffffffffffffffffffffffffffffffffffffffff16815260200190815260200160002060006101000a81548160ff02191690831515021790555080806001019150506155a7565b505050565b60185481565b60245481565b60115481565b601a5481565b603060003373ffffffffffffffffffffffffffffffffffffffff1673ffffffffffffffffffffffffffffffffffffffff16815260200190815260200160002060009054906101000a900460ff1661571b576040517f08c379a000000000000000000000000000000000000000000000000000000000815260040180806020018281038252601f8152602001807f41756469746f722041646472657373206e6f742077686974656c69737465640081525060200191505060405180910390fd5b8660316000018190555085603160010160006101000a81548160ff02191690831515021790555084603160010160016101000a81548160ff021916908315150217905550838360316002019190615773929190615d11565b50818160316003019190615788929190615d11565b5050505050505050565b60235481565b600560009054906101000a900473ffffffffffffffffffffffffffffffffffffffff1681565b60008082840190508381101561583c576040517f08c379a000000000000000000000000000000000000000000000000000000000815260040180806020018281038252601b8152602001807f536166654d6174683a206164646974696f6e206f766572666c6f77000000000081525060200191505060405180910390fd5b8091505092915050565b60008083141561585957600090506158c6565b600082840290508284828161586a57fe5b04146158c1576040517f08c379a0000000000000000000000000000000000000000000000000000000008152600401808060200182810382526021815260200180615dd56021913960400191505060405180910390fd5b809150505b92915050565b6000808211615943576040517f08c379a000000000000000000000000000000000000000000000000000000000815260040180806020018281038252601a8152602001807f536166654d6174683a206469766973696f6e206279207a65726f00000000000081525060200191505060405180910390fd5b81838161594c57fe5b04905092915050565b6000828211156159cd576040517f08c379a000000000000000000000000000000000000000000000000000000000815260040180806020018281038252601e8152602001807f536166654d6174683a207375627472616374696f6e206f766572666c6f77000081525060200191505060405180910390fd5b818303905092915050565b600080600080600360009054906101000a900473ffffffffffffffffffffffffffffffffffffffff1673ffffffffffffffffffffffffffffffffffffffff166387cad0bf336040518263ffffffff1660e01b8152600401808273ffffffffffffffffffffffffffffffffffffffff16815260200191505060606040518083038186803b158015615a6757600080fd5b505afa158015615a7b573d6000803e3d6000fd5b505050506040513d6060811015615a9157600080fd5b810190808051906020019092919080519060200190929190805190602001909291905050508093508194508295505050506000600460009054906101000a900473ffffffffffffffffffffffffffffffffffffffff1673ffffffffffffffffffffffffffffffffffffffff16638d3af9a26040518163ffffffff1660e01b815260040160206040518083038186803b158015615b2c57600080fd5b505afa158015615b40573d6000803e3d6000fd5b505050506040513d6020811015615b5657600080fd5b810190808051906020019092919050505090506000600460009054906101000a900473ffffffffffffffffffffffffffffffffffffffff1673ffffffffffffffffffffffffffffffffffffffff1663c4086893336040518263ffffffff1660e01b8152600401808273ffffffffffffffffffffffffffffffffffffffff16815260200191505060206040518083038186803b158015615bf457600080fd5b505afa158015615c08573d6000803e3d6000fd5b505050506040513d6020811015615c1e57600080fd5b810190808051906020019092919050505090504282850111615c5057615c4d85826157be90919063ffffffff16565b90505b6027548110615cd5576000615c856064615c7760285460165461584690919063ffffffff16565b6158cc90919063ffffffff16565b9050615cc8615c9f8260165461595590919063ffffffff16565b615cba670de0b6b3a76400008b61584690919063ffffffff16565b6158cc90919063ffffffff16565b9650505050505050615d0c565b615d04601654615cf6670de0b6b3a76400008a61584690919063ffffffff16565b6158cc90919063ffffffff16565b955050505050505b919050565b828054600181600116156101000203166002900490600052602060002090601f016020900481019282601f10615d5257803560ff1916838001178555615d80565b82800160010185558215615d80579182015b82811115615d7f578235825591602001919060010190615d64565b5b509050615d8d9190615d91565b5090565b5b80821115615daa576000816000905550600101615d92565b509056fe4e6f742077686974656c6973746564206f72206e6f742070726573616c652063726561746f72536166654d6174683a206d756c7469706c69636174696f6e206f766572666c6f77a264697066735822122074ef02b366ae98bc4ffd463a3a2840bd6c11a742bd0365be5c6f2a32c0e6833664736f6c634300060c0033608060405234801561001057600080fd5b50604051610df4380380610df48339818101604052608081101561003357600080fd5b8101908080519060200190929190805190602001909291908051906020019092919080519060200190929190505050838383834283116100be576040517f08c379a0000000000000000000000000000000000000000000000000000000008152600401808060200182810382526032815260200180610dc26032913960400191505060405180910390fd5b836000806101000a81548173ffffffffffffffffffffffffffffffffffffffff021916908373ffffffffffffffffffffffffffffffffffffffff16021790555081600160006101000a81548173ffffffffffffffffffffffffffffffffffffffff021916908373ffffffffffffffffffffffffffffffffffffffff1602179055508260038190555080600260006101000a81548173ffffffffffffffffffffffffffffffffffffffff021916908373ffffffffffffffffffffffffffffffffffffffff1602179055505050505050505050610c248061019e6000396000f3fe608060405234801561001057600080fd5b50600436106100625760003560e01c80631e9ac3c8146100675780632609854e1461007157806338af3eed146100a557806386d1a69f146100d9578063b91d4001146100e3578063fc0c546a14610101575b600080fd5b61006f610135565b005b6100796103e3565b604051808273ffffffffffffffffffffffffffffffffffffffff16815260200191505060405180910390f35b6100ad61040d565b604051808273ffffffffffffffffffffffffffffffffffffffff16815260200191505060405180910390f35b6100e1610437565b005b6100eb6106e5565b6040518082815260200191505060405180910390f35b6101096106ef565b604051808273ffffffffffffffffffffffffffffffffffffffff16815260200191505060405180910390f35b600354421015610190576040517f08c379a0000000000000000000000000000000000000000000000000000000008152600401808060200182810382526032815260200180610b4a6032913960400191505060405180910390fd5b600160009054906101000a900473ffffffffffffffffffffffffffffffffffffffff1673ffffffffffffffffffffffffffffffffffffffff163373ffffffffffffffffffffffffffffffffffffffff1614610253576040517f08c379a000000000000000000000000000000000000000000000000000000000815260040180806020018281038252601c8152602001807f4f6e6c792062656e65666963696172792063616e20617070726f76650000000081525060200191505060405180910390fd5b60008060009054906101000a900473ffffffffffffffffffffffffffffffffffffffff1673ffffffffffffffffffffffffffffffffffffffff166370a08231306040518263ffffffff1660e01b8152600401808273ffffffffffffffffffffffffffffffffffffffff16815260200191505060206040518083038186803b1580156102dd57600080fd5b505afa1580156102f1573d6000803e3d6000fd5b505050506040513d602081101561030757600080fd5b8101908080519060200190929190505050905060008111610373576040517f08c379a0000000000000000000000000000000000000000000000000000000008152600401808060200182810382526023815260200180610bcc6023913960400191505060405180910390fd5b6103e0600260009054906101000a900473ffffffffffffffffffffffffffffffffffffffff168260008054906101000a900473ffffffffffffffffffffffffffffffffffffffff1673ffffffffffffffffffffffffffffffffffffffff166107189092919063ffffffff16565b50565b6000600260009054906101000a900473ffffffffffffffffffffffffffffffffffffffff16905090565b6000600160009054906101000a900473ffffffffffffffffffffffffffffffffffffffff16905090565b600354421015610492576040517f08c379a0000000000000000000000000000000000000000000000000000000008152600401808060200182810382526032815260200180610b4a6032913960400191505060405180910390fd5b600160009054906101000a900473ffffffffffffffffffffffffffffffffffffffff1673ffffffffffffffffffffffffffffffffffffffff163373ffffffffffffffffffffffffffffffffffffffff1614610555576040517f08c379a000000000000000000000000000000000000000000000000000000000815260040180806020018281038252601c8152602001807f4f6e6c792062656e65666963696172792063616e20617070726f76650000000081525060200191505060405180910390fd5b60008060009054906101000a900473ffffffffffffffffffffffffffffffffffffffff1673ffffffffffffffffffffffffffffffffffffffff166370a08231306040518263ffffffff1660e01b8152600401808273ffffffffffffffffffffffffffffffffffffffff16815260200191505060206040518083038186803b1580156105df57600080fd5b505afa1580156105f3573d6000803e3d6000fd5b505050506040513d602081101561060957600080fd5b8101908080519060200190929190505050905060008111610675576040517f08c379a0000000000000000000000000000000000000000000000000000000008152600401808060200182810382526023815260200180610bcc6023913960400191505060405180910390fd5b6106e2600160009054906101000a900473ffffffffffffffffffffffffffffffffffffffff168260008054906101000a900473ffffffffffffffffffffffffffffffffffffffff1673ffffffffffffffffffffffffffffffffffffffff166107189092919063ffffffff16565b50565b6000600354905090565b60008060009054906101000a900473ffffffffffffffffffffffffffffffffffffffff16905090565b6107b58363a9059cbb60e01b8484604051602401808373ffffffffffffffffffffffffffffffffffffffff16815260200182815260200192505050604051602081830303815290604052907bffffffffffffffffffffffffffffffffffffffffffffffffffffffff19166020820180517bffffffffffffffffffffffffffffffffffffffffffffffffffffffff83818316178352505050506107ba565b505050565b606061081c826040518060400160405280602081526020017f5361666545524332303a206c6f772d6c6576656c2063616c6c206661696c65648152508573ffffffffffffffffffffffffffffffffffffffff166108a99092919063ffffffff16565b90506000815111156108a45780806020019051602081101561083d57600080fd5b81019080805190602001909291905050506108a3576040517f08c379a000000000000000000000000000000000000000000000000000000000815260040180806020018281038252602a815260200180610ba2602a913960400191505060405180910390fd5b5b505050565b60606108b884846000856108c1565b90509392505050565b60608247101561091c576040517f08c379a0000000000000000000000000000000000000000000000000000000008152600401808060200182810382526026815260200180610b7c6026913960400191505060405180910390fd5b61092585610a6a565b610997576040517f08c379a000000000000000000000000000000000000000000000000000000000815260040180806020018281038252601d8152602001807f416464726573733a2063616c6c20746f206e6f6e2d636f6e747261637400000081525060200191505060405180910390fd5b600060608673ffffffffffffffffffffffffffffffffffffffff1685876040518082805190602001908083835b602083106109e757805182526020820191506020810190506020830392506109c4565b6001836020036101000a03801982511681845116808217855250505050505090500191505060006040518083038185875af1925050503d8060008114610a49576040519150601f19603f3d011682016040523d82523d6000602084013e610a4e565b606091505b5091509150610a5e828286610a7d565b92505050949350505050565b600080823b905060008111915050919050565b60608315610a8d57829050610b42565b600083511115610aa05782518084602001fd5b816040517f08c379a00000000000000000000000000000000000000000000000000000000081526004018080602001828103825283818151815260200191508051906020019080838360005b83811015610b07578082015181840152602081019050610aec565b50505050905090810190601f168015610b345780820380516001836020036101000a031916815260200191505b509250505060405180910390fd5b939250505056fe546f6b656e54696d656c6f636b3a2063757272656e742074696d65206973206265666f72652072656c656173652074696d65416464726573733a20696e73756666696369656e742062616c616e636520666f722063616c6c5361666545524332303a204552433230206f7065726174696f6e20646964206e6f742073756363656564546f6b656e54696d656c6f636b3a206e6f20746f6b656e7320746f2072656c65617365a2646970667358221220228c5d4101396d24274b421c44bd8b948e978b9ba4b18c72ab5c104b0aec9e3a64736f6c634300060c0033546f6b656e54696d656c6f636b3a2072656c656173652074696d65206973206265666f72652063757272656e742074696d65a26469706673582212208f30ec18764d08c9e46ef867e3065483cbc622c69a7661289f0355507439bdeb64736f6c634300060c0033",
  "immutableReferences": {
    "1792": [
      {
        "length": 32,
        "start": 500
      },
      {
        "length": 32,
        "start": 564
      },
      {
        "length": 32,
        "start": 597
      },
      {
        "length": 32,
        "start": 759
      },
      {
        "length": 32,
        "start": 921
      },
      {
        "length": 32,
        "start": 1494
      },
      {
        "length": 32,
        "start": 1886
      },
      {
        "length": 32,
        "start": 2173
      },
      {
        "length": 32,
        "start": 2453
      },
      {
        "length": 32,
        "start": 2656
      },
      {
        "length": 32,
        "start": 2828
      },
      {
        "length": 32,
        "start": 3083
      },
      {
        "length": 32,
        "start": 3291
      },
      {
        "length": 32,
        "start": 3453
      },
      {
        "length": 32,
        "start": 4048
      },
      {
        "length": 32,
        "start": 4539
      },
      {
        "length": 32,
        "start": 4705
      },
      {
        "length": 32,
        "start": 4916
      },
      {
        "length": 32,
        "start": 5089
      },
      {
        "length": 32,
        "start": 6752
      }
    ]
  },
  "source": "// SPDX-License-Identifier: MIT\npragma solidity 0.6.12;\npragma experimental ABIEncoderV2;\n\nimport \"@openzeppelin/contracts/token/ERC20/IERC20.sol\";\nimport \"@openzeppelin/contracts/utils/ReentrancyGuard.sol\";\n\nimport \"./XDaiStarterPresale.sol\";\nimport \"./XDaiStarterInfo.sol\";\nimport \"./XDaiStarterLiquidityLock.sol\";\nimport \"./XDPToken.sol\";\nimport \"./XDaiStarterStaking.sol\";\n\n// Not used?\ninterface IHoneySwapV2Factory {\n    function getPair(address tokenA, address tokenB)\n        external\n        view\n        returns (address pair);\n}\n\ncontract XDaiStarterFactory is ReentrancyGuard {\n    using SafeMath for uint256;\n\n    event PresaleCreated(bytes32 title, uint256 xdsId, address creator);\n    event Received(address indexed from, uint256 amount);\n\n    XDaiStarterInfo public immutable XDS;\n    XDPToken public xdpToken;\n\n    XDaiStarterStaking public xdsStakingPool;\n\n    mapping(address => uint256) public lastClaimedTimestamp;\n\n    constructor(\n        address _xdpToken,\n        address _xdsInfoAddress,\n        address _xdsStakingPool\n    ) public {\n        xdpToken = XDPToken(_xdpToken);\n        XDS = XDaiStarterInfo(_xdsInfoAddress);\n        xdsStakingPool = XDaiStarterStaking(_xdsStakingPool);\n    }\n\n    receive() external payable {\n        emit Received(msg.sender, msg.value);\n    }\n\n    struct PresaleInfo {\n        address tokenAddress;\n        address unsoldTokensDumpAddress;\n        address[] whitelistedAddresses;\n        uint256 tokenPriceInWei;\n        uint256 hardCapInWei;\n        uint256 softCapInWei;\n        uint256 maxInvestInWei;\n        uint256 minInvestInWei;\n        uint256 openTime;\n        uint256 closeTime;\n    }\n\n    struct PresaleHoneySwapInfo {\n        uint256 listingPriceInWei;\n        uint256 liquidityAddingTime;\n        uint256 lpTokensLockDurationInDays;\n        uint256 liquidityPercentageAllocation;\n    }\n\n    struct PresaleStringInfo {\n        bytes32 saleTitle;\n        bytes32 linkTelegram;\n        bytes32 linkGithub;\n        bytes32 linkTwitter;\n        bytes32 linkWebsite;\n        bytes32 linkLogo;\n    }\n\n    // from @uniswap/v2-periphery/contracts/libraries/UniswapV2Library.sol\n    // returns sorted token addresses, used to handle return values from pairs sorted in this order\n    function sortTokens(address tokenA, address tokenB) internal pure returns (address token0, address token1) {\n        require(tokenA != tokenB, 'XDaiStarterFactory: IDENTICAL_ADDRESSES');\n        (token0, token1) = tokenA < tokenB ? (tokenA, tokenB) : (tokenB, tokenA);\n        require(token0 != address(0), 'XDaiStarterFactory: ZERO_ADDRESS');\n    }\n\n    // from @uniswap/v2-periphery/contracts/libraries/UniswapV2Library.sol\n    // calculates the CREATE2 address for a pair without making any external calls\n    function pairFor(address factory, address tokenA, address tokenB) internal pure returns (address pair) {\n        // tokens sorted within fxn above\n        (address token0, address token1) = sortTokens(tokenA, tokenB);\n        pair = address(uint(keccak256(abi.encodePacked(\n                hex'ff',\n                factory,\n                keccak256(abi.encodePacked(token0, token1)),\n                hex'3f88503e8580ab941773b59034fb4b2a63e86dbc031b3633a925533ad3ed2b93' // honeyswap init code hash\n            ))));\n    }\n\n    function initializePresale(\n        XDaiStarterPresale _presale,\n        uint256 _totalTokens,\n        uint256 _finalTokenPriceInWei,\n        PresaleInfo calldata _info,\n        PresaleHoneySwapInfo calldata _honeyInfo,\n        PresaleStringInfo calldata _stringInfo\n    ) internal {\n        _presale.setAddressInfo(\n            msg.sender,\n            _info.tokenAddress,\n            address(xdpToken),\n            _info.unsoldTokensDumpAddress\n        );\n        _presale.setGeneralInfo(\n            _totalTokens,\n            _finalTokenPriceInWei,\n            _info.hardCapInWei,\n            _info.softCapInWei,\n            _info.maxInvestInWei,\n            _info.minInvestInWei,\n            _info.openTime,\n            _info.closeTime\n        );\n        _presale.setHoneySwapInfo(\n            _honeyInfo.listingPriceInWei,\n            _honeyInfo.liquidityAddingTime,\n            _honeyInfo.lpTokensLockDurationInDays,\n            _honeyInfo.liquidityPercentageAllocation\n        );\n        _presale.setStringInfo(\n            _stringInfo.saleTitle,\n            _stringInfo.linkTelegram,\n            _stringInfo.linkGithub,\n            _stringInfo.linkTwitter,\n            _stringInfo.linkWebsite,\n            _stringInfo.linkLogo\n        );\n\n        _presale.addWhitelistedAddresses(_info.whitelistedAddresses);\n        _presale.setMinInvestorXDSBalance(XDS.getMinInvestorXDPBalance());\n    }\n\n    function createPresale(\n        PresaleInfo calldata _info,\n        PresaleHoneySwapInfo calldata _honeyInfo,\n        PresaleStringInfo calldata _stringInfo\n    ) external {\n        IERC20 token = IERC20(_info.tokenAddress);\n\n        XDaiStarterPresale presale =\n            new XDaiStarterPresale(\n                address(this),\n                address(XDS),\n                XDS.owner(),\n                XDS.getMinRewardQualifyBal(),\n                XDS.getMinRewardQualifyPercentage()\n            );\n\n        // What pool token on xDai?\n        uint256 maxXDaiPoolTokenAmount =\n            _info.hardCapInWei.mul(_honeyInfo.liquidityPercentageAllocation).div(100);\n        uint256 maxLiqPoolTokenAmount =\n            maxXDaiPoolTokenAmount.mul(1e18).div(_honeyInfo.listingPriceInWei);\n        uint256 maxTokensToBeSold =\n            _info.hardCapInWei.mul(1e18).div(_info.tokenPriceInWei);\n        uint256 requiredTokenAmount =\n            maxLiqPoolTokenAmount.add(maxTokensToBeSold);\n\n        token.transferFrom(msg.sender, address(presale), requiredTokenAmount);\n\n        uint256 presaleGrantId;\n        if (\n            xdpToken.balanceOf(address(this)) >= XDS.getPresaleGrantAmount()\n        ) {\n            // locked incubator bonus XDS tokens if presale succeeds\n            XDaiStarterLiquidityLock incubatorLock =\n                new XDaiStarterLiquidityLock(\n                    xdpToken,\n                    _honeyInfo.liquidityAddingTime + 30 days,\n                    XDS.getIncubatorMsigAddress(),\n                    msg.sender\n                );\n            xdpToken.transfer(\n                address(incubatorLock),\n                XDS.getPresaleGrantAmount()\n            );\n            presaleGrantId = XDS.addPresaleGrantAddress(\n                address(incubatorLock)\n            );\n        }\n\n        initializePresale(\n            presale,\n            maxTokensToBeSold,\n            _info.tokenPriceInWei,\n            _info,\n            _honeyInfo,\n            _stringInfo\n        );\n\n        IHoneySwapV2Factory honeySwapFactory =\n            IHoneySwapV2Factory(XDS.getHoneySwapFactory());\n\n        address pairAddress =\n            pairFor(\n                address(honeySwapFactory),\n                address(token),\n                XDS.getWxDai()\n            );\n        XDaiStarterLiquidityLock liquidityLock =\n            new XDaiStarterLiquidityLock(\n                IERC20(pairAddress),\n                _honeyInfo.liquidityAddingTime +\n                    (_honeyInfo.lpTokensLockDurationInDays * 1 days),\n                msg.sender,\n                address(0)\n            );\n\n        uint256 xdsId = XDS.addPresaleAddress(address(presale));\n        presale.setXdsInfo(\n            address(liquidityLock),\n            XDS.getDevFeePercentage(),\n            XDS.getMinDevFeeInWei(),\n            xdsId,\n            presaleGrantId,\n            address(xdsStakingPool)\n        );\n\n        emit PresaleCreated(_stringInfo.saleTitle, xdsId, msg.sender);\n    }\n\n    function claimHodlerFund() external nonReentrant {\n        require(address(this).balance > 0, \"No rewards to claim\");\n        require(\n            lastClaimedTimestamp[msg.sender] + XDS.getMinClaimTime() <=\n                block.timestamp,\n            \"Invalid Claim Time\"\n        );\n\n        uint256 balance;\n        uint256 lastStakedTimestamp;\n        uint256 lastUnstakedTimestamp;\n        (balance, lastStakedTimestamp, lastUnstakedTimestamp) = xdsStakingPool\n            .accountInfos(msg.sender);\n        uint256 minStakeTime = XDS.getMinStakeTime();\n        uint256 totalHodlerBalance = XDS.getLockedBalance(msg.sender);\n\n        if (lastStakedTimestamp + minStakeTime <= block.timestamp) {\n            totalHodlerBalance = totalHodlerBalance.add(balance);\n        }\n\n        require(\n            totalHodlerBalance >= XDS.getMinRewardQualifyBal() &&\n                totalHodlerBalance <= XDS.getMaxRewardQualifyBal(),\n            \"Do not qualify for rewards\"\n        );\n        lastClaimedTimestamp[msg.sender] = block.timestamp;\n        msg.sender.transfer(\n            totalHodlerBalance.div(xdpToken.totalSupply()).mul(\n                address(this).balance\n            )\n        );\n    }\n}",
  "sourcePath": "/Users/macuser/Documents/Projects/Programming/xDaiStarterParent/xDaiStarter/contracts/XDaiStarterFactory.sol",
  "compiler": {
    "name": "solc",
    "version": "0.6.12+commit.27d51765.Emscripten.clang"
  },
  "schemaVersion": "3.3.4",
  "updatedAt": "2021-04-24T02:43:26.596Z",
  "devdoc": {
    "kind": "dev",
    "methods": {},
    "version": 1
  },
  "userdoc": {
    "kind": "user",
    "methods": {},
    "version": 1
  }
}