{
  "contractName": "XDaiStarterInfo",
  "abi": [
    {
      "inputs": [
        {
          "internalType": "address payable[]",
          "name": "_xdpTokenPresales",
          "type": "address[]"
        }
      ],
      "stateMutability": "nonpayable",
      "type": "constructor"
    },
    {
      "anonymous": false,
      "inputs": [
        {
          "indexed": true,
          "internalType": "address",
          "name": "previousOwner",
          "type": "address"
        },
        {
          "indexed": true,
          "internalType": "address",
          "name": "newOwner",
          "type": "address"
        }
      ],
      "name": "OwnershipTransferred",
      "type": "event"
    },
    {
      "inputs": [],
      "name": "owner",
      "outputs": [
        {
          "internalType": "address",
          "name": "",
          "type": "address"
        }
      ],
      "stateMutability": "view",
      "type": "function"
    },
    {
      "inputs": [],
      "name": "renounceOwnership",
      "outputs": [],
      "stateMutability": "nonpayable",
      "type": "function"
    },
    {
      "inputs": [
        {
          "internalType": "address",
          "name": "newOwner",
          "type": "address"
        }
      ],
      "name": "transferOwnership",
      "outputs": [],
      "stateMutability": "nonpayable",
      "type": "function"
    },
    {
      "inputs": [],
      "name": "getXdpFactoryAddress",
      "outputs": [
        {
          "internalType": "address",
          "name": "",
          "type": "address"
        }
      ],
      "stateMutability": "view",
      "type": "function"
    },
    {
      "inputs": [
        {
          "internalType": "address",
          "name": "_newFactoryAddress",
          "type": "address"
        }
      ],
      "name": "setXdpFactoryAddress",
      "outputs": [],
      "stateMutability": "nonpayable",
      "type": "function"
    },
    {
      "inputs": [
        {
          "internalType": "address",
          "name": "_presale",
          "type": "address"
        }
      ],
      "name": "addPresaleAddress",
      "outputs": [
        {
          "internalType": "uint256",
          "name": "",
          "type": "uint256"
        }
      ],
      "stateMutability": "nonpayable",
      "type": "function"
    },
    {
      "inputs": [],
      "name": "getPresalesCount",
      "outputs": [
        {
          "internalType": "uint256",
          "name": "",
          "type": "uint256"
        }
      ],
      "stateMutability": "view",
      "type": "function"
    },
    {
      "inputs": [
        {
          "internalType": "uint256",
          "name": "xdpId",
          "type": "uint256"
        }
      ],
      "name": "getPresaleAddress",
      "outputs": [
        {
          "internalType": "address",
          "name": "",
          "type": "address"
        }
      ],
      "stateMutability": "view",
      "type": "function"
    },
    {
      "inputs": [
        {
          "internalType": "address",
          "name": "_presaleGrant",
          "type": "address"
        }
      ],
      "name": "addPresaleGrantAddress",
      "outputs": [
        {
          "internalType": "uint256",
          "name": "",
          "type": "uint256"
        }
      ],
      "stateMutability": "nonpayable",
      "type": "function"
    },
    {
      "inputs": [],
      "name": "getPresaleGrantsCount",
      "outputs": [
        {
          "internalType": "uint256",
          "name": "",
          "type": "uint256"
        }
      ],
      "stateMutability": "view",
      "type": "function"
    },
    {
      "inputs": [
        {
          "internalType": "uint256",
          "name": "_id",
          "type": "uint256"
        }
      ],
      "name": "getPresaleGrantAddress",
      "outputs": [
        {
          "internalType": "address",
          "name": "",
          "type": "address"
        }
      ],
      "stateMutability": "view",
      "type": "function"
    },
    {
      "inputs": [],
      "name": "getDevFeePercentage",
      "outputs": [
        {
          "internalType": "uint256",
          "name": "",
          "type": "uint256"
        }
      ],
      "stateMutability": "view",
      "type": "function"
    },
    {
      "inputs": [
        {
          "internalType": "uint256",
          "name": "_devFeePercentage",
          "type": "uint256"
        }
      ],
      "name": "setDevFeePercentage",
      "outputs": [],
      "stateMutability": "nonpayable",
      "type": "function"
    },
    {
      "inputs": [],
      "name": "getMinDevFeeInWei",
      "outputs": [
        {
          "internalType": "uint256",
          "name": "",
          "type": "uint256"
        }
      ],
      "stateMutability": "view",
      "type": "function"
    },
    {
      "inputs": [
        {
          "internalType": "uint256",
          "name": "_minDevFeeInWei",
          "type": "uint256"
        }
      ],
      "name": "setMinDevFeeInWei",
      "outputs": [],
      "stateMutability": "nonpayable",
      "type": "function"
    },
    {
      "inputs": [],
      "name": "getPresaleGrantAmount",
      "outputs": [
        {
          "internalType": "uint256",
          "name": "",
          "type": "uint256"
        }
      ],
      "stateMutability": "view",
      "type": "function"
    },
    {
      "inputs": [
        {
          "internalType": "uint256",
          "name": "_presaleGrantAmount",
          "type": "uint256"
        }
      ],
      "name": "setPresaleGrantAmount",
      "outputs": [],
      "stateMutability": "nonpayable",
      "type": "function"
    },
    {
      "inputs": [],
      "name": "getIncubatorMsigAddress",
      "outputs": [
        {
          "internalType": "address",
          "name": "",
          "type": "address"
        }
      ],
      "stateMutability": "view",
      "type": "function"
    },
    {
      "inputs": [
        {
          "internalType": "address",
          "name": "_incubatorMsigAddress",
          "type": "address"
        }
      ],
      "name": "setIncubatorMsigAddress",
      "outputs": [],
      "stateMutability": "nonpayable",
      "type": "function"
    },
    {
      "inputs": [],
      "name": "getMinRewardQualifyPercentage",
      "outputs": [
        {
          "internalType": "uint256",
          "name": "",
          "type": "uint256"
        }
      ],
      "stateMutability": "view",
      "type": "function"
    },
    {
      "inputs": [
        {
          "internalType": "uint256",
          "name": "_minRewardQualifyPercentage",
          "type": "uint256"
        }
      ],
      "name": "setMinRewardQualifyPercentage",
      "outputs": [],
      "stateMutability": "nonpayable",
      "type": "function"
    },
    {
      "inputs": [],
      "name": "getMinRewardQualifyBal",
      "outputs": [
        {
          "internalType": "uint256",
          "name": "",
          "type": "uint256"
        }
      ],
      "stateMutability": "view",
      "type": "function"
    },
    {
      "inputs": [
        {
          "internalType": "uint256",
          "name": "_minRewardQualifyBal",
          "type": "uint256"
        }
      ],
      "name": "setMinRewardQualifyBal",
      "outputs": [],
      "stateMutability": "nonpayable",
      "type": "function"
    },
    {
      "inputs": [],
      "name": "getMaxRewardQualifyBal",
      "outputs": [
        {
          "internalType": "uint256",
          "name": "",
          "type": "uint256"
        }
      ],
      "stateMutability": "view",
      "type": "function"
    },
    {
      "inputs": [
        {
          "internalType": "uint256",
          "name": "_maxRewardQualifyBal",
          "type": "uint256"
        }
      ],
      "name": "setMaxRewardQualifyBal",
      "outputs": [],
      "stateMutability": "nonpayable",
      "type": "function"
    },
    {
      "inputs": [],
      "name": "getMinInvestorXDPBalance",
      "outputs": [
        {
          "internalType": "uint256",
          "name": "",
          "type": "uint256"
        }
      ],
      "stateMutability": "view",
      "type": "function"
    },
    {
      "inputs": [
        {
          "internalType": "uint256",
          "name": "_minInvestorXDPBalance",
          "type": "uint256"
        }
      ],
      "name": "setMinInvestorXDPBalance",
      "outputs": [],
      "stateMutability": "nonpayable",
      "type": "function"
    },
    {
      "inputs": [],
      "name": "getMinStakeTime",
      "outputs": [
        {
          "internalType": "uint256",
          "name": "",
          "type": "uint256"
        }
      ],
      "stateMutability": "view",
      "type": "function"
    },
    {
      "inputs": [
        {
          "internalType": "uint256",
          "name": "_minStakeTime",
          "type": "uint256"
        }
      ],
      "name": "setMinStakeTime",
      "outputs": [],
      "stateMutability": "nonpayable",
      "type": "function"
    },
    {
      "inputs": [],
      "name": "getMinUnstakeTime",
      "outputs": [
        {
          "internalType": "uint256",
          "name": "",
          "type": "uint256"
        }
      ],
      "stateMutability": "view",
      "type": "function"
    },
    {
      "inputs": [
        {
          "internalType": "uint256",
          "name": "_minUnstakeTime",
          "type": "uint256"
        }
      ],
      "name": "setMinUnstakeTime",
      "outputs": [],
      "stateMutability": "nonpayable",
      "type": "function"
    },
    {
      "inputs": [],
      "name": "getMinClaimTime",
      "outputs": [
        {
          "internalType": "uint256",
          "name": "",
          "type": "uint256"
        }
      ],
      "stateMutability": "view",
      "type": "function"
    },
    {
      "inputs": [
        {
          "internalType": "uint256",
          "name": "_minClaimTime",
          "type": "uint256"
        }
      ],
      "name": "setMinClaimTime",
      "outputs": [],
      "stateMutability": "nonpayable",
      "type": "function"
    },
    {
      "inputs": [],
      "name": "getXdpTokenPresales",
      "outputs": [
        {
          "internalType": "address payable[]",
          "name": "",
          "type": "address[]"
        }
      ],
      "stateMutability": "view",
      "type": "function"
    },
    {
      "inputs": [
        {
          "internalType": "address payable[]",
          "name": "_xdpTokenPresales",
          "type": "address[]"
        }
      ],
      "name": "setXdpTokenPresales",
      "outputs": [],
      "stateMutability": "nonpayable",
      "type": "function"
    },
    {
      "inputs": [
        {
          "internalType": "address payable",
          "name": "sender",
          "type": "address"
        }
      ],
      "name": "getLockedBalance",
      "outputs": [
        {
          "internalType": "uint256",
          "name": "totalLockedBalance",
          "type": "uint256"
        }
      ],
      "stateMutability": "view",
      "type": "function"
    },
    {
      "inputs": [],
      "name": "getHoneySwapRouter",
      "outputs": [
        {
          "internalType": "address",
          "name": "",
          "type": "address"
        }
      ],
      "stateMutability": "view",
      "type": "function"
    },
    {
      "inputs": [
        {
          "internalType": "address",
          "name": "_honeySwapRouter",
          "type": "address"
        }
      ],
      "name": "setHoneySwapRouter",
      "outputs": [],
      "stateMutability": "nonpayable",
      "type": "function"
    },
    {
      "inputs": [],
      "name": "getHoneySwapFactory",
      "outputs": [
        {
          "internalType": "address",
          "name": "",
          "type": "address"
        }
      ],
      "stateMutability": "view",
      "type": "function"
    },
    {
      "inputs": [
        {
          "internalType": "address",
          "name": "_honeySwapFactory",
          "type": "address"
        }
      ],
      "name": "setHoneySwapFactory",
      "outputs": [],
      "stateMutability": "nonpayable",
      "type": "function"
    },
    {
      "inputs": [],
      "name": "getWBNB",
      "outputs": [
        {
          "internalType": "address",
          "name": "",
          "type": "address"
        }
      ],
      "stateMutability": "view",
      "type": "function"
    },
    {
      "inputs": [
        {
          "internalType": "address",
          "name": "_wbnb",
          "type": "address"
        }
      ],
      "name": "setWBNB",
      "outputs": [],
      "stateMutability": "nonpayable",
      "type": "function"
    }
  ],
  "bytecode": "0x60806040526002600155674563918244f4000060025569043c33c19375648000006003556843c33c193756480000600455600a60055568056bc75e2d6310000060065568056bc75e2d63100000600a5562015180600b5562015180600c5562093a80600d556000600f60006101000a81548173ffffffffffffffffffffffffffffffffffffffff021916908373ffffffffffffffffffffffffffffffffffffffff1602179055506000601060006101000a81548173ffffffffffffffffffffffffffffffffffffffff021916908373ffffffffffffffffffffffffffffffffffffffff1602179055506000601160006101000a81548173ffffffffffffffffffffffffffffffffffffffff021916908373ffffffffffffffffffffffffffffffffffffffff1602179055503480156200013757600080fd5b50604051620028733803806200287383398181016040528101906200015d9190620003a5565b60006200016f6200022d60201b60201c565b9050806000806101000a81548173ffffffffffffffffffffffffffffffffffffffff021916908373ffffffffffffffffffffffffffffffffffffffff1602179055508073ffffffffffffffffffffffffffffffffffffffff16600073ffffffffffffffffffffffffffffffffffffffff167f8be0079c531659141344cd1fd0a4f28419497f9722a3daafe3b4186f6b6457e060405160405180910390a35080600e90805190602001906200022592919062000235565b50506200048f565b600033905090565b828054828255906000526020600020908101928215620002b1579160200282015b82811115620002b05782518260006101000a81548173ffffffffffffffffffffffffffffffffffffffff021916908373ffffffffffffffffffffffffffffffffffffffff1602179055509160200191906001019062000256565b5b509050620002c09190620002c4565b5090565b5b80821115620002fd57600081816101000a81549073ffffffffffffffffffffffffffffffffffffffff021916905550600101620002c5565b5090565b600081519050620003128162000475565b92915050565b600082601f8301126200032a57600080fd5b8151620003416200033b8262000418565b620003ea565b915081818352602084019350602081019050838560208402820111156200036757600080fd5b60005b838110156200039b578162000380888262000301565b8452602084019350602083019250506001810190506200036a565b5050505092915050565b600060208284031215620003b857600080fd5b600082015167ffffffffffffffff811115620003d357600080fd5b620003e18482850162000318565b91505092915050565b6000604051905081810181811067ffffffffffffffff821117156200040e57600080fd5b8060405250919050565b600067ffffffffffffffff8211156200043057600080fd5b602082029050602081019050919050565b60006200044e8262000455565b9050919050565b600073ffffffffffffffffffffffffffffffffffffffff82169050919050565b620004808162000441565b81146200048c57600080fd5b50565b6123d4806200049f6000396000f3fe608060405234801561001057600080fd5b506004361061025e5760003560e01c8063715018a611610146578063be19292f116100c3578063d2ce696411610087578063d2ce6964146106b7578063df4eafd4146106d3578063eb5467b0146106ef578063f2fde38b1461070b578063f6674eea14610727578063fb993d21146107435761025e565b8063be19292f14610613578063c408689314610631578063cab27a6414610661578063cd611db11461067d578063d0d0d7301461069b5761025e565b806399fd92bc1161010a57806399fd92bc1461055b578063a0ae93d41461058b578063aabea783146105bb578063bc38fa1b146105d9578063be0247ad146105f55761025e565b8063715018a6146104db578063716eede4146104e55780638d3af9a2146105035780638da5cb5b14610521578063986960a31461053f5761025e565b80634810b405116101df5780635a2b0c74116101a35780635a2b0c74146104295780635b16fe4e146104475780635d5ce3cf146104635780635f75856f146104815780636518cd451461049f5780636ac3861a146104bd5761025e565b80634810b40514610397578063500594da146103b557806356c97e99146103d1578063572bc8c1146103ef57806357ca76791461040d5761025e565b806333835b961161022657806333835b96146102f3578063343ab737146103115780633673775f1461032f5780633b1908111461034b5780633cd221a2146103675761025e565b806305a911671461026357806309a6c336146102815780630dedb2f01461029d5780630e34c01b146102b95780631b2e10a2146102d7575b600080fd5b61026b610773565b604051610278919061221b565b60405180910390f35b61029b60048036038101906102969190611e33565b61077d565b005b6102b760048036038101906102b29190611e33565b610803565b005b6102c1610889565b6040516102ce919061221b565b60405180910390f35b6102f160048036038101906102ec9190611e33565b610893565b005b6102fb610966565b604051610308919061221b565b60405180910390f35b610319610970565b6040516103269190612139565b60405180910390f35b61034960048036038101906103449190611df2565b6109fe565b005b61036560048036038101906103609190611e33565b610a94565b005b610381600480360381019061037c9190611da0565b610b1a565b60405161038e919061221b565b60405180910390f35b61039f610be9565b6040516103ac919061221b565b60405180910390f35b6103cf60048036038101906103ca9190611e33565b610bf3565b005b6103d9610c79565b6040516103e6919061221b565b60405180910390f35b6103f7610c83565b6040516104049190612103565b60405180910390f35b61042760048036038101906104229190611da0565b610cad565b005b610431610d6d565b60405161043e9190612103565b60405180910390f35b610461600480360381019061045c9190611e33565b610d97565b005b61046b610e1d565b604051610478919061221b565b60405180910390f35b610489610e27565b6040516104969190612103565b60405180910390f35b6104a7610e51565b6040516104b4919061221b565b60405180910390f35b6104c5610e5e565b6040516104d29190612103565b60405180910390f35b6104e3610e88565b005b6104ed610fc2565b6040516104fa919061221b565b60405180910390f35b61050b610fcc565b604051610518919061221b565b60405180910390f35b610529610fd6565b6040516105369190612103565b60405180910390f35b61055960048036038101906105549190611e33565b610fff565b005b61057560048036038101906105709190611e33565b611085565b6040516105829190612103565b60405180910390f35b6105a560048036038101906105a09190611da0565b6110c6565b6040516105b2919061221b565b60405180910390f35b6105c3611195565b6040516105d0919061221b565b60405180910390f35b6105f360048036038101906105ee9190611e33565b61119f565b005b6105fd611225565b60405161060a919061221b565b60405180910390f35b61061b61122f565b6040516106289190612103565b60405180910390f35b61064b60048036038101906106469190611dc9565b611259565b604051610658919061221b565b60405180910390f35b61067b60048036038101906106769190611da0565b6114de565b005b61068561159e565b604051610692919061221b565b60405180910390f35b6106b560048036038101906106b09190611da0565b6115ab565b005b6106d160048036038101906106cc9190611e33565b61166b565b005b6106ed60048036038101906106e89190611e33565b6116f1565b005b61070960048036038101906107049190611da0565b611777565b005b61072560048036038101906107209190611da0565b611837565b005b610741600480360381019061073c9190611da0565b6119e0565b005b61075d60048036038101906107589190611e33565b611aa0565b60405161076a9190612103565b60405180910390f35b6000600154905090565b610785611ae1565b73ffffffffffffffffffffffffffffffffffffffff166107a3610fd6565b73ffffffffffffffffffffffffffffffffffffffff16146107f9576040517f08c379a00000000000000000000000000000000000000000000000000000000081526004016107f0906121fb565b60405180910390fd5b8060038190555050565b61080b611ae1565b73ffffffffffffffffffffffffffffffffffffffff16610829610fd6565b73ffffffffffffffffffffffffffffffffffffffff161461087f576040517f08c379a0000000000000000000000000000000000000000000000000000000008152600401610876906121fb565b60405180910390fd5b8060048190555050565b6000600254905090565b61089b611ae1565b73ffffffffffffffffffffffffffffffffffffffff166108b9610fd6565b73ffffffffffffffffffffffffffffffffffffffff161461090f576040517f08c379a0000000000000000000000000000000000000000000000000000000008152600401610906906121fb565b60405180910390fd5b69010f0cf064dd5920000081111561095c576040517f08c379a0000000000000000000000000000000000000000000000000000000008152600401610953906121bb565b60405180910390fd5b8060068190555050565b6000600654905090565b6060600e8054806020026020016040519081016040528092919081815260200182805480156109f457602002820191906000526020600020905b8160009054906101000a900473ffffffffffffffffffffffffffffffffffffffff1673ffffffffffffffffffffffffffffffffffffffff16815260200190600101908083116109aa575b5050505050905090565b610a06611ae1565b73ffffffffffffffffffffffffffffffffffffffff16610a24610fd6565b73ffffffffffffffffffffffffffffffffffffffff1614610a7a576040517f08c379a0000000000000000000000000000000000000000000000000000000008152600401610a71906121fb565b60405180910390fd5b80600e9080519060200190610a90929190611c04565b5050565b610a9c611ae1565b73ffffffffffffffffffffffffffffffffffffffff16610aba610fd6565b73ffffffffffffffffffffffffffffffffffffffff1614610b10576040517f08c379a0000000000000000000000000000000000000000000000000000000008152600401610b07906121fb565b60405180910390fd5b80600d8190555050565b60003373ffffffffffffffffffffffffffffffffffffffff16601260009054906101000a900473ffffffffffffffffffffffffffffffffffffffff1673ffffffffffffffffffffffffffffffffffffffff1614610b7657600080fd5b6008829080600181540180825580915050600190039060005260206000200160009091909190916101000a81548173ffffffffffffffffffffffffffffffffffffffff021916908373ffffffffffffffffffffffffffffffffffffffff1602179055506001600880549050039050919050565b6000600c54905090565b610bfb611ae1565b73ffffffffffffffffffffffffffffffffffffffff16610c19610fd6565b73ffffffffffffffffffffffffffffffffffffffff1614610c6f576040517f08c379a0000000000000000000000000000000000000000000000000000000008152600401610c66906121fb565b60405180910390fd5b8060028190555050565b6000600a54905090565b6000601260009054906101000a900473ffffffffffffffffffffffffffffffffffffffff16905090565b610cb5611ae1565b73ffffffffffffffffffffffffffffffffffffffff16610cd3610fd6565b73ffffffffffffffffffffffffffffffffffffffff1614610d29576040517f08c379a0000000000000000000000000000000000000000000000000000000008152600401610d20906121fb565b60405180910390fd5b80600760006101000a81548173ffffffffffffffffffffffffffffffffffffffff021916908373ffffffffffffffffffffffffffffffffffffffff16021790555050565b6000600f60009054906101000a900473ffffffffffffffffffffffffffffffffffffffff16905090565b610d9f611ae1565b73ffffffffffffffffffffffffffffffffffffffff16610dbd610fd6565b73ffffffffffffffffffffffffffffffffffffffff1614610e13576040517f08c379a0000000000000000000000000000000000000000000000000000000008152600401610e0a906121fb565b60405180910390fd5b8060018190555050565b6000600354905090565b6000600760009054906101000a900473ffffffffffffffffffffffffffffffffffffffff16905090565b6000600980549050905090565b6000601160009054906101000a900473ffffffffffffffffffffffffffffffffffffffff16905090565b610e90611ae1565b73ffffffffffffffffffffffffffffffffffffffff16610eae610fd6565b73ffffffffffffffffffffffffffffffffffffffff1614610f04576040517f08c379a0000000000000000000000000000000000000000000000000000000008152600401610efb906121fb565b60405180910390fd5b600073ffffffffffffffffffffffffffffffffffffffff1660008054906101000a900473ffffffffffffffffffffffffffffffffffffffff1673ffffffffffffffffffffffffffffffffffffffff167f8be0079c531659141344cd1fd0a4f28419497f9722a3daafe3b4186f6b6457e060405160405180910390a360008060006101000a81548173ffffffffffffffffffffffffffffffffffffffff021916908373ffffffffffffffffffffffffffffffffffffffff160217905550565b6000600d54905090565b6000600b54905090565b60008060009054906101000a900473ffffffffffffffffffffffffffffffffffffffff16905090565b611007611ae1565b73ffffffffffffffffffffffffffffffffffffffff16611025610fd6565b73ffffffffffffffffffffffffffffffffffffffff161461107b576040517f08c379a0000000000000000000000000000000000000000000000000000000008152600401611072906121fb565b60405180910390fd5b80600a8190555050565b60006008828154811061109457fe5b9060005260206000200160009054906101000a900473ffffffffffffffffffffffffffffffffffffffff169050919050565b60003373ffffffffffffffffffffffffffffffffffffffff16601260009054906101000a900473ffffffffffffffffffffffffffffffffffffffff1673ffffffffffffffffffffffffffffffffffffffff161461112257600080fd5b6009829080600181540180825580915050600190039060005260206000200160009091909190916101000a81548173ffffffffffffffffffffffffffffffffffffffff021916908373ffffffffffffffffffffffffffffffffffffffff1602179055506001600980549050039050919050565b6000600454905090565b6111a7611ae1565b73ffffffffffffffffffffffffffffffffffffffff166111c5610fd6565b73ffffffffffffffffffffffffffffffffffffffff161461121b576040517f08c379a0000000000000000000000000000000000000000000000000000000008152600401611212906121fb565b60405180910390fd5b8060058190555050565b6000600554905090565b6000601060009054906101000a900473ffffffffffffffffffffffffffffffffffffffff16905090565b6000805b600e805490508110156114d8576000600e828154811061127957fe5b9060005260206000200160009054906101000a900473ffffffffffffffffffffffffffffffffffffffff16905060008173ffffffffffffffffffffffffffffffffffffffff166396b98862866040518263ffffffff1660e01b81526004016112e1919061211e565b60206040518083038186803b1580156112f957600080fd5b505afa15801561130d573d6000803e3d6000fd5b505050506040513d601f19601f820116820180604052508101906113319190611e5c565b905060008273ffffffffffffffffffffffffffffffffffffffff1663c884ef83876040518263ffffffff1660e01b815260040161136e919061211e565b60206040518083038186803b15801561138657600080fd5b505afa15801561139a573d6000803e3d6000fd5b505050506040513d601f19601f820116820180604052508101906113be9190611e5c565b90506000821180156113d05750600481105b156114c85760008373ffffffffffffffffffffffffffffffffffffffff16632f8de8106040518163ffffffff1660e01b815260040160206040518083038186803b15801561141d57600080fd5b505afa158015611431573d6000803e3d6000fd5b505050506040513d601f19601f820116820180604052508101906114559190611e5c565b905060006114ae826114a0670de0b6b3a76400006114928760040361148460048b611ae990919063ffffffff16565b611b3f90919063ffffffff16565b611b3f90919063ffffffff16565b611ae990919063ffffffff16565b90506114c38188611baf90919063ffffffff16565b965050505b505050808060010191505061125d565b50919050565b6114e6611ae1565b73ffffffffffffffffffffffffffffffffffffffff16611504610fd6565b73ffffffffffffffffffffffffffffffffffffffff161461155a576040517f08c379a0000000000000000000000000000000000000000000000000000000008152600401611551906121fb565b60405180910390fd5b80601160006101000a81548173ffffffffffffffffffffffffffffffffffffffff021916908373ffffffffffffffffffffffffffffffffffffffff16021790555050565b6000600880549050905090565b6115b3611ae1565b73ffffffffffffffffffffffffffffffffffffffff166115d1610fd6565b73ffffffffffffffffffffffffffffffffffffffff1614611627576040517f08c379a000000000000000000000000000000000000000000000000000000000815260040161161e906121fb565b60405180910390fd5b80601060006101000a81548173ffffffffffffffffffffffffffffffffffffffff021916908373ffffffffffffffffffffffffffffffffffffffff16021790555050565b611673611ae1565b73ffffffffffffffffffffffffffffffffffffffff16611691610fd6565b73ffffffffffffffffffffffffffffffffffffffff16146116e7576040517f08c379a00000000000000000000000000000000000000000000000000000000081526004016116de906121fb565b60405180910390fd5b80600c8190555050565b6116f9611ae1565b73ffffffffffffffffffffffffffffffffffffffff16611717610fd6565b73ffffffffffffffffffffffffffffffffffffffff161461176d576040517f08c379a0000000000000000000000000000000000000000000000000000000008152600401611764906121fb565b60405180910390fd5b80600b8190555050565b61177f611ae1565b73ffffffffffffffffffffffffffffffffffffffff1661179d610fd6565b73ffffffffffffffffffffffffffffffffffffffff16146117f3576040517f08c379a00000000000000000000000000000000000000000000000000000000081526004016117ea906121fb565b60405180910390fd5b80601260006101000a81548173ffffffffffffffffffffffffffffffffffffffff021916908373ffffffffffffffffffffffffffffffffffffffff16021790555050565b61183f611ae1565b73ffffffffffffffffffffffffffffffffffffffff1661185d610fd6565b73ffffffffffffffffffffffffffffffffffffffff16146118b3576040517f08c379a00000000000000000000000000000000000000000000000000000000081526004016118aa906121fb565b60405180910390fd5b600073ffffffffffffffffffffffffffffffffffffffff168173ffffffffffffffffffffffffffffffffffffffff161415611923576040517f08c379a000000000000000000000000000000000000000000000000000000000815260040161191a9061215b565b60405180910390fd5b8073ffffffffffffffffffffffffffffffffffffffff1660008054906101000a900473ffffffffffffffffffffffffffffffffffffffff1673ffffffffffffffffffffffffffffffffffffffff167f8be0079c531659141344cd1fd0a4f28419497f9722a3daafe3b4186f6b6457e060405160405180910390a3806000806101000a81548173ffffffffffffffffffffffffffffffffffffffff021916908373ffffffffffffffffffffffffffffffffffffffff16021790555050565b6119e8611ae1565b73ffffffffffffffffffffffffffffffffffffffff16611a06610fd6565b73ffffffffffffffffffffffffffffffffffffffff1614611a5c576040517f08c379a0000000000000000000000000000000000000000000000000000000008152600401611a53906121fb565b60405180910390fd5b80600f60006101000a81548173ffffffffffffffffffffffffffffffffffffffff021916908373ffffffffffffffffffffffffffffffffffffffff16021790555050565b600060098281548110611aaf57fe5b9060005260206000200160009054906101000a900473ffffffffffffffffffffffffffffffffffffffff169050919050565b600033905090565b6000808211611b2d576040517f08c379a0000000000000000000000000000000000000000000000000000000008152600401611b249061219b565b60405180910390fd5b818381611b3657fe5b04905092915050565b600080831415611b525760009050611ba9565b6000828402905082848281611b6357fe5b0414611ba4576040517f08c379a0000000000000000000000000000000000000000000000000000000008152600401611b9b906121db565b60405180910390fd5b809150505b92915050565b600080828401905083811015611bfa576040517f08c379a0000000000000000000000000000000000000000000000000000000008152600401611bf19061217b565b60405180910390fd5b8091505092915050565b828054828255906000526020600020908101928215611c7d579160200282015b82811115611c7c5782518260006101000a81548173ffffffffffffffffffffffffffffffffffffffff021916908373ffffffffffffffffffffffffffffffffffffffff16021790555091602001919060010190611c24565b5b509050611c8a9190611c8e565b5090565b5b80821115611cc557600081816101000a81549073ffffffffffffffffffffffffffffffffffffffff021916905550600101611c8f565b5090565b600081359050611cd881612359565b92915050565b600081359050611ced81612370565b92915050565b600082601f830112611d0457600080fd5b8135611d17611d1282612263565b612236565b91508181835260208401935060208101905083856020840282011115611d3c57600080fd5b60005b83811015611d6c5781611d528882611cde565b845260208401935060208301925050600181019050611d3f565b5050505092915050565b600081359050611d8581612387565b92915050565b600081519050611d9a81612387565b92915050565b600060208284031215611db257600080fd5b6000611dc084828501611cc9565b91505092915050565b600060208284031215611ddb57600080fd5b6000611de984828501611cde565b91505092915050565b600060208284031215611e0457600080fd5b600082013567ffffffffffffffff811115611e1e57600080fd5b611e2a84828501611cf3565b91505092915050565b600060208284031215611e4557600080fd5b6000611e5384828501611d76565b91505092915050565b600060208284031215611e6e57600080fd5b6000611e7c84828501611d8b565b91505092915050565b6000611e918383611eac565b60208301905092915050565b611ea681612323565b82525050565b611eb5816122e7565b82525050565b611ec4816122d5565b82525050565b6000611ed58261229b565b611edf81856122b3565b9350611eea8361228b565b8060005b83811015611f1b578151611f028882611e85565b9750611f0d836122a6565b925050600181019050611eee565b5085935050505092915050565b6000611f356026836122c4565b91507f4f776e61626c653a206e6577206f776e657220697320746865207a65726f206160008301527f64647265737300000000000000000000000000000000000000000000000000006020830152604082019050919050565b6000611f9b601b836122c4565b91507f536166654d6174683a206164646974696f6e206f766572666c6f7700000000006000830152602082019050919050565b6000611fdb601a836122c4565b91507f536166654d6174683a206469766973696f6e206279207a65726f0000000000006000830152602082019050919050565b600061201b601c836122c4565b91507f496e76616c69642070726573616c65206772616e7420616d6f756e74000000006000830152602082019050919050565b600061205b6021836122c4565b91507f536166654d6174683a206d756c7469706c69636174696f6e206f766572666c6f60008301527f77000000000000000000000000000000000000000000000000000000000000006020830152604082019050919050565b60006120c16020836122c4565b91507f4f776e61626c653a2063616c6c6572206973206e6f7420746865206f776e65726000830152602082019050919050565b6120fd81612319565b82525050565b60006020820190506121186000830184611ebb565b92915050565b60006020820190506121336000830184611e9d565b92915050565b600060208201905081810360008301526121538184611eca565b905092915050565b6000602082019050818103600083015261217481611f28565b9050919050565b6000602082019050818103600083015261219481611f8e565b9050919050565b600060208201905081810360008301526121b481611fce565b9050919050565b600060208201905081810360008301526121d48161200e565b9050919050565b600060208201905081810360008301526121f48161204e565b9050919050565b60006020820190508181036000830152612214816120b4565b9050919050565b600060208201905061223060008301846120f4565b92915050565b6000604051905081810181811067ffffffffffffffff8211171561225957600080fd5b8060405250919050565b600067ffffffffffffffff82111561227a57600080fd5b602082029050602081019050919050565b6000819050602082019050919050565b600081519050919050565b6000602082019050919050565b600082825260208201905092915050565b600082825260208201905092915050565b60006122e0826122f9565b9050919050565b60006122f2826122f9565b9050919050565b600073ffffffffffffffffffffffffffffffffffffffff82169050919050565b6000819050919050565b600061232e82612335565b9050919050565b600061234082612347565b9050919050565b6000612352826122f9565b9050919050565b612362816122d5565b811461236d57600080fd5b50565b612379816122e7565b811461238457600080fd5b50565b61239081612319565b811461239b57600080fd5b5056fea2646970667358221220649e9376f96164f0197d0f893c72d2285808a133125bf1ee7e16d02c3c83f51164736f6c634300060c0033",
  "immutableReferences": {},
  "source": "// SPDX-License-Identifier: MIT\npragma solidity 0.6.12;\npragma experimental ABIEncoderV2;\n\nimport \"@openzeppelin/contracts/access/Ownable.sol\";\nimport \"@openzeppelin/contracts/math/SafeMath.sol\";\nimport \"./XDPresale.sol\";\n\ncontract XDaiStarterInfo is Ownable {\n    using SafeMath for uint256;\n\n    uint256 private devFeePercentage = 2; // fees going to dev AND XDP hodlers (2% each)\n    uint256 private minDevFeeInWei = 5 ether; // min fee amount going to dev AND XDP hodlers\n    uint256 private maxRewardQualifyBal = 20000 * 1e18; // max amount to HODL to qualify for BNB fee rewards\n    uint256 private minRewardQualifyBal = 1250 * 1e18; // min amount to HODL to qualify for BNB fee rewards\n    uint256 private minRewardQualifyPercentage = 10; // percentage of discount on tokens for qualifying holders\n    uint256 private presaleGrantAmount = 100 * 1e18; // grant given to 'good' projects 30 days after raise\n    address private incubatorMsigAddress; // community address used to release presale incubator grants\n\n    address[] private presaleAddresses; // track all presales created\n    address[] private presaleGrantAddresses; // track all presale grants assigned\n\n    uint256 private minInvestorXDPBalance = 100 * 1e18; // min amount to investors HODL XDP balance\n    uint256 private minStakeTime = 24 hours;\n    uint256 private minUnstakeTime = 24 hours;\n    uint256 private minClaimTime = 7 days;\n\n    address payable[] private xdpTokenPresales;\n\n    address private honeySwapRouter =\n        address(0x00);\n    address private honeySwapFactory =\n        address(0x00);\n    address private wbnb = address(0x00);\n\n    address private xdpFactoryAddress;\n\n    constructor(address payable[] memory _xdpTokenPresales) public {\n        xdpTokenPresales = _xdpTokenPresales;\n    }\n\n    modifier onlyFactory() {\n        require(xdpFactoryAddress == msg.sender);\n        _;\n    }\n\n    function getXdpFactoryAddress() external view returns (address) {\n      return xdpFactoryAddress;\n    }\n\n    function setXdpFactoryAddress(address _newFactoryAddress)\n        external\n        onlyOwner\n    {\n        xdpFactoryAddress = _newFactoryAddress;\n    }\n\n    function addPresaleAddress(address _presale)\n        external\n        onlyFactory\n        returns (uint256)\n    {\n        presaleAddresses.push(_presale);\n        return presaleAddresses.length - 1;\n    }\n\n    function getPresalesCount() external view returns (uint256) {\n        return presaleAddresses.length;\n    }\n\n    function getPresaleAddress(uint256 xdpId) external view returns (address) {\n        return presaleAddresses[xdpId];\n    }\n\n    function addPresaleGrantAddress(address _presaleGrant)\n        external\n        onlyFactory\n        returns (uint256)\n    {\n        presaleGrantAddresses.push(_presaleGrant);\n        return presaleGrantAddresses.length - 1;\n    }\n\n    function getPresaleGrantsCount() external view returns (uint256) {\n        return presaleGrantAddresses.length;\n    }\n\n    function getPresaleGrantAddress(uint256 _id)\n        external\n        view\n        returns (address)\n    {\n        return presaleGrantAddresses[_id];\n    }\n\n    function getDevFeePercentage() external view returns (uint256) {\n        return devFeePercentage;\n    }\n\n    function setDevFeePercentage(uint256 _devFeePercentage) external onlyOwner {\n        devFeePercentage = _devFeePercentage;\n    }\n\n    function getMinDevFeeInWei() external view returns (uint256) {\n        return minDevFeeInWei;\n    }\n\n    function setMinDevFeeInWei(uint256 _minDevFeeInWei) external onlyOwner {\n        minDevFeeInWei = _minDevFeeInWei;\n    }\n\n    function getPresaleGrantAmount() external view returns (uint256) {\n        return presaleGrantAmount;\n    }\n\n    function setPresaleGrantAmount(uint256 _presaleGrantAmount)\n        external\n        onlyOwner\n    {\n        require(\n            _presaleGrantAmount <= 5000 * 1e18,\n            \"Invalid presale grant amount\"\n        );\n        presaleGrantAmount = _presaleGrantAmount;\n    }\n\n    function getIncubatorMsigAddress() external view returns (address) {\n        return incubatorMsigAddress;\n    }\n\n    function setIncubatorMsigAddress(address _incubatorMsigAddress)\n        external\n        onlyOwner\n    {\n        incubatorMsigAddress = _incubatorMsigAddress;\n    }\n\n    function getMinRewardQualifyPercentage() external view returns (uint256) {\n        return minRewardQualifyPercentage;\n    }\n\n    function setMinRewardQualifyPercentage(uint256 _minRewardQualifyPercentage)\n        external\n        onlyOwner\n    {\n        minRewardQualifyPercentage = _minRewardQualifyPercentage;\n    }\n\n    function getMinRewardQualifyBal() external view returns (uint256) {\n        return minRewardQualifyBal;\n    }\n\n    function setMinRewardQualifyBal(uint256 _minRewardQualifyBal)\n        external\n        onlyOwner\n    {\n        minRewardQualifyBal = _minRewardQualifyBal;\n    }\n\n    function getMaxRewardQualifyBal() external view returns (uint256) {\n        return maxRewardQualifyBal;\n    }\n\n    function setMaxRewardQualifyBal(uint256 _maxRewardQualifyBal)\n        external\n        onlyOwner\n    {\n        maxRewardQualifyBal = _maxRewardQualifyBal;\n    }\n\n    function getMinInvestorXDPBalance() external view returns (uint256) {\n        return minInvestorXDPBalance;\n    }\n\n    function setMinInvestorXDPBalance(uint256 _minInvestorXDPBalance)\n        external\n        onlyOwner\n    {\n        minInvestorXDPBalance = _minInvestorXDPBalance;\n    }\n\n    function getMinStakeTime() external view returns (uint256) {\n        return minStakeTime;\n    }\n\n    function setMinStakeTime(uint256 _minStakeTime) external onlyOwner {\n        minStakeTime = _minStakeTime;\n    }\n\n    function getMinUnstakeTime() external view returns (uint256) {\n        return minUnstakeTime;\n    }\n\n    function setMinUnstakeTime(uint256 _minUnstakeTime) external onlyOwner {\n        minUnstakeTime = _minUnstakeTime;\n    }\n\n    function getMinClaimTime() external view returns (uint256) {\n        return minClaimTime;\n    }\n\n    function setMinClaimTime(uint256 _minClaimTime) external onlyOwner {\n        minClaimTime = _minClaimTime;\n    }\n\n    function getXdpTokenPresales()\n        external\n        view\n        returns (address payable[] memory)\n    {\n        return xdpTokenPresales;\n    }\n\n    function setXdpTokenPresales(address payable[] memory _xdpTokenPresales)\n        external\n        onlyOwner\n    {\n        xdpTokenPresales = _xdpTokenPresales;\n    }\n\n    function getLockedBalance(address payable sender)\n        external\n        view\n        returns (uint256 totalLockedBalance)\n    {\n        totalLockedBalance = 0;\n        for (uint256 i = 0; i < xdpTokenPresales.length; i++) {\n            XDPresale tokenPresale = XDPresale(xdpTokenPresales[i]);\n\n            uint256 senderInvestment = tokenPresale.investments(sender);\n            uint256 senderClaimed = tokenPresale.claimed(sender);\n            if (senderInvestment > 0 && senderClaimed < 4) {\n                uint256 poolTokenPriceInWei = tokenPresale.tokenPriceInWei();\n                uint256 poolLockedBalance =\n                    senderInvestment\n                        .div(4)\n                        .mul(4 - senderClaimed)\n                        .mul(1e18)\n                        .div(poolTokenPriceInWei);\n                totalLockedBalance = totalLockedBalance.add(poolLockedBalance);\n            }\n        }\n    }\n\n    function getHoneySwapRouter() external view returns (address) {\n        return honeySwapRouter;\n    }\n\n    function setHoneySwapRouter(address _honeySwapRouter)\n        external\n        onlyOwner\n    {\n        honeySwapRouter = _honeySwapRouter;\n    }\n\n    function getHoneySwapFactory() external view returns (address) {\n        return honeySwapFactory;\n    }\n\n    function setHoneySwapFactory(address _honeySwapFactory)\n        external\n        onlyOwner\n    {\n        honeySwapFactory = _honeySwapFactory;\n    }\n\n    function getWBNB() external view returns (address) {\n        return wbnb;\n    }\n\n    function setWBNB(address _wbnb) external onlyOwner {\n        wbnb = _wbnb;\n    }\n}",
  "sourcePath": "/Users/macuser/Documents/Projects/Programming/xDaiStarterParent/xDaiStarter/contracts/XDaiStarterInfo.sol",
  "compiler": {
    "name": "solc",
    "version": "0.6.12+commit.27d51765.Emscripten.clang"
  },
  "schemaVersion": "3.3.4",
  "updatedAt": "2021-04-20T06:25:46.460Z",
  "devdoc": {
    "kind": "dev",
    "methods": {
      "owner()": {
        "details": "Returns the address of the current owner."
      },
      "renounceOwnership()": {
        "details": "Leaves the contract without owner. It will not be possible to call `onlyOwner` functions anymore. Can only be called by the current owner. NOTE: Renouncing ownership will leave the contract without an owner, thereby removing any functionality that is only available to the owner."
      },
      "transferOwnership(address)": {
        "details": "Transfers ownership of the contract to a new account (`newOwner`). Can only be called by the current owner."
      }
    },
    "version": 1
  },
  "userdoc": {
    "kind": "user",
    "methods": {},
    "version": 1
  }
}