{
  "contractName": "XDaiStarterInfo",
  "abi": [
    {
      "inputs": [
        {
          "internalType": "address payable[]",
          "name": "_xdsTokenPresales",
          "type": "address[]"
        }
      ],
      "stateMutability": "nonpayable",
      "type": "constructor"
    },
    {
      "anonymous": false,
      "inputs": [
        {
          "indexed": true,
          "internalType": "address",
          "name": "previousOwner",
          "type": "address"
        },
        {
          "indexed": true,
          "internalType": "address",
          "name": "newOwner",
          "type": "address"
        }
      ],
      "name": "OwnershipTransferred",
      "type": "event"
    },
    {
      "inputs": [],
      "name": "owner",
      "outputs": [
        {
          "internalType": "address",
          "name": "",
          "type": "address"
        }
      ],
      "stateMutability": "view",
      "type": "function"
    },
    {
      "inputs": [],
      "name": "renounceOwnership",
      "outputs": [],
      "stateMutability": "nonpayable",
      "type": "function"
    },
    {
      "inputs": [
        {
          "internalType": "address",
          "name": "newOwner",
          "type": "address"
        }
      ],
      "name": "transferOwnership",
      "outputs": [],
      "stateMutability": "nonpayable",
      "type": "function"
    },
    {
      "inputs": [],
      "name": "getXdsFactoryAddress",
      "outputs": [
        {
          "internalType": "address",
          "name": "",
          "type": "address"
        }
      ],
      "stateMutability": "view",
      "type": "function"
    },
    {
      "inputs": [
        {
          "internalType": "address",
          "name": "_newFactoryAddress",
          "type": "address"
        }
      ],
      "name": "setXdsFactoryAddress",
      "outputs": [],
      "stateMutability": "nonpayable",
      "type": "function"
    },
    {
      "inputs": [
        {
          "internalType": "address",
          "name": "_presale",
          "type": "address"
        }
      ],
      "name": "addPresaleAddress",
      "outputs": [
        {
          "internalType": "uint256",
          "name": "",
          "type": "uint256"
        }
      ],
      "stateMutability": "nonpayable",
      "type": "function"
    },
    {
      "inputs": [],
      "name": "getPresalesCount",
      "outputs": [
        {
          "internalType": "uint256",
          "name": "",
          "type": "uint256"
        }
      ],
      "stateMutability": "view",
      "type": "function"
    },
    {
      "inputs": [
        {
          "internalType": "uint256",
          "name": "xdsId",
          "type": "uint256"
        }
      ],
      "name": "getPresaleAddress",
      "outputs": [
        {
          "internalType": "address",
          "name": "",
          "type": "address"
        }
      ],
      "stateMutability": "view",
      "type": "function"
    },
    {
      "inputs": [
        {
          "internalType": "address",
          "name": "_presaleGrant",
          "type": "address"
        }
      ],
      "name": "addPresaleGrantAddress",
      "outputs": [
        {
          "internalType": "uint256",
          "name": "",
          "type": "uint256"
        }
      ],
      "stateMutability": "nonpayable",
      "type": "function"
    },
    {
      "inputs": [],
      "name": "getPresaleGrantsCount",
      "outputs": [
        {
          "internalType": "uint256",
          "name": "",
          "type": "uint256"
        }
      ],
      "stateMutability": "view",
      "type": "function"
    },
    {
      "inputs": [
        {
          "internalType": "uint256",
          "name": "_id",
          "type": "uint256"
        }
      ],
      "name": "getPresaleGrantAddress",
      "outputs": [
        {
          "internalType": "address",
          "name": "",
          "type": "address"
        }
      ],
      "stateMutability": "view",
      "type": "function"
    },
    {
      "inputs": [],
      "name": "getDevFeePercentage",
      "outputs": [
        {
          "internalType": "uint256",
          "name": "",
          "type": "uint256"
        }
      ],
      "stateMutability": "view",
      "type": "function"
    },
    {
      "inputs": [
        {
          "internalType": "uint256",
          "name": "_devFeePercentage",
          "type": "uint256"
        }
      ],
      "name": "setDevFeePercentage",
      "outputs": [],
      "stateMutability": "nonpayable",
      "type": "function"
    },
    {
      "inputs": [],
      "name": "getMinDevFeeInWei",
      "outputs": [
        {
          "internalType": "uint256",
          "name": "",
          "type": "uint256"
        }
      ],
      "stateMutability": "view",
      "type": "function"
    },
    {
      "inputs": [
        {
          "internalType": "uint256",
          "name": "_minDevFeeInWei",
          "type": "uint256"
        }
      ],
      "name": "setMinDevFeeInWei",
      "outputs": [],
      "stateMutability": "nonpayable",
      "type": "function"
    },
    {
      "inputs": [],
      "name": "getPresaleGrantAmount",
      "outputs": [
        {
          "internalType": "uint256",
          "name": "",
          "type": "uint256"
        }
      ],
      "stateMutability": "view",
      "type": "function"
    },
    {
      "inputs": [
        {
          "internalType": "uint256",
          "name": "_presaleGrantAmount",
          "type": "uint256"
        }
      ],
      "name": "setPresaleGrantAmount",
      "outputs": [],
      "stateMutability": "nonpayable",
      "type": "function"
    },
    {
      "inputs": [],
      "name": "getIncubatorMsigAddress",
      "outputs": [
        {
          "internalType": "address",
          "name": "",
          "type": "address"
        }
      ],
      "stateMutability": "view",
      "type": "function"
    },
    {
      "inputs": [
        {
          "internalType": "address",
          "name": "_incubatorMsigAddress",
          "type": "address"
        }
      ],
      "name": "setIncubatorMsigAddress",
      "outputs": [],
      "stateMutability": "nonpayable",
      "type": "function"
    },
    {
      "inputs": [],
      "name": "getMinRewardQualifyPercentage",
      "outputs": [
        {
          "internalType": "uint256",
          "name": "",
          "type": "uint256"
        }
      ],
      "stateMutability": "view",
      "type": "function"
    },
    {
      "inputs": [
        {
          "internalType": "uint256",
          "name": "_minRewardQualifyPercentage",
          "type": "uint256"
        }
      ],
      "name": "setMinRewardQualifyPercentage",
      "outputs": [],
      "stateMutability": "nonpayable",
      "type": "function"
    },
    {
      "inputs": [],
      "name": "getMinRewardQualifyBal",
      "outputs": [
        {
          "internalType": "uint256",
          "name": "",
          "type": "uint256"
        }
      ],
      "stateMutability": "view",
      "type": "function"
    },
    {
      "inputs": [
        {
          "internalType": "uint256",
          "name": "_minRewardQualifyBal",
          "type": "uint256"
        }
      ],
      "name": "setMinRewardQualifyBal",
      "outputs": [],
      "stateMutability": "nonpayable",
      "type": "function"
    },
    {
      "inputs": [],
      "name": "getMaxRewardQualifyBal",
      "outputs": [
        {
          "internalType": "uint256",
          "name": "",
          "type": "uint256"
        }
      ],
      "stateMutability": "view",
      "type": "function"
    },
    {
      "inputs": [
        {
          "internalType": "uint256",
          "name": "_maxRewardQualifyBal",
          "type": "uint256"
        }
      ],
      "name": "setMaxRewardQualifyBal",
      "outputs": [],
      "stateMutability": "nonpayable",
      "type": "function"
    },
    {
      "inputs": [],
      "name": "getMinInvestorXDPBalance",
      "outputs": [
        {
          "internalType": "uint256",
          "name": "",
          "type": "uint256"
        }
      ],
      "stateMutability": "view",
      "type": "function"
    },
    {
      "inputs": [
        {
          "internalType": "uint256",
          "name": "_minInvestorXDPBalance",
          "type": "uint256"
        }
      ],
      "name": "setMinInvestorXDPBalance",
      "outputs": [],
      "stateMutability": "nonpayable",
      "type": "function"
    },
    {
      "inputs": [],
      "name": "getMinStakeTime",
      "outputs": [
        {
          "internalType": "uint256",
          "name": "",
          "type": "uint256"
        }
      ],
      "stateMutability": "view",
      "type": "function"
    },
    {
      "inputs": [
        {
          "internalType": "uint256",
          "name": "_minStakeTime",
          "type": "uint256"
        }
      ],
      "name": "setMinStakeTime",
      "outputs": [],
      "stateMutability": "nonpayable",
      "type": "function"
    },
    {
      "inputs": [],
      "name": "getMinUnstakeTime",
      "outputs": [
        {
          "internalType": "uint256",
          "name": "",
          "type": "uint256"
        }
      ],
      "stateMutability": "view",
      "type": "function"
    },
    {
      "inputs": [
        {
          "internalType": "uint256",
          "name": "_minUnstakeTime",
          "type": "uint256"
        }
      ],
      "name": "setMinUnstakeTime",
      "outputs": [],
      "stateMutability": "nonpayable",
      "type": "function"
    },
    {
      "inputs": [],
      "name": "getMinClaimTime",
      "outputs": [
        {
          "internalType": "uint256",
          "name": "",
          "type": "uint256"
        }
      ],
      "stateMutability": "view",
      "type": "function"
    },
    {
      "inputs": [
        {
          "internalType": "uint256",
          "name": "_minClaimTime",
          "type": "uint256"
        }
      ],
      "name": "setMinClaimTime",
      "outputs": [],
      "stateMutability": "nonpayable",
      "type": "function"
    },
    {
      "inputs": [],
      "name": "getXdsTokenPresales",
      "outputs": [
        {
          "internalType": "address payable[]",
          "name": "",
          "type": "address[]"
        }
      ],
      "stateMutability": "view",
      "type": "function"
    },
    {
      "inputs": [
        {
          "internalType": "address payable[]",
          "name": "_xdsTokenPresales",
          "type": "address[]"
        }
      ],
      "name": "setXdsTokenPresales",
      "outputs": [],
      "stateMutability": "nonpayable",
      "type": "function"
    },
    {
      "inputs": [
        {
          "internalType": "address payable",
          "name": "sender",
          "type": "address"
        }
      ],
      "name": "getLockedBalance",
      "outputs": [
        {
          "internalType": "uint256",
          "name": "totalLockedBalance",
          "type": "uint256"
        }
      ],
      "stateMutability": "view",
      "type": "function"
    },
    {
      "inputs": [],
      "name": "getHoneySwapRouter",
      "outputs": [
        {
          "internalType": "address",
          "name": "",
          "type": "address"
        }
      ],
      "stateMutability": "view",
      "type": "function"
    },
    {
      "inputs": [
        {
          "internalType": "address",
          "name": "_honeySwapRouter",
          "type": "address"
        }
      ],
      "name": "setHoneySwapRouter",
      "outputs": [],
      "stateMutability": "nonpayable",
      "type": "function"
    },
    {
      "inputs": [],
      "name": "getHoneySwapFactory",
      "outputs": [
        {
          "internalType": "address",
          "name": "",
          "type": "address"
        }
      ],
      "stateMutability": "view",
      "type": "function"
    },
    {
      "inputs": [
        {
          "internalType": "address",
          "name": "_honeySwapFactory",
          "type": "address"
        }
      ],
      "name": "setHoneySwapFactory",
      "outputs": [],
      "stateMutability": "nonpayable",
      "type": "function"
    },
    {
      "inputs": [],
      "name": "getWxDai",
      "outputs": [
        {
          "internalType": "address",
          "name": "",
          "type": "address"
        }
      ],
      "stateMutability": "view",
      "type": "function"
    },
    {
      "inputs": [
        {
          "internalType": "address",
          "name": "_wxdai",
          "type": "address"
        }
      ],
      "name": "setWxDai",
      "outputs": [],
      "stateMutability": "nonpayable",
      "type": "function"
    }
  ],
  "bytecode": "0x608060405260026001819055674563918244f40000905569043c33c19375648000006003556843c33c193756480000600455600a600581905568056bc75e2d631000006006819055905562015180600b819055600c5562093a80600d55600f80546001600160a01b0319908116731c232f01118cb8b424793ae03f870aa7d0ac7f771790915560108054821673a818b4f111ccac7aa31d0bcc0806d64f2e0737d71790556011805490911673e91d153e0b41518a2ce8dd3d7944fa863463a97d179055348015620000cf57600080fd5b50604051620016d8380380620016d8833981016040819052620000f29162000212565b6000620000fe62000165565b600080546001600160a01b0319166001600160a01b0383169081178255604051929350917f8be0079c531659141344cd1fd0a4f28419497f9722a3daafe3b4186f6b6457e0908290a35080516200015d90600e90602084019062000169565b5050620002ee565b3390565b828054828255906000526020600020908101928215620001c1579160200282015b82811115620001c157825182546001600160a01b0319166001600160a01b039091161782556020909201916001909101906200018a565b50620001cf929150620001d3565b5090565b5b80821115620001cf5780546001600160a01b0319168155600101620001d4565b80516001600160a01b03811681146200020c57600080fd5b92915050565b6000602080838503121562000225578182fd5b82516001600160401b03808211156200023c578384fd5b818501915085601f83011262000250578384fd5b8151818111156200025f578485fd5b838102915062000271848301620002c7565b8181528481019084860184860187018a10156200028c578788fd5b8795505b83861015620002ba57620002a58a82620001f4565b83526001959095019491860191860162000290565b5098975050505050505050565b6040518181016001600160401b0381118282101715620002e657600080fd5b604052919050565b6113da80620002fe6000396000f3fe608060405234801561001057600080fd5b506004361061025e5760003560e01c80638d3af9a211610146578063c4086893116100c3578063df4eafd411610087578063df4eafd414610465578063f2fde38b14610478578063f5c6611d1461048b578063f6674eea1461049e578063fb993d21146104b1578063fb9b95b4146104c45761025e565b8063c40868931461040f578063cd611db114610422578063d08e625c1461042a578063d0d0d7301461043f578063d2ce6964146104525761025e565b8063aabea7831161010a578063aabea783146103dc578063b1cb45d5146103e4578063bc38fa1b146103ec578063be0247ad146103ff578063be19292f146104075761025e565b80638d3af9a2146103935780638da5cb5b1461039b578063986960a3146103a357806399fd92bc146103b6578063a0ae93d4146103c95761025e565b8063500594da116101df5780635d5ce3cf116101a35780635d5ce3cf146103635780635f75856f1461036b5780636518cd4514610373578063715018a61461037b578063716eede41461038357806375571b421461038b5761025e565b8063500594da1461030d57806356c97e991461032057806357ca7679146103285780635a2b0c741461033b5780635b16fe4e146103505761025e565b80632ace73f0116102265780632ace73f0146102c457806333835b96146102d75780633b190811146102df5780633cd221a2146102f25780634810b405146103055761025e565b806305a911671461026357806309a6c336146102815780630dedb2f0146102965780630e34c01b146102a95780631b2e10a2146102b1575b600080fd5b61026b6104d7565b604051610278919061133c565b60405180910390f35b61029461028f36600461114a565b6104dd565b005b6102946102a436600461114a565b61052a565b61026b61056e565b6102946102bf36600461114a565b610574565b6102946102d2366004611091565b6105e2565b61026b610643565b6102946102ed36600461114a565b610649565b61026b610300366004611091565b61068d565b61026b6106fe565b61029461031b36600461114a565b610704565b61026b610748565b610294610336366004611091565b61074e565b6103436107af565b604051610278919061117a565b61029461035e36600461114a565b6107be565b61026b610802565b610343610808565b61026b610817565b61029461081d565b61026b6108a6565b6103436108ac565b61026b6108bb565b6103436108c1565b6102946103b136600461114a565b6108d0565b6103436103c436600461114a565b610914565b61026b6103d7366004611091565b61093e565b61026b6109af565b6103436109b5565b6102946103fa36600461114a565b6109c4565b61026b610a08565b610343610a0e565b61026b61041d366004611091565b610a1d565b61026b610c2c565b610432610c32565b604051610278919061118e565b61029461044d366004611091565b610c94565b61029461046036600461114a565b610cf5565b61029461047336600461114a565b610d39565b610294610486366004611091565b610d7d565b610294610499366004611091565b610e3d565b6102946104ac366004611091565b610e9e565b6103436104bf36600461114a565b610eff565b6102946104d23660046110ad565b610f0e565b60015490565b6104e5610f64565b6001600160a01b03166104f66108c1565b6001600160a01b0316146105255760405162461bcd60e51b815260040161051c90611307565b60405180910390fd5b600355565b610532610f64565b6001600160a01b03166105436108c1565b6001600160a01b0316146105695760405162461bcd60e51b815260040161051c90611307565b600455565b60025490565b61057c610f64565b6001600160a01b031661058d6108c1565b6001600160a01b0316146105b35760405162461bcd60e51b815260040161051c90611307565b69010f0cf064dd592000008111156105dd5760405162461bcd60e51b815260040161051c9061128f565b600655565b6105ea610f64565b6001600160a01b03166105fb6108c1565b6001600160a01b0316146106215760405162461bcd60e51b815260040161051c90611307565b601180546001600160a01b0319166001600160a01b0392909216919091179055565b60065490565b610651610f64565b6001600160a01b03166106626108c1565b6001600160a01b0316146106885760405162461bcd60e51b815260040161051c90611307565b600d55565b6012546000906001600160a01b031633146106a757600080fd5b506008805460018101825560008290527ff3f7a9fe364faab93b216da50a3214154f22a0a2b415b23a84c8169e8b636ee30180546001600160a01b0384166001600160a01b03199091161790555460001901919050565b600c5490565b61070c610f64565b6001600160a01b031661071d6108c1565b6001600160a01b0316146107435760405162461bcd60e51b815260040161051c90611307565b600255565b600a5490565b610756610f64565b6001600160a01b03166107676108c1565b6001600160a01b03161461078d5760405162461bcd60e51b815260040161051c90611307565b600780546001600160a01b0319166001600160a01b0392909216919091179055565b600f546001600160a01b031690565b6107c6610f64565b6001600160a01b03166107d76108c1565b6001600160a01b0316146107fd5760405162461bcd60e51b815260040161051c90611307565b600155565b60035490565b6007546001600160a01b031690565b60095490565b610825610f64565b6001600160a01b03166108366108c1565b6001600160a01b03161461085c5760405162461bcd60e51b815260040161051c90611307565b600080546040516001600160a01b03909116907f8be0079c531659141344cd1fd0a4f28419497f9722a3daafe3b4186f6b6457e0908390a3600080546001600160a01b0319169055565b600d5490565b6012546001600160a01b031690565b600b5490565b6000546001600160a01b031690565b6108d8610f64565b6001600160a01b03166108e96108c1565b6001600160a01b03161461090f5760405162461bcd60e51b815260040161051c90611307565b600a55565b60006008828154811061092357fe5b6000918252602090912001546001600160a01b031692915050565b6012546000906001600160a01b0316331461095857600080fd5b506009805460018101825560008290527f6e1540171b6c0c960b71a7020d9f60077f6af931a8bbf590da0223dacf75c7af0180546001600160a01b0384166001600160a01b03199091161790555460001901919050565b60045490565b6011546001600160a01b031690565b6109cc610f64565b6001600160a01b03166109dd6108c1565b6001600160a01b031614610a035760405162461bcd60e51b815260040161051c90611307565b600555565b60055490565b6010546001600160a01b031690565b6000805b600e54811015610c26576000600e8281548110610a3a57fe5b6000918252602082200154604051634b5cc43160e11b81526001600160a01b03909116925082906396b9886290610a7590889060040161117a565b60206040518083038186803b158015610a8d57600080fd5b505afa158015610aa1573d6000803e3d6000fd5b505050506040513d601f19601f82011682018060405250810190610ac59190611162565b90506000826001600160a01b031663c884ef83876040518263ffffffff1660e01b8152600401610af5919061117a565b60206040518083038186803b158015610b0d57600080fd5b505afa158015610b21573d6000803e3d6000fd5b505050506040513d601f19601f82011682018060405250810190610b459190611162565b9050600082118015610b575750600481105b15610c1b576000836001600160a01b0316632f8de8106040518163ffffffff1660e01b815260040160206040518083038186803b158015610b9757600080fd5b505afa158015610bab573d6000803e3d6000fd5b505050506040513d601f19601f82011682018060405250810190610bcf9190611162565b90506000610c0a82610c04670de0b6b3a7640000610bfe87600403610bfe60048b610f6890919063ffffffff16565b90610f9c565b90610f68565b9050610c168782610fdd565b965050505b505050600101610a21565b50919050565b60085490565b6060600e805480602002602001604051908101604052809291908181526020018280548015610c8a57602002820191906000526020600020905b81546001600160a01b03168152600190910190602001808311610c6c575b5050505050905090565b610c9c610f64565b6001600160a01b0316610cad6108c1565b6001600160a01b031614610cd35760405162461bcd60e51b815260040161051c90611307565b601080546001600160a01b0319166001600160a01b0392909216919091179055565b610cfd610f64565b6001600160a01b0316610d0e6108c1565b6001600160a01b031614610d345760405162461bcd60e51b815260040161051c90611307565b600c55565b610d41610f64565b6001600160a01b0316610d526108c1565b6001600160a01b031614610d785760405162461bcd60e51b815260040161051c90611307565b600b55565b610d85610f64565b6001600160a01b0316610d966108c1565b6001600160a01b031614610dbc5760405162461bcd60e51b815260040161051c90611307565b6001600160a01b038116610de25760405162461bcd60e51b815260040161051c906111db565b600080546040516001600160a01b03808516939216917f8be0079c531659141344cd1fd0a4f28419497f9722a3daafe3b4186f6b6457e091a3600080546001600160a01b0319166001600160a01b0392909216919091179055565b610e45610f64565b6001600160a01b0316610e566108c1565b6001600160a01b031614610e7c5760405162461bcd60e51b815260040161051c90611307565b601280546001600160a01b0319166001600160a01b0392909216919091179055565b610ea6610f64565b6001600160a01b0316610eb76108c1565b6001600160a01b031614610edd5760405162461bcd60e51b815260040161051c90611307565b600f80546001600160a01b0319166001600160a01b0392909216919091179055565b60006009828154811061092357fe5b610f16610f64565b6001600160a01b0316610f276108c1565b6001600160a01b031614610f4d5760405162461bcd60e51b815260040161051c90611307565b8051610f6090600e906020840190611002565b5050565b3390565b6000808211610f895760405162461bcd60e51b815260040161051c90611258565b818381610f9257fe5b0490505b92915050565b600082610fab57506000610f96565b82820282848281610fb857fe5b0414610fd65760405162461bcd60e51b815260040161051c906112c6565b9392505050565b600082820183811015610fd65760405162461bcd60e51b815260040161051c90611221565b828054828255906000526020600020908101928215611057579160200282015b8281111561105757825182546001600160a01b0319166001600160a01b03909116178255602090920191600190910190611022565b50611063929150611067565b5090565b5b808211156110635780546001600160a01b0319168155600101611068565b8035610f968161138c565b6000602082840312156110a2578081fd5b8135610fd68161138c565b600060208083850312156110bf578182fd5b823567ffffffffffffffff8111156110d5578283fd5b8301601f810185136110e5578283fd5b80356110f86110f38261136c565b611345565b8181528381019083850185840285018601891015611114578687fd5b8694505b8385101561113e5761112a8982611086565b835260019490940193918501918501611118565b50979650505050505050565b60006020828403121561115b578081fd5b5035919050565b600060208284031215611173578081fd5b5051919050565b6001600160a01b0391909116815260200190565b6020808252825182820181905260009190848201906040850190845b818110156111cf5783516001600160a01b0316835292840192918401916001016111aa565b50909695505050505050565b60208082526026908201527f4f776e61626c653a206e6577206f776e657220697320746865207a65726f206160408201526564647265737360d01b606082015260800190565b6020808252601b908201527f536166654d6174683a206164646974696f6e206f766572666c6f770000000000604082015260600190565b6020808252601a908201527f536166654d6174683a206469766973696f6e206279207a65726f000000000000604082015260600190565b6020808252601c908201527f496e76616c69642070726573616c65206772616e7420616d6f756e7400000000604082015260600190565b60208082526021908201527f536166654d6174683a206d756c7469706c69636174696f6e206f766572666c6f6040820152607760f81b606082015260800190565b6020808252818101527f4f776e61626c653a2063616c6c6572206973206e6f7420746865206f776e6572604082015260600190565b90815260200190565b60405181810167ffffffffffffffff8111828210171561136457600080fd5b604052919050565b600067ffffffffffffffff821115611382578081fd5b5060209081020190565b6001600160a01b03811681146113a157600080fd5b5056fea2646970667358221220f7b9a8b10c65fde01617d782ba09f2f796e45c4732416e4d6fb59a686a22610164736f6c634300060c0033",
  "immutableReferences": {},
  "source": "// SPDX-License-Identifier: MIT\npragma solidity 0.6.12;\npragma experimental ABIEncoderV2;\n\nimport \"@openzeppelin/contracts/access/Ownable.sol\";\nimport \"@openzeppelin/contracts/math/SafeMath.sol\";\nimport \"./XDPresale.sol\";\n\ncontract XDaiStarterInfo is Ownable {\n    using SafeMath for uint256;\n\n    uint256 private devFeePercentage = 2; // fees going to dev AND XD hodlers (2% each)\n    uint256 private minDevFeeInWei = 5 ether; // min fee amount going to dev AND XD hodlers\n    uint256 private maxRewardQualifyBal = 20000 * 1e18; // max amount to HODL to qualify for xDai fee rewards\n    uint256 private minRewardQualifyBal = 1250 * 1e18; // min amount to HODL to qualify for xDai fee rewards\n    uint256 private minRewardQualifyPercentage = 10; // percentage of discount on tokens for qualifying holders\n    uint256 private presaleGrantAmount = 100 * 1e18; // grant given to 'good' projects 30 days after raise\n    address private incubatorMsigAddress; // community address used to release presale incubator grants\n\n    address[] private presaleAddresses; // track all presales created\n    address[] private presaleGrantAddresses; // track all presale grants assigned\n\n    uint256 private minInvestorXDPBalance = 100 * 1e18; // min amount to investors HODL XDP balance\n    uint256 private minStakeTime = 24 hours;\n    uint256 private minUnstakeTime = 24 hours;\n    uint256 private minClaimTime = 7 days; // Time required between claiming hodler rewards\n\n    address payable[] private xdsTokenPresales; // All presales of XDP (the XDS Token)\n\n    address private honeySwapRouter =\n        address(0x1C232F01118CB8B424793ae03F870aa7D0ac7f77);\n    address private honeySwapFactory =\n        address(0xA818b4F111Ccac7AA31D0BCc0806d64F2E0737D7);\n    address private wxdai = address(0xe91D153E0b41518A2Ce8Dd3D7944Fa863463a97d);\n\n    address private xdsFactoryAddress;\n\n    constructor(address payable[] memory _xdsTokenPresales) public {\n        xdsTokenPresales = _xdsTokenPresales;\n    }\n\n    modifier onlyFactory() {\n        require(xdsFactoryAddress == msg.sender);\n        _;\n    }\n\n    function getXdsFactoryAddress() external view returns (address) {\n      return xdsFactoryAddress;\n    }\n\n    function setXdsFactoryAddress(address _newFactoryAddress)\n        external\n        onlyOwner\n    {\n        xdsFactoryAddress = _newFactoryAddress;\n    }\n\n    function addPresaleAddress(address _presale)\n        external\n        onlyFactory\n        returns (uint256)\n    {\n        presaleAddresses.push(_presale);\n        return presaleAddresses.length - 1;\n    }\n\n    function getPresalesCount() external view returns (uint256) {\n        return presaleAddresses.length;\n    }\n\n    function getPresaleAddress(uint256 xdsId) external view returns (address) {\n        return presaleAddresses[xdsId];\n    }\n\n    function addPresaleGrantAddress(address _presaleGrant)\n        external\n        onlyFactory\n        returns (uint256)\n    {\n        presaleGrantAddresses.push(_presaleGrant);\n        return presaleGrantAddresses.length - 1;\n    }\n\n    function getPresaleGrantsCount() external view returns (uint256) {\n        return presaleGrantAddresses.length;\n    }\n\n    function getPresaleGrantAddress(uint256 _id)\n        external\n        view\n        returns (address)\n    {\n        return presaleGrantAddresses[_id];\n    }\n\n    function getDevFeePercentage() external view returns (uint256) {\n        return devFeePercentage;\n    }\n\n    function setDevFeePercentage(uint256 _devFeePercentage) external onlyOwner {\n        devFeePercentage = _devFeePercentage;\n    }\n\n    function getMinDevFeeInWei() external view returns (uint256) {\n        return minDevFeeInWei;\n    }\n\n    function setMinDevFeeInWei(uint256 _minDevFeeInWei) external onlyOwner {\n        minDevFeeInWei = _minDevFeeInWei;\n    }\n\n    function getPresaleGrantAmount() external view returns (uint256) {\n        return presaleGrantAmount;\n    }\n\n    function setPresaleGrantAmount(uint256 _presaleGrantAmount)\n        external\n        onlyOwner\n    {\n        require(\n            _presaleGrantAmount <= 5000 * 1e18,\n            \"Invalid presale grant amount\"\n        );\n        presaleGrantAmount = _presaleGrantAmount;\n    }\n\n    function getIncubatorMsigAddress() external view returns (address) {\n        return incubatorMsigAddress;\n    }\n\n    function setIncubatorMsigAddress(address _incubatorMsigAddress)\n        external\n        onlyOwner\n    {\n        incubatorMsigAddress = _incubatorMsigAddress;\n    }\n\n    function getMinRewardQualifyPercentage() external view returns (uint256) {\n        return minRewardQualifyPercentage;\n    }\n\n    function setMinRewardQualifyPercentage(uint256 _minRewardQualifyPercentage)\n        external\n        onlyOwner\n    {\n        minRewardQualifyPercentage = _minRewardQualifyPercentage;\n    }\n\n    function getMinRewardQualifyBal() external view returns (uint256) {\n        return minRewardQualifyBal;\n    }\n\n    function setMinRewardQualifyBal(uint256 _minRewardQualifyBal)\n        external\n        onlyOwner\n    {\n        minRewardQualifyBal = _minRewardQualifyBal;\n    }\n\n    function getMaxRewardQualifyBal() external view returns (uint256) {\n        return maxRewardQualifyBal;\n    }\n\n    function setMaxRewardQualifyBal(uint256 _maxRewardQualifyBal)\n        external\n        onlyOwner\n    {\n        maxRewardQualifyBal = _maxRewardQualifyBal;\n    }\n\n    function getMinInvestorXDPBalance() external view returns (uint256) {\n        return minInvestorXDPBalance;\n    }\n\n    function setMinInvestorXDPBalance(uint256 _minInvestorXDPBalance)\n        external\n        onlyOwner\n    {\n        minInvestorXDPBalance = _minInvestorXDPBalance;\n    }\n\n    function getMinStakeTime() external view returns (uint256) {\n        return minStakeTime;\n    }\n\n    function setMinStakeTime(uint256 _minStakeTime) external onlyOwner {\n        minStakeTime = _minStakeTime;\n    }\n\n    function getMinUnstakeTime() external view returns (uint256) {\n        return minUnstakeTime;\n    }\n\n    function setMinUnstakeTime(uint256 _minUnstakeTime) external onlyOwner {\n        minUnstakeTime = _minUnstakeTime;\n    }\n\n    function getMinClaimTime() external view returns (uint256) {\n        return minClaimTime;\n    }\n\n    function setMinClaimTime(uint256 _minClaimTime) external onlyOwner {\n        minClaimTime = _minClaimTime;\n    }\n\n    function getXdsTokenPresales()\n        external\n        view\n        returns (address payable[] memory)\n    {\n        return xdsTokenPresales;\n    }\n\n    function setXdsTokenPresales(address payable[] memory _xdsTokenPresales)\n        external\n        onlyOwner\n    {\n        xdsTokenPresales = _xdsTokenPresales;\n    }\n\n    function getLockedBalance(address payable sender)\n        external\n        view\n        returns (uint256 totalLockedBalance)\n    {\n        totalLockedBalance = 0;\n        for (uint256 i = 0; i < xdsTokenPresales.length; i++) {\n            XDPresale tokenPresale = XDPresale(xdsTokenPresales[i]);\n\n            uint256 senderInvestment = tokenPresale.investments(sender);\n            uint256 senderClaimed = tokenPresale.claimed(sender);\n            if (senderInvestment > 0 && senderClaimed < 4) {\n                uint256 poolTokenPriceInWei = tokenPresale.tokenPriceInWei();\n                uint256 poolLockedBalance =\n                    senderInvestment\n                        .div(4)\n                        .mul(4 - senderClaimed)\n                        .mul(1e18)\n                        .div(poolTokenPriceInWei);\n                totalLockedBalance = totalLockedBalance.add(poolLockedBalance);\n            }\n        }\n    }\n\n    function getHoneySwapRouter() external view returns (address) {\n        return honeySwapRouter;\n    }\n\n    function setHoneySwapRouter(address _honeySwapRouter)\n        external\n        onlyOwner\n    {\n        honeySwapRouter = _honeySwapRouter;\n    }\n\n    function getHoneySwapFactory() external view returns (address) {\n        return honeySwapFactory;\n    }\n\n    function setHoneySwapFactory(address _honeySwapFactory)\n        external\n        onlyOwner\n    {\n        honeySwapFactory = _honeySwapFactory;\n    }\n\n    function getWxDai() external view returns (address) {\n        return wxdai;\n    }\n\n    function setWxDai(address _wxdai) external onlyOwner {\n        wxdai = _wxdai;\n    }\n}",
  "sourcePath": "/Users/macuser/Documents/Projects/Programming/xDaiStarterParent/xDaiStarter/contracts/XDaiStarterInfo.sol",
  "compiler": {
    "name": "solc",
    "version": "0.6.12+commit.27d51765.Emscripten.clang"
  },
  "schemaVersion": "3.3.4",
  "updatedAt": "2021-04-28T04:56:18.906Z",
  "devdoc": {
    "kind": "dev",
    "methods": {
      "owner()": {
        "details": "Returns the address of the current owner."
      },
      "renounceOwnership()": {
        "details": "Leaves the contract without owner. It will not be possible to call `onlyOwner` functions anymore. Can only be called by the current owner. NOTE: Renouncing ownership will leave the contract without an owner, thereby removing any functionality that is only available to the owner."
      },
      "transferOwnership(address)": {
        "details": "Transfers ownership of the contract to a new account (`newOwner`). Can only be called by the current owner."
      }
    },
    "version": 1
  },
  "userdoc": {
    "kind": "user",
    "methods": {},
    "version": 1
  }
}