{
  "contractName": "XDaiStarterPresale",
  "abi": [
    {
      "inputs": [
        {
          "internalType": "address",
          "name": "_xdpFactoryAddress",
          "type": "address"
        },
        {
          "internalType": "address",
          "name": "_xDaiStarterInfo",
          "type": "address"
        },
        {
          "internalType": "address",
          "name": "_xdpDevAddress",
          "type": "address"
        },
        {
          "internalType": "uint256",
          "name": "_minRewardQualifyBal",
          "type": "uint256"
        },
        {
          "internalType": "uint256",
          "name": "_minRewardQualifyPercentage",
          "type": "uint256"
        }
      ],
      "stateMutability": "nonpayable",
      "type": "constructor"
    },
    {
      "inputs": [],
      "name": "auditInformation",
      "outputs": [
        {
          "internalType": "bytes32",
          "name": "auditor",
          "type": "bytes32"
        },
        {
          "internalType": "bool",
          "name": "isVerified",
          "type": "bool"
        },
        {
          "internalType": "bool",
          "name": "isWarning",
          "type": "bool"
        },
        {
          "internalType": "string",
          "name": "verifiedHash",
          "type": "string"
        },
        {
          "internalType": "string",
          "name": "warningHash",
          "type": "string"
        }
      ],
      "stateMutability": "view",
      "type": "function"
    },
    {
      "inputs": [
        {
          "internalType": "address",
          "name": "",
          "type": "address"
        }
      ],
      "name": "auditorWhitelistedAddresses",
      "outputs": [
        {
          "internalType": "bool",
          "name": "",
          "type": "bool"
        }
      ],
      "stateMutability": "view",
      "type": "function"
    },
    {
      "inputs": [
        {
          "internalType": "address",
          "name": "",
          "type": "address"
        }
      ],
      "name": "claimed",
      "outputs": [
        {
          "internalType": "bool",
          "name": "",
          "type": "bool"
        }
      ],
      "stateMutability": "view",
      "type": "function"
    },
    {
      "inputs": [],
      "name": "closeTime",
      "outputs": [
        {
          "internalType": "uint256",
          "name": "",
          "type": "uint256"
        }
      ],
      "stateMutability": "view",
      "type": "function"
    },
    {
      "inputs": [],
      "name": "hardCapInWei",
      "outputs": [
        {
          "internalType": "uint256",
          "name": "",
          "type": "uint256"
        }
      ],
      "stateMutability": "view",
      "type": "function"
    },
    {
      "inputs": [],
      "name": "honeyLPTokensLockDurationInDays",
      "outputs": [
        {
          "internalType": "uint256",
          "name": "",
          "type": "uint256"
        }
      ],
      "stateMutability": "view",
      "type": "function"
    },
    {
      "inputs": [],
      "name": "honeyLiquidityAdded",
      "outputs": [
        {
          "internalType": "bool",
          "name": "",
          "type": "bool"
        }
      ],
      "stateMutability": "view",
      "type": "function"
    },
    {
      "inputs": [],
      "name": "honeyLiquidityAddingTime",
      "outputs": [
        {
          "internalType": "uint256",
          "name": "",
          "type": "uint256"
        }
      ],
      "stateMutability": "view",
      "type": "function"
    },
    {
      "inputs": [],
      "name": "honeyLiquidityPercentageAllocation",
      "outputs": [
        {
          "internalType": "uint256",
          "name": "",
          "type": "uint256"
        }
      ],
      "stateMutability": "view",
      "type": "function"
    },
    {
      "inputs": [],
      "name": "honeyListingPriceInWei",
      "outputs": [
        {
          "internalType": "uint256",
          "name": "",
          "type": "uint256"
        }
      ],
      "stateMutability": "view",
      "type": "function"
    },
    {
      "inputs": [
        {
          "internalType": "address",
          "name": "",
          "type": "address"
        }
      ],
      "name": "investments",
      "outputs": [
        {
          "internalType": "uint256",
          "name": "",
          "type": "uint256"
        }
      ],
      "stateMutability": "view",
      "type": "function"
    },
    {
      "inputs": [],
      "name": "linkGithub",
      "outputs": [
        {
          "internalType": "bytes32",
          "name": "",
          "type": "bytes32"
        }
      ],
      "stateMutability": "view",
      "type": "function"
    },
    {
      "inputs": [],
      "name": "linkLogo",
      "outputs": [
        {
          "internalType": "bytes32",
          "name": "",
          "type": "bytes32"
        }
      ],
      "stateMutability": "view",
      "type": "function"
    },
    {
      "inputs": [],
      "name": "linkTelegram",
      "outputs": [
        {
          "internalType": "bytes32",
          "name": "",
          "type": "bytes32"
        }
      ],
      "stateMutability": "view",
      "type": "function"
    },
    {
      "inputs": [],
      "name": "linkTwitter",
      "outputs": [
        {
          "internalType": "bytes32",
          "name": "",
          "type": "bytes32"
        }
      ],
      "stateMutability": "view",
      "type": "function"
    },
    {
      "inputs": [],
      "name": "linkWebsite",
      "outputs": [
        {
          "internalType": "bytes32",
          "name": "",
          "type": "bytes32"
        }
      ],
      "stateMutability": "view",
      "type": "function"
    },
    {
      "inputs": [],
      "name": "maxInvestInWei",
      "outputs": [
        {
          "internalType": "uint256",
          "name": "",
          "type": "uint256"
        }
      ],
      "stateMutability": "view",
      "type": "function"
    },
    {
      "inputs": [],
      "name": "minInvestInWei",
      "outputs": [
        {
          "internalType": "uint256",
          "name": "",
          "type": "uint256"
        }
      ],
      "stateMutability": "view",
      "type": "function"
    },
    {
      "inputs": [],
      "name": "minInvestorXDPBalance",
      "outputs": [
        {
          "internalType": "uint256",
          "name": "",
          "type": "uint256"
        }
      ],
      "stateMutability": "view",
      "type": "function"
    },
    {
      "inputs": [],
      "name": "minRewardQualifyBal",
      "outputs": [
        {
          "internalType": "uint256",
          "name": "",
          "type": "uint256"
        }
      ],
      "stateMutability": "view",
      "type": "function"
    },
    {
      "inputs": [],
      "name": "minRewardQualifyPercentage",
      "outputs": [
        {
          "internalType": "uint256",
          "name": "",
          "type": "uint256"
        }
      ],
      "stateMutability": "view",
      "type": "function"
    },
    {
      "inputs": [],
      "name": "minVoterXDPBalance",
      "outputs": [
        {
          "internalType": "uint256",
          "name": "",
          "type": "uint256"
        }
      ],
      "stateMutability": "view",
      "type": "function"
    },
    {
      "inputs": [],
      "name": "minYesVotesThreshold",
      "outputs": [
        {
          "internalType": "uint256",
          "name": "",
          "type": "uint256"
        }
      ],
      "stateMutability": "view",
      "type": "function"
    },
    {
      "inputs": [],
      "name": "noVotes",
      "outputs": [
        {
          "internalType": "uint256",
          "name": "",
          "type": "uint256"
        }
      ],
      "stateMutability": "view",
      "type": "function"
    },
    {
      "inputs": [],
      "name": "onlyWhitelistedAddressesAllowed",
      "outputs": [
        {
          "internalType": "bool",
          "name": "",
          "type": "bool"
        }
      ],
      "stateMutability": "view",
      "type": "function"
    },
    {
      "inputs": [],
      "name": "openTime",
      "outputs": [
        {
          "internalType": "uint256",
          "name": "",
          "type": "uint256"
        }
      ],
      "stateMutability": "view",
      "type": "function"
    },
    {
      "inputs": [],
      "name": "presaleCancelled",
      "outputs": [
        {
          "internalType": "bool",
          "name": "",
          "type": "bool"
        }
      ],
      "stateMutability": "view",
      "type": "function"
    },
    {
      "inputs": [],
      "name": "presaleCreatorAddress",
      "outputs": [
        {
          "internalType": "address payable",
          "name": "",
          "type": "address"
        }
      ],
      "stateMutability": "view",
      "type": "function"
    },
    {
      "inputs": [],
      "name": "presaleCreatorClaimTime",
      "outputs": [
        {
          "internalType": "uint256",
          "name": "",
          "type": "uint256"
        }
      ],
      "stateMutability": "view",
      "type": "function"
    },
    {
      "inputs": [],
      "name": "presaleCreatorClaimWei",
      "outputs": [
        {
          "internalType": "uint256",
          "name": "",
          "type": "uint256"
        }
      ],
      "stateMutability": "view",
      "type": "function"
    },
    {
      "inputs": [],
      "name": "presaleGrantId",
      "outputs": [
        {
          "internalType": "uint256",
          "name": "",
          "type": "uint256"
        }
      ],
      "stateMutability": "view",
      "type": "function"
    },
    {
      "inputs": [],
      "name": "saleTitle",
      "outputs": [
        {
          "internalType": "bytes32",
          "name": "",
          "type": "bytes32"
        }
      ],
      "stateMutability": "view",
      "type": "function"
    },
    {
      "inputs": [],
      "name": "softCapInWei",
      "outputs": [
        {
          "internalType": "uint256",
          "name": "",
          "type": "uint256"
        }
      ],
      "stateMutability": "view",
      "type": "function"
    },
    {
      "inputs": [],
      "name": "token",
      "outputs": [
        {
          "internalType": "contract IERC20",
          "name": "",
          "type": "address"
        }
      ],
      "stateMutability": "view",
      "type": "function"
    },
    {
      "inputs": [],
      "name": "tokenPriceInWei",
      "outputs": [
        {
          "internalType": "uint256",
          "name": "",
          "type": "uint256"
        }
      ],
      "stateMutability": "view",
      "type": "function"
    },
    {
      "inputs": [],
      "name": "tokensLeft",
      "outputs": [
        {
          "internalType": "uint256",
          "name": "",
          "type": "uint256"
        }
      ],
      "stateMutability": "view",
      "type": "function"
    },
    {
      "inputs": [],
      "name": "totalCollectedWei",
      "outputs": [
        {
          "internalType": "uint256",
          "name": "",
          "type": "uint256"
        }
      ],
      "stateMutability": "view",
      "type": "function"
    },
    {
      "inputs": [],
      "name": "totalInvestorsCount",
      "outputs": [
        {
          "internalType": "uint256",
          "name": "",
          "type": "uint256"
        }
      ],
      "stateMutability": "view",
      "type": "function"
    },
    {
      "inputs": [],
      "name": "totalTokens",
      "outputs": [
        {
          "internalType": "uint256",
          "name": "",
          "type": "uint256"
        }
      ],
      "stateMutability": "view",
      "type": "function"
    },
    {
      "inputs": [],
      "name": "unsoldTokensDumpAddress",
      "outputs": [
        {
          "internalType": "address",
          "name": "",
          "type": "address"
        }
      ],
      "stateMutability": "view",
      "type": "function"
    },
    {
      "inputs": [
        {
          "internalType": "address",
          "name": "",
          "type": "address"
        }
      ],
      "name": "voters",
      "outputs": [
        {
          "internalType": "uint256",
          "name": "",
          "type": "uint256"
        }
      ],
      "stateMutability": "view",
      "type": "function"
    },
    {
      "inputs": [
        {
          "internalType": "address",
          "name": "",
          "type": "address"
        }
      ],
      "name": "whitelistedAddresses",
      "outputs": [
        {
          "internalType": "bool",
          "name": "",
          "type": "bool"
        }
      ],
      "stateMutability": "view",
      "type": "function"
    },
    {
      "inputs": [],
      "name": "xDaiStarterInfo",
      "outputs": [
        {
          "internalType": "contract XDaiStarterInfo",
          "name": "",
          "type": "address"
        }
      ],
      "stateMutability": "view",
      "type": "function"
    },
    {
      "inputs": [],
      "name": "xdpDevAddress",
      "outputs": [
        {
          "internalType": "address payable",
          "name": "",
          "type": "address"
        }
      ],
      "stateMutability": "view",
      "type": "function"
    },
    {
      "inputs": [],
      "name": "xdpDevFeesExempted",
      "outputs": [
        {
          "internalType": "bool",
          "name": "",
          "type": "bool"
        }
      ],
      "stateMutability": "view",
      "type": "function"
    },
    {
      "inputs": [],
      "name": "xdpId",
      "outputs": [
        {
          "internalType": "uint256",
          "name": "",
          "type": "uint256"
        }
      ],
      "stateMutability": "view",
      "type": "function"
    },
    {
      "inputs": [],
      "name": "xdpLiqLockAddress",
      "outputs": [
        {
          "internalType": "address",
          "name": "",
          "type": "address"
        }
      ],
      "stateMutability": "view",
      "type": "function"
    },
    {
      "inputs": [],
      "name": "xdpStakingPool",
      "outputs": [
        {
          "internalType": "contract XDaiStarterStaking",
          "name": "",
          "type": "address"
        }
      ],
      "stateMutability": "view",
      "type": "function"
    },
    {
      "inputs": [],
      "name": "xdpToken",
      "outputs": [
        {
          "internalType": "contract IERC20",
          "name": "",
          "type": "address"
        }
      ],
      "stateMutability": "view",
      "type": "function"
    },
    {
      "inputs": [],
      "name": "yesVotes",
      "outputs": [
        {
          "internalType": "uint256",
          "name": "",
          "type": "uint256"
        }
      ],
      "stateMutability": "view",
      "type": "function"
    },
    {
      "stateMutability": "payable",
      "type": "receive"
    },
    {
      "inputs": [
        {
          "internalType": "address",
          "name": "_presaleCreator",
          "type": "address"
        },
        {
          "internalType": "address",
          "name": "_tokenAddress",
          "type": "address"
        },
        {
          "internalType": "address",
          "name": "_xdpTokenAddress",
          "type": "address"
        },
        {
          "internalType": "address",
          "name": "_unsoldTokensDumpAddress",
          "type": "address"
        }
      ],
      "name": "setAddressInfo",
      "outputs": [],
      "stateMutability": "nonpayable",
      "type": "function"
    },
    {
      "inputs": [
        {
          "internalType": "uint256",
          "name": "_totalTokens",
          "type": "uint256"
        },
        {
          "internalType": "uint256",
          "name": "_tokenPriceInWei",
          "type": "uint256"
        },
        {
          "internalType": "uint256",
          "name": "_hardCapInWei",
          "type": "uint256"
        },
        {
          "internalType": "uint256",
          "name": "_softCapInWei",
          "type": "uint256"
        },
        {
          "internalType": "uint256",
          "name": "_maxInvestInWei",
          "type": "uint256"
        },
        {
          "internalType": "uint256",
          "name": "_minInvestInWei",
          "type": "uint256"
        },
        {
          "internalType": "uint256",
          "name": "_openTime",
          "type": "uint256"
        },
        {
          "internalType": "uint256",
          "name": "_closeTime",
          "type": "uint256"
        }
      ],
      "name": "setGeneralInfo",
      "outputs": [],
      "stateMutability": "nonpayable",
      "type": "function"
    },
    {
      "inputs": [
        {
          "internalType": "uint256",
          "name": "_honeyListingPriceInWei",
          "type": "uint256"
        },
        {
          "internalType": "uint256",
          "name": "_honeyLiquidityAddingTime",
          "type": "uint256"
        },
        {
          "internalType": "uint256",
          "name": "_honeyLPTokensLockDurationInDays",
          "type": "uint256"
        },
        {
          "internalType": "uint256",
          "name": "_honeyLiquidityPercentageAllocation",
          "type": "uint256"
        }
      ],
      "name": "setHoneySwapInfo",
      "outputs": [],
      "stateMutability": "nonpayable",
      "type": "function"
    },
    {
      "inputs": [
        {
          "internalType": "bytes32",
          "name": "_saleTitle",
          "type": "bytes32"
        },
        {
          "internalType": "bytes32",
          "name": "_linkTelegram",
          "type": "bytes32"
        },
        {
          "internalType": "bytes32",
          "name": "_linkGithub",
          "type": "bytes32"
        },
        {
          "internalType": "bytes32",
          "name": "_linkTwitter",
          "type": "bytes32"
        },
        {
          "internalType": "bytes32",
          "name": "_linkWebsite",
          "type": "bytes32"
        },
        {
          "internalType": "bytes32",
          "name": "_linkLogo",
          "type": "bytes32"
        }
      ],
      "name": "setStringInfo",
      "outputs": [],
      "stateMutability": "nonpayable",
      "type": "function"
    },
    {
      "inputs": [
        {
          "internalType": "bytes32",
          "name": "_auditor",
          "type": "bytes32"
        },
        {
          "internalType": "bool",
          "name": "_isVerified",
          "type": "bool"
        },
        {
          "internalType": "bool",
          "name": "_isWarning",
          "type": "bool"
        },
        {
          "internalType": "string",
          "name": "_verifiedHash",
          "type": "string"
        },
        {
          "internalType": "string",
          "name": "_warningHash",
          "type": "string"
        }
      ],
      "name": "setAuditorInfo",
      "outputs": [],
      "stateMutability": "nonpayable",
      "type": "function"
    },
    {
      "inputs": [
        {
          "internalType": "address",
          "name": "_xdpLiqLockAddress",
          "type": "address"
        },
        {
          "internalType": "uint256",
          "name": "_xdpDevFeePercentage",
          "type": "uint256"
        },
        {
          "internalType": "uint256",
          "name": "_xdpMinDevFeeInWei",
          "type": "uint256"
        },
        {
          "internalType": "uint256",
          "name": "_xdpId",
          "type": "uint256"
        },
        {
          "internalType": "uint256",
          "name": "_presaleGrantId",
          "type": "uint256"
        },
        {
          "internalType": "address",
          "name": "_xdpStakingPool",
          "type": "address"
        }
      ],
      "name": "setXdpInfo",
      "outputs": [],
      "stateMutability": "nonpayable",
      "type": "function"
    },
    {
      "inputs": [
        {
          "internalType": "bool",
          "name": "_xdpDevFeesExempted",
          "type": "bool"
        }
      ],
      "name": "setXdpDevFeesExempted",
      "outputs": [],
      "stateMutability": "nonpayable",
      "type": "function"
    },
    {
      "inputs": [
        {
          "internalType": "bool",
          "name": "_onlyWhitelistedAddressesAllowed",
          "type": "bool"
        }
      ],
      "name": "setOnlyWhitelistedAddressesAllowed",
      "outputs": [],
      "stateMutability": "nonpayable",
      "type": "function"
    },
    {
      "inputs": [
        {
          "internalType": "uint256",
          "name": "_minVoterXDPBalance",
          "type": "uint256"
        }
      ],
      "name": "setMinVoterXDPBalance",
      "outputs": [],
      "stateMutability": "nonpayable",
      "type": "function"
    },
    {
      "inputs": [
        {
          "internalType": "uint256",
          "name": "_minYesVotesThreshold",
          "type": "uint256"
        }
      ],
      "name": "setMinYesVotesThreshold",
      "outputs": [],
      "stateMutability": "nonpayable",
      "type": "function"
    },
    {
      "inputs": [
        {
          "internalType": "uint256",
          "name": "_minInvestorXDPBalance",
          "type": "uint256"
        }
      ],
      "name": "setMinInvestorXDPBalance",
      "outputs": [],
      "stateMutability": "nonpayable",
      "type": "function"
    },
    {
      "inputs": [
        {
          "internalType": "address[]",
          "name": "_whitelistedAddresses",
          "type": "address[]"
        }
      ],
      "name": "addWhitelistedAddresses",
      "outputs": [],
      "stateMutability": "nonpayable",
      "type": "function"
    },
    {
      "inputs": [
        {
          "internalType": "address[]",
          "name": "_whitelistedAddresses",
          "type": "address[]"
        }
      ],
      "name": "addAuditorWhitelistedAddresses",
      "outputs": [],
      "stateMutability": "nonpayable",
      "type": "function"
    },
    {
      "inputs": [],
      "name": "invest",
      "outputs": [],
      "stateMutability": "payable",
      "type": "function"
    },
    {
      "inputs": [],
      "name": "addLiquidityAndLockLPTokens",
      "outputs": [],
      "stateMutability": "nonpayable",
      "type": "function"
    },
    {
      "inputs": [
        {
          "internalType": "bool",
          "name": "yes",
          "type": "bool"
        }
      ],
      "name": "vote",
      "outputs": [],
      "stateMutability": "nonpayable",
      "type": "function"
    },
    {
      "inputs": [],
      "name": "claimTokens",
      "outputs": [],
      "stateMutability": "nonpayable",
      "type": "function"
    },
    {
      "inputs": [],
      "name": "getRefund",
      "outputs": [],
      "stateMutability": "nonpayable",
      "type": "function"
    },
    {
      "inputs": [],
      "name": "cancelAndTransferTokensToPresaleCreator",
      "outputs": [],
      "stateMutability": "nonpayable",
      "type": "function"
    },
    {
      "inputs": [],
      "name": "collectFundsRaised",
      "outputs": [],
      "stateMutability": "nonpayable",
      "type": "function"
    },
    {
      "inputs": [],
      "name": "burnUnsoldTokens",
      "outputs": [],
      "stateMutability": "nonpayable",
      "type": "function"
    }
  ],
  "bytecode": "0x608060405269152d02c7e14af6800000602455683635c9adc5dea000006025556000602960006101000a81548160ff0219169083151502179055506000602960016101000a81548160ff0219169083151502179055506000602960026101000a81548160ff0219169083151502179055506000602960036101000a81548160ff0219169083151502179055503480156200009857600080fd5b506040516200607d3803806200607d833981810160405260a0811015620000be57600080fd5b810190808051906020019092919080519060200190929190805190602001909291908051906020019092919080519060200190929190505050600073ffffffffffffffffffffffffffffffffffffffff168573ffffffffffffffffffffffffffffffffffffffff1614156200013257600080fd5b600073ffffffffffffffffffffffffffffffffffffffff168373ffffffffffffffffffffffffffffffffffffffff1614156200016d57600080fd5b846000806101000a81548173ffffffffffffffffffffffffffffffffffffffff021916908373ffffffffffffffffffffffffffffffffffffffff16021790555082600160006101000a81548173ffffffffffffffffffffffffffffffffffffffff021916908373ffffffffffffffffffffffffffffffffffffffff160217905550816027819055508060288190555083600460006101000a81548173ffffffffffffffffffffffffffffffffffffffff021916908373ffffffffffffffffffffffffffffffffffffffff1602179055505050505050615e2b80620002526000396000f3fe6080604052600436106104145760003560e01c806396b988621161021e578063c6a4266911610123578063d6c86b1b116100ab578063e8b5e51f1161007a578063e8b5e51f14611451578063ebc9afcc1461145b578063fb286c6514611558578063fc0c546a14611583578063ffc1883b146115c457610423565b8063d6c86b1b146113a5578063d9c50320146113d0578063e47935e6146113fb578063e861e34d1461142657610423565b8063ccd11696116100f2578063ccd1169614611271578063ce8f582e1461129e578063d2257580146112b5578063d5933c2c146112f2578063d64d31381461131f57610423565b8063c6a426691461112e578063c884ef8314611159578063ca2cfc20146111c0578063cc9fb9fd1461124657610423565b8063b1406b79116101a6578063b5b47f4211610175578063b5b47f421461105b578063c04c8e9a14611086578063c36002c9146110c1578063c502b13b146110d8578063c51d16b61461110357610423565b8063b1406b7914610fb1578063b2d5ae4414610fee578063b31f8f9314611005578063b42568881461103057610423565b80639ee85385116101ed5780639ee8538514610e745780639fa1eccc14610eb5578063a2460d2e14610ee0578063a3ec138d14610f21578063ac42597a14610f8657610423565b806396b9886214610d685780639767b58c14610dcd578063986960a314610df85780639d526e8314610e3357610423565b80634b9f5c981161032457806373f7ef38116102ac5780637f0feacc1161027b5780637f0feacc14610b3557806380e2bc2714610c4a57806389771dd814610cfb5780639180033414610d26578063940bb34414610d5157610423565b806373f7ef3814610a735780637445830614610a9e57806378d7be7314610ac95780637e1c0c0914610b0a57610423565b8063627749e6116102f3578063627749e6146109985780636cb96287146109c35780636e961a5f146109da578063709b74ed14610a1b5780637275ae1414610a4857610423565b80634b9f5c98146108d85780634f7458eb1461091557806350c733911461094057806355973a901461096b57610423565b80632b24a878116103a7578063357176371161037657806335717637146107bb57806335d079de146107e65780633ad49c7b146108275780634526c5441461086857806348c54b9d146108c157610423565b80632b24a878146106bd5780632f8de8101461072a578063303ab2aa14610755578063303fb1701461078057610423565b80630cef47f9116103e35780630cef47f91461051057806316bc4f0e146105a95780631afb0220146106105780631c194ba91461063b57610423565b806301f009ae1461042857806306c933d8146104535780630ca99ca8146104ba5780630cdc1fc5146104e557610423565b36610423576104216115ef565b005b600080fd5b34801561043457600080fd5b5061043d612058565b6040518082815260200191505060405180910390f35b34801561045f57600080fd5b506104a26004803603602081101561047657600080fd5b81019080803573ffffffffffffffffffffffffffffffffffffffff16906020019092919050505061205e565b60405180821515815260200191505060405180910390f35b3480156104c657600080fd5b506104cf61207e565b6040518082815260200191505060405180910390f35b3480156104f157600080fd5b506104fa612084565b6040518082815260200191505060405180910390f35b34801561051c57600080fd5b506105a7600480360360c081101561053357600080fd5b81019080803573ffffffffffffffffffffffffffffffffffffffff16906020019092919080359060200190929190803590602001909291908035906020019092919080359060200190929190803573ffffffffffffffffffffffffffffffffffffffff16906020019092919050505061208a565b005b3480156105b557600080fd5b506105f8600480360360208110156105cc57600080fd5b81019080803573ffffffffffffffffffffffffffffffffffffffff1690602001909291905050506121e0565b60405180821515815260200191505060405180910390f35b34801561061c57600080fd5b50610625612200565b6040518082815260200191505060405180910390f35b34801561064757600080fd5b506106bb600480360361010081101561065f57600080fd5b810190808035906020019092919080359060200190929190803590602001909291908035906020019092919080359060200190929190803590602001909291908035906020019092919080359060200190929190505050612206565b005b3480156106c957600080fd5b50610728600480360360c08110156106e057600080fd5b810190808035906020019092919080359060200190929190803590602001909291908035906020019092919080359060200190929190803590602001909291905050506123ee565b005b34801561073657600080fd5b5061073f612539565b6040518082815260200191505060405180910390f35b34801561076157600080fd5b5061076a61253f565b6040518082815260200191505060405180910390f35b34801561078c57600080fd5b506107b9600480360360208110156107a357600080fd5b8101908080359060200190929190505050612545565b005b3480156107c757600080fd5b506107d061261e565b6040518082815260200191505060405180910390f35b3480156107f257600080fd5b506107fb612624565b604051808273ffffffffffffffffffffffffffffffffffffffff16815260200191505060405180910390f35b34801561083357600080fd5b5061083c61264a565b604051808273ffffffffffffffffffffffffffffffffffffffff16815260200191505060405180910390f35b34801561087457600080fd5b506108bf6004803603608081101561088b57600080fd5b8101908080359060200190929190803590602001909291908035906020019092919080359060200190929190505050612670565b005b3480156108cd57600080fd5b506108d66127fd565b005b3480156108e457600080fd5b50610913600480360360208110156108fb57600080fd5b81019080803515159060200190929190505050612d4f565b005b34801561092157600080fd5b5061092a613204565b6040518082815260200191505060405180910390f35b34801561094c57600080fd5b5061095561320a565b6040518082815260200191505060405180910390f35b34801561097757600080fd5b50610980613210565b60405180821515815260200191505060405180910390f35b3480156109a457600080fd5b506109ad613223565b6040518082815260200191505060405180910390f35b3480156109cf57600080fd5b506109d8613229565b005b3480156109e657600080fd5b506109ef6133a3565b604051808273ffffffffffffffffffffffffffffffffffffffff16815260200191505060405180910390f35b348015610a2757600080fd5b50610a306133c9565b60405180821515815260200191505060405180910390f35b348015610a5457600080fd5b50610a5d6133dc565b6040518082815260200191505060405180910390f35b348015610a7f57600080fd5b50610a886133e2565b6040518082815260200191505060405180910390f35b348015610aaa57600080fd5b50610ab36133e8565b6040518082815260200191505060405180910390f35b348015610ad557600080fd5b50610ade6133ee565b604051808273ffffffffffffffffffffffffffffffffffffffff16815260200191505060405180910390f35b348015610b1657600080fd5b50610b1f613414565b6040518082815260200191505060405180910390f35b348015610b4157600080fd5b50610b4a61341a565b60405180868152602001851515815260200184151581526020018060200180602001838103835285818151815260200191508051906020019080838360005b83811015610ba4578082015181840152602081019050610b89565b50505050905090810190601f168015610bd15780820380516001836020036101000a031916815260200191505b50838103825284818151815260200191508051906020019080838360005b83811015610c0a578082015181840152602081019050610bef565b50505050905090810190601f168015610c375780820380516001836020036101000a031916815260200191505b5097505050505050505060405180910390f35b348015610c5657600080fd5b50610cf960048036036080811015610c6d57600080fd5b81019080803573ffffffffffffffffffffffffffffffffffffffff169060200190929190803573ffffffffffffffffffffffffffffffffffffffff169060200190929190803573ffffffffffffffffffffffffffffffffffffffff169060200190929190803573ffffffffffffffffffffffffffffffffffffffff169060200190929190505050613588565b005b348015610d0757600080fd5b50610d10613859565b6040518082815260200191505060405180910390f35b348015610d3257600080fd5b50610d3b61385f565b6040518082815260200191505060405180910390f35b348015610d5d57600080fd5b50610d66613865565b005b348015610d7457600080fd5b50610db760048036036020811015610d8b57600080fd5b81019080803573ffffffffffffffffffffffffffffffffffffffff169060200190929190505050613b8d565b6040518082815260200191505060405180910390f35b348015610dd957600080fd5b50610de2613ba5565b6040518082815260200191505060405180910390f35b348015610e0457600080fd5b50610e3160048036036020811015610e1b57600080fd5b8101908080359060200190929190505050613bab565b005b348015610e3f57600080fd5b50610e48613c65565b604051808273ffffffffffffffffffffffffffffffffffffffff16815260200191505060405180910390f35b348015610e8057600080fd5b50610e89613c8b565b604051808273ffffffffffffffffffffffffffffffffffffffff16815260200191505060405180910390f35b348015610ec157600080fd5b50610eca613cb1565b6040518082815260200191505060405180910390f35b348015610eec57600080fd5b50610ef5613cb7565b604051808273ffffffffffffffffffffffffffffffffffffffff16815260200191505060405180910390f35b348015610f2d57600080fd5b50610f7060048036036020811015610f4457600080fd5b81019080803573ffffffffffffffffffffffffffffffffffffffff169060200190929190505050613cdd565b6040518082815260200191505060405180910390f35b348015610f9257600080fd5b50610f9b613cf5565b6040518082815260200191505060405180910390f35b348015610fbd57600080fd5b50610fec60048036036020811015610fd457600080fd5b81019080803515159060200190929190505050613cfb565b005b348015610ffa57600080fd5b50611003613e31565b005b34801561101157600080fd5b5061101a614382565b6040518082815260200191505060405180910390f35b34801561103c57600080fd5b50611045614388565b6040518082815260200191505060405180910390f35b34801561106757600080fd5b5061107061438e565b6040518082815260200191505060405180910390f35b34801561109257600080fd5b506110bf600480360360208110156110a957600080fd5b8101908080359060200190929190505050614394565b005b3480156110cd57600080fd5b506110d661446f565b005b3480156110e457600080fd5b506110ed6147ad565b6040518082815260200191505060405180910390f35b34801561110f57600080fd5b506111186147b3565b6040518082815260200191505060405180910390f35b34801561113a57600080fd5b506111436147b9565b6040518082815260200191505060405180910390f35b34801561116557600080fd5b506111a86004803603602081101561117c57600080fd5b81019080803573ffffffffffffffffffffffffffffffffffffffff1690602001909291905050506147bf565b60405180821515815260200191505060405180910390f35b3480156111cc57600080fd5b50611244600480360360208110156111e357600080fd5b810190808035906020019064010000000081111561120057600080fd5b82018360208201111561121257600080fd5b8035906020019184602083028401116401000000008311171561123457600080fd5b90919293919293905050506147df565b005b34801561125257600080fd5b5061125b6149b8565b6040518082815260200191505060405180910390f35b34801561127d57600080fd5b506112866149be565b60405180821515815260200191505060405180910390f35b3480156112aa57600080fd5b506112b36149d1565b005b3480156112c157600080fd5b506112f0600480360360208110156112d857600080fd5b8101908080351515906020019092919050505061540e565b005b3480156112fe57600080fd5b506113076154db565b60405180821515815260200191505060405180910390f35b34801561132b57600080fd5b506113a36004803603602081101561134257600080fd5b810190808035906020019064010000000081111561135f57600080fd5b82018360208201111561137157600080fd5b8035906020019184602083028401116401000000008311171561139357600080fd5b90919293919293905050506154ee565b005b3480156113b157600080fd5b506113ba61563e565b6040518082815260200191505060405180910390f35b3480156113dc57600080fd5b506113e5615644565b6040518082815260200191505060405180910390f35b34801561140757600080fd5b5061141061564a565b6040518082815260200191505060405180910390f35b34801561143257600080fd5b5061143b615650565b6040518082815260200191505060405180910390f35b6114596115ef565b005b34801561146757600080fd5b50611556600480360360a081101561147e57600080fd5b8101908080359060200190929190803515159060200190929190803515159060200190929190803590602001906401000000008111156114bd57600080fd5b8201836020820111156114cf57600080fd5b803590602001918460018302840111640100000000831117156114f157600080fd5b90919293919293908035906020019064010000000081111561151257600080fd5b82018360208201111561152457600080fd5b8035906020019184600183028401116401000000008311171561154657600080fd5b9091929391929390505050615656565b005b34801561156457600080fd5b5061156d61578c565b6040518082815260200191505060405180910390f35b34801561158f57600080fd5b50611598615792565b604051808273ffffffffffffffffffffffffffffffffffffffff16815260200191505060405180910390f35b3480156115d057600080fd5b506115d96157b8565b6040518082815260200191505060405180910390f35b602960019054906101000a900460ff1615806116545750600a60003373ffffffffffffffffffffffffffffffffffffffff1673ffffffffffffffffffffffffffffffffffffffff16815260200190815260200160002060009054906101000a900460ff165b6116c6576040517f08c379a00000000000000000000000000000000000000000000000000000000081526004018080602001828103825260178152602001807f41646472657373206e6f742077686974656c697374656400000000000000000081525060200191505060405180910390fd5b602960039054906101000a900460ff1615611749576040517f08c379a00000000000000000000000000000000000000000000000000000000081526004018080602001828103825260098152602001807f43616e63656c6c6564000000000000000000000000000000000000000000000081525060200191505060405180910390fd5b602254602354118015611760575060245460235410155b6117d2576040517f08c379a00000000000000000000000000000000000000000000000000000000081526004018080602001828103825260108152602001807f566f746573206e6f74207061737365640000000000000000000000000000000081525060200191505060405180910390fd5b601b5442101561184a576040517f08c379a000000000000000000000000000000000000000000000000000000000815260040180806020018281038252600e8152602001807f4e6f7420796574206f70656e656400000000000000000000000000000000000081525060200191505060405180910390fd5b601c5442106118c1576040517f08c379a00000000000000000000000000000000000000000000000000000000081526004018080602001828103825260068152602001807f436c6f736564000000000000000000000000000000000000000000000000000081525060200191505060405180910390fd5b6017546013541061193a576040517f08c379a00000000000000000000000000000000000000000000000000000000081526004018080602001828103825260108152602001807f486172642063617020726561636865640000000000000000000000000000000081525060200191505060405180910390fd5b60006015541161194957600080fd5b6000341161195657600080fd5b6000806000600360009054906101000a900473ffffffffffffffffffffffffffffffffffffffff1673ffffffffffffffffffffffffffffffffffffffff166387cad0bf336040518263ffffffff1660e01b8152600401808273ffffffffffffffffffffffffffffffffffffffff16815260200191505060606040518083038186803b1580156119e457600080fd5b505afa1580156119f8573d6000803e3d6000fd5b505050506040513d6060811015611a0e57600080fd5b810190808051906020019092919080519060200190929190805190602001909291905050508093508194508295505050506000600460009054906101000a900473ffffffffffffffffffffffffffffffffffffffff1673ffffffffffffffffffffffffffffffffffffffff16638d3af9a26040518163ffffffff1660e01b815260040160206040518083038186803b158015611aa957600080fd5b505afa158015611abd573d6000803e3d6000fd5b505050506040513d6020811015611ad357600080fd5b810190808051906020019092919050505090506000600460009054906101000a900473ffffffffffffffffffffffffffffffffffffffff1673ffffffffffffffffffffffffffffffffffffffff1663c4086893336040518263ffffffff1660e01b8152600401808273ffffffffffffffffffffffffffffffffffffffff16815260200191505060206040518083038186803b158015611b7157600080fd5b505afa158015611b85573d6000803e3d6000fd5b505050506040513d6020811015611b9b57600080fd5b810190808051906020019092919050505090504282850111611bcd57611bca85826157be90919063ffffffff16565b90505b6027548110611cc2576000611c026064611bf460285460165461584690919063ffffffff16565b6158cc90919063ffffffff16565b9050611c47670de0b6b3a7640000611c39611c288460165461595590919063ffffffff16565b60155461584690919063ffffffff16565b6158cc90919063ffffffff16565b341115611cbc576040517f08c379a00000000000000000000000000000000000000000000000000000000081526004018080602001828103825260168152602001807f4e6f7420656e6f75676820746f6b656e73206c6566740000000000000000000081525060200191505060405180910390fd5b50611d69565b611cf3670de0b6b3a7640000611ce560165460155461584690919063ffffffff16565b6158cc90919063ffffffff16565b341115611d68576040517f08c379a00000000000000000000000000000000000000000000000000000000081526004018080602001828103825260168152602001807f4e6f7420656e6f75676820746f6b656e73206c6566740000000000000000000081525060200191505060405180910390fd5b5b6000611dbd34600960003373ffffffffffffffffffffffffffffffffffffffff1673ffffffffffffffffffffffffffffffffffffffff168152602001908152602001600020546157be90919063ffffffff16565b9050601a5481101580611dee5750611de8670de0b6b3a764000060175461595590919063ffffffff16565b60135410155b611e60576040517f08c379a000000000000000000000000000000000000000000000000000000000815260040180806020018281038252601a8152602001807f4d696e20696e766573746d656e74206e6f74207265616368656400000000000081525060200191505060405180910390fd5b60006019541480611e7357506019548111155b611ee5576040517f08c379a00000000000000000000000000000000000000000000000000000000081526004018080602001828103825260168152602001807f4d617820696e766573746d656e7420726561636865640000000000000000000081525060200191505060405180910390fd5b60006026541115611f6957602654821015611f68576040517f08c379a00000000000000000000000000000000000000000000000000000000081526004018080602001828103825260198152602001807f4e6f7420656e6f75676820584450206f6e206163636f756e740000000000000081525060200191505060405180910390fd5b5b6000600960003373ffffffffffffffffffffffffffffffffffffffff1673ffffffffffffffffffffffffffffffffffffffff168152602001908152602001600020541415611fce57611fc760016010546157be90919063ffffffff16565b6010819055505b611fe3346013546157be90919063ffffffff16565b60138190555080600960003373ffffffffffffffffffffffffffffffffffffffff1673ffffffffffffffffffffffffffffffffffffffff1681526020019081526020016000208190555061204a612039346159d8565b60155461595590919063ffffffff16565b601581905550505050505050565b600f5481565b600a6020528060005260406000206000915054906101000a900460ff1681565b60175481565b602c5481565b3373ffffffffffffffffffffffffffffffffffffffff1660008054906101000a900473ffffffffffffffffffffffffffffffffffffffff1673ffffffffffffffffffffffffffffffffffffffff16148061213157503373ffffffffffffffffffffffffffffffffffffffff16600160009054906101000a900473ffffffffffffffffffffffffffffffffffffffff1673ffffffffffffffffffffffffffffffffffffffff16145b61213a57600080fd5b85600260006101000a81548173ffffffffffffffffffffffffffffffffffffffff021916908373ffffffffffffffffffffffffffffffffffffffff16021790555084600c8190555083600d8190555082600e8190555081600f8190555080600360006101000a81548173ffffffffffffffffffffffffffffffffffffffff021916908373ffffffffffffffffffffffffffffffffffffffff160217905550505050505050565b60306020528060005260406000206000915054906101000a900460ff1681565b60275481565b3373ffffffffffffffffffffffffffffffffffffffff16600760009054906101000a900473ffffffffffffffffffffffffffffffffffffffff1673ffffffffffffffffffffffffffffffffffffffff1614806122ad57503373ffffffffffffffffffffffffffffffffffffffff1660008054906101000a900473ffffffffffffffffffffffffffffffffffffffff1673ffffffffffffffffffffffffffffffffffffffff16145b61231f576040517f08c379a000000000000000000000000000000000000000000000000000000000815260040180806020018281038252601e8152602001807f4e6f742070726573616c652063726561746f72206f7220666163746f7279000081525060200191505060405180910390fd5b6000881161232c57600080fd5b6000871161233957600080fd5b6000821161234657600080fd5b6000811161235357600080fd5b6000861161236057600080fd5b612373878961584690919063ffffffff16565b86111561237f57600080fd5b8585111561238c57600080fd5b8383111561239957600080fd5b8082106123a557600080fd5b87601481905550876015819055508660168190555085601781905550846018819055508360198190555082601a8190555081601b8190555080601c819055505050505050505050565b3373ffffffffffffffffffffffffffffffffffffffff16600760009054906101000a900473ffffffffffffffffffffffffffffffffffffffff1673ffffffffffffffffffffffffffffffffffffffff16148061249557503373ffffffffffffffffffffffffffffffffffffffff1660008054906101000a900473ffffffffffffffffffffffffffffffffffffffff1673ffffffffffffffffffffffffffffffffffffffff16145b612507576040517f08c379a000000000000000000000000000000000000000000000000000000000815260040180806020018281038252601e8152602001807f4e6f742070726573616c652063726561746f72206f7220666163746f7279000081525060200191505060405180910390fd5b85602a8190555084602b8190555083602d8190555082602c8190555081602e8190555080602f81905550505050505050565b60165481565b60205481565b3373ffffffffffffffffffffffffffffffffffffffff1660008054906101000a900473ffffffffffffffffffffffffffffffffffffffff1673ffffffffffffffffffffffffffffffffffffffff1614806125ec57503373ffffffffffffffffffffffffffffffffffffffff16600160009054906101000a900473ffffffffffffffffffffffffffffffffffffffff1673ffffffffffffffffffffffffffffffffffffffff16145b6125f557600080fd5b678ac7230489e8000081101561260a57600080fd5b670de0b6b3a7640000810260258190555050565b60265481565b600760009054906101000a900473ffffffffffffffffffffffffffffffffffffffff1681565b600460009054906101000a900473ffffffffffffffffffffffffffffffffffffffff1681565b3373ffffffffffffffffffffffffffffffffffffffff16600760009054906101000a900473ffffffffffffffffffffffffffffffffffffffff1673ffffffffffffffffffffffffffffffffffffffff16148061271757503373ffffffffffffffffffffffffffffffffffffffff1660008054906101000a900473ffffffffffffffffffffffffffffffffffffffff1673ffffffffffffffffffffffffffffffffffffffff16145b612789576040517f08c379a000000000000000000000000000000000000000000000000000000000815260040180806020018281038252601e8152602001807f4e6f742070726573616c652063726561746f72206f7220666163746f7279000081525060200191505060405180910390fd5b6000841161279657600080fd5b600083116127a357600080fd5b600082116127b057600080fd5b600081116127bd57600080fd5b6000601c54116127cc57600080fd5b601c548310156127db57600080fd5b83601d8190555082601e8190555081601f819055508060208190555050505050565b602960019054906101000a900460ff1615806128625750600a60003373ffffffffffffffffffffffffffffffffffffffff1673ffffffffffffffffffffffffffffffffffffffff16815260200190815260200160002060009054906101000a900460ff165b6128d4576040517f08c379a00000000000000000000000000000000000000000000000000000000081526004018080602001828103825260178152602001807f41646472657373206e6f742077686974656c697374656400000000000000000081525060200191505060405180910390fd5b602960039054906101000a900460ff1615612957576040517f08c379a00000000000000000000000000000000000000000000000000000000081526004018080602001828103825260098152602001807f43616e63656c6c6564000000000000000000000000000000000000000000000081525060200191505060405180910390fd5b6000600960003373ffffffffffffffffffffffffffffffffffffffff1673ffffffffffffffffffffffffffffffffffffffff1681526020019081526020016000205411612a0c576040517f08c379a000000000000000000000000000000000000000000000000000000000815260040180806020018281038252600f8152602001807f4e6f7420616e20696e766573746f72000000000000000000000000000000000081525060200191505060405180910390fd5b600b60003373ffffffffffffffffffffffffffffffffffffffff1673ffffffffffffffffffffffffffffffffffffffff16815260200190815260200160002060009054906101000a900460ff1615612acc576040517f08c379a000000000000000000000000000000000000000000000000000000000815260040180806020018281038252601b8152602001807f416c726561647920636c61696d6564206f7220726566756e646564000000000081525060200191505060405180910390fd5b602960009054906101000a900460ff16612b4e576040517f08c379a00000000000000000000000000000000000000000000000000000000081526004018080602001828103825260178152602001807f4c6971756964697479206e6f742079657420616464656400000000000000000081525060200191505060405180910390fd5b6001600b60003373ffffffffffffffffffffffffffffffffffffffff1673ffffffffffffffffffffffffffffffffffffffff16815260200190815260200160002060006101000a81548160ff021916908315150217905550600560009054906101000a900473ffffffffffffffffffffffffffffffffffffffff1673ffffffffffffffffffffffffffffffffffffffff1663a9059cbb33612c2d600960003373ffffffffffffffffffffffffffffffffffffffff1673ffffffffffffffffffffffffffffffffffffffff168152602001908152602001600020546159d8565b6040518363ffffffff1660e01b8152600401808373ffffffffffffffffffffffffffffffffffffffff16815260200182815260200192505050602060405180830381600087803b158015612c8057600080fd5b505af1158015612c94573d6000803e3d6000fd5b505050506040513d6020811015612caa57600080fd5b81019080805190602001909291905050505060004790506000811115612d4c5760008160115411612cdd57601154612cdf565b815b9050600760009054906101000a900473ffffffffffffffffffffffffffffffffffffffff1673ffffffffffffffffffffffffffffffffffffffff166108fc829081150290604051600060405180830381858888f19350505050158015612d49573d6000803e3d6000fd5b50505b50565b602960039054906101000a900460ff1615612dd2576040517f08c379a00000000000000000000000000000000000000000000000000000000081526004018080602001828103825260098152602001807f43616e63656c6c6564000000000000000000000000000000000000000000000081525060200191505060405180910390fd5b6000806000600360009054906101000a900473ffffffffffffffffffffffffffffffffffffffff1673ffffffffffffffffffffffffffffffffffffffff166387cad0bf336040518263ffffffff1660e01b8152600401808273ffffffffffffffffffffffffffffffffffffffff16815260200191505060606040518083038186803b158015612e6057600080fd5b505afa158015612e74573d6000803e3d6000fd5b505050506040513d6060811015612e8a57600080fd5b810190808051906020019092919080519060200190929190805190602001909291905050508093508194508295505050506000600460009054906101000a900473ffffffffffffffffffffffffffffffffffffffff1673ffffffffffffffffffffffffffffffffffffffff16638d3af9a26040518163ffffffff1660e01b815260040160206040518083038186803b158015612f2557600080fd5b505afa158015612f39573d6000803e3d6000fd5b505050506040513d6020811015612f4f57600080fd5b810190808051906020019092919050505090506000600460009054906101000a900473ffffffffffffffffffffffffffffffffffffffff1673ffffffffffffffffffffffffffffffffffffffff1663c4086893336040518263ffffffff1660e01b8152600401808273ffffffffffffffffffffffffffffffffffffffff16815260200191505060206040518083038186803b158015612fed57600080fd5b505afa158015613001573d6000803e3d6000fd5b505050506040513d602081101561301757600080fd5b8101908080519060200190929190505050905042828501116130495761304685826157be90919063ffffffff16565b90505b6025548110156130c1576040517f08c379a00000000000000000000000000000000000000000000000000000000081526004018080602001828103825260168152602001807f4e6f7420656e6f7567682058445020746f20766f74650000000000000000000081525060200191505060405180910390fd5b6000602160003373ffffffffffffffffffffffffffffffffffffffff1673ffffffffffffffffffffffffffffffffffffffff1681526020019081526020016000205414613176576040517f08c379a00000000000000000000000000000000000000000000000000000000081526004018080602001828103825260138152602001807f566f746520616c7265616479206361737465640000000000000000000000000081525060200191505060405180910390fd5b80602160003373ffffffffffffffffffffffffffffffffffffffff1673ffffffffffffffffffffffffffffffffffffffff1681526020019081526020016000208190555085156131e0576131d5816023546157be90919063ffffffff16565b6023819055506131fc565b6131f5816022546157be90919063ffffffff16565b6022819055505b505050505050565b601f5481565b60125481565b602960019054906101000a900460ff1681565b601c5481565b3373ffffffffffffffffffffffffffffffffffffffff16600760009054906101000a900473ffffffffffffffffffffffffffffffffffffffff1673ffffffffffffffffffffffffffffffffffffffff16146132ec576040517f08c379a00000000000000000000000000000000000000000000000000000000081526004018080602001828103825260138152602001807f4e6f742070726573616c652063726561746f720000000000000000000000000081525060200191505060405180910390fd5b602960009054906101000a900460ff1661330557600080fd5b602960039054906101000a900460ff161561331f57600080fd5b60125442101561332e57600080fd5b60004711156133a157600760009054906101000a900473ffffffffffffffffffffffffffffffffffffffff1673ffffffffffffffffffffffffffffffffffffffff166108fc479081150290604051600060405180830381858888f1935050505015801561339f573d6000803e3d6000fd5b505b565b600260009054906101000a900473ffffffffffffffffffffffffffffffffffffffff1681565b602960009054906101000a900460ff1681565b60105481565b601d5481565b602b5481565b600660009054906101000a900473ffffffffffffffffffffffffffffffffffffffff1681565b60145481565b60318060000154908060010160009054906101000a900460ff16908060010160019054906101000a900460ff1690806002018054600181600116156101000203166002900480601f0160208091040260200160405190810160405280929190818152602001828054600181600116156101000203166002900480156134e05780601f106134b5576101008083540402835291602001916134e0565b820191906000526020600020905b8154815290600101906020018083116134c357829003601f168201915b505050505090806003018054600181600116156101000203166002900480601f01602080910402602001604051908101604052809291908181526020018280546001816001161561010002031660029004801561357e5780601f106135535761010080835404028352916020019161357e565b820191906000526020600020905b81548152906001019060200180831161356157829003601f168201915b5050505050905085565b3373ffffffffffffffffffffffffffffffffffffffff16600760009054906101000a900473ffffffffffffffffffffffffffffffffffffffff1673ffffffffffffffffffffffffffffffffffffffff16148061362f57503373ffffffffffffffffffffffffffffffffffffffff1660008054906101000a900473ffffffffffffffffffffffffffffffffffffffff1673ffffffffffffffffffffffffffffffffffffffff16145b6136a1576040517f08c379a000000000000000000000000000000000000000000000000000000000815260040180806020018281038252601e8152602001807f4e6f742070726573616c652063726561746f72206f7220666163746f7279000081525060200191505060405180910390fd5b600073ffffffffffffffffffffffffffffffffffffffff168473ffffffffffffffffffffffffffffffffffffffff1614156136db57600080fd5b600073ffffffffffffffffffffffffffffffffffffffff168373ffffffffffffffffffffffffffffffffffffffff16141561371557600080fd5b600073ffffffffffffffffffffffffffffffffffffffff168173ffffffffffffffffffffffffffffffffffffffff16141561374f57600080fd5b83600760006101000a81548173ffffffffffffffffffffffffffffffffffffffff021916908373ffffffffffffffffffffffffffffffffffffffff16021790555082600560006101000a81548173ffffffffffffffffffffffffffffffffffffffff021916908373ffffffffffffffffffffffffffffffffffffffff16021790555081600660006101000a81548173ffffffffffffffffffffffffffffffffffffffff021916908373ffffffffffffffffffffffffffffffffffffffff16021790555080600860006101000a81548173ffffffffffffffffffffffffffffffffffffffff021916908373ffffffffffffffffffffffffffffffffffffffff16021790555050505050565b602e5481565b60285481565b3373ffffffffffffffffffffffffffffffffffffffff16600760009054906101000a900473ffffffffffffffffffffffffffffffffffffffff1673ffffffffffffffffffffffffffffffffffffffff16148061390e57503373ffffffffffffffffffffffffffffffffffffffff16600160009054906101000a900473ffffffffffffffffffffffffffffffffffffffff1673ffffffffffffffffffffffffffffffffffffffff16145b613980576040517f08c379a000000000000000000000000000000000000000000000000000000000815260040180806020018281038252601a8152602001807f4e6f742070726573616c652063726561746f72206f722064657600000000000081525060200191505060405180910390fd5b602960009054906101000a900460ff1661399957600080fd5b602960039054906101000a900460ff16156139b357600080fd5b62015180601254014210156139c757600080fd5b6000600560009054906101000a900473ffffffffffffffffffffffffffffffffffffffff1673ffffffffffffffffffffffffffffffffffffffff166370a08231306040518263ffffffff1660e01b8152600401808273ffffffffffffffffffffffffffffffffffffffff16815260200191505060206040518083038186803b158015613a5257600080fd5b505afa158015613a66573d6000803e3d6000fd5b505050506040513d6020811015613a7c57600080fd5b810190808051906020019092919050505090506000811115613b8a57600560009054906101000a900473ffffffffffffffffffffffffffffffffffffffff1673ffffffffffffffffffffffffffffffffffffffff1663a9059cbb600860009054906101000a900473ffffffffffffffffffffffffffffffffffffffff16836040518363ffffffff1660e01b8152600401808373ffffffffffffffffffffffffffffffffffffffff16815260200182815260200192505050602060405180830381600087803b158015613b4d57600080fd5b505af1158015613b61573d6000803e3d6000fd5b505050506040513d6020811015613b7757600080fd5b8101908080519060200190929190505050505b50565b60096020528060005260406000206000915090505481565b602d5481565b3373ffffffffffffffffffffffffffffffffffffffff1660008054906101000a900473ffffffffffffffffffffffffffffffffffffffff1673ffffffffffffffffffffffffffffffffffffffff161480613c5257503373ffffffffffffffffffffffffffffffffffffffff16600160009054906101000a900473ffffffffffffffffffffffffffffffffffffffff1673ffffffffffffffffffffffffffffffffffffffff16145b613c5b57600080fd5b8060268190555050565b600360009054906101000a900473ffffffffffffffffffffffffffffffffffffffff1681565b600160009054906101000a900473ffffffffffffffffffffffffffffffffffffffff1681565b60195481565b600860009054906101000a900473ffffffffffffffffffffffffffffffffffffffff1681565b60216020528060005260406000206000915090505481565b60255481565b3373ffffffffffffffffffffffffffffffffffffffff16600760009054906101000a900473ffffffffffffffffffffffffffffffffffffffff1673ffffffffffffffffffffffffffffffffffffffff161480613da257503373ffffffffffffffffffffffffffffffffffffffff1660008054906101000a900473ffffffffffffffffffffffffffffffffffffffff1673ffffffffffffffffffffffffffffffffffffffff16145b613e14576040517f08c379a000000000000000000000000000000000000000000000000000000000815260040180806020018281038252601e8152602001807f4e6f742070726573616c652063726561746f72206f7220666163746f7279000081525060200191505060405180910390fd5b80602960016101000a81548160ff02191690831515021790555050565b602960019054906101000a900460ff161580613e965750600a60003373ffffffffffffffffffffffffffffffffffffffff1673ffffffffffffffffffffffffffffffffffffffff16815260200190815260200160002060009054906101000a900460ff165b613f08576040517f08c379a00000000000000000000000000000000000000000000000000000000081526004018080602001828103825260178152602001807f41646472657373206e6f742077686974656c697374656400000000000000000081525060200191505060405180910390fd5b6000600960003373ffffffffffffffffffffffffffffffffffffffff1673ffffffffffffffffffffffffffffffffffffffff1681526020019081526020016000205411613fbd576040517f08c379a000000000000000000000000000000000000000000000000000000000815260040180806020018281038252600f8152602001807f4e6f7420616e20696e766573746f72000000000000000000000000000000000081525060200191505060405180910390fd5b600b60003373ffffffffffffffffffffffffffffffffffffffff1673ffffffffffffffffffffffffffffffffffffffff16815260200190815260200160002060009054906101000a900460ff161561407d576040517f08c379a000000000000000000000000000000000000000000000000000000000815260040180806020018281038252601b8152602001807f416c726561647920636c61696d6564206f7220726566756e646564000000000081525060200191505060405180910390fd5b602960039054906101000a900460ff1661427357601b54421015614109576040517f08c379a000000000000000000000000000000000000000000000000000000000815260040180806020018281038252600e8152602001807f4e6f7420796574206f70656e656400000000000000000000000000000000000081525060200191505060405180910390fd5b601c54421015614181576040517f08c379a000000000000000000000000000000000000000000000000000000000815260040180806020018281038252600e8152602001807f4e6f742079657420636c6f73656400000000000000000000000000000000000081525060200191505060405180910390fd5b6000601854116141f9576040517f08c379a000000000000000000000000000000000000000000000000000000000815260040180806020018281038252600b8152602001807f4e6f20736f66742063617000000000000000000000000000000000000000000081525060200191505060405180910390fd5b60185460135410614272576040517f08c379a00000000000000000000000000000000000000000000000000000000081526004018080602001828103825260108152602001807f536f66742063617020726561636865640000000000000000000000000000000081525060200191505060405180910390fd5b5b6001600b60003373ffffffffffffffffffffffffffffffffffffffff1673ffffffffffffffffffffffffffffffffffffffff16815260200190815260200160002060006101000a81548160ff0219169083151502179055506000600960003373ffffffffffffffffffffffffffffffffffffffff1673ffffffffffffffffffffffffffffffffffffffff16815260200190815260200160002054905060004790506000811161432157600080fd5b8082111561432d578091505b600082111561437e573373ffffffffffffffffffffffffffffffffffffffff166108fc839081150290604051600060405180830381858888f1935050505015801561437c573d6000803e3d6000fd5b505b5050565b60155481565b601b5481565b60225481565b3373ffffffffffffffffffffffffffffffffffffffff1660008054906101000a900473ffffffffffffffffffffffffffffffffffffffff1673ffffffffffffffffffffffffffffffffffffffff16148061443b57503373ffffffffffffffffffffffffffffffffffffffff16600160009054906101000a900473ffffffffffffffffffffffffffffffffffffffff1673ffffffffffffffffffffffffffffffffffffffff16145b61444457600080fd5b69021e19e0c9bab240000081101561445b57600080fd5b670de0b6b3a7640000810260248190555050565b602960009054906101000a900460ff161580156144da57503373ffffffffffffffffffffffffffffffffffffffff16600760009054906101000a900473ffffffffffffffffffffffffffffffffffffffff1673ffffffffffffffffffffffffffffffffffffffff1614155b801561453457503373ffffffffffffffffffffffffffffffffffffffff16600160009054906101000a900473ffffffffffffffffffffffffffffffffffffffff1673ffffffffffffffffffffffffffffffffffffffff1614155b1561453e57600080fd5b602960009054906101000a900460ff1680156145a857503373ffffffffffffffffffffffffffffffffffffffff16600160009054906101000a900473ffffffffffffffffffffffffffffffffffffffff1673ffffffffffffffffffffffffffffffffffffffff1614155b156145b257600080fd5b602960039054906101000a900460ff16156145cc57600080fd5b6001602960036101000a81548160ff0219169083151502179055506000600560009054906101000a900473ffffffffffffffffffffffffffffffffffffffff1673ffffffffffffffffffffffffffffffffffffffff166370a08231306040518263ffffffff1660e01b8152600401808273ffffffffffffffffffffffffffffffffffffffff16815260200191505060206040518083038186803b15801561467257600080fd5b505afa158015614686573d6000803e3d6000fd5b505050506040513d602081101561469c57600080fd5b8101908080519060200190929190505050905060008111156147aa57600560009054906101000a900473ffffffffffffffffffffffffffffffffffffffff1673ffffffffffffffffffffffffffffffffffffffff1663a9059cbb600760009054906101000a900473ffffffffffffffffffffffffffffffffffffffff16836040518363ffffffff1660e01b8152600401808373ffffffffffffffffffffffffffffffffffffffff16815260200182815260200192505050602060405180830381600087803b15801561476d57600080fd5b505af1158015614781573d6000803e3d6000fd5b505050506040513d602081101561479757600080fd5b8101908080519060200190929190505050505b50565b602a5481565b60135481565b602f5481565b600b6020528060005260406000206000915054906101000a900460ff1681565b3373ffffffffffffffffffffffffffffffffffffffff16600760009054906101000a900473ffffffffffffffffffffffffffffffffffffffff1673ffffffffffffffffffffffffffffffffffffffff16148061488657503373ffffffffffffffffffffffffffffffffffffffff1660008054906101000a900473ffffffffffffffffffffffffffffffffffffffff1673ffffffffffffffffffffffffffffffffffffffff16145b6148f8576040517f08c379a000000000000000000000000000000000000000000000000000000000815260040180806020018281038252601e8152602001807f4e6f742070726573616c652063726561746f72206f7220666163746f7279000081525060200191505060405180910390fd5b60008282905011602960016101000a81548160ff02191690831515021790555060005b828290508110156149b3576001600a600085858581811061493857fe5b9050602002013573ffffffffffffffffffffffffffffffffffffffff1673ffffffffffffffffffffffffffffffffffffffff1673ffffffffffffffffffffffffffffffffffffffff16815260200190815260200160002060006101000a81548160ff021916908315150217905550808060010191505061491b565b505050565b601e5481565b602960029054906101000a900460ff1681565b602960039054906101000a900460ff1615614a54576040517f08c379a00000000000000000000000000000000000000000000000000000000081526004018080602001828103825260098152602001807f43616e63656c6c6564000000000000000000000000000000000000000000000081525060200191505060405180910390fd5b600060135411614a6357600080fd5b602960009054906101000a900460ff1615614ae6576040517f08c379a00000000000000000000000000000000000000000000000000000000081526004018080602001828103825260178152602001807f4c697175696469747920616c726561647920616464656400000000000000000081525060200191505060405180910390fd5b602960019054906101000a900460ff161580614b4b5750600a60003373ffffffffffffffffffffffffffffffffffffffff1673ffffffffffffffffffffffffffffffffffffffff16815260200190815260200160002060009054906101000a900460ff165b80614ba35750600760009054906101000a900473ffffffffffffffffffffffffffffffffffffffff1673ffffffffffffffffffffffffffffffffffffffff163373ffffffffffffffffffffffffffffffffffffffff16145b614bf8576040517f08c379a0000000000000000000000000000000000000000000000000000000008152600401808060200182810382526026815260200180615daf6026913960400191505060405180910390fd5b614c15670de0b6b3a764000060175461595590919063ffffffff16565b60135410158015614c275750601e5442105b15614cf457600760009054906101000a900473ffffffffffffffffffffffffffffffffffffffff1673ffffffffffffffffffffffffffffffffffffffff163373ffffffffffffffffffffffffffffffffffffffff1614614cef576040517f08c379a00000000000000000000000000000000000000000000000000000000081526004018080602001828103825260138152602001807f4e6f742070726573616c652063726561746f720000000000000000000000000081525060200191505060405180910390fd5b614ef8565b601e544210614e8957600760009054906101000a900473ffffffffffffffffffffffffffffffffffffffff1673ffffffffffffffffffffffffffffffffffffffff163373ffffffffffffffffffffffffffffffffffffffff161480614d9857506000600960003373ffffffffffffffffffffffffffffffffffffffff1673ffffffffffffffffffffffffffffffffffffffff16815260200190815260200160002054115b614e0a576040517f08c379a000000000000000000000000000000000000000000000000000000000815260040180806020018281038252601f8152602001807f4e6f742070726573616c652063726561746f72206f7220696e766573746f720081525060200191505060405180910390fd5b6018546013541015614e84576040517f08c379a00000000000000000000000000000000000000000000000000000000081526004018080602001828103825260148152602001807f536f667420636170206e6f74207265616368656400000000000000000000000081525060200191505060405180910390fd5b614ef7565b6040517f08c379a000000000000000000000000000000000000000000000000000000000815260040180806020018281038252601d8152602001807f4c69717569646974792063616e6e6f742062652061646465642079657400000081525060200191505060405180910390fd5b5b6001602960006101000a81548160ff021916908315150217905550600060135490506000602960029054906101000a900460ff16614f80576000614f5a6064614f4c600c548661584690919063ffffffff16565b6158cc90919063ffffffff16565b9050600d54811180614f6e575082600d5410155b614f7a57600d54614f7c565b805b9150505b600081111561508457614f9c818361595590919063ffffffff16565b9150600160009054906101000a900473ffffffffffffffffffffffffffffffffffffffff1673ffffffffffffffffffffffffffffffffffffffff166108fc829081150290604051600060405180830381858888f19350505050158015615006573d6000803e3d6000fd5b5061501a818361595590919063ffffffff16565b915060008054906101000a900473ffffffffffffffffffffffffffffffffffffffff1673ffffffffffffffffffffffffffffffffffffffff166108fc829081150290604051600060405180830381858888f19350505050158015615082573d6000803e3d6000fd5b505b60006150ae60646150a06020548661584690919063ffffffff16565b6158cc90919063ffffffff16565b905060006150e1601d546150d3670de0b6b3a76400008561584690919063ffffffff16565b6158cc90919063ffffffff16565b90506000600460009054906101000a900473ffffffffffffffffffffffffffffffffffffffff1673ffffffffffffffffffffffffffffffffffffffff16635a2b0c746040518163ffffffff1660e01b815260040160206040518083038186803b15801561514d57600080fd5b505afa158015615161573d6000803e3d6000fd5b505050506040513d602081101561517757600080fd5b81019080805190602001909291905050509050600560009054906101000a900473ffffffffffffffffffffffffffffffffffffffff1673ffffffffffffffffffffffffffffffffffffffff1663095ea7b382846040518363ffffffff1660e01b8152600401808373ffffffffffffffffffffffffffffffffffffffff16815260200182815260200192505050602060405180830381600087803b15801561521d57600080fd5b505af1158015615231573d6000803e3d6000fd5b505050506040513d602081101561524757600080fd5b8101908080519060200190929190505050508073ffffffffffffffffffffffffffffffffffffffff1663f305d71984600560009054906101000a900473ffffffffffffffffffffffffffffffffffffffff1685600080600260009054906101000a900473ffffffffffffffffffffffffffffffffffffffff166152d5610384426157be90919063ffffffff16565b6040518863ffffffff1660e01b8152600401808773ffffffffffffffffffffffffffffffffffffffff1681526020018681526020018581526020018481526020018373ffffffffffffffffffffffffffffffffffffffff16815260200182815260200196505050505050506060604051808303818588803b15801561535957600080fd5b505af115801561536d573d6000803e3d6000fd5b50505050506040513d606081101561538457600080fd5b810190808051906020019092919080519060200190929190805190602001909291905050505050506153f56153cc670de0b6b3a764000060105461584690919063ffffffff16565b6153e7670de0b6b3a76400004761584690919063ffffffff16565b6158cc90919063ffffffff16565b6011819055506201518042016012819055505050505050565b3373ffffffffffffffffffffffffffffffffffffffff1660008054906101000a900473ffffffffffffffffffffffffffffffffffffffff1673ffffffffffffffffffffffffffffffffffffffff1614806154b557503373ffffffffffffffffffffffffffffffffffffffff16600160009054906101000a900473ffffffffffffffffffffffffffffffffffffffff1673ffffffffffffffffffffffffffffffffffffffff16145b6154be57600080fd5b80602960026101000a81548160ff02191690831515021790555050565b602960039054906101000a900460ff1681565b3373ffffffffffffffffffffffffffffffffffffffff1660008054906101000a900473ffffffffffffffffffffffffffffffffffffffff1673ffffffffffffffffffffffffffffffffffffffff16148061559557503373ffffffffffffffffffffffffffffffffffffffff16600160009054906101000a900473ffffffffffffffffffffffffffffffffffffffff1673ffffffffffffffffffffffffffffffffffffffff16145b61559e57600080fd5b60005b82829050811015615639576001603060008585858181106155be57fe5b9050602002013573ffffffffffffffffffffffffffffffffffffffff1673ffffffffffffffffffffffffffffffffffffffff1673ffffffffffffffffffffffffffffffffffffffff16815260200190815260200160002060006101000a81548160ff02191690831515021790555080806001019150506155a1565b505050565b60185481565b60245481565b60115481565b601a5481565b603060003373ffffffffffffffffffffffffffffffffffffffff1673ffffffffffffffffffffffffffffffffffffffff16815260200190815260200160002060009054906101000a900460ff16615715576040517f08c379a000000000000000000000000000000000000000000000000000000000815260040180806020018281038252601f8152602001807f41756469746f722041646472657373206e6f742077686974656c69737465640081525060200191505060405180910390fd5b8660316000018190555085603160010160006101000a81548160ff02191690831515021790555084603160010160016101000a81548160ff02191690831515021790555083836031600201919061576d929190615d11565b50818160316003019190615782929190615d11565b5050505050505050565b60235481565b600560009054906101000a900473ffffffffffffffffffffffffffffffffffffffff1681565b600e5481565b60008082840190508381101561583c576040517f08c379a000000000000000000000000000000000000000000000000000000000815260040180806020018281038252601b8152602001807f536166654d6174683a206164646974696f6e206f766572666c6f77000000000081525060200191505060405180910390fd5b8091505092915050565b60008083141561585957600090506158c6565b600082840290508284828161586a57fe5b04146158c1576040517f08c379a0000000000000000000000000000000000000000000000000000000008152600401808060200182810382526021815260200180615dd56021913960400191505060405180910390fd5b809150505b92915050565b6000808211615943576040517f08c379a000000000000000000000000000000000000000000000000000000000815260040180806020018281038252601a8152602001807f536166654d6174683a206469766973696f6e206279207a65726f00000000000081525060200191505060405180910390fd5b81838161594c57fe5b04905092915050565b6000828211156159cd576040517f08c379a000000000000000000000000000000000000000000000000000000000815260040180806020018281038252601e8152602001807f536166654d6174683a207375627472616374696f6e206f766572666c6f77000081525060200191505060405180910390fd5b818303905092915050565b600080600080600360009054906101000a900473ffffffffffffffffffffffffffffffffffffffff1673ffffffffffffffffffffffffffffffffffffffff166387cad0bf336040518263ffffffff1660e01b8152600401808273ffffffffffffffffffffffffffffffffffffffff16815260200191505060606040518083038186803b158015615a6757600080fd5b505afa158015615a7b573d6000803e3d6000fd5b505050506040513d6060811015615a9157600080fd5b810190808051906020019092919080519060200190929190805190602001909291905050508093508194508295505050506000600460009054906101000a900473ffffffffffffffffffffffffffffffffffffffff1673ffffffffffffffffffffffffffffffffffffffff16638d3af9a26040518163ffffffff1660e01b815260040160206040518083038186803b158015615b2c57600080fd5b505afa158015615b40573d6000803e3d6000fd5b505050506040513d6020811015615b5657600080fd5b810190808051906020019092919050505090506000600460009054906101000a900473ffffffffffffffffffffffffffffffffffffffff1673ffffffffffffffffffffffffffffffffffffffff1663c4086893336040518263ffffffff1660e01b8152600401808273ffffffffffffffffffffffffffffffffffffffff16815260200191505060206040518083038186803b158015615bf457600080fd5b505afa158015615c08573d6000803e3d6000fd5b505050506040513d6020811015615c1e57600080fd5b810190808051906020019092919050505090504282850111615c5057615c4d85826157be90919063ffffffff16565b90505b6027548110615cd5576000615c856064615c7760285460165461584690919063ffffffff16565b6158cc90919063ffffffff16565b9050615cc8615c9f8260165461595590919063ffffffff16565b615cba670de0b6b3a76400008b61584690919063ffffffff16565b6158cc90919063ffffffff16565b9650505050505050615d0c565b615d04601654615cf6670de0b6b3a76400008a61584690919063ffffffff16565b6158cc90919063ffffffff16565b955050505050505b919050565b828054600181600116156101000203166002900490600052602060002090601f016020900481019282601f10615d5257803560ff1916838001178555615d80565b82800160010185558215615d80579182015b82811115615d7f578235825591602001919060010190615d64565b5b509050615d8d9190615d91565b5090565b5b80821115615daa576000816000905550600101615d92565b509056fe4e6f742077686974656c6973746564206f72206e6f742070726573616c652063726561746f72536166654d6174683a206d756c7469706c69636174696f6e206f766572666c6f77a26469706673582212207aa82c8ebfd01fb44c1052796c0d96fba765c2e6f0b12688a1cba21bbe8c65c664736f6c634300060c0033",
  "immutableReferences": {},
  "source": "// SPDX-License-Identifier: MIT\npragma solidity 0.6.12;\n\nimport \"@openzeppelin/contracts/math/SafeMath.sol\";\nimport \"@openzeppelin/contracts/token/ERC20/IERC20.sol\";\nimport \"./XDaiStarterStaking.sol\";\nimport \"./XDaiStarterInfo.sol\";\n\ninterface IHoneySwapV2Router02 {\n    function addLiquidityETH(\n        address token,\n        uint256 amountTokenDesired,\n        uint256 amountTokenMin,\n        uint256 amountETHMin,\n        address to,\n        uint256 deadline\n    )\n        external\n        payable\n        returns (\n            uint256 amountToken,\n            uint256 amountETH,\n            uint256 liquidity\n        );\n}\n\ncontract XDaiStarterPresale {\n    using SafeMath for uint256;\n\n    address payable internal xdpFactoryAddress; // address that creates the presale contracts\n    address payable public xdpDevAddress; // address where dev fees will be transferred to\n    address public xdpLiqLockAddress; // address where LP tokens will be locked\n    XDaiStarterStaking public xdpStakingPool;\n    XDaiStarterInfo public xDaiStarterInfo;\n\n    IERC20 public token; // token that will be sold\n    IERC20 public xdpToken; // system token\n    address payable public presaleCreatorAddress; // address where percentage of invested wei will be transferred to\n    address public unsoldTokensDumpAddress; // address where unsold tokens will be transferred to\n\n    mapping(address => uint256) public investments; // total wei invested per address\n    mapping(address => bool) public whitelistedAddresses; // addresses eligible in presale\n    mapping(address => bool) public claimed; // if true, it means investor already claimed the tokens or got a refund\n\n    uint256 private xdpDevFeePercentage; // dev fee to support the development of XDaiStarter\n    uint256 private xdpMinDevFeeInWei; // minimum fixed dev fee to support the development of XDaiStarter\n    uint256 public xdpId; // used for fetching presale without referencing its address\n    uint256 public presaleGrantId; // tracks any incubator grants given\n\n    uint256 public totalInvestorsCount; // total investors count\n    uint256 public presaleCreatorClaimWei; // wei to transfer to presale creator per investor claim\n    uint256 public presaleCreatorClaimTime; // time when presale creator can collect funds raise\n    uint256 public totalCollectedWei; // total wei collected\n    uint256 public totalTokens; // total tokens to be sold\n    uint256 public tokensLeft; // available tokens to be sold\n    uint256 public tokenPriceInWei; // token presale wei price per 1 token\n    uint256 public hardCapInWei; // maximum wei amount that can be invested in presale\n    uint256 public softCapInWei; // minimum wei amount to invest in presale, if not met, invested wei will be returned\n    uint256 public maxInvestInWei; // maximum wei amount that can be invested per wallet address\n    uint256 public minInvestInWei; // minimum wei amount that can be invested per wallet address\n    uint256 public openTime; // time when presale starts, investing is allowed\n    uint256 public closeTime; // time when presale closes, investing is not allowed\n    uint256 public honeyListingPriceInWei; // token price when listed in HoneySwap\n    uint256 public honeyLiquidityAddingTime; // time when adding of liquidity in HoneySwap starts, investors can claim their tokens afterwards\n    uint256 public honeyLPTokensLockDurationInDays; // how many days after the liquity is added the presale creator can unlock the LP tokens\n    uint256 public honeyLiquidityPercentageAllocation; // how many percentage of the total invested wei that will be added as liquidity\n\n    mapping(address => uint256) public voters; // addresses voting on sale\n    uint256 public noVotes; // total number of no votes\n    uint256 public yesVotes; // total number of yes votes\n    uint256 public minYesVotesThreshold = 100000 * 1e18; // minimum number of yes votes needed to pass\n    uint256 public minVoterXDPBalance = 1000 * 1e18; // minimum number of XDP tokens to hold to vote\n    uint256 public minInvestorXDPBalance; // minimum number of XDP tokens to hold to invest\n    uint256 public minRewardQualifyBal; // min amount to HODL to qualify for token discounts\n    uint256 public minRewardQualifyPercentage; // percentage of discount on tokens for qualifying holders\n\n    bool public honeyLiquidityAdded = false; // if true, liquidity is added in HoneySwap and lp tokens are locked\n    bool public onlyWhitelistedAddressesAllowed = false; // if true, only whitelisted addresses can invest\n    bool public xdpDevFeesExempted = false; // if true, presale will be exempted from dev fees\n    bool public presaleCancelled = false; // if true, investing will not be allowed, investors can withdraw, presale creator can withdraw their tokens\n\n    bytes32 public saleTitle;\n    bytes32 public linkTelegram;\n    bytes32 public linkTwitter;\n    bytes32 public linkGithub;\n    bytes32 public linkWebsite;\n    bytes32 public linkLogo;\n\n    mapping(address => bool) public auditorWhitelistedAddresses; // addresses eligible to perform audit\n    struct AuditorInfo {\n        bytes32 auditor; // auditor name\n        bool isVerified; // if true -> passed, false -> failed\n        bool isWarning; // if true -> warning, false -> no warning\n        string verifiedHash; // stores content of audit summary (actual text)\n        string warningHash; // stores content of warnings\n    }\n    AuditorInfo public auditInformation;\n\n    constructor(\n        address _xdpFactoryAddress,\n        address _xDaiStarterInfo,\n        address _xdpDevAddress,\n        uint256 _minRewardQualifyBal,\n        uint256 _minRewardQualifyPercentage\n    ) public {\n        require(_xdpFactoryAddress != address(0));\n        require(_xdpDevAddress != address(0));\n\n        xdpFactoryAddress = payable(_xdpFactoryAddress);\n        xdpDevAddress = payable(_xdpDevAddress);\n        minRewardQualifyBal = _minRewardQualifyBal;\n        minRewardQualifyPercentage = _minRewardQualifyPercentage;\n        xDaiStarterInfo = XDaiStarterInfo(_xDaiStarterInfo);\n    }\n\n    modifier onlyXdpDev() {\n        require(\n            xdpFactoryAddress == msg.sender || xdpDevAddress == msg.sender\n        );\n        _;\n    }\n\n    modifier onlyPresaleCreatorOrXdpFactory() {\n        require(\n            presaleCreatorAddress == msg.sender ||\n                xdpFactoryAddress == msg.sender,\n            \"Not presale creator or factory\"\n        );\n        _;\n    }\n\n    modifier onlyPresaleCreatorOrXdpDev() {\n        require(\n            presaleCreatorAddress == msg.sender || xdpDevAddress == msg.sender,\n            \"Not presale creator or dev\"\n        );\n        _;\n    }\n\n    modifier onlyPresaleCreator() {\n        require(presaleCreatorAddress == msg.sender, \"Not presale creator\");\n        _;\n    }\n\n    modifier whitelistedAddressOnly() {\n        require(\n            !onlyWhitelistedAddressesAllowed ||\n                whitelistedAddresses[msg.sender],\n            \"Address not whitelisted\"\n        );\n        _;\n    }\n\n    modifier presaleIsNotCancelled() {\n        require(!presaleCancelled, \"Cancelled\");\n        _;\n    }\n\n    modifier investorOnly() {\n        require(investments[msg.sender] > 0, \"Not an investor\");\n        _;\n    }\n\n    modifier notYetClaimedOrRefunded() {\n        require(!claimed[msg.sender], \"Already claimed or refunded\");\n        _;\n    }\n\n    modifier votesPassed() {\n        require(\n            yesVotes > noVotes && yesVotes >= minYesVotesThreshold,\n            \"Votes not passed\"\n        );\n        _;\n    }\n\n    modifier whitelistedAuditorOnly() {\n        require(\n            auditorWhitelistedAddresses[msg.sender],\n            \"Auditor Address not whitelisted\"\n        );\n        _;\n    }\n\n    function setAddressInfo(\n        address _presaleCreator,\n        address _tokenAddress,\n        address _xdpTokenAddress,\n        address _unsoldTokensDumpAddress\n    ) external onlyPresaleCreatorOrXdpFactory {\n        require(_presaleCreator != address(0));\n        require(_tokenAddress != address(0));\n        require(_unsoldTokensDumpAddress != address(0));\n\n        presaleCreatorAddress = payable(_presaleCreator);\n        token = IERC20(_tokenAddress);\n        xdpToken = IERC20(_xdpTokenAddress);\n        unsoldTokensDumpAddress = _unsoldTokensDumpAddress;\n    }\n\n    function setGeneralInfo(\n        uint256 _totalTokens,\n        uint256 _tokenPriceInWei,\n        uint256 _hardCapInWei,\n        uint256 _softCapInWei,\n        uint256 _maxInvestInWei,\n        uint256 _minInvestInWei,\n        uint256 _openTime,\n        uint256 _closeTime\n    ) external onlyPresaleCreatorOrXdpFactory {\n        require(_totalTokens > 0);\n        require(_tokenPriceInWei > 0);\n        require(_openTime > 0);\n        require(_closeTime > 0);\n        require(_hardCapInWei > 0);\n\n        // Hard cap > (token amount * token price)\n        require(_hardCapInWei <= _totalTokens.mul(_tokenPriceInWei));\n        // Soft cap > to hard cap\n        require(_softCapInWei <= _hardCapInWei);\n        //  Min. wei investment > max. wei investment\n        require(_minInvestInWei <= _maxInvestInWei);\n        // Open time >= close time\n        require(_openTime < _closeTime);\n\n        totalTokens = _totalTokens;\n        tokensLeft = _totalTokens;\n        tokenPriceInWei = _tokenPriceInWei;\n        hardCapInWei = _hardCapInWei;\n        softCapInWei = _softCapInWei;\n        maxInvestInWei = _maxInvestInWei;\n        minInvestInWei = _minInvestInWei;\n        openTime = _openTime;\n        closeTime = _closeTime;\n    }\n\n    function setHoneySwapInfo(\n        uint256 _honeyListingPriceInWei,\n        uint256 _honeyLiquidityAddingTime,\n        uint256 _honeyLPTokensLockDurationInDays,\n        uint256 _honeyLiquidityPercentageAllocation\n    ) external onlyPresaleCreatorOrXdpFactory {\n        require(_honeyListingPriceInWei > 0);\n        require(_honeyLiquidityAddingTime > 0);\n        require(_honeyLPTokensLockDurationInDays > 0);\n        require(_honeyLiquidityPercentageAllocation > 0);\n\n        require(closeTime > 0);\n        // Listing time < close time\n        require(_honeyLiquidityAddingTime >= closeTime);\n\n        honeyListingPriceInWei = _honeyListingPriceInWei;\n        honeyLiquidityAddingTime = _honeyLiquidityAddingTime;\n        honeyLPTokensLockDurationInDays = _honeyLPTokensLockDurationInDays;\n        honeyLiquidityPercentageAllocation = _honeyLiquidityPercentageAllocation;\n    }\n\n    function setStringInfo(\n        bytes32 _saleTitle,\n        bytes32 _linkTelegram,\n        bytes32 _linkGithub,\n        bytes32 _linkTwitter,\n        bytes32 _linkWebsite,\n        bytes32 _linkLogo\n    ) external onlyPresaleCreatorOrXdpFactory {\n        saleTitle = _saleTitle;\n        linkTelegram = _linkTelegram;\n        linkGithub = _linkGithub;\n        linkTwitter = _linkTwitter;\n        linkWebsite = _linkWebsite;\n        linkLogo = _linkLogo;\n    }\n\n    function setAuditorInfo(\n        bytes32 _auditor,\n        bool _isVerified,\n        bool _isWarning,\n        string calldata _verifiedHash,\n        string calldata _warningHash\n    ) external whitelistedAuditorOnly {\n        auditInformation.auditor = _auditor;\n        auditInformation.isVerified = _isVerified;\n        auditInformation.isWarning = _isWarning;\n        auditInformation.verifiedHash = _verifiedHash;\n        auditInformation.warningHash = _warningHash;\n    }\n\n    function setXdpInfo(\n        address _xdpLiqLockAddress,\n        uint256 _xdpDevFeePercentage,\n        uint256 _xdpMinDevFeeInWei,\n        uint256 _xdpId,\n        uint256 _presaleGrantId,\n        address _xdpStakingPool\n    ) external onlyXdpDev {\n        xdpLiqLockAddress = _xdpLiqLockAddress;\n        xdpDevFeePercentage = _xdpDevFeePercentage;\n        xdpMinDevFeeInWei = _xdpMinDevFeeInWei;\n        xdpId = _xdpId;\n        presaleGrantId = _presaleGrantId;\n        xdpStakingPool = XDaiStarterStaking(_xdpStakingPool);\n    }\n\n    function setXdpDevFeesExempted(bool _xdpDevFeesExempted)\n        external\n        onlyXdpDev\n    {\n        xdpDevFeesExempted = _xdpDevFeesExempted;\n    }\n\n    function setOnlyWhitelistedAddressesAllowed(\n        bool _onlyWhitelistedAddressesAllowed\n    ) external onlyPresaleCreatorOrXdpFactory {\n        onlyWhitelistedAddressesAllowed = _onlyWhitelistedAddressesAllowed;\n    }\n\n    function setMinVoterXDPBalance(uint256 _minVoterXDPBalance)\n        external\n        onlyXdpDev\n    {\n        require(_minVoterXDPBalance >= 10 * 1e18);\n        minVoterXDPBalance = _minVoterXDPBalance * 1e18;\n    }\n\n    function setMinYesVotesThreshold(uint256 _minYesVotesThreshold)\n        external\n        onlyXdpDev\n    {\n        require(_minYesVotesThreshold >= 10000 * 1e18); // cannot be < 1% of supply\n        minYesVotesThreshold = _minYesVotesThreshold * 1e18;\n    }\n\n    function setMinInvestorXDPBalance(uint256 _minInvestorXDPBalance) \n        external \n        onlyXdpDev \n    {\n        minInvestorXDPBalance = _minInvestorXDPBalance;\n    }\n\n    function addWhitelistedAddresses(address[] calldata _whitelistedAddresses)\n        external\n        onlyPresaleCreatorOrXdpFactory\n    {\n        onlyWhitelistedAddressesAllowed = _whitelistedAddresses.length > 0;\n        for (uint256 i = 0; i < _whitelistedAddresses.length; i++) {\n            whitelistedAddresses[_whitelistedAddresses[i]] = true;\n        }\n    }\n\n    function addAuditorWhitelistedAddresses(\n        address[] calldata _whitelistedAddresses\n    ) external onlyXdpDev {\n        for (uint256 i = 0; i < _whitelistedAddresses.length; i++) {\n            auditorWhitelistedAddresses[_whitelistedAddresses[i]] = true;\n        }\n    }\n\n    function getTokenAmount(uint256 _weiAmount)\n        internal\n        view\n        returns (uint256)\n    {\n        uint256 balance;\n        uint256 lastStakedTimestamp;\n        uint256 lastUnstakedTimestamp;\n        (balance, lastStakedTimestamp, lastUnstakedTimestamp) = xdpStakingPool\n            .accountInfos(msg.sender);\n        uint256 minStakeTime = xDaiStarterInfo.getMinStakeTime();\n        uint256 xdpBalance = xDaiStarterInfo.getLockedBalance(msg.sender);\n\n        if (lastStakedTimestamp + minStakeTime <= block.timestamp) {\n            xdpBalance = xdpBalance.add(balance);\n        }\n        if (xdpBalance >= minRewardQualifyBal) {\n            uint256 pctQualifyingDiscount =\n                tokenPriceInWei.mul(minRewardQualifyPercentage).div(100);\n            return\n                _weiAmount.mul(1e18).div(\n                    tokenPriceInWei.sub(pctQualifyingDiscount)\n                );\n        } else {\n            return _weiAmount.mul(1e18).div(tokenPriceInWei);\n        }\n    }\n\n    function invest()\n        public\n        payable\n        whitelistedAddressOnly\n        presaleIsNotCancelled\n        votesPassed\n    {\n        require(block.timestamp >= openTime, \"Not yet opened\");\n        require(block.timestamp < closeTime, \"Closed\");\n        require(totalCollectedWei < hardCapInWei, \"Hard cap reached\");\n        require(tokensLeft > 0);\n        require(msg.value > 0);\n\n        uint256 balance;\n        uint256 lastStakedTimestamp;\n        uint256 lastUnstakedTimestamp;\n        (balance, lastStakedTimestamp, lastUnstakedTimestamp) = xdpStakingPool\n            .accountInfos(msg.sender);\n        uint256 minStakeTime = xDaiStarterInfo.getMinStakeTime();\n        uint256 xdpBalance = xDaiStarterInfo.getLockedBalance(msg.sender);\n\n        if (lastStakedTimestamp + minStakeTime <= block.timestamp) {\n            xdpBalance = xdpBalance.add(balance);\n        }\n        if (xdpBalance >= minRewardQualifyBal) {\n            // apply discount to qualifying hodlers\n            uint256 pctQualifyingDiscount =\n                tokenPriceInWei.mul(minRewardQualifyPercentage).div(100);\n            require(\n                msg.value <=\n                    tokensLeft\n                        .mul(tokenPriceInWei.sub(pctQualifyingDiscount))\n                        .div(1e18),\n                \"Not enough tokens left\"\n            );\n        } else {\n            require(\n                msg.value <= tokensLeft.mul(tokenPriceInWei).div(1e18),\n                \"Not enough tokens left\"\n            );\n        }\n        uint256 totalInvestmentInWei = investments[msg.sender].add(msg.value);\n        require(\n            totalInvestmentInWei >= minInvestInWei ||\n                totalCollectedWei >= hardCapInWei.sub(1 ether),\n            \"Min investment not reached\"\n        );\n        require(\n            maxInvestInWei == 0 || totalInvestmentInWei <= maxInvestInWei,\n            \"Max investment reached\"\n        );\n\n        if (minInvestorXDPBalance > 0) {\n            require(\n                xdpBalance >= minInvestorXDPBalance,\n                \"Not enough XDP on account\"\n            );\n        }\n\n        if (investments[msg.sender] == 0) {\n            totalInvestorsCount = totalInvestorsCount.add(1);\n        }\n\n        totalCollectedWei = totalCollectedWei.add(msg.value);\n        investments[msg.sender] = totalInvestmentInWei;\n        tokensLeft = tokensLeft.sub(getTokenAmount(msg.value));\n    }\n\n    receive() external payable {\n        invest();\n    }\n\n    function addLiquidityAndLockLPTokens() external presaleIsNotCancelled {\n        require(totalCollectedWei > 0);\n        require(!honeyLiquidityAdded, \"Liquidity already added\");\n        require(\n            !onlyWhitelistedAddressesAllowed ||\n                whitelistedAddresses[msg.sender] ||\n                msg.sender == presaleCreatorAddress,\n            \"Not whitelisted or not presale creator\"\n        );\n\n        if (\n            totalCollectedWei >= hardCapInWei.sub(1 ether) &&\n            block.timestamp < honeyLiquidityAddingTime\n        ) {\n            require(msg.sender == presaleCreatorAddress, \"Not presale creator\");\n        } else if (block.timestamp >= honeyLiquidityAddingTime) {\n            require(\n                msg.sender == presaleCreatorAddress ||\n                    investments[msg.sender] > 0,\n                \"Not presale creator or investor\"\n            );\n            require(totalCollectedWei >= softCapInWei, \"Soft cap not reached\");\n        } else {\n            revert(\"Liquidity cannot be added yet\");\n        }\n\n        honeyLiquidityAdded = true;\n\n        uint256 finalTotalCollectedWei = totalCollectedWei;\n        uint256 xdpDevFeeInWei;\n        if (!xdpDevFeesExempted) {\n            uint256 pctDevFee =\n                finalTotalCollectedWei.mul(xdpDevFeePercentage).div(100);\n            xdpDevFeeInWei = pctDevFee > xdpMinDevFeeInWei ||\n                xdpMinDevFeeInWei >= finalTotalCollectedWei\n                ? pctDevFee\n                : xdpMinDevFeeInWei;\n        }\n        if (xdpDevFeeInWei > 0) {\n            finalTotalCollectedWei = finalTotalCollectedWei.sub(\n                xdpDevFeeInWei\n            );\n            xdpDevAddress.transfer(xdpDevFeeInWei);\n            // factory manages XDP hodlers fund where they can claim earned BNB rewards\n            finalTotalCollectedWei = finalTotalCollectedWei.sub(\n                xdpDevFeeInWei\n            );\n            xdpFactoryAddress.transfer(xdpDevFeeInWei);\n        }\n\n        uint256 liqPoolEthAmount =\n            finalTotalCollectedWei.mul(honeyLiquidityPercentageAllocation).div(\n                100\n            );\n        uint256 liqPoolTokenAmount =\n            liqPoolEthAmount.mul(1e18).div(honeyListingPriceInWei);\n\n        IHoneySwapV2Router02 honeySwapRouter =\n            IHoneySwapV2Router02(\n                address(xDaiStarterInfo.getHoneySwapRouter())\n            );\n\n        token.approve(address(honeySwapRouter), liqPoolTokenAmount);\n\n        honeySwapRouter.addLiquidityETH{value: liqPoolEthAmount}(\n            address(token),\n            liqPoolTokenAmount,\n            0,\n            0,\n            xdpLiqLockAddress,\n            block.timestamp.add(15 minutes)\n        );\n\n        presaleCreatorClaimWei = address(this).balance.mul(1e18).div(\n            totalInvestorsCount.mul(1e18)\n        );\n        presaleCreatorClaimTime = block.timestamp + 1 days;\n    }\n\n    function vote(bool yes) external presaleIsNotCancelled {\n        uint256 balance;\n        uint256 lastStakedTimestamp;\n        uint256 lastUnstakedTimestamp;\n        (balance, lastStakedTimestamp, lastUnstakedTimestamp) = xdpStakingPool\n            .accountInfos(msg.sender);\n        uint256 minStakeTime = xDaiStarterInfo.getMinStakeTime();\n        uint256 voterBalance = xDaiStarterInfo.getLockedBalance(msg.sender);\n\n        if (lastStakedTimestamp + minStakeTime <= block.timestamp) {\n            voterBalance = voterBalance.add(balance);\n        }\n\n        require(voterBalance >= minVoterXDPBalance, \"Not enough XDP to vote\");\n        require(voters[msg.sender] == 0, \"Vote already casted\");\n\n        voters[msg.sender] = voterBalance;\n        if (yes) {\n            yesVotes = yesVotes.add(voterBalance);\n        } else {\n            noVotes = noVotes.add(voterBalance);\n        }\n    }\n\n    function claimTokens()\n        external\n        whitelistedAddressOnly\n        presaleIsNotCancelled\n        investorOnly\n        notYetClaimedOrRefunded\n    {\n        require(honeyLiquidityAdded, \"Liquidity not yet added\");\n\n        claimed[msg.sender] = true; // make sure this goes first before transfer to prevent reentrancy\n        token.transfer(msg.sender, getTokenAmount(investments[msg.sender]));\n\n        uint256 balance = address(this).balance;\n        if (balance > 0) {\n            uint256 funds =\n                presaleCreatorClaimWei > balance\n                    ? balance\n                    : presaleCreatorClaimWei;\n            presaleCreatorAddress.transfer(funds);\n        }\n    }\n\n    function getRefund()\n        external\n        whitelistedAddressOnly\n        investorOnly\n        notYetClaimedOrRefunded\n    {\n        if (!presaleCancelled) {\n            require(block.timestamp >= openTime, \"Not yet opened\");\n            require(block.timestamp >= closeTime, \"Not yet closed\");\n            require(softCapInWei > 0, \"No soft cap\");\n            require(totalCollectedWei < softCapInWei, \"Soft cap reached\");\n        }\n\n        claimed[msg.sender] = true; // make sure this goes first before transfer to prevent reentrancy\n        uint256 investment = investments[msg.sender];\n        uint256 presaleBalance = address(this).balance;\n        require(presaleBalance > 0);\n\n        if (investment > presaleBalance) {\n            investment = presaleBalance;\n        }\n\n        if (investment > 0) {\n            msg.sender.transfer(investment);\n        }\n    }\n\n    function cancelAndTransferTokensToPresaleCreator() external {\n        if (\n            !honeyLiquidityAdded &&\n            presaleCreatorAddress != msg.sender &&\n            xdpDevAddress != msg.sender\n        ) {\n            revert();\n        }\n        if (honeyLiquidityAdded && xdpDevAddress != msg.sender) {\n            revert();\n        }\n\n        require(!presaleCancelled);\n        presaleCancelled = true;\n\n        uint256 balance = token.balanceOf(address(this));\n        if (balance > 0) {\n            token.transfer(presaleCreatorAddress, balance);\n        }\n    }\n\n    function collectFundsRaised() external onlyPresaleCreator {\n        require(honeyLiquidityAdded);\n        require(!presaleCancelled);\n        require(block.timestamp >= presaleCreatorClaimTime);\n\n        if (address(this).balance > 0) {\n            presaleCreatorAddress.transfer(address(this).balance);\n        }\n    }\n\n    function burnUnsoldTokens() external onlyPresaleCreatorOrXdpDev {\n        require(honeyLiquidityAdded);\n        require(!presaleCancelled);\n        require(block.timestamp >= presaleCreatorClaimTime + 1 days); // wait 2 days before allowing burn\n\n        uint256 unsoldTokensAmount = token.balanceOf(address(this));\n        if (unsoldTokensAmount > 0) {\n            token.transfer(unsoldTokensDumpAddress, unsoldTokensAmount);\n        }\n    }\n}",
  "sourcePath": "/Users/macuser/Documents/Projects/Programming/xDaiStarterParent/xDaiStarter/contracts/XDaiStarterPresale.sol",
  "compiler": {
    "name": "solc",
    "version": "0.6.12+commit.27d51765.Emscripten.clang"
  },
  "schemaVersion": "3.3.4",
  "updatedAt": "2021-04-20T06:25:46.506Z",
  "devdoc": {
    "kind": "dev",
    "methods": {},
    "version": 1
  },
  "userdoc": {
    "kind": "user",
    "methods": {},
    "version": 1
  }
}