{
  "contractName": "XDaiStarterStaking",
  "abi": [
    {
      "inputs": [
        {
          "internalType": "address",
          "name": "_xdpToken",
          "type": "address"
        },
        {
          "internalType": "address",
          "name": "_xDaiStarterInfo",
          "type": "address"
        }
      ],
      "stateMutability": "nonpayable",
      "type": "constructor"
    },
    {
      "anonymous": false,
      "inputs": [
        {
          "indexed": true,
          "internalType": "address",
          "name": "from",
          "type": "address"
        },
        {
          "indexed": false,
          "internalType": "uint256",
          "name": "amount",
          "type": "uint256"
        }
      ],
      "name": "Staked",
      "type": "event"
    },
    {
      "anonymous": false,
      "inputs": [
        {
          "indexed": true,
          "internalType": "address",
          "name": "from",
          "type": "address"
        },
        {
          "indexed": false,
          "internalType": "uint256",
          "name": "amount",
          "type": "uint256"
        }
      ],
      "name": "Unstaked",
      "type": "event"
    },
    {
      "inputs": [
        {
          "internalType": "address",
          "name": "",
          "type": "address"
        }
      ],
      "name": "accountInfos",
      "outputs": [
        {
          "internalType": "uint256",
          "name": "balance",
          "type": "uint256"
        },
        {
          "internalType": "uint256",
          "name": "lastStakedTimestamp",
          "type": "uint256"
        },
        {
          "internalType": "uint256",
          "name": "lastUnstakedTimestamp",
          "type": "uint256"
        }
      ],
      "stateMutability": "view",
      "type": "function"
    },
    {
      "inputs": [],
      "name": "xDaiStarterInfo",
      "outputs": [
        {
          "internalType": "contract XDaiStarterInfo",
          "name": "",
          "type": "address"
        }
      ],
      "stateMutability": "view",
      "type": "function"
    },
    {
      "inputs": [],
      "name": "xdpToken",
      "outputs": [
        {
          "internalType": "contract XDPToken",
          "name": "",
          "type": "address"
        }
      ],
      "stateMutability": "view",
      "type": "function"
    },
    {
      "inputs": [
        {
          "internalType": "uint256",
          "name": "_amount",
          "type": "uint256"
        }
      ],
      "name": "stake",
      "outputs": [],
      "stateMutability": "nonpayable",
      "type": "function"
    },
    {
      "inputs": [
        {
          "internalType": "uint256",
          "name": "_amount",
          "type": "uint256"
        },
        {
          "internalType": "uint256",
          "name": "_burnFeePercent",
          "type": "uint256"
        }
      ],
      "name": "unstake",
      "outputs": [],
      "stateMutability": "nonpayable",
      "type": "function"
    }
  ],
  "bytecode": "0x608060405234801561001057600080fd5b506040516109d33803806109d383398101604081905261002f91610065565b6001600081905580546001600160a01b039384166001600160a01b031991821617909155600280549290931691161790556100b6565b60008060408385031215610077578182fd5b82516100828161009e565b60208401519092506100938161009e565b809150509250929050565b6001600160a01b03811681146100b357600080fd5b50565b61090e806100c56000396000f3fe608060405234801561001057600080fd5b50600436106100575760003560e01c80633ad49c7b1461005c57806378d7be731461007a57806387cad0bf146100825780639e2c8a5b146100a4578063a694fc3a146100b9575b600080fd5b6100646100cc565b60405161007191906106d7565b60405180910390f35b6100646100db565b61009561009036600461063f565b6100ea565b604051610071939291906108c2565b6100b76100b23660046106b6565b61010b565b005b6100b76100c7366004610686565b6103c3565b6002546001600160a01b031681565b6001546001600160a01b031681565b60036020526000908152604090208054600182015460029092015490919083565b600260005414156101375760405162461bcd60e51b815260040161012e90610856565b60405180910390fd5b6002600081815533815260036020908152604080832093548151634810b40560e01b815291516001600160a01b0390911692634810b4059260048082019391829003018186803b15801561018a57600080fd5b505afa15801561019e573d6000803e3d6000fd5b505050506040513d601f19601f820116820180604052508101906101c2919061069e565b9050428183600201540111156101ea5760405162461bcd60e51b815260040161012e90610787565b81546102085760405162461bcd60e51b815260040161012e9061088d565b600084116102285760405162461bcd60e51b815260040161012e90610728565b815484111561023657815493505b815461024290856105ac565b8255426002830155600061025685856105d9565b905080156102f15761026885826105ac565b60015460405163a9059cbb60e01b81529196506001600160a01b03169063a9059cbb9061029d9061dead90859060040161070f565b602060405180830381600087803b1580156102b757600080fd5b505af11580156102cb573d6000803e3d6000fd5b505050506040513d601f19601f820116820180604052508101906102ef9190610666565b505b60015460405163a9059cbb60e01b81526001600160a01b039091169063a9059cbb90610323903390899060040161070f565b602060405180830381600087803b15801561033d57600080fd5b505af1158015610351573d6000803e3d6000fd5b505050506040513d601f19601f820116820180604052508101906103759190610666565b50336001600160a01b03167f0f5bb82176feb1b5e747e28471aa92156a04d9f3ab9f45f28e2d704232b93f75866040516103af91906108b9565b60405180910390a250506001600055505050565b600260005414156103e65760405162461bcd60e51b815260040161012e90610856565b6002600055806104085760405162461bcd60e51b815260040161012e90610728565b6001546040516370a0823160e01b815282916001600160a01b0316906370a08231906104389033906004016106d7565b60206040518083038186803b15801561045057600080fd5b505afa158015610464573d6000803e3d6000fd5b505050506040513d601f19601f82011682018060405250810190610488919061069e565b10156104a65760405162461bcd60e51b815260040161012e9061082d565b336000818152600360205260409081902060015491516323b872dd60e01b815290926001600160a01b03909216916323b872dd916104eb9190309087906004016106eb565b602060405180830381600087803b15801561050557600080fd5b505af1158015610519573d6000803e3d6000fd5b505050506040513d601f19601f8201168201806040525081019061053d9190610666565b50805461054a908361061a565b81554260018201556002810154610562574260028201555b336001600160a01b03167f9e71bc8eea02a63969f509818f2dafb9254532904319f9dbda79b67bd34a5f3d8360405161059b91906108b9565b60405180910390a250506001600055565b6000828211156105ce5760405162461bcd60e51b815260040161012e906107b5565b508082035b92915050565b6000826105e8575060006105d3565b828202828482816105f557fe5b04146106135760405162461bcd60e51b815260040161012e906107ec565b9392505050565b6000828201838110156106135760405162461bcd60e51b815260040161012e90610750565b600060208284031215610650578081fd5b81356001600160a01b0381168114610613578182fd5b600060208284031215610677578081fd5b81518015158114610613578182fd5b600060208284031215610697578081fd5b5035919050565b6000602082840312156106af578081fd5b5051919050565b600080604083850312156106c8578081fd5b50508035926020909101359150565b6001600160a01b0391909116815260200190565b6001600160a01b039384168152919092166020820152604081019190915260600190565b6001600160a01b03929092168252602082015260400190565b6020808252600e908201526d125b9d985b1a5908185b5bdd5b9d60921b604082015260600190565b6020808252601b908201527f536166654d6174683a206164646974696f6e206f766572666c6f770000000000604082015260600190565b602080825260149082015273496e76616c696420756e7374616b652074696d6560601b604082015260600190565b6020808252601e908201527f536166654d6174683a207375627472616374696f6e206f766572666c6f770000604082015260600190565b60208082526021908201527f536166654d6174683a206d756c7469706c69636174696f6e206f766572666c6f6040820152607760f81b606082015260800190565b6020808252600f908201526e496e76616c69642062616c616e636560881b604082015260600190565b6020808252601f908201527f5265656e7472616e637947756172643a207265656e7472616e742063616c6c00604082015260600190565b6020808252601290820152714e6f7468696e6720746f20756e7374616b6560701b604082015260600190565b90815260200190565b928352602083019190915260408201526060019056fea264697066735822122090eab5e07f3cb49bc2e16d6fcf04a4a57f6b780a014ca5d04cf81b703a08bf7a64736f6c634300060c0033",
  "immutableReferences": {},
  "source": "// SPDX-License-Identifier: MIT\npragma solidity 0.6.12;\npragma experimental ABIEncoderV2;\n\nimport \"@openzeppelin/contracts/token/ERC20/SafeERC20.sol\";\nimport \"@openzeppelin/contracts/math/SafeMath.sol\";\nimport \"@openzeppelin/contracts/utils/ReentrancyGuard.sol\";\nimport \"@openzeppelin/contracts/utils/Address.sol\";\n\nimport \"./XDPToken.sol\";\nimport \"./XDaiStarterInfo.sol\";\n\ncontract XDaiStarterStaking is ReentrancyGuard {\n    using SafeMath for uint256;\n    using Address for address;\n    using SafeERC20 for IERC20;\n\n    XDPToken public xdpToken;\n    XDaiStarterInfo public xDaiStarterInfo;\n\n    event Staked(address indexed from, uint256 amount);\n    event Unstaked(address indexed from, uint256 amount);\n\n    struct AccountInfo {\n        uint256 balance;\n        uint256 lastStakedTimestamp;\n        uint256 lastUnstakedTimestamp;\n    }\n    mapping(address => AccountInfo) public accountInfos;\n\n    constructor(address _xdpToken, address _xDaiStarterInfo) public {\n        xdpToken = XDPToken(_xdpToken);\n        xDaiStarterInfo = XDaiStarterInfo(_xDaiStarterInfo);\n    }\n\n    function stake(uint256 _amount) public nonReentrant {\n        require(_amount > 0, \"Invalid amount\");\n        require(xdpToken.balanceOf(msg.sender) >= _amount, \"Invalid balance\");\n\n        AccountInfo storage account = accountInfos[msg.sender];\n        xdpToken.transferFrom(msg.sender, address(this), _amount);\n        account.balance = account.balance.add(_amount);\n        account.lastStakedTimestamp = block.timestamp;\n        if (account.lastUnstakedTimestamp == 0) {\n            account.lastUnstakedTimestamp = block.timestamp;\n        }\n        emit Staked(msg.sender, _amount);\n    }\n\n    function unstake(uint256 _amount, uint256 _burnFeePercent)\n        external\n        nonReentrant\n    {\n        AccountInfo storage account = accountInfos[msg.sender];\n        uint256 minUnstakeTime = xDaiStarterInfo.getMinUnstakeTime();\n        require(\n            account.lastUnstakedTimestamp + minUnstakeTime <= block.timestamp,\n            \"Invalid unstake time\"\n        );\n        require(account.balance > 0, \"Nothing to unstake\");\n        require(_amount > 0, \"Invalid amount\");\n        if (account.balance < _amount) {\n            _amount = account.balance;\n        }\n        account.balance = account.balance.sub(_amount);\n        account.lastUnstakedTimestamp = block.timestamp;\n\n        uint256 burnAmount = _amount.mul(_burnFeePercent);\n        if (burnAmount > 0) {\n            _amount = _amount.sub(burnAmount);\n            xdpToken.transfer(\n                address(0x000000000000000000000000000000000000dEaD),\n                burnAmount\n            );\n        }\n\n        xdpToken.transfer(msg.sender, _amount);\n        emit Unstaked(msg.sender, _amount);\n    }\n}\n",
  "sourcePath": "/Users/macuser/Documents/Projects/Programming/xDaiStarterParent/xDaiStarter/contracts/XDaiStarterStaking.sol",
  "compiler": {
    "name": "solc",
    "version": "0.6.12+commit.27d51765.Emscripten.clang"
  },
  "schemaVersion": "3.3.4",
  "updatedAt": "2021-04-28T04:56:19.070Z",
  "devdoc": {
    "kind": "dev",
    "methods": {},
    "version": 1
  },
  "userdoc": {
    "kind": "user",
    "methods": {},
    "version": 1
  }
}