{
  "contractName": "XDaiStarterInfo",
  "abi": [
    {
      "inputs": [
        {
          "internalType": "address payable[]",
          "name": "_xdsTokenPresales",
          "type": "address[]"
        }
      ],
      "stateMutability": "nonpayable",
      "type": "constructor"
    },
    {
      "anonymous": false,
      "inputs": [
        {
          "indexed": true,
          "internalType": "address",
          "name": "previousOwner",
          "type": "address"
        },
        {
          "indexed": true,
          "internalType": "address",
          "name": "newOwner",
          "type": "address"
        }
      ],
      "name": "OwnershipTransferred",
      "type": "event"
    },
    {
      "inputs": [],
      "name": "owner",
      "outputs": [
        {
          "internalType": "address",
          "name": "",
          "type": "address"
        }
      ],
      "stateMutability": "view",
      "type": "function"
    },
    {
      "inputs": [],
      "name": "renounceOwnership",
      "outputs": [],
      "stateMutability": "nonpayable",
      "type": "function"
    },
    {
      "inputs": [
        {
          "internalType": "address",
          "name": "newOwner",
          "type": "address"
        }
      ],
      "name": "transferOwnership",
      "outputs": [],
      "stateMutability": "nonpayable",
      "type": "function"
    },
    {
      "inputs": [],
      "name": "getXdsFactoryAddress",
      "outputs": [
        {
          "internalType": "address",
          "name": "",
          "type": "address"
        }
      ],
      "stateMutability": "view",
      "type": "function"
    },
    {
      "inputs": [
        {
          "internalType": "address",
          "name": "_newFactoryAddress",
          "type": "address"
        }
      ],
      "name": "setXdsFactoryAddress",
      "outputs": [],
      "stateMutability": "nonpayable",
      "type": "function"
    },
    {
      "inputs": [
        {
          "internalType": "address",
          "name": "_presale",
          "type": "address"
        }
      ],
      "name": "addPresaleAddress",
      "outputs": [
        {
          "internalType": "uint256",
          "name": "",
          "type": "uint256"
        }
      ],
      "stateMutability": "nonpayable",
      "type": "function"
    },
    {
      "inputs": [],
      "name": "getPresalesCount",
      "outputs": [
        {
          "internalType": "uint256",
          "name": "",
          "type": "uint256"
        }
      ],
      "stateMutability": "view",
      "type": "function"
    },
    {
      "inputs": [
        {
          "internalType": "uint256",
          "name": "xdsId",
          "type": "uint256"
        }
      ],
      "name": "getPresaleAddress",
      "outputs": [
        {
          "internalType": "address",
          "name": "",
          "type": "address"
        }
      ],
      "stateMutability": "view",
      "type": "function"
    },
    {
      "inputs": [
        {
          "internalType": "address",
          "name": "_presaleGrant",
          "type": "address"
        }
      ],
      "name": "addPresaleGrantAddress",
      "outputs": [
        {
          "internalType": "uint256",
          "name": "",
          "type": "uint256"
        }
      ],
      "stateMutability": "nonpayable",
      "type": "function"
    },
    {
      "inputs": [],
      "name": "getPresaleGrantsCount",
      "outputs": [
        {
          "internalType": "uint256",
          "name": "",
          "type": "uint256"
        }
      ],
      "stateMutability": "view",
      "type": "function"
    },
    {
      "inputs": [
        {
          "internalType": "uint256",
          "name": "_id",
          "type": "uint256"
        }
      ],
      "name": "getPresaleGrantAddress",
      "outputs": [
        {
          "internalType": "address",
          "name": "",
          "type": "address"
        }
      ],
      "stateMutability": "view",
      "type": "function"
    },
    {
      "inputs": [],
      "name": "getDevFeePercentage",
      "outputs": [
        {
          "internalType": "uint256",
          "name": "",
          "type": "uint256"
        }
      ],
      "stateMutability": "view",
      "type": "function"
    },
    {
      "inputs": [
        {
          "internalType": "uint256",
          "name": "_devFeePercentage",
          "type": "uint256"
        }
      ],
      "name": "setDevFeePercentage",
      "outputs": [],
      "stateMutability": "nonpayable",
      "type": "function"
    },
    {
      "inputs": [],
      "name": "getMinDevFeeInWei",
      "outputs": [
        {
          "internalType": "uint256",
          "name": "",
          "type": "uint256"
        }
      ],
      "stateMutability": "view",
      "type": "function"
    },
    {
      "inputs": [
        {
          "internalType": "uint256",
          "name": "_minDevFeeInWei",
          "type": "uint256"
        }
      ],
      "name": "setMinDevFeeInWei",
      "outputs": [],
      "stateMutability": "nonpayable",
      "type": "function"
    },
    {
      "inputs": [],
      "name": "getPresaleGrantAmount",
      "outputs": [
        {
          "internalType": "uint256",
          "name": "",
          "type": "uint256"
        }
      ],
      "stateMutability": "view",
      "type": "function"
    },
    {
      "inputs": [
        {
          "internalType": "uint256",
          "name": "_presaleGrantAmount",
          "type": "uint256"
        }
      ],
      "name": "setPresaleGrantAmount",
      "outputs": [],
      "stateMutability": "nonpayable",
      "type": "function"
    },
    {
      "inputs": [],
      "name": "getIncubatorMsigAddress",
      "outputs": [
        {
          "internalType": "address",
          "name": "",
          "type": "address"
        }
      ],
      "stateMutability": "view",
      "type": "function"
    },
    {
      "inputs": [
        {
          "internalType": "address",
          "name": "_incubatorMsigAddress",
          "type": "address"
        }
      ],
      "name": "setIncubatorMsigAddress",
      "outputs": [],
      "stateMutability": "nonpayable",
      "type": "function"
    },
    {
      "inputs": [],
      "name": "getMinRewardQualifyPercentage",
      "outputs": [
        {
          "internalType": "uint256",
          "name": "",
          "type": "uint256"
        }
      ],
      "stateMutability": "view",
      "type": "function"
    },
    {
      "inputs": [
        {
          "internalType": "uint256",
          "name": "_minRewardQualifyPercentage",
          "type": "uint256"
        }
      ],
      "name": "setMinRewardQualifyPercentage",
      "outputs": [],
      "stateMutability": "nonpayable",
      "type": "function"
    },
    {
      "inputs": [],
      "name": "getMinRewardQualifyBal",
      "outputs": [
        {
          "internalType": "uint256",
          "name": "",
          "type": "uint256"
        }
      ],
      "stateMutability": "view",
      "type": "function"
    },
    {
      "inputs": [
        {
          "internalType": "uint256",
          "name": "_minRewardQualifyBal",
          "type": "uint256"
        }
      ],
      "name": "setMinRewardQualifyBal",
      "outputs": [],
      "stateMutability": "nonpayable",
      "type": "function"
    },
    {
      "inputs": [],
      "name": "getMaxRewardQualifyBal",
      "outputs": [
        {
          "internalType": "uint256",
          "name": "",
          "type": "uint256"
        }
      ],
      "stateMutability": "view",
      "type": "function"
    },
    {
      "inputs": [
        {
          "internalType": "uint256",
          "name": "_maxRewardQualifyBal",
          "type": "uint256"
        }
      ],
      "name": "setMaxRewardQualifyBal",
      "outputs": [],
      "stateMutability": "nonpayable",
      "type": "function"
    },
    {
      "inputs": [],
      "name": "getMinInvestorXDPBalance",
      "outputs": [
        {
          "internalType": "uint256",
          "name": "",
          "type": "uint256"
        }
      ],
      "stateMutability": "view",
      "type": "function"
    },
    {
      "inputs": [
        {
          "internalType": "uint256",
          "name": "_minInvestorXDPBalance",
          "type": "uint256"
        }
      ],
      "name": "setMinInvestorXDPBalance",
      "outputs": [],
      "stateMutability": "nonpayable",
      "type": "function"
    },
    {
      "inputs": [],
      "name": "getMinStakeTime",
      "outputs": [
        {
          "internalType": "uint256",
          "name": "",
          "type": "uint256"
        }
      ],
      "stateMutability": "view",
      "type": "function"
    },
    {
      "inputs": [
        {
          "internalType": "uint256",
          "name": "_minStakeTime",
          "type": "uint256"
        }
      ],
      "name": "setMinStakeTime",
      "outputs": [],
      "stateMutability": "nonpayable",
      "type": "function"
    },
    {
      "inputs": [],
      "name": "getMinUnstakeTime",
      "outputs": [
        {
          "internalType": "uint256",
          "name": "",
          "type": "uint256"
        }
      ],
      "stateMutability": "view",
      "type": "function"
    },
    {
      "inputs": [
        {
          "internalType": "uint256",
          "name": "_minUnstakeTime",
          "type": "uint256"
        }
      ],
      "name": "setMinUnstakeTime",
      "outputs": [],
      "stateMutability": "nonpayable",
      "type": "function"
    },
    {
      "inputs": [],
      "name": "getMinClaimTime",
      "outputs": [
        {
          "internalType": "uint256",
          "name": "",
          "type": "uint256"
        }
      ],
      "stateMutability": "view",
      "type": "function"
    },
    {
      "inputs": [
        {
          "internalType": "uint256",
          "name": "_minClaimTime",
          "type": "uint256"
        }
      ],
      "name": "setMinClaimTime",
      "outputs": [],
      "stateMutability": "nonpayable",
      "type": "function"
    },
    {
      "inputs": [],
      "name": "getXdsTokenPresales",
      "outputs": [
        {
          "internalType": "address payable[]",
          "name": "",
          "type": "address[]"
        }
      ],
      "stateMutability": "view",
      "type": "function"
    },
    {
      "inputs": [
        {
          "internalType": "address payable[]",
          "name": "_xdsTokenPresales",
          "type": "address[]"
        }
      ],
      "name": "setXdsTokenPresales",
      "outputs": [],
      "stateMutability": "nonpayable",
      "type": "function"
    },
    {
      "inputs": [
        {
          "internalType": "address payable",
          "name": "sender",
          "type": "address"
        }
      ],
      "name": "getLockedBalance",
      "outputs": [
        {
          "internalType": "uint256",
          "name": "totalLockedBalance",
          "type": "uint256"
        }
      ],
      "stateMutability": "view",
      "type": "function"
    },
    {
      "inputs": [],
      "name": "getHoneySwapRouter",
      "outputs": [
        {
          "internalType": "address",
          "name": "",
          "type": "address"
        }
      ],
      "stateMutability": "view",
      "type": "function"
    },
    {
      "inputs": [
        {
          "internalType": "address",
          "name": "_honeySwapRouter",
          "type": "address"
        }
      ],
      "name": "setHoneySwapRouter",
      "outputs": [],
      "stateMutability": "nonpayable",
      "type": "function"
    },
    {
      "inputs": [],
      "name": "getHoneySwapFactory",
      "outputs": [
        {
          "internalType": "address",
          "name": "",
          "type": "address"
        }
      ],
      "stateMutability": "view",
      "type": "function"
    },
    {
      "inputs": [
        {
          "internalType": "address",
          "name": "_honeySwapFactory",
          "type": "address"
        }
      ],
      "name": "setHoneySwapFactory",
      "outputs": [],
      "stateMutability": "nonpayable",
      "type": "function"
    },
    {
      "inputs": [],
      "name": "getWxDai",
      "outputs": [
        {
          "internalType": "address",
          "name": "",
          "type": "address"
        }
      ],
      "stateMutability": "view",
      "type": "function"
    },
    {
      "inputs": [
        {
          "internalType": "address",
          "name": "_wxdai",
          "type": "address"
        }
      ],
      "name": "setWxDai",
      "outputs": [],
      "stateMutability": "nonpayable",
      "type": "function"
    }
  ],
  "bytecode": "0x60806040526002600155674563918244f4000060025569043c33c19375648000006003556843c33c193756480000600455600a60055568056bc75e2d6310000060065568056bc75e2d63100000600a5562015180600b5562015180600c5562093a80600d55731c232f01118cb8b424793ae03f870aa7d0ac7f77600f60006101000a81548173ffffffffffffffffffffffffffffffffffffffff021916908373ffffffffffffffffffffffffffffffffffffffff16021790555073a818b4f111ccac7aa31d0bcc0806d64f2e0737d7601060006101000a81548173ffffffffffffffffffffffffffffffffffffffff021916908373ffffffffffffffffffffffffffffffffffffffff16021790555073e91d153e0b41518a2ce8dd3d7944fa863463a97d601160006101000a81548173ffffffffffffffffffffffffffffffffffffffff021916908373ffffffffffffffffffffffffffffffffffffffff1602179055503480156200017057600080fd5b50604051620028ac380380620028ac8339818101604052810190620001969190620003de565b6000620001a86200026660201b60201c565b9050806000806101000a81548173ffffffffffffffffffffffffffffffffffffffff021916908373ffffffffffffffffffffffffffffffffffffffff1602179055508073ffffffffffffffffffffffffffffffffffffffff16600073ffffffffffffffffffffffffffffffffffffffff167f8be0079c531659141344cd1fd0a4f28419497f9722a3daafe3b4186f6b6457e060405160405180910390a35080600e90805190602001906200025e9291906200026e565b5050620004c8565b600033905090565b828054828255906000526020600020908101928215620002ea579160200282015b82811115620002e95782518260006101000a81548173ffffffffffffffffffffffffffffffffffffffff021916908373ffffffffffffffffffffffffffffffffffffffff160217905550916020019190600101906200028f565b5b509050620002f99190620002fd565b5090565b5b808211156200033657600081816101000a81549073ffffffffffffffffffffffffffffffffffffffff021916905550600101620002fe565b5090565b6000815190506200034b81620004ae565b92915050565b600082601f8301126200036357600080fd5b81516200037a620003748262000451565b62000423565b91508181835260208401935060208101905083856020840282011115620003a057600080fd5b60005b83811015620003d45781620003b988826200033a565b845260208401935060208301925050600181019050620003a3565b5050505092915050565b600060208284031215620003f157600080fd5b600082015167ffffffffffffffff8111156200040c57600080fd5b6200041a8482850162000351565b91505092915050565b6000604051905081810181811067ffffffffffffffff821117156200044757600080fd5b8060405250919050565b600067ffffffffffffffff8211156200046957600080fd5b602082029050602081019050919050565b600062000487826200048e565b9050919050565b600073ffffffffffffffffffffffffffffffffffffffff82169050919050565b620004b9816200047a565b8114620004c557600080fd5b50565b6123d480620004d86000396000f3fe608060405234801561001057600080fd5b506004361061025e5760003560e01c80638d3af9a211610146578063c4086893116100c3578063df4eafd411610087578063df4eafd4146106b7578063f2fde38b146106d3578063f5c6611d146106ef578063f6674eea1461070b578063fb993d2114610727578063fb9b95b4146107575761025e565b8063c408689314610613578063cd611db114610643578063d08e625c14610661578063d0d0d7301461067f578063d2ce69641461069b5761025e565b8063aabea7831161010a578063aabea7831461057f578063b1cb45d51461059d578063bc38fa1b146105bb578063be0247ad146105d7578063be19292f146105f55761025e565b80638d3af9a2146104c75780638da5cb5b146104e5578063986960a31461050357806399fd92bc1461051f578063a0ae93d41461054f5761025e565b8063500594da116101df5780635d5ce3cf116101a35780635d5ce3cf146104275780635f75856f146104455780636518cd4514610463578063715018a614610481578063716eede41461048b57806375571b42146104a95761025e565b8063500594da1461039757806356c97e99146103b357806357ca7679146103d15780635a2b0c74146103ed5780635b16fe4e1461040b5761025e565b80632ace73f0116102265780632ace73f0146102f357806333835b961461030f5780633b1908111461032d5780633cd221a2146103495780634810b405146103795761025e565b806305a911671461026357806309a6c336146102815780630dedb2f01461029d5780630e34c01b146102b95780631b2e10a2146102d7575b600080fd5b61026b610773565b604051610278919061221b565b60405180910390f35b61029b60048036038101906102969190611e33565b61077d565b005b6102b760048036038101906102b29190611e33565b610803565b005b6102c1610889565b6040516102ce919061221b565b60405180910390f35b6102f160048036038101906102ec9190611e33565b610893565b005b61030d60048036038101906103089190611da0565b610966565b005b610317610a26565b604051610324919061221b565b60405180910390f35b61034760048036038101906103429190611e33565b610a30565b005b610363600480360381019061035e9190611da0565b610ab6565b604051610370919061221b565b60405180910390f35b610381610b85565b60405161038e919061221b565b60405180910390f35b6103b160048036038101906103ac9190611e33565b610b8f565b005b6103bb610c15565b6040516103c8919061221b565b60405180910390f35b6103eb60048036038101906103e69190611da0565b610c1f565b005b6103f5610cdf565b6040516104029190612103565b60405180910390f35b61042560048036038101906104209190611e33565b610d09565b005b61042f610d8f565b60405161043c919061221b565b60405180910390f35b61044d610d99565b60405161045a9190612103565b60405180910390f35b61046b610dc3565b604051610478919061221b565b60405180910390f35b610489610dd0565b005b610493610f0a565b6040516104a0919061221b565b60405180910390f35b6104b1610f14565b6040516104be9190612103565b60405180910390f35b6104cf610f3e565b6040516104dc919061221b565b60405180910390f35b6104ed610f48565b6040516104fa9190612103565b60405180910390f35b61051d60048036038101906105189190611e33565b610f71565b005b61053960048036038101906105349190611e33565b610ff7565b6040516105469190612103565b60405180910390f35b61056960048036038101906105649190611da0565b611038565b604051610576919061221b565b60405180910390f35b610587611107565b604051610594919061221b565b60405180910390f35b6105a5611111565b6040516105b29190612103565b60405180910390f35b6105d560048036038101906105d09190611e33565b61113b565b005b6105df6111c1565b6040516105ec919061221b565b60405180910390f35b6105fd6111cb565b60405161060a9190612103565b60405180910390f35b61062d60048036038101906106289190611dc9565b6111f5565b60405161063a919061221b565b60405180910390f35b61064b61147a565b604051610658919061221b565b60405180910390f35b610669611487565b6040516106769190612139565b60405180910390f35b61069960048036038101906106949190611da0565b611515565b005b6106b560048036038101906106b09190611e33565b6115d5565b005b6106d160048036038101906106cc9190611e33565b61165b565b005b6106ed60048036038101906106e89190611da0565b6116e1565b005b61070960048036038101906107049190611da0565b61188a565b005b61072560048036038101906107209190611da0565b61194a565b005b610741600480360381019061073c9190611e33565b611a0a565b60405161074e9190612103565b60405180910390f35b610771600480360381019061076c9190611df2565b611a4b565b005b6000600154905090565b610785611ae1565b73ffffffffffffffffffffffffffffffffffffffff166107a3610f48565b73ffffffffffffffffffffffffffffffffffffffff16146107f9576040517f08c379a00000000000000000000000000000000000000000000000000000000081526004016107f0906121fb565b60405180910390fd5b8060038190555050565b61080b611ae1565b73ffffffffffffffffffffffffffffffffffffffff16610829610f48565b73ffffffffffffffffffffffffffffffffffffffff161461087f576040517f08c379a0000000000000000000000000000000000000000000000000000000008152600401610876906121fb565b60405180910390fd5b8060048190555050565b6000600254905090565b61089b611ae1565b73ffffffffffffffffffffffffffffffffffffffff166108b9610f48565b73ffffffffffffffffffffffffffffffffffffffff161461090f576040517f08c379a0000000000000000000000000000000000000000000000000000000008152600401610906906121fb565b60405180910390fd5b69010f0cf064dd5920000081111561095c576040517f08c379a0000000000000000000000000000000000000000000000000000000008152600401610953906121bb565b60405180910390fd5b8060068190555050565b61096e611ae1565b73ffffffffffffffffffffffffffffffffffffffff1661098c610f48565b73ffffffffffffffffffffffffffffffffffffffff16146109e2576040517f08c379a00000000000000000000000000000000000000000000000000000000081526004016109d9906121fb565b60405180910390fd5b80601160006101000a81548173ffffffffffffffffffffffffffffffffffffffff021916908373ffffffffffffffffffffffffffffffffffffffff16021790555050565b6000600654905090565b610a38611ae1565b73ffffffffffffffffffffffffffffffffffffffff16610a56610f48565b73ffffffffffffffffffffffffffffffffffffffff1614610aac576040517f08c379a0000000000000000000000000000000000000000000000000000000008152600401610aa3906121fb565b60405180910390fd5b80600d8190555050565b60003373ffffffffffffffffffffffffffffffffffffffff16601260009054906101000a900473ffffffffffffffffffffffffffffffffffffffff1673ffffffffffffffffffffffffffffffffffffffff1614610b1257600080fd5b6008829080600181540180825580915050600190039060005260206000200160009091909190916101000a81548173ffffffffffffffffffffffffffffffffffffffff021916908373ffffffffffffffffffffffffffffffffffffffff1602179055506001600880549050039050919050565b6000600c54905090565b610b97611ae1565b73ffffffffffffffffffffffffffffffffffffffff16610bb5610f48565b73ffffffffffffffffffffffffffffffffffffffff1614610c0b576040517f08c379a0000000000000000000000000000000000000000000000000000000008152600401610c02906121fb565b60405180910390fd5b8060028190555050565b6000600a54905090565b610c27611ae1565b73ffffffffffffffffffffffffffffffffffffffff16610c45610f48565b73ffffffffffffffffffffffffffffffffffffffff1614610c9b576040517f08c379a0000000000000000000000000000000000000000000000000000000008152600401610c92906121fb565b60405180910390fd5b80600760006101000a81548173ffffffffffffffffffffffffffffffffffffffff021916908373ffffffffffffffffffffffffffffffffffffffff16021790555050565b6000600f60009054906101000a900473ffffffffffffffffffffffffffffffffffffffff16905090565b610d11611ae1565b73ffffffffffffffffffffffffffffffffffffffff16610d2f610f48565b73ffffffffffffffffffffffffffffffffffffffff1614610d85576040517f08c379a0000000000000000000000000000000000000000000000000000000008152600401610d7c906121fb565b60405180910390fd5b8060018190555050565b6000600354905090565b6000600760009054906101000a900473ffffffffffffffffffffffffffffffffffffffff16905090565b6000600980549050905090565b610dd8611ae1565b73ffffffffffffffffffffffffffffffffffffffff16610df6610f48565b73ffffffffffffffffffffffffffffffffffffffff1614610e4c576040517f08c379a0000000000000000000000000000000000000000000000000000000008152600401610e43906121fb565b60405180910390fd5b600073ffffffffffffffffffffffffffffffffffffffff1660008054906101000a900473ffffffffffffffffffffffffffffffffffffffff1673ffffffffffffffffffffffffffffffffffffffff167f8be0079c531659141344cd1fd0a4f28419497f9722a3daafe3b4186f6b6457e060405160405180910390a360008060006101000a81548173ffffffffffffffffffffffffffffffffffffffff021916908373ffffffffffffffffffffffffffffffffffffffff160217905550565b6000600d54905090565b6000601260009054906101000a900473ffffffffffffffffffffffffffffffffffffffff16905090565b6000600b54905090565b60008060009054906101000a900473ffffffffffffffffffffffffffffffffffffffff16905090565b610f79611ae1565b73ffffffffffffffffffffffffffffffffffffffff16610f97610f48565b73ffffffffffffffffffffffffffffffffffffffff1614610fed576040517f08c379a0000000000000000000000000000000000000000000000000000000008152600401610fe4906121fb565b60405180910390fd5b80600a8190555050565b60006008828154811061100657fe5b9060005260206000200160009054906101000a900473ffffffffffffffffffffffffffffffffffffffff169050919050565b60003373ffffffffffffffffffffffffffffffffffffffff16601260009054906101000a900473ffffffffffffffffffffffffffffffffffffffff1673ffffffffffffffffffffffffffffffffffffffff161461109457600080fd5b6009829080600181540180825580915050600190039060005260206000200160009091909190916101000a81548173ffffffffffffffffffffffffffffffffffffffff021916908373ffffffffffffffffffffffffffffffffffffffff1602179055506001600980549050039050919050565b6000600454905090565b6000601160009054906101000a900473ffffffffffffffffffffffffffffffffffffffff16905090565b611143611ae1565b73ffffffffffffffffffffffffffffffffffffffff16611161610f48565b73ffffffffffffffffffffffffffffffffffffffff16146111b7576040517f08c379a00000000000000000000000000000000000000000000000000000000081526004016111ae906121fb565b60405180910390fd5b8060058190555050565b6000600554905090565b6000601060009054906101000a900473ffffffffffffffffffffffffffffffffffffffff16905090565b6000805b600e80549050811015611474576000600e828154811061121557fe5b9060005260206000200160009054906101000a900473ffffffffffffffffffffffffffffffffffffffff16905060008173ffffffffffffffffffffffffffffffffffffffff166396b98862866040518263ffffffff1660e01b815260040161127d919061211e565b60206040518083038186803b15801561129557600080fd5b505afa1580156112a9573d6000803e3d6000fd5b505050506040513d601f19601f820116820180604052508101906112cd9190611e5c565b905060008273ffffffffffffffffffffffffffffffffffffffff1663c884ef83876040518263ffffffff1660e01b815260040161130a919061211e565b60206040518083038186803b15801561132257600080fd5b505afa158015611336573d6000803e3d6000fd5b505050506040513d601f19601f8201168201806040525081019061135a9190611e5c565b905060008211801561136c5750600481105b156114645760008373ffffffffffffffffffffffffffffffffffffffff16632f8de8106040518163ffffffff1660e01b815260040160206040518083038186803b1580156113b957600080fd5b505afa1580156113cd573d6000803e3d6000fd5b505050506040513d601f19601f820116820180604052508101906113f19190611e5c565b9050600061144a8261143c670de0b6b3a764000061142e8760040361142060048b611ae990919063ffffffff16565b611b3f90919063ffffffff16565b611b3f90919063ffffffff16565b611ae990919063ffffffff16565b905061145f8188611baf90919063ffffffff16565b965050505b50505080806001019150506111f9565b50919050565b6000600880549050905090565b6060600e80548060200260200160405190810160405280929190818152602001828054801561150b57602002820191906000526020600020905b8160009054906101000a900473ffffffffffffffffffffffffffffffffffffffff1673ffffffffffffffffffffffffffffffffffffffff16815260200190600101908083116114c1575b5050505050905090565b61151d611ae1565b73ffffffffffffffffffffffffffffffffffffffff1661153b610f48565b73ffffffffffffffffffffffffffffffffffffffff1614611591576040517f08c379a0000000000000000000000000000000000000000000000000000000008152600401611588906121fb565b60405180910390fd5b80601060006101000a81548173ffffffffffffffffffffffffffffffffffffffff021916908373ffffffffffffffffffffffffffffffffffffffff16021790555050565b6115dd611ae1565b73ffffffffffffffffffffffffffffffffffffffff166115fb610f48565b73ffffffffffffffffffffffffffffffffffffffff1614611651576040517f08c379a0000000000000000000000000000000000000000000000000000000008152600401611648906121fb565b60405180910390fd5b80600c8190555050565b611663611ae1565b73ffffffffffffffffffffffffffffffffffffffff16611681610f48565b73ffffffffffffffffffffffffffffffffffffffff16146116d7576040517f08c379a00000000000000000000000000000000000000000000000000000000081526004016116ce906121fb565b60405180910390fd5b80600b8190555050565b6116e9611ae1565b73ffffffffffffffffffffffffffffffffffffffff16611707610f48565b73ffffffffffffffffffffffffffffffffffffffff161461175d576040517f08c379a0000000000000000000000000000000000000000000000000000000008152600401611754906121fb565b60405180910390fd5b600073ffffffffffffffffffffffffffffffffffffffff168173ffffffffffffffffffffffffffffffffffffffff1614156117cd576040517f08c379a00000000000000000000000000000000000000000000000000000000081526004016117c49061215b565b60405180910390fd5b8073ffffffffffffffffffffffffffffffffffffffff1660008054906101000a900473ffffffffffffffffffffffffffffffffffffffff1673ffffffffffffffffffffffffffffffffffffffff167f8be0079c531659141344cd1fd0a4f28419497f9722a3daafe3b4186f6b6457e060405160405180910390a3806000806101000a81548173ffffffffffffffffffffffffffffffffffffffff021916908373ffffffffffffffffffffffffffffffffffffffff16021790555050565b611892611ae1565b73ffffffffffffffffffffffffffffffffffffffff166118b0610f48565b73ffffffffffffffffffffffffffffffffffffffff1614611906576040517f08c379a00000000000000000000000000000000000000000000000000000000081526004016118fd906121fb565b60405180910390fd5b80601260006101000a81548173ffffffffffffffffffffffffffffffffffffffff021916908373ffffffffffffffffffffffffffffffffffffffff16021790555050565b611952611ae1565b73ffffffffffffffffffffffffffffffffffffffff16611970610f48565b73ffffffffffffffffffffffffffffffffffffffff16146119c6576040517f08c379a00000000000000000000000000000000000000000000000000000000081526004016119bd906121fb565b60405180910390fd5b80600f60006101000a81548173ffffffffffffffffffffffffffffffffffffffff021916908373ffffffffffffffffffffffffffffffffffffffff16021790555050565b600060098281548110611a1957fe5b9060005260206000200160009054906101000a900473ffffffffffffffffffffffffffffffffffffffff169050919050565b611a53611ae1565b73ffffffffffffffffffffffffffffffffffffffff16611a71610f48565b73ffffffffffffffffffffffffffffffffffffffff1614611ac7576040517f08c379a0000000000000000000000000000000000000000000000000000000008152600401611abe906121fb565b60405180910390fd5b80600e9080519060200190611add929190611c04565b5050565b600033905090565b6000808211611b2d576040517f08c379a0000000000000000000000000000000000000000000000000000000008152600401611b249061219b565b60405180910390fd5b818381611b3657fe5b04905092915050565b600080831415611b525760009050611ba9565b6000828402905082848281611b6357fe5b0414611ba4576040517f08c379a0000000000000000000000000000000000000000000000000000000008152600401611b9b906121db565b60405180910390fd5b809150505b92915050565b600080828401905083811015611bfa576040517f08c379a0000000000000000000000000000000000000000000000000000000008152600401611bf19061217b565b60405180910390fd5b8091505092915050565b828054828255906000526020600020908101928215611c7d579160200282015b82811115611c7c5782518260006101000a81548173ffffffffffffffffffffffffffffffffffffffff021916908373ffffffffffffffffffffffffffffffffffffffff16021790555091602001919060010190611c24565b5b509050611c8a9190611c8e565b5090565b5b80821115611cc557600081816101000a81549073ffffffffffffffffffffffffffffffffffffffff021916905550600101611c8f565b5090565b600081359050611cd881612359565b92915050565b600081359050611ced81612370565b92915050565b600082601f830112611d0457600080fd5b8135611d17611d1282612263565b612236565b91508181835260208401935060208101905083856020840282011115611d3c57600080fd5b60005b83811015611d6c5781611d528882611cde565b845260208401935060208301925050600181019050611d3f565b5050505092915050565b600081359050611d8581612387565b92915050565b600081519050611d9a81612387565b92915050565b600060208284031215611db257600080fd5b6000611dc084828501611cc9565b91505092915050565b600060208284031215611ddb57600080fd5b6000611de984828501611cde565b91505092915050565b600060208284031215611e0457600080fd5b600082013567ffffffffffffffff811115611e1e57600080fd5b611e2a84828501611cf3565b91505092915050565b600060208284031215611e4557600080fd5b6000611e5384828501611d76565b91505092915050565b600060208284031215611e6e57600080fd5b6000611e7c84828501611d8b565b91505092915050565b6000611e918383611eac565b60208301905092915050565b611ea681612323565b82525050565b611eb5816122e7565b82525050565b611ec4816122d5565b82525050565b6000611ed58261229b565b611edf81856122b3565b9350611eea8361228b565b8060005b83811015611f1b578151611f028882611e85565b9750611f0d836122a6565b925050600181019050611eee565b5085935050505092915050565b6000611f356026836122c4565b91507f4f776e61626c653a206e6577206f776e657220697320746865207a65726f206160008301527f64647265737300000000000000000000000000000000000000000000000000006020830152604082019050919050565b6000611f9b601b836122c4565b91507f536166654d6174683a206164646974696f6e206f766572666c6f7700000000006000830152602082019050919050565b6000611fdb601a836122c4565b91507f536166654d6174683a206469766973696f6e206279207a65726f0000000000006000830152602082019050919050565b600061201b601c836122c4565b91507f496e76616c69642070726573616c65206772616e7420616d6f756e74000000006000830152602082019050919050565b600061205b6021836122c4565b91507f536166654d6174683a206d756c7469706c69636174696f6e206f766572666c6f60008301527f77000000000000000000000000000000000000000000000000000000000000006020830152604082019050919050565b60006120c16020836122c4565b91507f4f776e61626c653a2063616c6c6572206973206e6f7420746865206f776e65726000830152602082019050919050565b6120fd81612319565b82525050565b60006020820190506121186000830184611ebb565b92915050565b60006020820190506121336000830184611e9d565b92915050565b600060208201905081810360008301526121538184611eca565b905092915050565b6000602082019050818103600083015261217481611f28565b9050919050565b6000602082019050818103600083015261219481611f8e565b9050919050565b600060208201905081810360008301526121b481611fce565b9050919050565b600060208201905081810360008301526121d48161200e565b9050919050565b600060208201905081810360008301526121f48161204e565b9050919050565b60006020820190508181036000830152612214816120b4565b9050919050565b600060208201905061223060008301846120f4565b92915050565b6000604051905081810181811067ffffffffffffffff8211171561225957600080fd5b8060405250919050565b600067ffffffffffffffff82111561227a57600080fd5b602082029050602081019050919050565b6000819050602082019050919050565b600081519050919050565b6000602082019050919050565b600082825260208201905092915050565b600082825260208201905092915050565b60006122e0826122f9565b9050919050565b60006122f2826122f9565b9050919050565b600073ffffffffffffffffffffffffffffffffffffffff82169050919050565b6000819050919050565b600061232e82612335565b9050919050565b600061234082612347565b9050919050565b6000612352826122f9565b9050919050565b612362816122d5565b811461236d57600080fd5b50565b612379816122e7565b811461238457600080fd5b50565b61239081612319565b811461239b57600080fd5b5056fea26469706673582212208d67e3ab760e18cb6a36c79f161b74a2427db40a4af26a199ced20d8f8e071e564736f6c634300060c0033",
  "immutableReferences": {},
  "source": "// SPDX-License-Identifier: MIT\npragma solidity 0.6.12;\npragma experimental ABIEncoderV2;\n\nimport \"@openzeppelin/contracts/access/Ownable.sol\";\nimport \"@openzeppelin/contracts/math/SafeMath.sol\";\nimport \"./XDPresale.sol\";\n\ncontract XDaiStarterInfo is Ownable {\n    using SafeMath for uint256;\n\n    uint256 private devFeePercentage = 2; // fees going to dev AND XD hodlers (2% each)\n    uint256 private minDevFeeInWei = 5 ether; // min fee amount going to dev AND XD hodlers\n    uint256 private maxRewardQualifyBal = 20000 * 1e18; // max amount to HODL to qualify for xDai fee rewards\n    uint256 private minRewardQualifyBal = 1250 * 1e18; // min amount to HODL to qualify for xDai fee rewards\n    uint256 private minRewardQualifyPercentage = 10; // percentage of discount on tokens for qualifying holders\n    uint256 private presaleGrantAmount = 100 * 1e18; // grant given to 'good' projects 30 days after raise\n    address private incubatorMsigAddress; // community address used to release presale incubator grants\n\n    address[] private presaleAddresses; // track all presales created\n    address[] private presaleGrantAddresses; // track all presale grants assigned\n\n    uint256 private minInvestorXDPBalance = 100 * 1e18; // min amount to investors HODL XDP balance\n    uint256 private minStakeTime = 24 hours;\n    uint256 private minUnstakeTime = 24 hours;\n    uint256 private minClaimTime = 7 days;\n\n    address payable[] private xdsTokenPresales;\n\n    address private honeySwapRouter =\n        address(0x1C232F01118CB8B424793ae03F870aa7D0ac7f77);\n    address private honeySwapFactory =\n        address(0xA818b4F111Ccac7AA31D0BCc0806d64F2E0737D7);\n    address private wxdai = address(0xe91D153E0b41518A2Ce8Dd3D7944Fa863463a97d);\n\n    address private xdsFactoryAddress;\n\n    constructor(address payable[] memory _xdsTokenPresales) public {\n        xdsTokenPresales = _xdsTokenPresales;\n    }\n\n    modifier onlyFactory() {\n        require(xdsFactoryAddress == msg.sender);\n        _;\n    }\n\n    function getXdsFactoryAddress() external view returns (address) {\n      return xdsFactoryAddress;\n    }\n\n    function setXdsFactoryAddress(address _newFactoryAddress)\n        external\n        onlyOwner\n    {\n        xdsFactoryAddress = _newFactoryAddress;\n    }\n\n    function addPresaleAddress(address _presale)\n        external\n        onlyFactory\n        returns (uint256)\n    {\n        presaleAddresses.push(_presale);\n        return presaleAddresses.length - 1;\n    }\n\n    function getPresalesCount() external view returns (uint256) {\n        return presaleAddresses.length;\n    }\n\n    function getPresaleAddress(uint256 xdsId) external view returns (address) {\n        return presaleAddresses[xdsId];\n    }\n\n    function addPresaleGrantAddress(address _presaleGrant)\n        external\n        onlyFactory\n        returns (uint256)\n    {\n        presaleGrantAddresses.push(_presaleGrant);\n        return presaleGrantAddresses.length - 1;\n    }\n\n    function getPresaleGrantsCount() external view returns (uint256) {\n        return presaleGrantAddresses.length;\n    }\n\n    function getPresaleGrantAddress(uint256 _id)\n        external\n        view\n        returns (address)\n    {\n        return presaleGrantAddresses[_id];\n    }\n\n    function getDevFeePercentage() external view returns (uint256) {\n        return devFeePercentage;\n    }\n\n    function setDevFeePercentage(uint256 _devFeePercentage) external onlyOwner {\n        devFeePercentage = _devFeePercentage;\n    }\n\n    function getMinDevFeeInWei() external view returns (uint256) {\n        return minDevFeeInWei;\n    }\n\n    function setMinDevFeeInWei(uint256 _minDevFeeInWei) external onlyOwner {\n        minDevFeeInWei = _minDevFeeInWei;\n    }\n\n    function getPresaleGrantAmount() external view returns (uint256) {\n        return presaleGrantAmount;\n    }\n\n    function setPresaleGrantAmount(uint256 _presaleGrantAmount)\n        external\n        onlyOwner\n    {\n        require(\n            _presaleGrantAmount <= 5000 * 1e18,\n            \"Invalid presale grant amount\"\n        );\n        presaleGrantAmount = _presaleGrantAmount;\n    }\n\n    function getIncubatorMsigAddress() external view returns (address) {\n        return incubatorMsigAddress;\n    }\n\n    function setIncubatorMsigAddress(address _incubatorMsigAddress)\n        external\n        onlyOwner\n    {\n        incubatorMsigAddress = _incubatorMsigAddress;\n    }\n\n    function getMinRewardQualifyPercentage() external view returns (uint256) {\n        return minRewardQualifyPercentage;\n    }\n\n    function setMinRewardQualifyPercentage(uint256 _minRewardQualifyPercentage)\n        external\n        onlyOwner\n    {\n        minRewardQualifyPercentage = _minRewardQualifyPercentage;\n    }\n\n    function getMinRewardQualifyBal() external view returns (uint256) {\n        return minRewardQualifyBal;\n    }\n\n    function setMinRewardQualifyBal(uint256 _minRewardQualifyBal)\n        external\n        onlyOwner\n    {\n        minRewardQualifyBal = _minRewardQualifyBal;\n    }\n\n    function getMaxRewardQualifyBal() external view returns (uint256) {\n        return maxRewardQualifyBal;\n    }\n\n    function setMaxRewardQualifyBal(uint256 _maxRewardQualifyBal)\n        external\n        onlyOwner\n    {\n        maxRewardQualifyBal = _maxRewardQualifyBal;\n    }\n\n    function getMinInvestorXDPBalance() external view returns (uint256) {\n        return minInvestorXDPBalance;\n    }\n\n    function setMinInvestorXDPBalance(uint256 _minInvestorXDPBalance)\n        external\n        onlyOwner\n    {\n        minInvestorXDPBalance = _minInvestorXDPBalance;\n    }\n\n    function getMinStakeTime() external view returns (uint256) {\n        return minStakeTime;\n    }\n\n    function setMinStakeTime(uint256 _minStakeTime) external onlyOwner {\n        minStakeTime = _minStakeTime;\n    }\n\n    function getMinUnstakeTime() external view returns (uint256) {\n        return minUnstakeTime;\n    }\n\n    function setMinUnstakeTime(uint256 _minUnstakeTime) external onlyOwner {\n        minUnstakeTime = _minUnstakeTime;\n    }\n\n    function getMinClaimTime() external view returns (uint256) {\n        return minClaimTime;\n    }\n\n    function setMinClaimTime(uint256 _minClaimTime) external onlyOwner {\n        minClaimTime = _minClaimTime;\n    }\n\n    function getXdsTokenPresales()\n        external\n        view\n        returns (address payable[] memory)\n    {\n        return xdsTokenPresales;\n    }\n\n    // called by EOA, contract owner (Info is not created by the Factory, it is prior)\n    function setXdsTokenPresales(address payable[] memory _xdsTokenPresales)\n        external\n        onlyOwner\n    {\n        xdsTokenPresales = _xdsTokenPresales;\n    }\n\n    function getLockedBalance(address payable sender)\n        external\n        view\n        returns (uint256 totalLockedBalance)\n    {\n        totalLockedBalance = 0;\n        for (uint256 i = 0; i < xdsTokenPresales.length; i++) {\n            XDPresale tokenPresale = XDPresale(xdsTokenPresales[i]);\n\n            uint256 senderInvestment = tokenPresale.investments(sender);\n            uint256 senderClaimed = tokenPresale.claimed(sender);\n            if (senderInvestment > 0 && senderClaimed < 4) {\n                uint256 poolTokenPriceInWei = tokenPresale.tokenPriceInWei();\n                uint256 poolLockedBalance =\n                    senderInvestment\n                        .div(4)\n                        .mul(4 - senderClaimed)\n                        .mul(1e18)\n                        .div(poolTokenPriceInWei);\n                totalLockedBalance = totalLockedBalance.add(poolLockedBalance);\n            }\n        }\n    }\n\n    function getHoneySwapRouter() external view returns (address) {\n        return honeySwapRouter;\n    }\n\n    function setHoneySwapRouter(address _honeySwapRouter)\n        external\n        onlyOwner\n    {\n        honeySwapRouter = _honeySwapRouter;\n    }\n\n    function getHoneySwapFactory() external view returns (address) {\n        return honeySwapFactory;\n    }\n\n    function setHoneySwapFactory(address _honeySwapFactory)\n        external\n        onlyOwner\n    {\n        honeySwapFactory = _honeySwapFactory;\n    }\n\n    function getWxDai() external view returns (address) {\n        return wxdai;\n    }\n\n    function setWxDai(address _wxdai) external onlyOwner {\n        wxdai = _wxdai;\n    }\n}",
  "sourcePath": "/Users/macuser/Documents/Projects/Programming/xDaiStarterParent/xDaiStarter/contracts/XDaiStarterInfo.sol",
  "compiler": {
    "name": "solc",
    "version": "0.6.12+commit.27d51765.Emscripten.clang"
  },
  "schemaVersion": "3.3.4",
  "updatedAt": "2021-04-24T02:43:26.624Z",
  "devdoc": {
    "kind": "dev",
    "methods": {
      "owner()": {
        "details": "Returns the address of the current owner."
      },
      "renounceOwnership()": {
        "details": "Leaves the contract without owner. It will not be possible to call `onlyOwner` functions anymore. Can only be called by the current owner. NOTE: Renouncing ownership will leave the contract without an owner, thereby removing any functionality that is only available to the owner."
      },
      "transferOwnership(address)": {
        "details": "Transfers ownership of the contract to a new account (`newOwner`). Can only be called by the current owner."
      }
    },
    "version": 1
  },
  "userdoc": {
    "kind": "user",
    "methods": {},
    "version": 1
  }
}