{
  "contractName": "XDaiStarterFactory",
  "abi": [
    {
      "inputs": [
        {
          "internalType": "address",
          "name": "_xdpToken",
          "type": "address"
        },
        {
          "internalType": "address",
          "name": "_xdsInfoAddress",
          "type": "address"
        },
        {
          "internalType": "address",
          "name": "_xdsStakingPool",
          "type": "address"
        }
      ],
      "stateMutability": "nonpayable",
      "type": "constructor"
    },
    {
      "anonymous": false,
      "inputs": [
        {
          "indexed": false,
          "internalType": "bytes32",
          "name": "title",
          "type": "bytes32"
        },
        {
          "indexed": false,
          "internalType": "uint256",
          "name": "xdsId",
          "type": "uint256"
        },
        {
          "indexed": false,
          "internalType": "address",
          "name": "creator",
          "type": "address"
        }
      ],
      "name": "PresaleCreated",
      "type": "event"
    },
    {
      "anonymous": false,
      "inputs": [
        {
          "indexed": true,
          "internalType": "address",
          "name": "from",
          "type": "address"
        },
        {
          "indexed": false,
          "internalType": "uint256",
          "name": "amount",
          "type": "uint256"
        }
      ],
      "name": "Received",
      "type": "event"
    },
    {
      "inputs": [],
      "name": "XDS",
      "outputs": [
        {
          "internalType": "contract XDaiStarterInfo",
          "name": "",
          "type": "address"
        }
      ],
      "stateMutability": "view",
      "type": "function"
    },
    {
      "inputs": [
        {
          "internalType": "address",
          "name": "",
          "type": "address"
        }
      ],
      "name": "lastClaimedTimestamp",
      "outputs": [
        {
          "internalType": "uint256",
          "name": "",
          "type": "uint256"
        }
      ],
      "stateMutability": "view",
      "type": "function"
    },
    {
      "inputs": [],
      "name": "xdpToken",
      "outputs": [
        {
          "internalType": "contract XDPToken",
          "name": "",
          "type": "address"
        }
      ],
      "stateMutability": "view",
      "type": "function"
    },
    {
      "inputs": [],
      "name": "xdsStakingPool",
      "outputs": [
        {
          "internalType": "contract XDaiStarterStaking",
          "name": "",
          "type": "address"
        }
      ],
      "stateMutability": "view",
      "type": "function"
    },
    {
      "stateMutability": "payable",
      "type": "receive"
    },
    {
      "inputs": [
        {
          "components": [
            {
              "internalType": "address",
              "name": "tokenAddress",
              "type": "address"
            },
            {
              "internalType": "address",
              "name": "unsoldTokensDumpAddress",
              "type": "address"
            },
            {
              "internalType": "address[]",
              "name": "whitelistedAddresses",
              "type": "address[]"
            },
            {
              "internalType": "uint256",
              "name": "tokenPriceInWei",
              "type": "uint256"
            },
            {
              "internalType": "uint256",
              "name": "hardCapInWei",
              "type": "uint256"
            },
            {
              "internalType": "uint256",
              "name": "softCapInWei",
              "type": "uint256"
            },
            {
              "internalType": "uint256",
              "name": "maxInvestInWei",
              "type": "uint256"
            },
            {
              "internalType": "uint256",
              "name": "minInvestInWei",
              "type": "uint256"
            },
            {
              "internalType": "uint256",
              "name": "openTime",
              "type": "uint256"
            },
            {
              "internalType": "uint256",
              "name": "closeTime",
              "type": "uint256"
            }
          ],
          "internalType": "struct XDaiStarterFactory.PresaleInfo",
          "name": "_info",
          "type": "tuple"
        },
        {
          "components": [
            {
              "internalType": "uint256",
              "name": "listingPriceInWei",
              "type": "uint256"
            },
            {
              "internalType": "uint256",
              "name": "liquidityAddingTime",
              "type": "uint256"
            },
            {
              "internalType": "uint256",
              "name": "lpTokensLockDurationInDays",
              "type": "uint256"
            },
            {
              "internalType": "uint256",
              "name": "liquidityPercentageAllocation",
              "type": "uint256"
            }
          ],
          "internalType": "struct XDaiStarterFactory.PresaleHoneySwapInfo",
          "name": "_honeyInfo",
          "type": "tuple"
        },
        {
          "components": [
            {
              "internalType": "bytes32",
              "name": "saleTitle",
              "type": "bytes32"
            },
            {
              "internalType": "bytes32",
              "name": "linkTelegram",
              "type": "bytes32"
            },
            {
              "internalType": "bytes32",
              "name": "linkGithub",
              "type": "bytes32"
            },
            {
              "internalType": "bytes32",
              "name": "linkTwitter",
              "type": "bytes32"
            },
            {
              "internalType": "bytes32",
              "name": "linkWebsite",
              "type": "bytes32"
            },
            {
              "internalType": "bytes32",
              "name": "linkLogo",
              "type": "bytes32"
            }
          ],
          "internalType": "struct XDaiStarterFactory.PresaleStringInfo",
          "name": "_stringInfo",
          "type": "tuple"
        }
      ],
      "name": "createPresale",
      "outputs": [],
      "stateMutability": "nonpayable",
      "type": "function"
    },
    {
      "inputs": [],
      "name": "claimHodlerFund",
      "outputs": [],
      "stateMutability": "nonpayable",
      "type": "function"
    }
  ],
  "bytecode": "0x60a06040523480156200001157600080fd5b5060405162005f1a38038062005f1a833981016040819052620000349162000080565b6001600081905580546001600160a01b03199081166001600160a01b039586161790915560609290921b6001600160601b031916608052600280549092169216919091179055620000ec565b60008060006060848603121562000095578283fd5b8351620000a281620000d3565b6020850151909350620000b581620000d3565b6040850151909250620000c881620000d3565b809150509250925092565b6001600160a01b0381168114620000e957600080fd5b50565b60805160601c615db1620001696000398061017352806101ab52806101cc528061025d52806102ee52806104aa52806105e252806106d152806107e7528061088852806109225280610a0a5280610aba5280610b4b5280610cfc5280610e4f5280610ee45280610f98528061103352806114d25250615db16000f3fe6080604052600436106100595760003560e01c806302ee0efb146100a65780631b573648146100dc5780631d1e053e146100fe5780636d37054c1461012057806378d7be7314610135578063b9227bb31461014a576100a1565b366100a157336001600160a01b03167f88a5966d370b9919b20f3e2c13ff65706f196a4e32cc2c12bf57088f88525874346040516100979190611bf7565b60405180910390a2005b600080fd5b3480156100b257600080fd5b506100c66100c13660046116cd565b61015f565b6040516100d39190611bf7565b60405180910390f35b3480156100e857600080fd5b506100f1610171565b6040516100d3919061185d565b34801561010a57600080fd5b5061011e610119366004611725565b610195565b005b34801561012c57600080fd5b506100f1610c8d565b34801561014157600080fd5b506100f1610c9c565b34801561015657600080fd5b5061011e610cab565b60036020526000908152604090205481565b7f000000000000000000000000000000000000000000000000000000000000000081565b60006101a460208501856116cd565b90506000307f00000000000000000000000000000000000000000000000000000000000000007f00000000000000000000000000000000000000000000000000000000000000006001600160a01b0316638da5cb5b6040518163ffffffff1660e01b815260040160206040518083038186803b15801561022357600080fd5b505afa158015610237573d6000803e3d6000fd5b505050506040513d601f19601f8201168201806040525081019061025b91906116e9565b7f00000000000000000000000000000000000000000000000000000000000000006001600160a01b031663aabea7836040518163ffffffff1660e01b815260040160206040518083038186803b1580156102b457600080fd5b505afa1580156102c8573d6000803e3d6000fd5b505050506040513d601f19601f820116820180604052508101906102ec919061179b565b7f00000000000000000000000000000000000000000000000000000000000000006001600160a01b031663be0247ad6040518163ffffffff1660e01b815260040160206040518083038186803b15801561034557600080fd5b505afa158015610359573d6000803e3d6000fd5b505050506040513d601f19601f8201168201806040525081019061037d919061179b565b604051610389906116b1565b6103979594939291906118c0565b604051809103906000f0801580156103b3573d6000803e3d6000fd5b50905060006103d560646103cf608089013560608901356111bf565b90611202565b905060006103f086356103cf84670de0b6b3a76400006111bf565b9050600061041260608901356103cf60808b0135670de0b6b3a76400006111bf565b905060006104208383611234565b6040516323b872dd60e01b81529091506001600160a01b038716906323b872dd9061045390339089908690600401611871565b602060405180830381600087803b15801561046d57600080fd5b505af1158015610481573d6000803e3d6000fd5b505050506040513d601f19601f820116820180604052508101906104a59190611705565b5060007f00000000000000000000000000000000000000000000000000000000000000006001600160a01b03166333835b966040518163ffffffff1660e01b815260040160206040518083038186803b15801561050157600080fd5b505afa158015610515573d6000803e3d6000fd5b505050506040513d601f19601f82011682018060405250810190610539919061179b565b6001546040516370a0823160e01b81526001600160a01b03909116906370a082319061056990309060040161185d565b60206040518083038186803b15801561058157600080fd5b505afa158015610595573d6000803e3d6000fd5b505050506040513d601f19601f820116820180604052508101906105b9919061179b565b10610872576000600160009054906101000a90046001600160a01b03168a6020013562278d00017f00000000000000000000000000000000000000000000000000000000000000006001600160a01b0316635f75856f6040518163ffffffff1660e01b815260040160206040518083038186803b15801561063957600080fd5b505afa15801561064d573d6000803e3d6000fd5b505050506040513d601f19601f8201168201806040525081019061067191906116e9565b3360405161067e906116bf565b61068b94939291906119da565b604051809103906000f0801580156106a7573d6000803e3d6000fd5b509050600160009054906101000a90046001600160a01b03166001600160a01b031663a9059cbb827f00000000000000000000000000000000000000000000000000000000000000006001600160a01b03166333835b966040518163ffffffff1660e01b815260040160206040518083038186803b15801561072857600080fd5b505afa15801561073c573d6000803e3d6000fd5b505050506040513d601f19601f82011682018060405250810190610760919061179b565b6040518363ffffffff1660e01b815260040161077d9291906118f4565b602060405180830381600087803b15801561079757600080fd5b505af11580156107ab573d6000803e3d6000fd5b505050506040513d601f19601f820116820180604052508101906107cf9190611705565b5060405163282ba4f560e21b81526001600160a01b037f0000000000000000000000000000000000000000000000000000000000000000169063a0ae93d49061081c90849060040161185d565b602060405180830381600087803b15801561083657600080fd5b505af115801561084a573d6000803e3d6000fd5b505050506040513d601f19601f8201168201806040525081019061086e919061179b565b9150505b61088486848c606001358d8d8d611259565b60007f00000000000000000000000000000000000000000000000000000000000000006001600160a01b031663be19292f6040518163ffffffff1660e01b815260040160206040518083038186803b1580156108df57600080fd5b505afa1580156108f3573d6000803e3d6000fd5b505050506040513d601f19601f8201168201806040525081019061091791906116e9565b905060006109b6828a7f00000000000000000000000000000000000000000000000000000000000000006001600160a01b031663b1cb45d56040518163ffffffff1660e01b815260040160206040518083038186803b15801561097957600080fd5b505afa15801561098d573d6000803e3d6000fd5b505050506040513d601f19601f820116820180604052508101906109b191906116e9565b6115b7565b90506000818c6040013562015180028d60200135013360006040516109da906116bf565b6109e794939291906119da565b604051809103906000f080158015610a03573d6000803e3d6000fd5b50905060007f00000000000000000000000000000000000000000000000000000000000000006001600160a01b0316633cd221a28b6040518263ffffffff1660e01b8152600401610a54919061185d565b602060405180830381600087803b158015610a6e57600080fd5b505af1158015610a82573d6000803e3d6000fd5b505050506040513d601f19601f82011682018060405250810190610aa6919061179b565b9050896001600160a01b0316630d5dfdcd837f00000000000000000000000000000000000000000000000000000000000000006001600160a01b03166305a911676040518163ffffffff1660e01b815260040160206040518083038186803b158015610b1157600080fd5b505afa158015610b25573d6000803e3d6000fd5b505050506040513d601f19601f82011682018060405250810190610b49919061179b565b7f00000000000000000000000000000000000000000000000000000000000000006001600160a01b0316630e34c01b6040518163ffffffff1660e01b815260040160206040518083038186803b158015610ba257600080fd5b505afa158015610bb6573d6000803e3d6000fd5b505050506040513d601f19601f82011682018060405250810190610bda919061179b565b6002546040516001600160e01b031960e087901b168152610c0e9493929188918d916001600160a01b03169060040161190d565b600060405180830381600087803b158015610c2857600080fd5b505af1158015610c3c573d6000803e3d6000fd5b50506040517f35133d54289054f67a6ef6fa793e5c9d0db708d85ce5c2045cfacdd5748862469250610c7591508e3590849033906119bb565b60405180910390a15050505050505050505050505050565b6002546001600160a01b031681565b6001546001600160a01b031681565b60026000541415610cd75760405162461bcd60e51b8152600401610cce90611bc0565b60405180910390fd5b600260005547610cf95760405162461bcd60e51b8152600401610cce90611a68565b427f00000000000000000000000000000000000000000000000000000000000000006001600160a01b031663716eede46040518163ffffffff1660e01b815260040160206040518083038186803b158015610d5357600080fd5b505afa158015610d67573d6000803e3d6000fd5b505050506040513d601f19601f82011682018060405250810190610d8b919061179b565b33600090815260036020526040902054011115610dba5760405162461bcd60e51b8152600401610cce90611a05565b6002546040516387cad0bf60e01b8152600091829182916001600160a01b0316906387cad0bf90610def90339060040161185d565b60606040518083038186803b158015610e0757600080fd5b505afa158015610e1b573d6000803e3d6000fd5b505050506040513d601f19601f82011682018060405250810190610e3f91906117b3565b80935081945082955050505060007f00000000000000000000000000000000000000000000000000000000000000006001600160a01b0316638d3af9a26040518163ffffffff1660e01b815260040160206040518083038186803b158015610ea657600080fd5b505afa158015610eba573d6000803e3d6000fd5b505050506040513d601f19601f82011682018060405250810190610ede919061179b565b905060007f00000000000000000000000000000000000000000000000000000000000000006001600160a01b031663c4086893336040518263ffffffff1660e01b8152600401610f2e919061185d565b60206040518083038186803b158015610f4657600080fd5b505afa158015610f5a573d6000803e3d6000fd5b505050506040513d601f19601f82011682018060405250810190610f7e919061179b565b90504282850111610f9657610f938186611234565b90505b7f00000000000000000000000000000000000000000000000000000000000000006001600160a01b031663aabea7836040518163ffffffff1660e01b815260040160206040518083038186803b158015610fef57600080fd5b505afa158015611003573d6000803e3d6000fd5b505050506040513d601f19601f82011682018060405250810190611027919061179b565b81101580156110c657507f00000000000000000000000000000000000000000000000000000000000000006001600160a01b0316635d5ce3cf6040518163ffffffff1660e01b815260040160206040518083038186803b15801561108a57600080fd5b505afa15801561109e573d6000803e3d6000fd5b505050506040513d601f19601f820116820180604052508101906110c2919061179b565b8111155b6110e25760405162461bcd60e51b8152600401610cce90611b13565b3360008181526003602090815260409182902042905560015482516318160ddd60e01b815292516108fc9361118a934793611184936001600160a01b03909116926318160ddd926004808301939192829003018186803b15801561114557600080fd5b505afa158015611159573d6000803e3d6000fd5b505050506040513d601f19601f8201168201806040525081019061117d919061179b565b8690611202565b906111bf565b6040518115909202916000818181858888f193505050501580156111b2573d6000803e3d6000fd5b5050600160005550505050565b6000826111ce575060006111fc565b828202828482816111db57fe5b04146111f95760405162461bcd60e51b8152600401610cce90611b7f565b90505b92915050565b60008082116112235760405162461bcd60e51b8152600401610cce90611a95565b81838161122c57fe5b049392505050565b6000828201838110156111f95760405162461bcd60e51b8152600401610cce90611a31565b6001600160a01b0386166380e2bc273361127660208701876116cd565b6001546001600160a01b03166112926040890160208a016116cd565b6040518563ffffffff1660e01b81526004016112b19493929190611895565b600060405180830381600087803b1580156112cb57600080fd5b505af11580156112df573d6000803e3d6000fd5b5050604051631c194ba960e01b81526001600160a01b0389169250631c194ba99150611337908890889060808901359060a08a01359060c08b01359060e08c0135906101008d0135906101208e013590600401611c1b565b600060405180830381600087803b15801561135157600080fd5b505af1158015611365573d6000803e3d6000fd5b505060408051631149b15160e21b81526001600160a01b038a169350634526c54492506113a79186359160208801359188013590606089013590600401611c00565b600060405180830381600087803b1580156113c157600080fd5b505af11580156113d5573d6000803e3d6000fd5b505060408051630564950f60e31b81526001600160a01b038a169350632b24a8789250611423918535916020870135918701359060608801359060808901359060a08a013590600401611993565b600060405180830381600087803b15801561143d57600080fd5b505af1158015611451573d6000803e3d6000fd5b5050506001600160a01b038716905063ca2cfc206114726040860186611c51565b6040518363ffffffff1660e01b815260040161148f929190611945565b600060405180830381600087803b1580156114a957600080fd5b505af11580156114bd573d6000803e3d6000fd5b50505050856001600160a01b0316638bd8260c7f00000000000000000000000000000000000000000000000000000000000000006001600160a01b03166356c97e996040518163ffffffff1660e01b815260040160206040518083038186803b15801561152957600080fd5b505afa15801561153d573d6000803e3d6000fd5b505050506040513d601f19601f82011682018060405250810190611561919061179b565b6040518263ffffffff1660e01b815260040161157d9190611bf7565b600060405180830381600087803b15801561159757600080fd5b505af11580156115ab573d6000803e3d6000fd5b50505050505050505050565b60008060006115c68585611627565b915091508582826040516020016115de9291906117e0565b60405160208183030381529060405280519060200120604051602001611605929190611807565b60408051601f1981840301815291905280516020909101209695505050505050565b600080826001600160a01b0316846001600160a01b0316141561165c5760405162461bcd60e51b8152600401610cce90611acc565b826001600160a01b0316846001600160a01b03161061167c57828461167f565b83835b90925090506001600160a01b0382166116aa5760405162461bcd60e51b8152600401610cce90611b4a565b9250929050565b6137d28062001cb183390190565b6108f9806200548383390190565b6000602082840312156116de578081fd5b81356111f981611c98565b6000602082840312156116fa578081fd5b81516111f981611c98565b600060208284031215611716578081fd5b815180151581146111f9578182fd5b600080600083850361016081121561173b578283fd5b843567ffffffffffffffff811115611751578384fd5b85016101408188031215611763578384fd5b93506080601f1982011215611776578283fd5b60208501925060c0609f198201121561178d578182fd5b5060a0840190509250925092565b6000602082840312156117ac578081fd5b5051919050565b6000806000606084860312156117c7578283fd5b8351925060208401519150604084015190509250925092565b6bffffffffffffffffffffffff19606093841b811682529190921b16601482015260280190565b6001600160f81b0319815260609290921b6bffffffffffffffffffffffff1916600183015260158201527f3f88503e8580ab941773b59034fb4b2a63e86dbc031b3633a925533ad3ed2b93603582015260550190565b6001600160a01b0391909116815260200190565b6001600160a01b039384168152919092166020820152604081019190915260600190565b6001600160a01b03948516815292841660208401529083166040830152909116606082015260800190565b6001600160a01b03958616815293851660208501529190931660408301526060820192909252608081019190915260a00190565b6001600160a01b03929092168252602082015260400190565b6001600160a01b039687168152602081019590955260408501939093526060840191909152608083015290911660a082015260c00190565b60208082528181018390526000908460408401835b8681101561198857823561196d81611c98565b6001600160a01b03168252918301919083019060010161195a565b509695505050505050565b958652602086019490945260408501929092526060840152608083015260a082015260c00190565b92835260208301919091526001600160a01b0316604082015260600190565b6001600160a01b03948516815260208101939093529083166040830152909116606082015260800190565b602080825260129082015271496e76616c696420436c61696d2054696d6560701b604082015260600190565b6020808252601b908201527f536166654d6174683a206164646974696f6e206f766572666c6f770000000000604082015260600190565b6020808252601390820152724e6f207265776172647320746f20636c61696d60681b604082015260600190565b6020808252601a908201527f536166654d6174683a206469766973696f6e206279207a65726f000000000000604082015260600190565b60208082526027908201527f5844616953746172746572466163746f72793a204944454e544943414c5f41446040820152664452455353455360c81b606082015260800190565b6020808252601a908201527f446f206e6f74207175616c69667920666f722072657761726473000000000000604082015260600190565b6020808252818101527f5844616953746172746572466163746f72793a205a45524f5f41444452455353604082015260600190565b60208082526021908201527f536166654d6174683a206d756c7469706c69636174696f6e206f766572666c6f6040820152607760f81b606082015260800190565b6020808252601f908201527f5265656e7472616e637947756172643a207265656e7472616e742063616c6c00604082015260600190565b90815260200190565b93845260208401929092526040830152606082015260800190565b978852602088019690965260408701949094526060860192909252608085015260a084015260c083015260e08201526101000190565b6000808335601e19843603018112611c67578283fd5b83018035915067ffffffffffffffff821115611c81578283fd5b60209081019250810236038213156116aa57600080fd5b6001600160a01b0381168114611cad57600080fd5b5056fe608060405269152d02c7e14af6800000602455683635c9adc5dea000006025556029805463ffffffff191690553480156200003957600080fd5b50604051620037d2380380620037d2833981810160405260a08110156200005f57600080fd5b508051602082015160408301516060840151608090940151929391929091906001600160a01b0385166200009257600080fd5b6001600160a01b038316620000a657600080fd5b600080546001600160a01b039687166001600160a01b0319918216179091556001805494871694821694909417909355602791909155602855600480549290931691161790556136d680620000fc6000396000f3fe6080604052600436106104145760003560e01c80638bd8260c1161021e578063c502b13b11610123578063d64d3138116100ab578063e861e34d1161007a578063e861e34d14610dbf578063e8b5e51f14610dd4578063ebc9afcc14610ddc578063fb286c6514610ebe578063fc0c546a14610ed357610423565b8063d64d313814610d05578063d6c86b1b14610d80578063d9c5032014610d95578063e47935e614610daa57610423565b8063ca2cfc20116100f2578063ca2cfc2014610c36578063cc9fb9fd14610cb1578063ce8f582e14610cc6578063d58e89a014610cdb578063d5933c2c14610cf057610423565b8063c502b13b14610bc4578063c51d16b614610bd9578063c6a4266914610bee578063c884ef8314610c0357610423565b8063b2716d89116101a6578063b44dd0c111610175578063b44dd0c114610b2f578063b5b47f4214610b5b578063bfbcec3a14610b70578063c04c8e9a14610b85578063c36002c914610baf57610423565b8063b2716d8914610adb578063b2d5ae4414610af0578063b31f8f9314610b05578063b425688814610b1a57610423565b80639767b58c116101ed5780639767b58c14610a3d5780639fa1eccc14610a52578063a2460d2e14610a67578063a3ec138d14610a7c578063b1406b7914610aaf57610423565b80638bd8260c146109b657806391800334146109e0578063940bb344146109f557806396b9886214610a0a57610423565b806348c54b9d11610324578063709b74ed116102ac57806378d7be731161027b57806378d7be73146108205780637e1c0c09146108355780637f0feacc1461084a57806380e2bc271461095657806389771dd8146109a157610423565b8063709b74ed146107cc5780637275ae14146107e157806373f7ef38146107f6578063744583061461080b57610423565b806350c73391116102f357806350c733911461076357806355973a9014610778578063627749e61461078d5780636cb96287146107a25780636d37054c146107b757610423565b806348c54b9d146106f85780634926e5801461070d5780634b9f5c98146107225780634f7458eb1461074e57610423565b80631afb0220116103a7578063303ab2aa11610376578063303ab2aa1461064c57806335d079de146106615780633ad49c7b1461069257806341038a77146106a75780634526c544146106bc57610423565b80631afb0220146105855780631c194ba91461059a5780632b24a878146105ef5780632f8de8101461063757610423565b80630d5dfdcd116103e35780630d5dfdcd146104c057806312d5a26c1461051357806316bc4f0e146105285780631ac2a3b81461055b57610423565b806301f009ae1461042857806306c933d81461044f5780630ca99ca8146104965780630cdc1fc5146104ab57610423565b3661042357610421610ee8565b005b600080fd5b34801561043457600080fd5b5061043d61155a565b60408051918252519081900360200190f35b34801561045b57600080fd5b506104826004803603602081101561047257600080fd5b50356001600160a01b0316611560565b604080519115158252519081900360200190f35b3480156104a257600080fd5b5061043d611575565b3480156104b757600080fd5b5061043d61157b565b3480156104cc57600080fd5b50610421600480360360c08110156104e357600080fd5b506001600160a01b03813581169160208101359160408201359160608101359160808201359160a0013516611581565b34801561051f57600080fd5b506104826115f0565b34801561053457600080fd5b506104826004803603602081101561054b57600080fd5b50356001600160a01b03166115ff565b34801561056757600080fd5b506104216004803603602081101561057e57600080fd5b5035611614565b34801561059157600080fd5b5061043d611664565b3480156105a657600080fd5b5061042160048036036101008110156105be57600080fd5b5080359060208101359060408101359060608101359060808101359060a08101359060c08101359060e0013561166a565b3480156105fb57600080fd5b50610421600480360360c081101561061257600080fd5b5080359060208101359060408101359060608101359060808101359060a00135611774565b34801561064357600080fd5b5061043d6117f3565b34801561065857600080fd5b5061043d6117f9565b34801561066d57600080fd5b506106766117ff565b604080516001600160a01b039092168252519081900360200190f35b34801561069e57600080fd5b5061067661180e565b3480156106b357600080fd5b5061067661181d565b3480156106c857600080fd5b50610421600480360360808110156106df57600080fd5b508035906020810135906040810135906060013561182c565b34801561070457600080fd5b506104216118f4565b34801561071957600080fd5b5061043d611bd4565b34801561072e57600080fd5b506104216004803603602081101561074557600080fd5b50351515611bda565b34801561075a57600080fd5b5061043d611eab565b34801561076f57600080fd5b5061043d611eb1565b34801561078457600080fd5b50610482611eb7565b34801561079957600080fd5b5061043d611ec5565b3480156107ae57600080fd5b50610421611ecb565b3480156107c357600080fd5b50610676611f96565b3480156107d857600080fd5b50610482611fa5565b3480156107ed57600080fd5b5061043d611fae565b34801561080257600080fd5b5061043d611fb4565b34801561081757600080fd5b5061043d611fba565b34801561082c57600080fd5b50610676611fc0565b34801561084157600080fd5b5061043d611fcf565b34801561085657600080fd5b5061085f611fd5565b60405180868152602001851515815260200184151581526020018060200180602001838103835285818151815260200191508051906020019080838360005b838110156108b657818101518382015260200161089e565b50505050905090810190601f1680156108e35780820380516001836020036101000a031916815260200191505b50838103825284518152845160209182019186019080838360005b838110156109165781810151838201526020016108fe565b50505050905090810190601f1680156109435780820380516001836020036101000a031916815260200191505b5097505050505050505060405180910390f35b34801561096257600080fd5b506104216004803603608081101561097957600080fd5b506001600160a01b03813581169160208101358216916040820135811691606001351661210e565b3480156109ad57600080fd5b5061043d6121f9565b3480156109c257600080fd5b50610421600480360360208110156109d957600080fd5b50356121ff565b3480156109ec57600080fd5b5061043d612230565b348015610a0157600080fd5b50610421612236565b348015610a1657600080fd5b5061043d60048036036020811015610a2d57600080fd5b50356001600160a01b03166123e6565b348015610a4957600080fd5b5061043d6123f8565b348015610a5e57600080fd5b5061043d6123fe565b348015610a7357600080fd5b50610676612404565b348015610a8857600080fd5b5061043d60048036036020811015610a9f57600080fd5b50356001600160a01b0316612413565b348015610abb57600080fd5b5061042160048036036020811015610ad257600080fd5b50351515612425565b348015610ae757600080fd5b5061043d6124a1565b348015610afc57600080fd5b506104216124a7565b348015610b1157600080fd5b5061043d612774565b348015610b2657600080fd5b5061043d61277a565b348015610b3b57600080fd5b5061042160048036036020811015610b5257600080fd5b50351515612780565b348015610b6757600080fd5b5061043d6127c8565b348015610b7c57600080fd5b5061043d6127ce565b348015610b9157600080fd5b5061042160048036036020811015610ba857600080fd5b50356127d4565b348015610bbb57600080fd5b50610421612826565b348015610bd057600080fd5b5061043d61298e565b348015610be557600080fd5b5061043d612994565b348015610bfa57600080fd5b5061043d61299a565b348015610c0f57600080fd5b5061048260048036036020811015610c2657600080fd5b50356001600160a01b03166129a0565b348015610c4257600080fd5b5061042160048036036020811015610c5957600080fd5b810190602081018135600160201b811115610c7357600080fd5b820183602082011115610c8557600080fd5b803590602001918460208302840111600160201b83111715610ca657600080fd5b5090925090506129b5565b348015610cbd57600080fd5b5061043d612a80565b348015610cd257600080fd5b50610421612a86565b348015610ce757600080fd5b50610676613094565b348015610cfc57600080fd5b506104826130a3565b348015610d1157600080fd5b5061042160048036036020811015610d2857600080fd5b810190602081018135600160201b811115610d4257600080fd5b820183602082011115610d5457600080fd5b803590602001918460208302840111600160201b83111715610d7557600080fd5b5090925090506130b3565b348015610d8c57600080fd5b5061043d613135565b348015610da157600080fd5b5061043d61313b565b348015610db657600080fd5b5061043d613141565b348015610dcb57600080fd5b5061043d613147565b610421610ee8565b348015610de857600080fd5b50610421600480360360a0811015610dff57600080fd5b8135916020810135151591604082013515159190810190608081016060820135600160201b811115610e3057600080fd5b820183602082011115610e4257600080fd5b803590602001918460018302840111600160201b83111715610e6357600080fd5b919390929091602081019035600160201b811115610e8057600080fd5b820183602082011115610e9257600080fd5b803590602001918460018302840111600160201b83111715610eb357600080fd5b50909250905061314d565b348015610eca57600080fd5b5061043d6131f4565b348015610edf57600080fd5b506106766131fa565b602954610100900460ff161580610f0e5750336000908152600a602052604090205460ff165b610f59576040805162461bcd60e51b81526020600482015260176024820152761059191c995cdcc81b9bdd081dda1a5d195b1a5cdd1959604a1b604482015290519081900360640190fd5b6029546301000000900460ff1615610fa4576040805162461bcd60e51b815260206004820152600960248201526810d85b98d95b1b195960ba1b604482015290519081900360640190fd5b602254602354118015610fbb575060245460235410155b610fff576040805162461bcd60e51b815260206004820152601060248201526f159bdd195cc81b9bdd081c185cdcd95960821b604482015290519081900360640190fd5b601b54421015611047576040805162461bcd60e51b815260206004820152600e60248201526d139bdd081e595d081bdc195b995960921b604482015290519081900360640190fd5b601c544210611086576040805162461bcd60e51b815260206004820152600660248201526510db1bdcd95960d21b604482015290519081900360640190fd5b601754601354106110d1576040805162461bcd60e51b815260206004820152601060248201526f12185c990818d85c081c995858da195960821b604482015290519081900360640190fd5b6000601554116110e057600080fd5b600034116110ed57600080fd5b600354604080516387cad0bf60e01b81523360048201529051600092839283926001600160a01b03909216916387cad0bf91602480820192606092909190829003018186803b15801561113f57600080fd5b505afa158015611153573d6000803e3d6000fd5b505050506040513d606081101561116957600080fd5b50805160208083015160409384015160048054865163469d7cd160e11b815296519599509297509095506000946001600160a01b0390921693638d3af9a29383830193909290829003018186803b1580156111c357600080fd5b505afa1580156111d7573d6000803e3d6000fd5b505050506040513d60208110156111ed57600080fd5b5051600480546040805163c408689360e01b81523393810193909352519293506000926001600160a01b039091169163c4086893916024808301926020929190829003018186803b15801561124157600080fd5b505afa158015611255573d6000803e3d6000fd5b505050506040513d602081101561126b57600080fd5b505190504284830111611285576112828186613209565b90505b60275481106113345760006112b260646112ac60285460165461326c90919063ffffffff16565b906132c5565b90506112e1670de0b6b3a76400006112ac6112d88460165461332c90919063ffffffff16565b6015549061326c565b34111561132e576040805162461bcd60e51b8152602060048201526016602482015275139bdd08195b9bdd59da081d1bdad95b9cc81b19599d60521b604482015290519081900360640190fd5b506113a4565b611357670de0b6b3a76400006112ac60165460155461326c90919063ffffffff16565b3411156113a4576040805162461bcd60e51b8152602060048201526016602482015275139bdd08195b9bdd59da081d1bdad95b9cc81b19599d60521b604482015290519081900360640190fd5b336000908152600960205260408120546113be9034613209565b9050601a54811015806113e757506017546113e190670de0b6b3a764000061332c565b60135410155b611438576040805162461bcd60e51b815260206004820152601a60248201527f4d696e20696e766573746d656e74206e6f742072656163686564000000000000604482015290519081900360640190fd5b601954158061144957506019548111155b611493576040805162461bcd60e51b815260206004820152601660248201527513585e081a5b9d995cdd1b595b9d081c995858da195960521b604482015290519081900360640190fd5b602654156114f2576026548210156114f2576040805162461bcd60e51b815260206004820152601960248201527f4e6f7420656e6f75676820584453206f6e206163636f756e7400000000000000604482015290519081900360640190fd5b3360009081526009602052604090205461151857601054611514906001613209565b6010555b6013546115259034613209565b60135533600090815260096020526040902081905561154f61154634613389565b6015549061332c565b601555505050505050565b600f5481565b600a6020526000908152604090205460ff1681565b60175481565b602c5481565b6000546001600160a01b03163314806115a457506001546001600160a01b031633145b6115ad57600080fd5b600280546001600160a01b039788166001600160a01b031991821617909155600c95909555600d93909355600e91909155600f5560038054919093169116179055565b60295462010000900460ff1681565b60306020526000908152604090205460ff1681565b6000546001600160a01b031633148061163757506001546001600160a01b031633145b61164057600080fd5b678ac7230489e8000081101561165557600080fd5b670de0b6b3a764000002602555565b60275481565b6007546001600160a01b031633148061168d57506000546001600160a01b031633145b6116cc576040805162461bcd60e51b815260206004820152601e6024820152600080516020613681833981519152604482015290519081900360640190fd5b600088116116d957600080fd5b600087116116e657600080fd5b600082116116f357600080fd5b6000811161170057600080fd5b6000861161170d57600080fd5b611717888861326c565b86111561172357600080fd5b8585111561173057600080fd5b8383111561173d57600080fd5b80821061174957600080fd5b6014889055601597909755601695909555601793909355601891909155601955601a55601b55601c55565b6007546001600160a01b031633148061179757506000546001600160a01b031633145b6117d6576040805162461bcd60e51b815260206004820152601e6024820152600080516020613681833981519152604482015290519081900360640190fd5b602a95909555602b93909355602d91909155602c55602e55602f55565b60165481565b60205481565b6007546001600160a01b031681565b6004546001600160a01b031681565b6001546001600160a01b031681565b6007546001600160a01b031633148061184f57506000546001600160a01b031633145b61188e576040805162461bcd60e51b815260206004820152601e6024820152600080516020613681833981519152604482015290519081900360640190fd5b6000841161189b57600080fd5b600083116118a857600080fd5b600082116118b557600080fd5b600081116118c257600080fd5b6000601c54116118d157600080fd5b601c548310156118e057600080fd5b601d93909355601e91909155601f55602055565b602954610100900460ff16158061191a5750336000908152600a602052604090205460ff165b611965576040805162461bcd60e51b81526020600482015260176024820152761059191c995cdcc81b9bdd081dda1a5d195b1a5cdd1959604a1b604482015290519081900360640190fd5b6029546301000000900460ff16156119b0576040805162461bcd60e51b815260206004820152600960248201526810d85b98d95b1b195960ba1b604482015290519081900360640190fd5b33600090815260096020526040902054611a03576040805162461bcd60e51b815260206004820152600f60248201526e2737ba1030b71034b73b32b9ba37b960891b604482015290519081900360640190fd5b336000908152600b602052604090205460ff1615611a68576040805162461bcd60e51b815260206004820152601b60248201527f416c726561647920636c61696d6564206f7220726566756e6465640000000000604482015290519081900360640190fd5b60295460ff16611abf576040805162461bcd60e51b815260206004820152601760248201527f4c6971756964697479206e6f7420796574206164646564000000000000000000604482015290519081900360640190fd5b336000818152600b60209081526040808320805460ff191660011790556005546009909252909120546001600160a01b03919091169163a9059cbb91611b0490613389565b6040518363ffffffff1660e01b815260040180836001600160a01b0316815260200182815260200192505050602060405180830381600087803b158015611b4a57600080fd5b505af1158015611b5e573d6000803e3d6000fd5b505050506040513d6020811015611b7457600080fd5b504790508015611bd15760008160115411611b9157601154611b93565b815b6007546040519192506001600160a01b03169082156108fc029083906000818181858888f19350505050158015611bce573d6000803e3d6000fd5b50505b50565b600e5481565b6029546301000000900460ff1615611c25576040805162461bcd60e51b815260206004820152600960248201526810d85b98d95b1b195960ba1b604482015290519081900360640190fd5b600354604080516387cad0bf60e01b81523360048201529051600092839283926001600160a01b03909216916387cad0bf91602480820192606092909190829003018186803b158015611c7757600080fd5b505afa158015611c8b573d6000803e3d6000fd5b505050506040513d6060811015611ca157600080fd5b50805160208083015160409384015160048054865163469d7cd160e11b815296519599509297509095506000946001600160a01b0390921693638d3af9a29383830193909290829003018186803b158015611cfb57600080fd5b505afa158015611d0f573d6000803e3d6000fd5b505050506040513d6020811015611d2557600080fd5b5051600480546040805163c408689360e01b81523393810193909352519293506000926001600160a01b039091169163c4086893916024808301926020929190829003018186803b158015611d7957600080fd5b505afa158015611d8d573d6000803e3d6000fd5b505050506040513d6020811015611da357600080fd5b505190504284830111611dbd57611dba8186613209565b90505b602554811015611e0d576040805162461bcd60e51b81526020600482015260166024820152754e6f7420656e6f7567682058445320746f20766f746560501b604482015290519081900360640190fd5b3360009081526021602052604090205415611e65576040805162461bcd60e51b8152602060048201526013602482015272159bdd1948185b1c9958591e4818d85cdd1959606a1b604482015290519081900360640190fd5b3360009081526021602052604090208190558515611e9257602354611e8a9082613209565b602355611ea3565b602254611e9f9082613209565b6022555b505050505050565b601f5481565b60125481565b602954610100900460ff1681565b601c5481565b6007546001600160a01b03163314611f20576040805162461bcd60e51b81526020600482015260136024820152722737ba10383932b9b0b6329031b932b0ba37b960691b604482015290519081900360640190fd5b60295460ff16611f2f57600080fd5b6029546301000000900460ff1615611f4657600080fd5b601254421015611f5557600080fd5b4715611f94576007546040516001600160a01b03909116904780156108fc02916000818181858888f19350505050158015611bd1573d6000803e3d6000fd5b565b6003546001600160a01b031681565b60295460ff1681565b60105481565b601d5481565b602b5481565b6006546001600160a01b031681565b60145481565b60318054603254603380546040805160206002610100600186161581026000190190951604601f8101829004820283018201909352828252959660ff8087169794909604909516949390929091908301828280156120745780601f1061204957610100808354040283529160200191612074565b820191906000526020600020905b81548152906001019060200180831161205757829003601f168201915b5050505060038301805460408051602060026001851615610100026000190190941693909304601f81018490048402820184019092528181529495949350908301828280156121045780601f106120d957610100808354040283529160200191612104565b820191906000526020600020905b8154815290600101906020018083116120e757829003601f168201915b5050505050905085565b6007546001600160a01b031633148061213157506000546001600160a01b031633145b612170576040805162461bcd60e51b815260206004820152601e6024820152600080516020613681833981519152604482015290519081900360640190fd5b6001600160a01b03841661218357600080fd5b6001600160a01b03831661219657600080fd5b6001600160a01b0381166121a957600080fd5b600780546001600160a01b039586166001600160a01b0319918216179091556005805494861694821694909417909355600680549285169284169290921790915560088054919093169116179055565b602e5481565b6000546001600160a01b031633148061222257506001546001600160a01b031633145b61222b57600080fd5b602655565b60285481565b6007546001600160a01b031633148061225957506001546001600160a01b031633145b6122aa576040805162461bcd60e51b815260206004820152601a60248201527f4e6f742070726573616c652063726561746f72206f7220646576000000000000604482015290519081900360640190fd5b60295460ff166122b957600080fd5b6029546301000000900460ff16156122d057600080fd5b60125462015180014210156122e457600080fd5b600554604080516370a0823160e01b815230600482015290516000926001600160a01b0316916370a08231916024808301926020929190829003018186803b15801561232f57600080fd5b505afa158015612343573d6000803e3d6000fd5b505050506040513d602081101561235957600080fd5b505190508015611bd1576005546008546040805163a9059cbb60e01b81526001600160a01b039283166004820152602481018590529051919092169163a9059cbb9160448083019260209291908290030181600087803b1580156123bc57600080fd5b505af11580156123d0573d6000803e3d6000fd5b505050506040513d6020811015611bce57600080fd5b60096020526000908152604090205481565b602d5481565b60195481565b6008546001600160a01b031681565b60216020526000908152604090205481565b6007546001600160a01b031633148061244857506000546001600160a01b031633145b612487576040805162461bcd60e51b815260206004820152601e6024820152600080516020613681833981519152604482015290519081900360640190fd5b602980549115156101000261ff0019909216919091179055565b60255481565b602954610100900460ff1615806124cd5750336000908152600a602052604090205460ff165b612518576040805162461bcd60e51b81526020600482015260176024820152761059191c995cdcc81b9bdd081dda1a5d195b1a5cdd1959604a1b604482015290519081900360640190fd5b3360009081526009602052604090205461256b576040805162461bcd60e51b815260206004820152600f60248201526e2737ba1030b71034b73b32b9ba37b960891b604482015290519081900360640190fd5b336000908152600b602052604090205460ff16156125d0576040805162461bcd60e51b815260206004820152601b60248201527f416c726561647920636c61696d6564206f7220726566756e6465640000000000604482015290519081900360640190fd5b6029546301000000900460ff1661270157601b54421015612629576040805162461bcd60e51b815260206004820152600e60248201526d139bdd081e595d081bdc195b995960921b604482015290519081900360640190fd5b601c54421015612671576040805162461bcd60e51b815260206004820152600e60248201526d139bdd081e595d0818db1bdcd95960921b604482015290519081900360640190fd5b6000601854116126b6576040805162461bcd60e51b815260206004820152600b60248201526a04e6f20736f6674206361760ac1b604482015290519081900360640190fd5b60185460135410612701576040805162461bcd60e51b815260206004820152601060248201526f14dbd99d0818d85c081c995858da195960821b604482015290519081900360640190fd5b336000908152600b60209081526040808320805460ff191660011790556009909152902054478061273157600080fd5b8082111561273d578091505b811561277057604051339083156108fc029084906000818181858888f19350505050158015611bce573d6000803e3d6000fd5b5050565b60155481565b601b5481565b6000546001600160a01b03163314806127a357506001546001600160a01b031633145b6127ac57600080fd5b60298054911515620100000262ff000019909216919091179055565b60225481565b60265481565b6000546001600160a01b03163314806127f757506001546001600160a01b031633145b61280057600080fd5b69021e19e0c9bab240000081101561281757600080fd5b670de0b6b3a764000002602455565b60295460ff1615801561284457506007546001600160a01b03163314155b801561285b57506001546001600160a01b03163314155b1561286557600080fd5b60295460ff16801561288257506001546001600160a01b03163314155b1561288c57600080fd5b6029546301000000900460ff16156128a357600080fd5b6029805463ff00000019166301000000179055600554604080516370a0823160e01b815230600482015290516000926001600160a01b0316916370a08231916024808301926020929190829003018186803b15801561290157600080fd5b505afa158015612915573d6000803e3d6000fd5b505050506040513d602081101561292b57600080fd5b505190508015611bd1576005546007546040805163a9059cbb60e01b81526001600160a01b039283166004820152602481018590529051919092169163a9059cbb9160448083019260209291908290030181600087803b1580156123bc57600080fd5b602a5481565b60135481565b602f5481565b600b6020526000908152604090205460ff1681565b6007546001600160a01b03163314806129d857506000546001600160a01b031633145b612a17576040805162461bcd60e51b815260206004820152601e6024820152600080516020613681833981519152604482015290519081900360640190fd5b6029805461ff0019168215156101000217905560005b81811015611bce576001600a6000858585818110612a4757fe5b602090810292909201356001600160a01b0316835250810191909152604001600020805460ff1916911515919091179055600101612a2d565b601e5481565b6029546301000000900460ff1615612ad1576040805162461bcd60e51b815260206004820152600960248201526810d85b98d95b1b195960ba1b604482015290519081900360640190fd5b600060135411612ae057600080fd5b60295460ff1615612b38576040805162461bcd60e51b815260206004820152601760248201527f4c697175696469747920616c7265616479206164646564000000000000000000604482015290519081900360640190fd5b602954610100900460ff161580612b5e5750336000908152600a602052604090205460ff165b80612b7357506007546001600160a01b031633145b612bae5760405162461bcd60e51b815260040180806020018281038252602681526020018061363a6026913960400191505060405180910390fd5b601754612bc390670de0b6b3a764000061332c565b60135410158015612bd55750601e5442105b15612c34576007546001600160a01b03163314612c2f576040805162461bcd60e51b81526020600482015260136024820152722737ba10383932b9b0b6329031b932b0ba37b960691b604482015290519081900360640190fd5b612d52565b601e544210612d05576007546001600160a01b0316331480612c6457503360009081526009602052604090205415155b612cb5576040805162461bcd60e51b815260206004820152601f60248201527f4e6f742070726573616c652063726561746f72206f7220696e766573746f7200604482015290519081900360640190fd5b6018546013541015612c2f576040805162461bcd60e51b815260206004820152601460248201527314dbd99d0818d85c081b9bdd081c995858da195960621b604482015290519081900360640190fd5b6040805162461bcd60e51b815260206004820152601d60248201527f4c69717569646974792063616e6e6f7420626520616464656420796574000000604482015290519081900360640190fd5b6029805460ff1916600117908190556013549060009062010000900460ff16612db7576000612d9160646112ac600c548661326c90919063ffffffff16565b9050600d54811180612da5575082600d5410155b612db157600d54612db3565b805b9150505b8015612e4a57612dc7828261332c565b6001546040519193506001600160a01b03169082156108fc029083906000818181858888f19350505050158015612e02573d6000803e3d6000fd5b50612e0d828261332c565b600080546040519294506001600160a01b03169183156108fc0291849190818181858888f19350505050158015612e48573d6000803e3d6000fd5b505b6000612e6660646112ac6020548661326c90919063ffffffff16565b90506000612e8b601d546112ac670de0b6b3a76400008561326c90919063ffffffff16565b90506000600460009054906101000a90046001600160a01b03166001600160a01b0316635a2b0c746040518163ffffffff1660e01b815260040160206040518083038186803b158015612edd57600080fd5b505afa158015612ef1573d6000803e3d6000fd5b505050506040513d6020811015612f0757600080fd5b50516005546040805163095ea7b360e01b81526001600160a01b03808516600483015260248201879052915193945091169163095ea7b3916044808201926020929091908290030181600087803b158015612f6157600080fd5b505af1158015612f75573d6000803e3d6000fd5b505050506040513d6020811015612f8b57600080fd5b50506005546002546001600160a01b038084169263f305d719928792918216918791600091829116612fbf42610384613209565b6040518863ffffffff1660e01b815260040180876001600160a01b03168152602001868152602001858152602001848152602001836001600160a01b0316815260200182815260200196505050505050506060604051808303818588803b15801561302957600080fd5b505af115801561303d573d6000803e3d6000fd5b50505050506040513d606081101561305457600080fd5b50506010546130819061306f90670de0b6b3a764000061326c565b6112ac47670de0b6b3a764000061326c565b6011555050506201518042016012555050565b6002546001600160a01b031681565b6029546301000000900460ff1681565b6000546001600160a01b03163314806130d657506001546001600160a01b031633145b6130df57600080fd5b60005b81811015611bce576001603060008585858181106130fc57fe5b602090810292909201356001600160a01b0316835250810191909152604001600020805460ff19169115159190911790556001016130e2565b60185481565b60245481565b60115481565b601a5481565b3360009081526030602052604090205460ff166131b1576040805162461bcd60e51b815260206004820152601f60248201527f41756469746f722041646472657373206e6f742077686974656c697374656400604482015290519081900360640190fd5b60318790556032805460ff19168715151761ff001916610100871515021790556131dd603385856135a6565b506131ea603483836135a6565b5050505050505050565b60235481565b6005546001600160a01b031681565b600082820183811015613263576040805162461bcd60e51b815260206004820152601b60248201527f536166654d6174683a206164646974696f6e206f766572666c6f770000000000604482015290519081900360640190fd5b90505b92915050565b60008261327b57506000613266565b8282028284828161328857fe5b04146132635760405162461bcd60e51b81526004018080602001828103825260218152602001806136606021913960400191505060405180910390fd5b600080821161331b576040805162461bcd60e51b815260206004820152601a60248201527f536166654d6174683a206469766973696f6e206279207a65726f000000000000604482015290519081900360640190fd5b81838161332457fe5b049392505050565b600082821115613383576040805162461bcd60e51b815260206004820152601e60248201527f536166654d6174683a207375627472616374696f6e206f766572666c6f770000604482015290519081900360640190fd5b50900390565b600354604080516387cad0bf60e01b815233600482015290516000928392839283926001600160a01b0316916387cad0bf916024808301926060929190829003018186803b1580156133da57600080fd5b505afa1580156133ee573d6000803e3d6000fd5b505050506040513d606081101561340457600080fd5b50805160208083015160409384015160048054865163469d7cd160e11b815296519599509297509095506000946001600160a01b0390921693638d3af9a29383830193909290829003018186803b15801561345e57600080fd5b505afa158015613472573d6000803e3d6000fd5b505050506040513d602081101561348857600080fd5b5051600480546040805163c408689360e01b81523393810193909352519293506000926001600160a01b039091169163c4086893916024808301926020929190829003018186803b1580156134dc57600080fd5b505afa1580156134f0573d6000803e3d6000fd5b505050506040513d602081101561350657600080fd5b5051905042848301116135205761351d8186613209565b90505b602754811061358057600061354760646112ac60285460165461326c90919063ffffffff16565b90506135736135618260165461332c90919063ffffffff16565b6112ac8a670de0b6b3a764000061326c565b96505050505050506135a1565b601654613599906112ac89670de0b6b3a764000061326c565b955050505050505b919050565b828054600181600116156101000203166002900490600052602060002090601f016020900481019282601f106135e75782800160ff19823516178555613614565b82800160010185558215613614579182015b828111156136145782358255916020019190600101906135f9565b50613620929150613624565b5090565b5b80821115613620576000815560010161362556fe4e6f742077686974656c6973746564206f72206e6f742070726573616c652063726561746f72536166654d6174683a206d756c7469706c69636174696f6e206f766572666c6f774e6f742070726573616c652063726561746f72206f7220666163746f72790000a26469706673582212201800d527d9d1677e8e417eb96298f01f390036378d4b75bca62ce8e2499ce07a64736f6c634300060c0033608060405234801561001057600080fd5b506040516108f93803806108f98339818101604052608081101561003357600080fd5b50805160208201516040830151606090930151919290918383838342831161008c5760405162461bcd60e51b81526004018080602001828103825260328152602001806108c76032913960400191505060405180910390fd5b600080546001600160a01b039586166001600160a01b031991821617909155600180549386169382169390931790925560039290925560028054929093169116179055505050506107e5806100e26000396000f3fe608060405234801561001057600080fd5b50600436106100625760003560e01c80631e9ac3c8146100675780632609854e1461007157806338af3eed1461009557806386d1a69f1461009d578063b91d4001146100a5578063fc0c546a146100bf575b600080fd5b61006f6100c7565b005b61007961023d565b604080516001600160a01b039092168252519081900360200190f35b61007961024c565b61006f61025b565b6100ad6103ce565b60408051918252519081900360200190f35b6100796103d4565b6003544210156101085760405162461bcd60e51b815260040180806020018281038252603281526020018061070b6032913960400191505060405180910390fd5b6001546001600160a01b03163314610167576040805162461bcd60e51b815260206004820152601c60248201527f4f6e6c792062656e65666963696172792063616e20617070726f766500000000604482015290519081900360640190fd5b60008054604080516370a0823160e01b815230600482015290516001600160a01b03909216916370a0823191602480820192602092909190829003018186803b1580156101b357600080fd5b505afa1580156101c7573d6000803e3d6000fd5b505050506040513d60208110156101dd57600080fd5b505190508061021d5760405162461bcd60e51b815260040180806020018281038252602381526020018061078d6023913960400191505060405180910390fd5b60025460005461023a916001600160a01b039182169116836103e3565b50565b6002546001600160a01b031690565b6001546001600160a01b031690565b60035442101561029c5760405162461bcd60e51b815260040180806020018281038252603281526020018061070b6032913960400191505060405180910390fd5b6001546001600160a01b031633146102fb576040805162461bcd60e51b815260206004820152601c60248201527f4f6e6c792062656e65666963696172792063616e20617070726f766500000000604482015290519081900360640190fd5b60008054604080516370a0823160e01b815230600482015290516001600160a01b03909216916370a0823191602480820192602092909190829003018186803b15801561034757600080fd5b505afa15801561035b573d6000803e3d6000fd5b505050506040513d602081101561037157600080fd5b50519050806103b15760405162461bcd60e51b815260040180806020018281038252602381526020018061078d6023913960400191505060405180910390fd5b60015460005461023a916001600160a01b039182169116836103e3565b60035490565b6000546001600160a01b031690565b604080516001600160a01b038416602482015260448082018490528251808303909101815260649091019091526020810180516001600160e01b031663a9059cbb60e01b17905261043590849061043a565b505050565b606061048f826040518060400160405280602081526020017f5361666545524332303a206c6f772d6c6576656c2063616c6c206661696c6564815250856001600160a01b03166104eb9092919063ffffffff16565b805190915015610435578080602001905160208110156104ae57600080fd5b50516104355760405162461bcd60e51b815260040180806020018281038252602a815260200180610763602a913960400191505060405180910390fd5b60606104fa8484600085610504565b90505b9392505050565b6060824710156105455760405162461bcd60e51b815260040180806020018281038252602681526020018061073d6026913960400191505060405180910390fd5b61054e85610660565b61059f576040805162461bcd60e51b815260206004820152601d60248201527f416464726573733a2063616c6c20746f206e6f6e2d636f6e7472616374000000604482015290519081900360640190fd5b60006060866001600160a01b031685876040518082805190602001908083835b602083106105de5780518252601f1990920191602091820191016105bf565b6001836020036101000a03801982511681845116808217855250505050505090500191505060006040518083038185875af1925050503d8060008114610640576040519150601f19603f3d011682016040523d82523d6000602084013e610645565b606091505b5091509150610655828286610666565b979650505050505050565b3b151590565b606083156106755750816104fd565b8251156106855782518084602001fd5b8160405162461bcd60e51b81526004018080602001828103825283818151815260200191508051906020019080838360005b838110156106cf5781810151838201526020016106b7565b50505050905090810190601f1680156106fc5780820380516001836020036101000a031916815260200191505b509250505060405180910390fdfe546f6b656e54696d656c6f636b3a2063757272656e742074696d65206973206265666f72652072656c656173652074696d65416464726573733a20696e73756666696369656e742062616c616e636520666f722063616c6c5361666545524332303a204552433230206f7065726174696f6e20646964206e6f742073756363656564546f6b656e54696d656c6f636b3a206e6f20746f6b656e7320746f2072656c65617365a2646970667358221220013f38aba9eb125454c9d94e4aa0d3be3740aef5964f0e21c17493d6b103e29864736f6c634300060c0033546f6b656e54696d656c6f636b3a2072656c656173652074696d65206973206265666f72652063757272656e742074696d65a264697066735822122074de3ef7b494a16cfbcec2cac1cbe995461366961982fd46f840db9da944ce5f64736f6c634300060c0033",
  "immutableReferences": {
    "1792": [
      {
        "length": 32,
        "start": 371
      },
      {
        "length": 32,
        "start": 427
      },
      {
        "length": 32,
        "start": 460
      },
      {
        "length": 32,
        "start": 605
      },
      {
        "length": 32,
        "start": 750
      },
      {
        "length": 32,
        "start": 1194
      },
      {
        "length": 32,
        "start": 1506
      },
      {
        "length": 32,
        "start": 1745
      },
      {
        "length": 32,
        "start": 2023
      },
      {
        "length": 32,
        "start": 2184
      },
      {
        "length": 32,
        "start": 2338
      },
      {
        "length": 32,
        "start": 2570
      },
      {
        "length": 32,
        "start": 2746
      },
      {
        "length": 32,
        "start": 2891
      },
      {
        "length": 32,
        "start": 3324
      },
      {
        "length": 32,
        "start": 3663
      },
      {
        "length": 32,
        "start": 3812
      },
      {
        "length": 32,
        "start": 3992
      },
      {
        "length": 32,
        "start": 4147
      },
      {
        "length": 32,
        "start": 5330
      }
    ]
  },
  "source": "// SPDX-License-Identifier: MIT\npragma solidity 0.6.12;\npragma experimental ABIEncoderV2;\n\nimport \"@openzeppelin/contracts/token/ERC20/IERC20.sol\";\nimport \"@openzeppelin/contracts/utils/ReentrancyGuard.sol\";\n\nimport \"./XDaiStarterPresale.sol\";\nimport \"./XDaiStarterInfo.sol\";\nimport \"./XDaiStarterLiquidityLock.sol\";\nimport \"./XDPToken.sol\";\nimport \"./XDaiStarterStaking.sol\";\n\n// Not used?\ninterface IHoneySwapV2Factory {\n    function getPair(address tokenA, address tokenB)\n        external\n        view\n        returns (address pair);\n}\n\ncontract XDaiStarterFactory is ReentrancyGuard {\n    using SafeMath for uint256;\n\n    event PresaleCreated(bytes32 title, uint256 xdsId, address creator);\n    event Received(address indexed from, uint256 amount);\n\n    XDaiStarterInfo public immutable XDS;\n    XDPToken public xdpToken;\n\n    XDaiStarterStaking public xdsStakingPool;\n\n    mapping(address => uint256) public lastClaimedTimestamp;\n\n    constructor(\n        address _xdpToken,\n        address _xdsInfoAddress,\n        address _xdsStakingPool\n    ) public {\n        xdpToken = XDPToken(_xdpToken);\n        XDS = XDaiStarterInfo(_xdsInfoAddress);\n        xdsStakingPool = XDaiStarterStaking(_xdsStakingPool);\n    }\n\n    receive() external payable {\n        emit Received(msg.sender, msg.value);\n    }\n\n    struct PresaleInfo {\n        address tokenAddress;\n        address unsoldTokensDumpAddress;\n        address[] whitelistedAddresses;\n        uint256 tokenPriceInWei;\n        uint256 hardCapInWei;\n        uint256 softCapInWei;\n        uint256 maxInvestInWei;\n        uint256 minInvestInWei;\n        uint256 openTime;\n        uint256 closeTime;\n    }\n\n    struct PresaleHoneySwapInfo {\n        uint256 listingPriceInWei;\n        uint256 liquidityAddingTime;\n        uint256 lpTokensLockDurationInDays;\n        uint256 liquidityPercentageAllocation;\n    }\n\n    struct PresaleStringInfo {\n        bytes32 saleTitle;\n        bytes32 linkTelegram;\n        bytes32 linkGithub;\n        bytes32 linkTwitter;\n        bytes32 linkWebsite;\n        bytes32 linkLogo;\n    }\n\n    // from @uniswap/v2-periphery/contracts/libraries/UniswapV2Library.sol\n    // returns sorted token addresses, used to handle return values from pairs sorted in this order\n    function sortTokens(address tokenA, address tokenB) internal pure returns (address token0, address token1) {\n        require(tokenA != tokenB, 'XDaiStarterFactory: IDENTICAL_ADDRESSES');\n        (token0, token1) = tokenA < tokenB ? (tokenA, tokenB) : (tokenB, tokenA);\n        require(token0 != address(0), 'XDaiStarterFactory: ZERO_ADDRESS');\n    }\n\n    // from @uniswap/v2-periphery/contracts/libraries/UniswapV2Library.sol\n    // calculates the CREATE2 address for a pair without making any external calls\n    function pairFor(address factory, address tokenA, address tokenB) internal pure returns (address pair) {\n        // tokens sorted within fxn above\n        (address token0, address token1) = sortTokens(tokenA, tokenB);\n        pair = address(uint(keccak256(abi.encodePacked(\n                hex'ff',\n                factory,\n                keccak256(abi.encodePacked(token0, token1)),\n                hex'3f88503e8580ab941773b59034fb4b2a63e86dbc031b3633a925533ad3ed2b93' // honeyswap init code hash\n            ))));\n    }\n\n    function initializePresale(\n        XDaiStarterPresale _presale,\n        uint256 _totalTokens,\n        uint256 _finalTokenPriceInWei,\n        PresaleInfo calldata _info,\n        PresaleHoneySwapInfo calldata _honeyInfo,\n        PresaleStringInfo calldata _stringInfo\n    ) internal {\n        _presale.setAddressInfo(\n            msg.sender,\n            _info.tokenAddress,\n            address(xdpToken),\n            _info.unsoldTokensDumpAddress\n        );\n        _presale.setGeneralInfo(\n            _totalTokens,\n            _finalTokenPriceInWei,\n            _info.hardCapInWei,\n            _info.softCapInWei,\n            _info.maxInvestInWei,\n            _info.minInvestInWei,\n            _info.openTime,\n            _info.closeTime\n        );\n        _presale.setHoneySwapInfo(\n            _honeyInfo.listingPriceInWei,\n            _honeyInfo.liquidityAddingTime,\n            _honeyInfo.lpTokensLockDurationInDays,\n            _honeyInfo.liquidityPercentageAllocation\n        );\n        _presale.setStringInfo(\n            _stringInfo.saleTitle,\n            _stringInfo.linkTelegram,\n            _stringInfo.linkGithub,\n            _stringInfo.linkTwitter,\n            _stringInfo.linkWebsite,\n            _stringInfo.linkLogo\n        );\n\n        _presale.addWhitelistedAddresses(_info.whitelistedAddresses);\n        _presale.setMinInvestorXDSBalance(XDS.getMinInvestorXDPBalance());\n    }\n\n    function createPresale(\n        PresaleInfo calldata _info,\n        PresaleHoneySwapInfo calldata _honeyInfo,\n        PresaleStringInfo calldata _stringInfo\n    ) external {\n        IERC20 token = IERC20(_info.tokenAddress);\n\n        XDaiStarterPresale presale =\n            new XDaiStarterPresale(\n                address(this),\n                address(XDS),\n                XDS.owner(),\n                XDS.getMinRewardQualifyBal(),\n                XDS.getMinRewardQualifyPercentage()\n            );\n\n        // What pool token on xDai?\n        uint256 maxXDaiPoolTokenAmount =\n            _info.hardCapInWei.mul(_honeyInfo.liquidityPercentageAllocation).div(100);\n        uint256 maxLiqPoolTokenAmount =\n            maxXDaiPoolTokenAmount.mul(1e18).div(_honeyInfo.listingPriceInWei);\n        uint256 maxTokensToBeSold =\n            _info.hardCapInWei.mul(1e18).div(_info.tokenPriceInWei);\n        uint256 requiredTokenAmount =\n            maxLiqPoolTokenAmount.add(maxTokensToBeSold);\n\n        token.transferFrom(msg.sender, address(presale), requiredTokenAmount);\n\n        uint256 presaleGrantId;\n        if (\n            xdpToken.balanceOf(address(this)) >= XDS.getPresaleGrantAmount() // Factory must own grant XDP\n        ) {\n            // locked incubator bonus XDS tokens if presale succeeds\n            XDaiStarterLiquidityLock incubatorLock =\n                new XDaiStarterLiquidityLock(\n                    xdpToken,\n                    _honeyInfo.liquidityAddingTime + 30 days,\n                    XDS.getIncubatorMsigAddress(),\n                    msg.sender\n                );\n            xdpToken.transfer(\n                address(incubatorLock),\n                XDS.getPresaleGrantAmount()\n            );\n            presaleGrantId = XDS.addPresaleGrantAddress(\n                address(incubatorLock)\n            );\n        }\n\n        initializePresale(\n            presale,\n            maxTokensToBeSold,\n            _info.tokenPriceInWei,\n            _info,\n            _honeyInfo,\n            _stringInfo\n        );\n\n        IHoneySwapV2Factory honeySwapFactory =\n            IHoneySwapV2Factory(XDS.getHoneySwapFactory());\n\n        address pairAddress =\n            pairFor(\n                address(honeySwapFactory),\n                address(token),\n                XDS.getWxDai()\n            );\n        XDaiStarterLiquidityLock liquidityLock =\n            new XDaiStarterLiquidityLock(\n                IERC20(pairAddress),\n                _honeyInfo.liquidityAddingTime +\n                    (_honeyInfo.lpTokensLockDurationInDays * 1 days),\n                msg.sender,\n                address(0)\n            );\n\n        uint256 xdsId = XDS.addPresaleAddress(address(presale));\n        presale.setXdsInfo(\n            address(liquidityLock),\n            XDS.getDevFeePercentage(),\n            XDS.getMinDevFeeInWei(),\n            xdsId,\n            presaleGrantId,\n            address(xdsStakingPool)\n        );\n\n        emit PresaleCreated(_stringInfo.saleTitle, xdsId, msg.sender);\n    }\n\n    function claimHodlerFund() external nonReentrant {\n        require(address(this).balance > 0, \"No rewards to claim\");\n        require(\n            lastClaimedTimestamp[msg.sender] + XDS.getMinClaimTime() <=\n                block.timestamp,\n            \"Invalid Claim Time\"\n        );\n\n        uint256 balance;\n        uint256 lastStakedTimestamp;\n        uint256 lastUnstakedTimestamp;\n        (balance, lastStakedTimestamp, lastUnstakedTimestamp) = xdsStakingPool\n            .accountInfos(msg.sender);\n        uint256 minStakeTime = XDS.getMinStakeTime();\n        uint256 totalHodlerBalance = XDS.getLockedBalance(msg.sender);\n\n        if (lastStakedTimestamp + minStakeTime <= block.timestamp) {\n            totalHodlerBalance = totalHodlerBalance.add(balance);\n        }\n\n        require(\n            totalHodlerBalance >= XDS.getMinRewardQualifyBal() &&\n                totalHodlerBalance <= XDS.getMaxRewardQualifyBal(),\n            \"Do not qualify for rewards\"\n        );\n        lastClaimedTimestamp[msg.sender] = block.timestamp;\n        msg.sender.transfer(\n            totalHodlerBalance.div(xdpToken.totalSupply()).mul(\n                address(this).balance\n            )\n        );\n    }\n}",
  "sourcePath": "/Users/macuser/Documents/Projects/Programming/xDaiStarterParent/xDaiStarter/contracts/XDaiStarterFactory.sol",
  "compiler": {
    "name": "solc",
    "version": "0.6.12+commit.27d51765.Emscripten.clang"
  },
  "schemaVersion": "3.3.4",
  "updatedAt": "2021-04-28T04:56:18.888Z",
  "devdoc": {
    "kind": "dev",
    "methods": {},
    "version": 1
  },
  "userdoc": {
    "kind": "user",
    "methods": {},
    "version": 1
  }
}