{
  "contractName": "XDaiStarterLiquidityLock",
  "abi": [
    {
      "inputs": [
        {
          "internalType": "contract IERC20",
          "name": "_token",
          "type": "address"
        },
        {
          "internalType": "uint256",
          "name": "_releaseTime",
          "type": "uint256"
        },
        {
          "internalType": "address",
          "name": "primaryBeneficiary",
          "type": "address"
        },
        {
          "internalType": "address",
          "name": "secondaryBeneficiary",
          "type": "address"
        }
      ],
      "stateMutability": "nonpayable",
      "type": "constructor"
    },
    {
      "inputs": [],
      "name": "beneficiary",
      "outputs": [
        {
          "internalType": "address",
          "name": "",
          "type": "address"
        }
      ],
      "stateMutability": "view",
      "type": "function"
    },
    {
      "inputs": [],
      "name": "release",
      "outputs": [],
      "stateMutability": "nonpayable",
      "type": "function"
    },
    {
      "inputs": [],
      "name": "releaseSecondary",
      "outputs": [],
      "stateMutability": "nonpayable",
      "type": "function"
    },
    {
      "inputs": [],
      "name": "releaseTime",
      "outputs": [
        {
          "internalType": "uint256",
          "name": "",
          "type": "uint256"
        }
      ],
      "stateMutability": "view",
      "type": "function"
    },
    {
      "inputs": [],
      "name": "secondaryBeneficiary",
      "outputs": [
        {
          "internalType": "address",
          "name": "",
          "type": "address"
        }
      ],
      "stateMutability": "view",
      "type": "function"
    },
    {
      "inputs": [],
      "name": "token",
      "outputs": [
        {
          "internalType": "contract IERC20",
          "name": "",
          "type": "address"
        }
      ],
      "stateMutability": "view",
      "type": "function"
    }
  ],
  "bytecode": "0x608060405234801561001057600080fd5b506040516108f93803806108f98339818101604052608081101561003357600080fd5b50805160208201516040830151606090930151919290918383838342831161008c5760405162461bcd60e51b81526004018080602001828103825260328152602001806108c76032913960400191505060405180910390fd5b600080546001600160a01b039586166001600160a01b031991821617909155600180549386169382169390931790925560039290925560028054929093169116179055505050506107e5806100e26000396000f3fe608060405234801561001057600080fd5b50600436106100625760003560e01c80631e9ac3c8146100675780632609854e1461007157806338af3eed1461009557806386d1a69f1461009d578063b91d4001146100a5578063fc0c546a146100bf575b600080fd5b61006f6100c7565b005b61007961023d565b604080516001600160a01b039092168252519081900360200190f35b61007961024c565b61006f61025b565b6100ad6103ce565b60408051918252519081900360200190f35b6100796103d4565b6003544210156101085760405162461bcd60e51b815260040180806020018281038252603281526020018061070b6032913960400191505060405180910390fd5b6001546001600160a01b03163314610167576040805162461bcd60e51b815260206004820152601c60248201527f4f6e6c792062656e65666963696172792063616e20617070726f766500000000604482015290519081900360640190fd5b60008054604080516370a0823160e01b815230600482015290516001600160a01b03909216916370a0823191602480820192602092909190829003018186803b1580156101b357600080fd5b505afa1580156101c7573d6000803e3d6000fd5b505050506040513d60208110156101dd57600080fd5b505190508061021d5760405162461bcd60e51b815260040180806020018281038252602381526020018061078d6023913960400191505060405180910390fd5b60025460005461023a916001600160a01b039182169116836103e3565b50565b6002546001600160a01b031690565b6001546001600160a01b031690565b60035442101561029c5760405162461bcd60e51b815260040180806020018281038252603281526020018061070b6032913960400191505060405180910390fd5b6001546001600160a01b031633146102fb576040805162461bcd60e51b815260206004820152601c60248201527f4f6e6c792062656e65666963696172792063616e20617070726f766500000000604482015290519081900360640190fd5b60008054604080516370a0823160e01b815230600482015290516001600160a01b03909216916370a0823191602480820192602092909190829003018186803b15801561034757600080fd5b505afa15801561035b573d6000803e3d6000fd5b505050506040513d602081101561037157600080fd5b50519050806103b15760405162461bcd60e51b815260040180806020018281038252602381526020018061078d6023913960400191505060405180910390fd5b60015460005461023a916001600160a01b039182169116836103e3565b60035490565b6000546001600160a01b031690565b604080516001600160a01b038416602482015260448082018490528251808303909101815260649091019091526020810180516001600160e01b031663a9059cbb60e01b17905261043590849061043a565b505050565b606061048f826040518060400160405280602081526020017f5361666545524332303a206c6f772d6c6576656c2063616c6c206661696c6564815250856001600160a01b03166104eb9092919063ffffffff16565b805190915015610435578080602001905160208110156104ae57600080fd5b50516104355760405162461bcd60e51b815260040180806020018281038252602a815260200180610763602a913960400191505060405180910390fd5b60606104fa8484600085610504565b90505b9392505050565b6060824710156105455760405162461bcd60e51b815260040180806020018281038252602681526020018061073d6026913960400191505060405180910390fd5b61054e85610660565b61059f576040805162461bcd60e51b815260206004820152601d60248201527f416464726573733a2063616c6c20746f206e6f6e2d636f6e7472616374000000604482015290519081900360640190fd5b60006060866001600160a01b031685876040518082805190602001908083835b602083106105de5780518252601f1990920191602091820191016105bf565b6001836020036101000a03801982511681845116808217855250505050505090500191505060006040518083038185875af1925050503d8060008114610640576040519150601f19603f3d011682016040523d82523d6000602084013e610645565b606091505b5091509150610655828286610666565b979650505050505050565b3b151590565b606083156106755750816104fd565b8251156106855782518084602001fd5b8160405162461bcd60e51b81526004018080602001828103825283818151815260200191508051906020019080838360005b838110156106cf5781810151838201526020016106b7565b50505050905090810190601f1680156106fc5780820380516001836020036101000a031916815260200191505b509250505060405180910390fdfe546f6b656e54696d656c6f636b3a2063757272656e742074696d65206973206265666f72652072656c656173652074696d65416464726573733a20696e73756666696369656e742062616c616e636520666f722063616c6c5361666545524332303a204552433230206f7065726174696f6e20646964206e6f742073756363656564546f6b656e54696d656c6f636b3a206e6f20746f6b656e7320746f2072656c65617365a2646970667358221220013f38aba9eb125454c9d94e4aa0d3be3740aef5964f0e21c17493d6b103e29864736f6c634300060c0033546f6b656e54696d656c6f636b3a2072656c656173652074696d65206973206265666f72652063757272656e742074696d65",
  "immutableReferences": {},
  "source": "// SPDX-License-Identifier: MIT\npragma solidity 0.6.12;\n\nimport \"./TokenTimeLock.sol\";\n\ncontract XDaiStarterLiquidityLock is TokenTimelock {\n    constructor(\n        IERC20 _token,\n        uint256 _releaseTime,\n        address primaryBeneficiary,\n        address secondaryBeneficiary\n    ) public TokenTimelock(_token, _releaseTime, primaryBeneficiary, secondaryBeneficiary) {}\n}",
  "sourcePath": "/Users/macuser/Documents/Projects/Programming/xDaiStarterParent/xDaiStarter/contracts/XDaiStarterLiquidityLock.sol",
  "compiler": {
    "name": "solc",
    "version": "0.6.12+commit.27d51765.Emscripten.clang"
  },
  "schemaVersion": "3.3.4",
  "updatedAt": "2021-04-28T04:56:18.914Z",
  "devdoc": {
    "kind": "dev",
    "methods": {
      "beneficiary()": {
        "returns": {
          "_0": "the beneficiary of the tokens."
        }
      },
      "releaseTime()": {
        "returns": {
          "_0": "the time when the tokens are released."
        }
      },
      "secondaryBeneficiary()": {
        "returns": {
          "_0": "the secondary beneficiary of the tokens."
        }
      },
      "token()": {
        "returns": {
          "_0": "the token being held."
        }
      }
    },
    "version": 1
  },
  "userdoc": {
    "kind": "user",
    "methods": {
      "release()": {
        "notice": "Transfers tokens held by timelock to beneficiary."
      },
      "releaseSecondary()": {
        "notice": "Transfers tokens held by timelock to beneficiary."
      }
    },
    "version": 1
  }
}