{
  "contractName": "XDPresale",
  "abi": [
    {
      "inputs": [
        {
          "internalType": "address",
          "name": "_xdsDevAddress",
          "type": "address"
        }
      ],
      "stateMutability": "nonpayable",
      "type": "constructor"
    },
    {
      "inputs": [],
      "name": "auditInformation",
      "outputs": [
        {
          "internalType": "bytes32",
          "name": "auditor",
          "type": "bytes32"
        },
        {
          "internalType": "bool",
          "name": "isVerified",
          "type": "bool"
        },
        {
          "internalType": "bool",
          "name": "isWarning",
          "type": "bool"
        },
        {
          "internalType": "string",
          "name": "verifiedHash",
          "type": "string"
        },
        {
          "internalType": "string",
          "name": "warningHash",
          "type": "string"
        }
      ],
      "stateMutability": "view",
      "type": "function"
    },
    {
      "inputs": [
        {
          "internalType": "address",
          "name": "",
          "type": "address"
        }
      ],
      "name": "auditorWhitelistedAddresses",
      "outputs": [
        {
          "internalType": "bool",
          "name": "",
          "type": "bool"
        }
      ],
      "stateMutability": "view",
      "type": "function"
    },
    {
      "inputs": [],
      "name": "claimAllowed",
      "outputs": [
        {
          "internalType": "bool",
          "name": "",
          "type": "bool"
        }
      ],
      "stateMutability": "view",
      "type": "function"
    },
    {
      "inputs": [],
      "name": "claimCycle",
      "outputs": [
        {
          "internalType": "uint256",
          "name": "",
          "type": "uint256"
        }
      ],
      "stateMutability": "view",
      "type": "function"
    },
    {
      "inputs": [
        {
          "internalType": "address",
          "name": "",
          "type": "address"
        }
      ],
      "name": "claimed",
      "outputs": [
        {
          "internalType": "uint256",
          "name": "",
          "type": "uint256"
        }
      ],
      "stateMutability": "view",
      "type": "function"
    },
    {
      "inputs": [],
      "name": "closeTime",
      "outputs": [
        {
          "internalType": "uint256",
          "name": "",
          "type": "uint256"
        }
      ],
      "stateMutability": "view",
      "type": "function"
    },
    {
      "inputs": [],
      "name": "hardCapInWei",
      "outputs": [
        {
          "internalType": "uint256",
          "name": "",
          "type": "uint256"
        }
      ],
      "stateMutability": "view",
      "type": "function"
    },
    {
      "inputs": [],
      "name": "honeyLiquidityAddingTime",
      "outputs": [
        {
          "internalType": "uint256",
          "name": "",
          "type": "uint256"
        }
      ],
      "stateMutability": "view",
      "type": "function"
    },
    {
      "inputs": [
        {
          "internalType": "address",
          "name": "",
          "type": "address"
        }
      ],
      "name": "investments",
      "outputs": [
        {
          "internalType": "uint256",
          "name": "",
          "type": "uint256"
        }
      ],
      "stateMutability": "view",
      "type": "function"
    },
    {
      "inputs": [],
      "name": "isAudited",
      "outputs": [
        {
          "internalType": "bool",
          "name": "",
          "type": "bool"
        }
      ],
      "stateMutability": "view",
      "type": "function"
    },
    {
      "inputs": [],
      "name": "linkGithub",
      "outputs": [
        {
          "internalType": "bytes32",
          "name": "",
          "type": "bytes32"
        }
      ],
      "stateMutability": "view",
      "type": "function"
    },
    {
      "inputs": [],
      "name": "linkLogo",
      "outputs": [
        {
          "internalType": "bytes32",
          "name": "",
          "type": "bytes32"
        }
      ],
      "stateMutability": "view",
      "type": "function"
    },
    {
      "inputs": [],
      "name": "linkTelegram",
      "outputs": [
        {
          "internalType": "bytes32",
          "name": "",
          "type": "bytes32"
        }
      ],
      "stateMutability": "view",
      "type": "function"
    },
    {
      "inputs": [],
      "name": "linkTwitter",
      "outputs": [
        {
          "internalType": "bytes32",
          "name": "",
          "type": "bytes32"
        }
      ],
      "stateMutability": "view",
      "type": "function"
    },
    {
      "inputs": [],
      "name": "linkWebsite",
      "outputs": [
        {
          "internalType": "bytes32",
          "name": "",
          "type": "bytes32"
        }
      ],
      "stateMutability": "view",
      "type": "function"
    },
    {
      "inputs": [],
      "name": "maxInvestInWei",
      "outputs": [
        {
          "internalType": "uint256",
          "name": "",
          "type": "uint256"
        }
      ],
      "stateMutability": "view",
      "type": "function"
    },
    {
      "inputs": [],
      "name": "minInvestInWei",
      "outputs": [
        {
          "internalType": "uint256",
          "name": "",
          "type": "uint256"
        }
      ],
      "stateMutability": "view",
      "type": "function"
    },
    {
      "inputs": [],
      "name": "openTime",
      "outputs": [
        {
          "internalType": "uint256",
          "name": "",
          "type": "uint256"
        }
      ],
      "stateMutability": "view",
      "type": "function"
    },
    {
      "inputs": [],
      "name": "presaleCancelled",
      "outputs": [
        {
          "internalType": "bool",
          "name": "",
          "type": "bool"
        }
      ],
      "stateMutability": "view",
      "type": "function"
    },
    {
      "inputs": [],
      "name": "refundAllowed",
      "outputs": [
        {
          "internalType": "bool",
          "name": "",
          "type": "bool"
        }
      ],
      "stateMutability": "view",
      "type": "function"
    },
    {
      "inputs": [],
      "name": "saleTitle",
      "outputs": [
        {
          "internalType": "bytes32",
          "name": "",
          "type": "bytes32"
        }
      ],
      "stateMutability": "view",
      "type": "function"
    },
    {
      "inputs": [],
      "name": "softCapInWei",
      "outputs": [
        {
          "internalType": "uint256",
          "name": "",
          "type": "uint256"
        }
      ],
      "stateMutability": "view",
      "type": "function"
    },
    {
      "inputs": [],
      "name": "token",
      "outputs": [
        {
          "internalType": "contract IERC20",
          "name": "",
          "type": "address"
        }
      ],
      "stateMutability": "view",
      "type": "function"
    },
    {
      "inputs": [],
      "name": "tokenPriceInWei",
      "outputs": [
        {
          "internalType": "uint256",
          "name": "",
          "type": "uint256"
        }
      ],
      "stateMutability": "view",
      "type": "function"
    },
    {
      "inputs": [],
      "name": "tokensLeft",
      "outputs": [
        {
          "internalType": "uint256",
          "name": "",
          "type": "uint256"
        }
      ],
      "stateMutability": "view",
      "type": "function"
    },
    {
      "inputs": [],
      "name": "totalCollectedWei",
      "outputs": [
        {
          "internalType": "uint256",
          "name": "",
          "type": "uint256"
        }
      ],
      "stateMutability": "view",
      "type": "function"
    },
    {
      "inputs": [],
      "name": "totalInvestorsCount",
      "outputs": [
        {
          "internalType": "uint256",
          "name": "",
          "type": "uint256"
        }
      ],
      "stateMutability": "view",
      "type": "function"
    },
    {
      "inputs": [],
      "name": "totalTokens",
      "outputs": [
        {
          "internalType": "uint256",
          "name": "",
          "type": "uint256"
        }
      ],
      "stateMutability": "view",
      "type": "function"
    },
    {
      "inputs": [],
      "name": "unsoldTokensDumpAddress",
      "outputs": [
        {
          "internalType": "address",
          "name": "",
          "type": "address"
        }
      ],
      "stateMutability": "view",
      "type": "function"
    },
    {
      "inputs": [
        {
          "internalType": "address",
          "name": "",
          "type": "address"
        }
      ],
      "name": "whitelistedAddresses",
      "outputs": [
        {
          "internalType": "bool",
          "name": "",
          "type": "bool"
        }
      ],
      "stateMutability": "view",
      "type": "function"
    },
    {
      "inputs": [],
      "name": "xdsDevAddress",
      "outputs": [
        {
          "internalType": "address payable",
          "name": "",
          "type": "address"
        }
      ],
      "stateMutability": "view",
      "type": "function"
    },
    {
      "stateMutability": "payable",
      "type": "receive"
    },
    {
      "inputs": [
        {
          "internalType": "address",
          "name": "_tokenAddress",
          "type": "address"
        },
        {
          "internalType": "address",
          "name": "_unsoldTokensDumpAddress",
          "type": "address"
        }
      ],
      "name": "setAddressInfo",
      "outputs": [],
      "stateMutability": "nonpayable",
      "type": "function"
    },
    {
      "inputs": [
        {
          "internalType": "uint256",
          "name": "_totalTokens",
          "type": "uint256"
        },
        {
          "internalType": "uint256",
          "name": "_tokenPriceInWei",
          "type": "uint256"
        },
        {
          "internalType": "uint256",
          "name": "_hardCapInWei",
          "type": "uint256"
        },
        {
          "internalType": "uint256",
          "name": "_softCapInWei",
          "type": "uint256"
        },
        {
          "internalType": "uint256",
          "name": "_maxInvestInWei",
          "type": "uint256"
        },
        {
          "internalType": "uint256",
          "name": "_minInvestInWei",
          "type": "uint256"
        },
        {
          "internalType": "uint256",
          "name": "_openTime",
          "type": "uint256"
        },
        {
          "internalType": "uint256",
          "name": "_closeTime",
          "type": "uint256"
        }
      ],
      "name": "setGeneralInfo",
      "outputs": [],
      "stateMutability": "nonpayable",
      "type": "function"
    },
    {
      "inputs": [
        {
          "internalType": "bytes32",
          "name": "_saleTitle",
          "type": "bytes32"
        },
        {
          "internalType": "bytes32",
          "name": "_linkTelegram",
          "type": "bytes32"
        },
        {
          "internalType": "bytes32",
          "name": "_linkGithub",
          "type": "bytes32"
        },
        {
          "internalType": "bytes32",
          "name": "_linkTwitter",
          "type": "bytes32"
        },
        {
          "internalType": "bytes32",
          "name": "_linkWebsite",
          "type": "bytes32"
        },
        {
          "internalType": "bytes32",
          "name": "_linkLogo",
          "type": "bytes32"
        }
      ],
      "name": "setStringInfo",
      "outputs": [],
      "stateMutability": "nonpayable",
      "type": "function"
    },
    {
      "inputs": [
        {
          "internalType": "bytes32",
          "name": "_auditor",
          "type": "bytes32"
        },
        {
          "internalType": "bool",
          "name": "_isVerified",
          "type": "bool"
        },
        {
          "internalType": "bool",
          "name": "_isWarning",
          "type": "bool"
        },
        {
          "internalType": "string",
          "name": "_verifiedHash",
          "type": "string"
        },
        {
          "internalType": "string",
          "name": "_warningHash",
          "type": "string"
        }
      ],
      "name": "setAuditorInfo",
      "outputs": [],
      "stateMutability": "nonpayable",
      "type": "function"
    },
    {
      "inputs": [
        {
          "internalType": "address[]",
          "name": "_whitelistedAddresses",
          "type": "address[]"
        }
      ],
      "name": "addWhitelistedAddresses",
      "outputs": [],
      "stateMutability": "nonpayable",
      "type": "function"
    },
    {
      "inputs": [
        {
          "internalType": "address[]",
          "name": "_whitelistedAddresses",
          "type": "address[]"
        }
      ],
      "name": "addAuditorWhitelistedAddresses",
      "outputs": [],
      "stateMutability": "nonpayable",
      "type": "function"
    },
    {
      "inputs": [
        {
          "internalType": "bool",
          "name": "_refundAllowed",
          "type": "bool"
        }
      ],
      "name": "setRefundAllowed",
      "outputs": [],
      "stateMutability": "nonpayable",
      "type": "function"
    },
    {
      "inputs": [
        {
          "internalType": "uint256",
          "name": "_honeyLiquidityAddingTime",
          "type": "uint256"
        }
      ],
      "name": "allowClaim",
      "outputs": [],
      "stateMutability": "nonpayable",
      "type": "function"
    },
    {
      "inputs": [
        {
          "internalType": "uint256",
          "name": "_claimCycle",
          "type": "uint256"
        }
      ],
      "name": "setClaimCycle",
      "outputs": [],
      "stateMutability": "nonpayable",
      "type": "function"
    },
    {
      "inputs": [],
      "name": "invest",
      "outputs": [],
      "stateMutability": "payable",
      "type": "function"
    },
    {
      "inputs": [],
      "name": "transferUnsoldTokens",
      "outputs": [],
      "stateMutability": "nonpayable",
      "type": "function"
    },
    {
      "inputs": [],
      "name": "claimTokens",
      "outputs": [],
      "stateMutability": "nonpayable",
      "type": "function"
    },
    {
      "inputs": [],
      "name": "getRefund",
      "outputs": [],
      "stateMutability": "nonpayable",
      "type": "function"
    },
    {
      "inputs": [],
      "name": "cancelAndTransferTokensToDev",
      "outputs": [],
      "stateMutability": "nonpayable",
      "type": "function"
    },
    {
      "inputs": [],
      "name": "collectFundsRaised",
      "outputs": [],
      "stateMutability": "nonpayable",
      "type": "function"
    }
  ],
  "bytecode": "0x608060405262278d006012556013805463ffffffff1916905534801561002457600080fd5b50604051611f75380380611f758339818101604052602081101561004757600080fd5b50516001600160a01b03811661005c57600080fd5b600080546001600160a01b039092166001600160a01b0319909216919091179055611ee98061008c6000396000f3fe6080604052600436106102815760003560e01c806396b988621161014f578063c6a42669116100c1578063d6c86b1b1161007a578063d6c86b1b14610934578063e861e34d14610949578063e8b5e51f1461095e578063ebc9afcc14610966578063f59eb57514610a48578063fc0c546a14610a5d57610290565b8063c6a42669146107cc578063c884ef83146107e1578063ca2cfc2014610814578063cc9fb9fd1461088f578063d5933c2c146108a4578063d64d3138146108b957610290565b8063b2d5ae4411610113578063b2d5ae441461074e578063b31f8f9314610763578063b425688814610778578063bc89ff2b1461078d578063c502b13b146107a2578063c51d16b6146107b757610290565b806396b98862146106c75780639767b58c146106fa5780639fa1eccc1461070f578063a2460d2e14610724578063b13aaebd1461073957610290565b806341038a77116101f357806374458306116101ac578063744583061461053d578063762789a8146105525780637e1c0c091461057c5780637f0feacc14610591578063872f0b971461069d57806389771dd8146106b257610290565b806341038a771461047d57806345af6115146104ae57806348c54b9d146104e9578063627749e6146104fe5780636cb96287146105135780637275ae141461052857610290565b80631c194ba9116102455780631c194ba9146103605780631c3cb177146103b5578063245fc183146103e15780632b24a8781461040b5780632f8de810146104535780633fa911ae1461046857610290565b806306c933d8146102955780630ca99ca8146102dc5780630cdc1fc5146103035780630ce40c8f1461031857806316bc4f0e1461032d57610290565b366102905761028e610a72565b005b600080fd5b3480156102a157600080fd5b506102c8600480360360208110156102b857600080fd5b50356001600160a01b0316610d62565b604080519115158252519081900360200190f35b3480156102e857600080fd5b506102f1610d77565b60408051918252519081900360200190f35b34801561030f57600080fd5b506102f1610d7d565b34801561032457600080fd5b5061028e610d83565b34801561033957600080fd5b506102c86004803603602081101561035057600080fd5b50356001600160a01b0316610edb565b34801561036c57600080fd5b5061028e600480360361010081101561038457600080fd5b5080359060208101359060408101359060608101359060808101359060a08101359060c08101359060e00135610ef0565b3480156103c157600080fd5b5061028e600480360360208110156103d857600080fd5b50351515610faf565b3480156103ed57600080fd5b5061028e6004803603602081101561040457600080fd5b5035610fe0565b34801561041757600080fd5b5061028e600480360360c081101561042e57600080fd5b5080359060208101359060408101359060608101359060808101359060a00135610ffc565b34801561045f57600080fd5b506102f1611030565b34801561047457600080fd5b506102c8611036565b34801561048957600080fd5b50610492611044565b604080516001600160a01b039092168252519081900360200190f35b3480156104ba57600080fd5b5061028e600480360360408110156104d157600080fd5b506001600160a01b0381358116916020013516611053565b3480156104f557600080fd5b5061028e6110be565b34801561050a57600080fd5b506102f16113e5565b34801561051f57600080fd5b5061028e6113eb565b34801561053457600080fd5b506102f1611454565b34801561054957600080fd5b506102f161145a565b34801561055e57600080fd5b5061028e6004803603602081101561057557600080fd5b5035611460565b34801561058857600080fd5b506102f16114b8565b34801561059d57600080fd5b506105a66114be565b60405180868152602001851515815260200184151581526020018060200180602001838103835285818151815260200191508051906020019080838360005b838110156105fd5781810151838201526020016105e5565b50505050905090810190601f16801561062a5780820380516001836020036101000a031916815260200191505b50838103825284518152845160209182019186019080838360005b8381101561065d578181015183820152602001610645565b50505050905090810190601f16801561068a5780820380516001836020036101000a031916815260200191505b5097505050505050505060405180910390f35b3480156106a957600080fd5b506102c86115f7565b3480156106be57600080fd5b506102f1611606565b3480156106d357600080fd5b506102f1600480360360208110156106ea57600080fd5b50356001600160a01b031661160c565b34801561070657600080fd5b506102f161161e565b34801561071b57600080fd5b506102f1611624565b34801561073057600080fd5b5061049261162a565b34801561074557600080fd5b506102f1611639565b34801561075a57600080fd5b5061028e61163f565b34801561076f57600080fd5b506102f161192d565b34801561078457600080fd5b506102f1611933565b34801561079957600080fd5b506102c8611939565b3480156107ae57600080fd5b506102f1611949565b3480156107c357600080fd5b506102f161194f565b3480156107d857600080fd5b506102f1611955565b3480156107ed57600080fd5b506102f16004803603602081101561080457600080fd5b50356001600160a01b031661195b565b34801561082057600080fd5b5061028e6004803603602081101561083757600080fd5b810190602081018135600160201b81111561085157600080fd5b82018360208201111561086357600080fd5b803590602001918460208302840111600160201b8311171561088457600080fd5b50909250905061196d565b34801561089b57600080fd5b506102f16119da565b3480156108b057600080fd5b506102c86119e0565b3480156108c557600080fd5b5061028e600480360360208110156108dc57600080fd5b810190602081018135600160201b8111156108f657600080fd5b82018360208201111561090857600080fd5b803590602001918460208302840111600160201b8311171561092957600080fd5b5090925090506119e9565b34801561094057600080fd5b506102f1611a56565b34801561095557600080fd5b506102f1611a5c565b61028e610a72565b34801561097257600080fd5b5061028e600480360360a081101561098957600080fd5b8135916020810135151591604082013515159190810190608081016060820135600160201b8111156109ba57600080fd5b8201836020820111156109cc57600080fd5b803590602001918460018302840111600160201b831117156109ed57600080fd5b919390929091602081019035600160201b811115610a0a57600080fd5b820183602082011115610a1c57600080fd5b803590602001918460018302840111600160201b83111715610a3d57600080fd5b509092509050611a62565b348015610a5457600080fd5b5061028e611b09565b348015610a6957600080fd5b50610492611c52565b3360009081526004602052604090205460ff16610ad0576040805162461bcd60e51b81526020600482015260176024820152761059191c995cdcc81b9bdd081dda1a5d195b1a5cdd1959604a1b604482015290519081900360640190fd5b60135460ff1615610b14576040805162461bcd60e51b815260206004820152600960248201526810d85b98d95b1b195960ba1b604482015290519081900360640190fd5b600f54421015610b5c576040805162461bcd60e51b815260206004820152600e60248201526d139bdd081e595d081bdc195b995960921b604482015290519081900360640190fd5b6010544210610b9b576040805162461bcd60e51b815260206004820152600660248201526510db1bdcd95960d21b604482015290519081900360640190fd5b600b5460075410610be6576040805162461bcd60e51b815260206004820152601060248201526f12185c990818d85c081c995858da195960821b604482015290519081900360640190fd5b600060095411610bf557600080fd5b600a54600954610c0491611c61565b341115610c1057600080fd5b33600090815260036020526040812054610c2a9034611cc3565b9050600e5481101580610c535750600b54610c4d90670de0b6b3a7640000611d1d565b60075410155b610ca4576040805162461bcd60e51b815260206004820152601a60248201527f4d696e20696e766573746d656e74206e6f742072656163686564000000000000604482015290519081900360640190fd5b600d541580610cb55750600d548111155b610cff576040805162461bcd60e51b815260206004820152601660248201527513585e081a5b9d995cdd1b595b9d081c995858da195960521b604482015290519081900360640190fd5b33600090815260036020526040902054610d2557600654610d21906001611cc3565b6006555b600754610d329034611cc3565b600755336000908152600360205260409020819055610d5c610d5334611d7a565b60095490611d1d565b60095550565b60046020526000908152604090205460ff1681565b600b5481565b60165481565b6000546001600160a01b03163314610d9a57600080fd5b6000546001600160a01b03163314610db157600080fd5b60135460ff1615610dc157600080fd5b6013805460ff1916600190811790915554604080516370a0823160e01b815230600482015290516000926001600160a01b0316916370a08231916024808301926020929190829003018186803b158015610e1a57600080fd5b505afa158015610e2e573d6000803e3d6000fd5b505050506040513d6020811015610e4457600080fd5b505190508015610ed857600154600080546040805163a9059cbb60e01b81526001600160a01b039283166004820152602481018690529051919093169263a9059cbb9260448083019360209390929083900390910190829087803b158015610eab57600080fd5b505af1158015610ebf573d6000803e3d6000fd5b505050506040513d6020811015610ed557600080fd5b50505b50565b601a6020526000908152604090205460ff1681565b6000546001600160a01b03163314610f0757600080fd5b60008811610f1457600080fd5b60008711610f2157600080fd5b60008211610f2e57600080fd5b60008111610f3b57600080fd5b60008611610f4857600080fd5b610f528888611c61565b861115610f5e57600080fd5b85851115610f6b57600080fd5b83831115610f7857600080fd5b808210610f8457600080fd5b6008889055600997909755600a95909555600b93909355600c91909155600d55600e55600f55601055565b6000546001600160a01b03163314610fc657600080fd5b601380549115156101000261ff0019909216919091179055565b6000546001600160a01b03163314610ff757600080fd5b601255565b6000546001600160a01b0316331461101357600080fd5b601495909555601593909355601791909155601655601855601955565b600a5481565b601354610100900460ff1681565b6000546001600160a01b031681565b6000546001600160a01b0316331461106a57600080fd5b6001600160a01b03821661107d57600080fd5b6001600160a01b03811661109057600080fd5b600180546001600160a01b039384166001600160a01b03199182161790915560028054929093169116179055565b3360009081526004602052604090205460ff1661111c576040805162461bcd60e51b81526020600482015260176024820152761059191c995cdcc81b9bdd081dda1a5d195b1a5cdd1959604a1b604482015290519081900360640190fd5b60135460ff1615611160576040805162461bcd60e51b815260206004820152600960248201526810d85b98d95b1b195960ba1b604482015290519081900360640190fd5b336000908152600360205260409020546111b3576040805162461bcd60e51b815260206004820152600f60248201526e2737ba1030b71034b73b32b9ba37b960891b604482015290519081900360640190fd5b600060115442101580156111cc57506012546011540142105b156111d5575060015b6012546011540142101580156111f357506012546002026011540142105b156111fc575060025b60125460020260115401421015801561121d57506012546003026011540142105b15611226575060035b60125460030260115401421061123a575060045b60008111611285576040805162461bcd60e51b8152602060048201526013602482015272131a5cdd1a5b99c81b9bdd081cdd185c9d1959606a1b604482015290519081900360640190fd5b3360009081526005602052604090205481116112e8576040805162461bcd60e51b815260206004820152601b60248201527f416c726561647920636c61696d6564206f7220726566756e6465640000000000604482015290519081900360640190fd5b60135462010000900460ff1661133b576040805162461bcd60e51b815260206004820152601360248201527210db185a5b481a5cc8191a5cd85b1b1bddd959606a1b604482015290519081900360640190fd5b33600090815260056020526040902054611356906001611cc3565b336000818152600560209081526040808320949094556001546003909152929020546001600160a01b039092169163a9059cbb919061139f9061139a906004611d98565b611d7a565b6040518363ffffffff1660e01b815260040180836001600160a01b0316815260200182815260200192505050602060405180830381600087803b158015610eab57600080fd5b60105481565b6000546001600160a01b0316331461140257600080fd5b60135460ff161561141257600080fd5b471561145257600080546040516001600160a01b03909116914780156108fc02929091818181858888f19350505050158015610ed8573d6000803e3d6000fd5b565b60065481565b60155481565b6000546001600160a01b0316331461147757600080fd5b6000811161148457600080fd5b60006010541161149357600080fd5b6010548110156114a257600080fd5b6013805462ff0000191662010000179055601155565b60085481565b601b8054601c54601d80546040805160206002610100600186161581026000190190951604601f8101829004820283018201909352828252959660ff80871697949096049095169493909290919083018282801561155d5780601f106115325761010080835404028352916020019161155d565b820191906000526020600020905b81548152906001019060200180831161154057829003601f168201915b5050505060038301805460408051602060026001851615610100026000190190941693909304601f81018490048402820184019092528181529495949350908301828280156115ed5780601f106115c2576101008083540402835291602001916115ed565b820191906000526020600020905b8154815290600101906020018083116115d057829003601f168201915b5050505050905085565b60135462010000900460ff1681565b60185481565b60036020526000908152604090205481565b60175481565b600d5481565b6002546001600160a01b031681565b60125481565b3360009081526004602052604090205460ff1661169d576040805162461bcd60e51b81526020600482015260176024820152761059191c995cdcc81b9bdd081dda1a5d195b1a5cdd1959604a1b604482015290519081900360640190fd5b336000908152600360205260409020546116f0576040805162461bcd60e51b815260206004820152600f60248201526e2737ba1030b71034b73b32b9ba37b960891b604482015290519081900360640190fd5b601354610100900460ff16611743576040805162461bcd60e51b81526020600482015260146024820152731499599d5b99081a5cc8191a5cd85b1b1bddd95960621b604482015290519081900360640190fd5b60135460ff166118c157600f54421015611795576040805162461bcd60e51b815260206004820152600e60248201526d139bdd081e595d081bdc195b995960921b604482015290519081900360640190fd5b6010544210156117dd576040805162461bcd60e51b815260206004820152600e60248201526d139bdd081e595d0818db1bdcd95960921b604482015290519081900360640190fd5b6000600c5411611822576040805162461bcd60e51b815260206004820152600b60248201526a04e6f20736f6674206361760ac1b604482015290519081900360640190fd5b600c546007541061186d576040805162461bcd60e51b815260206004820152601060248201526f14dbd99d0818d85c081c995858da195960821b604482015290519081900360640190fd5b33600090815260056020526040902054156118c1576040805162461bcd60e51b815260206004820152600f60248201526e105b1c9958591e4818db185a5b5959608a1b604482015290519081900360640190fd5b33600090815260056020908152604080832060049055600390915290205447806118ea57600080fd5b808211156118f6578091505b811561192957604051339083156108fc029084906000818181858888f19350505050158015610ed5573d6000803e3d6000fd5b5050565b60095481565b600f5481565b6013546301000000900460ff1681565b60145481565b60075481565b60195481565b60056020526000908152604090205481565b6000546001600160a01b0316331461198457600080fd5b60005b81811015610ed5576001600460008585858181106119a157fe5b602090810292909201356001600160a01b0316835250810191909152604001600020805460ff1916911515919091179055600101611987565b60115481565b60135460ff1681565b6000546001600160a01b03163314611a0057600080fd5b60005b81811015610ed5576001601a6000858585818110611a1d57fe5b602090810292909201356001600160a01b0316835250810191909152604001600020805460ff1916911515919091179055600101611a03565b600c5481565b600e5481565b336000908152601a602052604090205460ff16611ac6576040805162461bcd60e51b815260206004820152601f60248201527f41756469746f722041646472657373206e6f742077686974656c697374656400604482015290519081900360640190fd5b601b879055601c805460ff19168715151761ff00191661010087151502179055611af2601d8585611dff565b50611aff601e8383611dff565b5050505050505050565b6000546001600160a01b03163314611b2057600080fd5b60135460ff1615611b64576040805162461bcd60e51b815260206004820152600960248201526810d85b98d95b1b195960ba1b604482015290519081900360640190fd5b6000611bf1611b74600754611d7a565b600154604080516370a0823160e01b815230600482015290516001600160a01b03909216916370a0823191602480820192602092909190829003018186803b158015611bbf57600080fd5b505afa158015611bd3573d6000803e3d6000fd5b505050506040513d6020811015611be957600080fd5b505190611d1d565b90508015610ed8576001546002546040805163a9059cbb60e01b81526001600160a01b039283166004820152602481018590529051919092169163a9059cbb9160448083019260209291908290030181600087803b158015610eab57600080fd5b6001546001600160a01b031681565b600082611c7057506000611cbd565b82820282848281611c7d57fe5b0414611cba5760405162461bcd60e51b8152600401808060200182810382526021815260200180611e936021913960400191505060405180910390fd5b90505b92915050565b600082820183811015611cba576040805162461bcd60e51b815260206004820152601b60248201527f536166654d6174683a206164646974696f6e206f766572666c6f770000000000604482015290519081900360640190fd5b600082821115611d74576040805162461bcd60e51b815260206004820152601e60248201527f536166654d6174683a207375627472616374696f6e206f766572666c6f770000604482015290519081900360640190fd5b50900390565b600a54600090611cbd90611d9684670de0b6b3a7640000611c61565b905b6000808211611dee576040805162461bcd60e51b815260206004820152601a60248201527f536166654d6174683a206469766973696f6e206279207a65726f000000000000604482015290519081900360640190fd5b818381611df757fe5b049392505050565b828054600181600116156101000203166002900490600052602060002090601f016020900481019282601f10611e405782800160ff19823516178555611e6d565b82800160010185558215611e6d579182015b82811115611e6d578235825591602001919060010190611e52565b50611e79929150611e7d565b5090565b5b80821115611e795760008155600101611e7e56fe536166654d6174683a206d756c7469706c69636174696f6e206f766572666c6f77a2646970667358221220c4650327f793b7ed5d2554bf27fe5888f5f5db5c5204c03dcddde3148022faf964736f6c634300060c0033",
  "immutableReferences": {},
  "source": "// SPDX-License-Identifier: MIT\npragma solidity 0.6.12;\n\nimport \"@openzeppelin/contracts/math/SafeMath.sol\";\nimport \"@openzeppelin/contracts/token/ERC20/IERC20.sol\";\n\ncontract XDPresale {\n    using SafeMath for uint256;\n\n    address payable public xdsDevAddress; // address of contract dev\n\n    IERC20 public token; // token that will be sold\n    address public unsoldTokensDumpAddress; // address where unsold tokens will be transferred to\n\n    mapping(address => uint256) public investments; // total wei invested per address\n    mapping(address => bool) public whitelistedAddresses; // addresses eligible in presale\n    mapping(address => uint256) public claimed; // if claimed=1, first period is claimed, claimed=2, second period is claimed, claimed=0, nothing claimed.\n\n    uint256 public totalInvestorsCount; // total investors count\n    uint256 public totalCollectedWei; // total wei collected\n    uint256 public totalTokens; // total tokens to be sold\n    uint256 public tokensLeft; // available tokens to be sold\n    uint256 public tokenPriceInWei; // token presale wei price per 1 token\n    uint256 public hardCapInWei; // maximum wei amount that can be invested in presale\n    uint256 public softCapInWei; // minimum wei amount to invest in presale, if not met, invested wei will be returned\n    uint256 public maxInvestInWei; // maximum wei amount that can be invested per wallet address\n    uint256 public minInvestInWei; // minimum wei amount that can be invested per wallet address\n    uint256 public openTime; // time when presale starts, investing is allowed\n    uint256 public closeTime; // time when presale closes, investing is not allowed\n    uint256 public honeyLiquidityAddingTime; // time when adding of liquidity in HoneySwap starts, investors can claim their tokens afterwards\n\n    uint256 public claimCycle = 30 days;\n\n    bool public presaleCancelled = false; // if true, investing will not be allowed, investors can withdraw, presale creator can withdraw their tokens\n    bool public refundAllowed = false; // if true, investor can get refund his investment.\n    bool public claimAllowed = false; // if true, investory can claim tokens.\n\n    bool public isAudited = false; // if true, it's passed, false, it's not failed.\n    bytes32 public saleTitle;\n    bytes32 public linkTelegram;\n    bytes32 public linkTwitter;\n    bytes32 public linkGithub;\n    bytes32 public linkWebsite;\n    bytes32 public linkLogo;\n\n    mapping(address => bool) public auditorWhitelistedAddresses; // addresses eligible to perform audit\n    struct AuditorInfo {\n        bytes32 auditor; // auditor name\n        bool isVerified; // if true -> passed, false -> failed\n        bool isWarning; // if true -> warning, false -> no warning\n        string verifiedHash; // stores content of audit summary (actual text)\n        string warningHash; // stores content of warnings\n    }\n\n    AuditorInfo public auditInformation;\n\n    constructor(address _xdsDevAddress) public {\n        require(_xdsDevAddress != address(0));\n\n        xdsDevAddress = payable(_xdsDevAddress);\n    }\n\n    modifier onlyXdsDev() {\n        require(xdsDevAddress == msg.sender);\n        _;\n    }\n\n    modifier whitelistedAddressOnly() {\n        require(\n            whitelistedAddresses[msg.sender],\n            \"Address not whitelisted\"\n        );\n        _;\n    }\n\n    modifier presaleIsNotCancelled() {\n        require(!presaleCancelled, \"Cancelled\");\n        _;\n    }\n\n    modifier investorOnly() {\n        require(investments[msg.sender] > 0, \"Not an investor\");\n        _;\n    }\n\n    modifier isValidClaimPeriod() {\n        uint256 currentPeriod = 0;\n        if (\n            now >= honeyLiquidityAddingTime &&\n            now < honeyLiquidityAddingTime + claimCycle\n        ) {\n            currentPeriod = 1;\n        }\n        if (\n            now >= honeyLiquidityAddingTime + claimCycle &&\n            now < honeyLiquidityAddingTime + claimCycle * 2\n        ) {\n            currentPeriod = 2;\n        }\n        if (\n            now >= honeyLiquidityAddingTime + claimCycle * 2 &&\n            now < honeyLiquidityAddingTime + claimCycle * 3\n        ) {\n            currentPeriod = 3;\n        }\n        if (now >= honeyLiquidityAddingTime + claimCycle * 3) {\n            currentPeriod = 4;\n        }\n        require(currentPeriod > 0, \"Listing not started\");\n\n        require(\n            claimed[msg.sender] < currentPeriod,\n            \"Already claimed or refunded\"\n        );\n        _;\n    }\n\n    modifier onlyRefundAllowed() {\n        require(refundAllowed, \"Refund is disallowed\");\n        _;\n    }\n\n    modifier onlyClaimAllowed() {\n        require(claimAllowed, \"Claim is disallowed\");\n        _;\n    }\n\n    modifier whitelistedAuditorOnly() {\n        require(\n            auditorWhitelistedAddresses[msg.sender],\n            \"Auditor Address not whitelisted\"\n        );\n        _;\n    }\n\n    function setAddressInfo(\n        address _tokenAddress,\n        address _unsoldTokensDumpAddress\n    ) external onlyXdsDev {\n        require(_tokenAddress != address(0));\n        require(_unsoldTokensDumpAddress != address(0));\n\n        token = IERC20(_tokenAddress);\n        unsoldTokensDumpAddress = _unsoldTokensDumpAddress;\n    }\n\n    function setGeneralInfo(\n        uint256 _totalTokens,\n        uint256 _tokenPriceInWei,\n        uint256 _hardCapInWei,\n        uint256 _softCapInWei,\n        uint256 _maxInvestInWei,\n        uint256 _minInvestInWei,\n        uint256 _openTime,\n        uint256 _closeTime\n    ) external onlyXdsDev {\n        require(_totalTokens > 0);\n        require(_tokenPriceInWei > 0);\n        require(_openTime > 0);\n        require(_closeTime > 0);\n        require(_hardCapInWei > 0);\n\n        // Hard cap > (token amount * token price)\n        require(_hardCapInWei <= _totalTokens.mul(_tokenPriceInWei));\n        // Soft cap > to hard cap\n        require(_softCapInWei <= _hardCapInWei);\n        //  Min. wei investment > max. wei investment\n        require(_minInvestInWei <= _maxInvestInWei);\n        // Open time >= close time\n        require(_openTime < _closeTime);\n\n        totalTokens = _totalTokens;\n        tokensLeft = _totalTokens;\n        tokenPriceInWei = _tokenPriceInWei;\n        hardCapInWei = _hardCapInWei;\n        softCapInWei = _softCapInWei;\n        maxInvestInWei = _maxInvestInWei;\n        minInvestInWei = _minInvestInWei;\n        openTime = _openTime;\n        closeTime = _closeTime;\n    }\n\n    function setStringInfo(\n        bytes32 _saleTitle,\n        bytes32 _linkTelegram,\n        bytes32 _linkGithub,\n        bytes32 _linkTwitter,\n        bytes32 _linkWebsite,\n        bytes32 _linkLogo\n    ) external onlyXdsDev {\n        saleTitle = _saleTitle;\n        linkTelegram = _linkTelegram;\n        linkGithub = _linkGithub;\n        linkTwitter = _linkTwitter;\n        linkWebsite = _linkWebsite;\n        linkLogo = _linkLogo;\n    }\n\n    function setAuditorInfo(\n        bytes32 _auditor,\n        bool _isVerified,\n        bool _isWarning,\n        string calldata _verifiedHash,\n        string calldata _warningHash\n    ) external whitelistedAuditorOnly {\n        auditInformation.auditor = _auditor;\n        auditInformation.isVerified = _isVerified;\n        auditInformation.isWarning = _isWarning;\n        auditInformation.verifiedHash = _verifiedHash;\n        auditInformation.warningHash = _warningHash;\n    }\n\n    function addWhitelistedAddresses(address[] calldata _whitelistedAddresses)\n        external\n        onlyXdsDev\n    {\n        for (uint256 i = 0; i < _whitelistedAddresses.length; i++) {\n            whitelistedAddresses[_whitelistedAddresses[i]] = true;\n        }\n    }\n\n    function addAuditorWhitelistedAddresses(\n        address[] calldata _whitelistedAddresses\n    ) external onlyXdsDev {\n        for (uint256 i = 0; i < _whitelistedAddresses.length; i++) {\n            auditorWhitelistedAddresses[_whitelistedAddresses[i]] = true;\n        }\n    }\n\n    function setRefundAllowed(bool _refundAllowed)\n        external\n        onlyXdsDev\n    {\n        refundAllowed = _refundAllowed;\n    }\n\n    function allowClaim(uint256 _honeyLiquidityAddingTime) external onlyXdsDev {\n        require(_honeyLiquidityAddingTime > 0);\n        require(closeTime > 0);\n        require(_honeyLiquidityAddingTime >= closeTime);\n\n        claimAllowed = true;\n        honeyLiquidityAddingTime = _honeyLiquidityAddingTime;\n    }\n\n    function setClaimCycle(uint256 _claimCycle)\n        external\n        onlyXdsDev\n    {\n        claimCycle = _claimCycle;\n    }\n\n    function getTokenAmount(uint256 _weiAmount)\n        internal\n        view\n        returns (uint256)\n    {\n        return _weiAmount.mul(1e18).div(tokenPriceInWei);\n    }\n\n    function invest()\n        public\n        payable\n        whitelistedAddressOnly\n        presaleIsNotCancelled\n    {\n        require(block.timestamp >= openTime, \"Not yet opened\");\n        require(block.timestamp < closeTime, \"Closed\");\n        require(totalCollectedWei < hardCapInWei, \"Hard cap reached\");\n        require(tokensLeft > 0);\n        require(msg.value <= tokensLeft.mul(tokenPriceInWei)); // not enough XDP left to satisfy order\n        uint256 totalInvestmentInWei = investments[msg.sender].add(msg.value);\n        require(\n            totalInvestmentInWei >= minInvestInWei ||\n                totalCollectedWei >= hardCapInWei.sub(1 ether),\n                // investors can buy less than the minimum investment when presale is within 1 ether of the hardcap\n            \"Min investment not reached\"\n        );\n        require(\n            maxInvestInWei == 0 || // no maximum\n            totalInvestmentInWei <= maxInvestInWei,\n            \"Max investment reached\"\n        );\n\n        if (investments[msg.sender] == 0) {\n            totalInvestorsCount = totalInvestorsCount.add(1);\n        }\n\n        totalCollectedWei = totalCollectedWei.add(msg.value); // total investment in the whole presale\n        investments[msg.sender] = totalInvestmentInWei; // total investment from this sender\n        tokensLeft = tokensLeft.sub(getTokenAmount(msg.value));\n    }\n\n    receive() external payable {\n        invest();\n    }\n\n    function transferUnsoldTokens()\n        external\n        onlyXdsDev\n        presaleIsNotCancelled\n    {\n        uint256 unsoldTokensAmount =\n            token.balanceOf(address(this)).sub(\n                getTokenAmount(totalCollectedWei)\n            );\n        if (unsoldTokensAmount > 0) {\n            token.transfer(unsoldTokensDumpAddress, unsoldTokensAmount);\n        }\n    }\n\n    function claimTokens()\n        external\n        whitelistedAddressOnly\n        presaleIsNotCancelled\n        investorOnly\n        isValidClaimPeriod\n        onlyClaimAllowed\n    {\n        claimed[msg.sender] = claimed[msg.sender].add(1); // make sure this goes first before transfer to prevent reentrancy\n        token.transfer(\n            msg.sender,\n            getTokenAmount(investments[msg.sender].div(4))\n        );\n    }\n\n    function getRefund()\n        external\n        whitelistedAddressOnly\n        investorOnly\n        onlyRefundAllowed\n    {\n        if (!presaleCancelled) {\n            require(block.timestamp >= openTime, \"Not yet opened\");\n            require(block.timestamp >= closeTime, \"Not yet closed\");\n            require(softCapInWei > 0, \"No soft cap\");\n            require(totalCollectedWei < softCapInWei, \"Soft cap reached\");\n            require(claimed[msg.sender] == 0, \"Already claimed\");\n        }\n\n        claimed[msg.sender] = 4; // make sure this goes first before transfer to prevent reentrancy\n        uint256 investment = investments[msg.sender];\n        uint256 presaleBalance = address(this).balance;\n        require(presaleBalance > 0);\n\n        if (investment > presaleBalance) {\n            investment = presaleBalance;\n        }\n\n        if (investment > 0) {\n            msg.sender.transfer(investment);\n        }\n    }\n\n    function cancelAndTransferTokensToDev() external onlyXdsDev {\n        if (xdsDevAddress != msg.sender) {\n            revert();\n        }\n\n        require(!presaleCancelled);\n        presaleCancelled = true;\n\n        uint256 balance = token.balanceOf(address(this));\n        if (balance > 0) {\n            token.transfer(xdsDevAddress, balance);\n        }\n    }\n\n    function collectFundsRaised() external onlyXdsDev {\n        require(!presaleCancelled);\n\n        if (address(this).balance > 0) {\n            xdsDevAddress.transfer(address(this).balance);\n        }\n    }\n}",
  "sourcePath": "/Users/macuser/Documents/Projects/Programming/xDaiStarterParent/xDaiStarter/contracts/XDPresale.sol",
  "compiler": {
    "name": "solc",
    "version": "0.6.12+commit.27d51765.Emscripten.clang"
  },
  "schemaVersion": "3.3.4",
  "updatedAt": "2021-04-28T04:56:18.829Z",
  "devdoc": {
    "kind": "dev",
    "methods": {},
    "version": 1
  },
  "userdoc": {
    "kind": "user",
    "methods": {},
    "version": 1
  }
}