{
  "contractName": "XDSTVesting",
  "abi": [
    {
      "inputs": [],
      "stateMutability": "nonpayable",
      "type": "constructor"
    },
    {
      "anonymous": false,
      "inputs": [
        {
          "indexed": false,
          "internalType": "address",
          "name": "SentToAddress",
          "type": "address"
        },
        {
          "indexed": false,
          "internalType": "uint256",
          "name": "AmountTransferred",
          "type": "uint256"
        }
      ],
      "name": "LogWithdrawal",
      "type": "event"
    },
    {
      "anonymous": false,
      "inputs": [
        {
          "indexed": true,
          "internalType": "address",
          "name": "previousOwner",
          "type": "address"
        },
        {
          "indexed": true,
          "internalType": "address",
          "name": "newOwner",
          "type": "address"
        }
      ],
      "name": "OwnershipTransferred",
      "type": "event"
    },
    {
      "inputs": [
        {
          "internalType": "uint256",
          "name": "",
          "type": "uint256"
        }
      ],
      "name": "allDepositIds",
      "outputs": [
        {
          "internalType": "uint256",
          "name": "",
          "type": "uint256"
        }
      ],
      "stateMutability": "view",
      "type": "function"
    },
    {
      "inputs": [],
      "name": "depositId",
      "outputs": [
        {
          "internalType": "uint256",
          "name": "",
          "type": "uint256"
        }
      ],
      "stateMutability": "view",
      "type": "function"
    },
    {
      "inputs": [
        {
          "internalType": "address",
          "name": "",
          "type": "address"
        },
        {
          "internalType": "uint256",
          "name": "",
          "type": "uint256"
        }
      ],
      "name": "depositsByWithdrawalAddress",
      "outputs": [
        {
          "internalType": "uint256",
          "name": "",
          "type": "uint256"
        }
      ],
      "stateMutability": "view",
      "type": "function"
    },
    {
      "inputs": [
        {
          "internalType": "uint256",
          "name": "",
          "type": "uint256"
        }
      ],
      "name": "lockedToken",
      "outputs": [
        {
          "internalType": "address",
          "name": "tokenAddress",
          "type": "address"
        },
        {
          "internalType": "address",
          "name": "withdrawalAddress",
          "type": "address"
        },
        {
          "internalType": "uint256",
          "name": "tokenAmount",
          "type": "uint256"
        },
        {
          "internalType": "uint256",
          "name": "unlockTime",
          "type": "uint256"
        },
        {
          "internalType": "bool",
          "name": "withdrawn",
          "type": "bool"
        }
      ],
      "stateMutability": "view",
      "type": "function"
    },
    {
      "inputs": [],
      "name": "owner",
      "outputs": [
        {
          "internalType": "address",
          "name": "",
          "type": "address"
        }
      ],
      "stateMutability": "view",
      "type": "function"
    },
    {
      "inputs": [],
      "name": "renounceOwnership",
      "outputs": [],
      "stateMutability": "nonpayable",
      "type": "function"
    },
    {
      "inputs": [
        {
          "internalType": "address",
          "name": "newOwner",
          "type": "address"
        }
      ],
      "name": "transferOwnership",
      "outputs": [],
      "stateMutability": "nonpayable",
      "type": "function"
    },
    {
      "inputs": [
        {
          "internalType": "address",
          "name": "",
          "type": "address"
        },
        {
          "internalType": "address",
          "name": "",
          "type": "address"
        }
      ],
      "name": "walletTokenBalance",
      "outputs": [
        {
          "internalType": "uint256",
          "name": "",
          "type": "uint256"
        }
      ],
      "stateMutability": "view",
      "type": "function"
    },
    {
      "inputs": [
        {
          "internalType": "address",
          "name": "_tokenAddress",
          "type": "address"
        },
        {
          "internalType": "uint256",
          "name": "_amount",
          "type": "uint256"
        },
        {
          "internalType": "uint256",
          "name": "_unlockTime",
          "type": "uint256"
        }
      ],
      "name": "lockTokens",
      "outputs": [
        {
          "internalType": "uint256",
          "name": "_id",
          "type": "uint256"
        }
      ],
      "stateMutability": "nonpayable",
      "type": "function"
    },
    {
      "inputs": [
        {
          "internalType": "uint256",
          "name": "_id",
          "type": "uint256"
        }
      ],
      "name": "withdrawTokens",
      "outputs": [],
      "stateMutability": "nonpayable",
      "type": "function"
    },
    {
      "inputs": [
        {
          "internalType": "address",
          "name": "_tokenAddress",
          "type": "address"
        }
      ],
      "name": "getTotalTokenBalance",
      "outputs": [
        {
          "internalType": "uint256",
          "name": "",
          "type": "uint256"
        }
      ],
      "stateMutability": "view",
      "type": "function"
    },
    {
      "inputs": [
        {
          "internalType": "address",
          "name": "_tokenAddress",
          "type": "address"
        },
        {
          "internalType": "address",
          "name": "_walletAddress",
          "type": "address"
        }
      ],
      "name": "getTokenBalanceByAddress",
      "outputs": [
        {
          "internalType": "uint256",
          "name": "",
          "type": "uint256"
        }
      ],
      "stateMutability": "view",
      "type": "function"
    },
    {
      "inputs": [],
      "name": "getAllDepositIds",
      "outputs": [
        {
          "internalType": "uint256[]",
          "name": "",
          "type": "uint256[]"
        }
      ],
      "stateMutability": "view",
      "type": "function"
    },
    {
      "inputs": [
        {
          "internalType": "uint256",
          "name": "_id",
          "type": "uint256"
        }
      ],
      "name": "getDepositDetails",
      "outputs": [
        {
          "internalType": "address",
          "name": "",
          "type": "address"
        },
        {
          "internalType": "address",
          "name": "",
          "type": "address"
        },
        {
          "internalType": "uint256",
          "name": "",
          "type": "uint256"
        },
        {
          "internalType": "uint256",
          "name": "",
          "type": "uint256"
        },
        {
          "internalType": "bool",
          "name": "",
          "type": "bool"
        }
      ],
      "stateMutability": "view",
      "type": "function"
    },
    {
      "inputs": [
        {
          "internalType": "address",
          "name": "_withdrawalAddress",
          "type": "address"
        }
      ],
      "name": "getDepositsByWithdrawalAddress",
      "outputs": [
        {
          "internalType": "uint256[]",
          "name": "",
          "type": "uint256[]"
        }
      ],
      "stateMutability": "view",
      "type": "function"
    }
  ],
  "bytecode": "0x608060405234801561001057600080fd5b5060006100216100c460201b60201c565b9050806000806101000a81548173ffffffffffffffffffffffffffffffffffffffff021916908373ffffffffffffffffffffffffffffffffffffffff1602179055508073ffffffffffffffffffffffffffffffffffffffff16600073ffffffffffffffffffffffffffffffffffffffff167f8be0079c531659141344cd1fd0a4f28419497f9722a3daafe3b4186f6b6457e060405160405180910390a3506100cc565b600033905090565b611e5a806100db6000396000f3fe608060405234801561001057600080fd5b50600436106100f55760003560e01c80638da5cb5b11610097578063b9e7df1c11610066578063b9e7df1c146104a6578063bb941cff1461051e578063c9028aff146105aa578063f2fde38b146105ec576100f5565b80638da5cb5b146103905780639852099c146103c4578063a25983e5146103e2578063adad19bd1461044e576100f5565b8063530680d8116100d3578063530680d8146102395780636ba039241461029b578063715018a6146102fa578063890db72f14610304576100f5565b80630bd59ad3146100fa578063315a095d14610193578063347c80ba146101c1575b600080fd5b61013c6004803603602081101561011057600080fd5b81019080803573ffffffffffffffffffffffffffffffffffffffff169060200190929190505050610630565b6040518080602001828103825283818151815260200191508051906020019060200280838360005b8381101561017f578082015181840152602081019050610164565b505050509050019250505060405180910390f35b6101bf600480360360208110156101a957600080fd5b81019080803590602001909291905050506106c7565b005b610223600480360360408110156101d757600080fd5b81019080803573ffffffffffffffffffffffffffffffffffffffff169060200190929190803573ffffffffffffffffffffffffffffffffffffffff169060200190929190505050610fae565b6040518082815260200191505060405180910390f35b6102856004803603604081101561024f57600080fd5b81019080803573ffffffffffffffffffffffffffffffffffffffff16906020019092919080359060200190929190505050611035565b6040518082815260200191505060405180910390f35b6102a3611063565b6040518080602001828103825283818151815260200191508051906020019060200280838360005b838110156102e65780820151818401526020810190506102cb565b505050509050019250505060405180910390f35b6103026110bb565b005b6103306004803603602081101561031a57600080fd5b8101908080359060200190929190505050611228565b604051808673ffffffffffffffffffffffffffffffffffffffff1681526020018573ffffffffffffffffffffffffffffffffffffffff16815260200184815260200183815260200182151581526020019550505050505060405180910390f35b610398611303565b604051808273ffffffffffffffffffffffffffffffffffffffff16815260200191505060405180910390f35b6103cc61132c565b6040518082815260200191505060405180910390f35b610438600480360360608110156103f857600080fd5b81019080803573ffffffffffffffffffffffffffffffffffffffff1690602001909291908035906020019092919080359060200190929190505050611332565b6040518082815260200191505060405180910390f35b6104906004803603602081101561046457600080fd5b81019080803573ffffffffffffffffffffffffffffffffffffffff16906020019092919050505061192b565b6040518082815260200191505060405180910390f35b610508600480360360408110156104bc57600080fd5b81019080803573ffffffffffffffffffffffffffffffffffffffff169060200190929190803573ffffffffffffffffffffffffffffffffffffffff1690602001909291905050506119d6565b6040518082815260200191505060405180910390f35b61054a6004803603602081101561053457600080fd5b81019080803590602001909291905050506119fb565b604051808673ffffffffffffffffffffffffffffffffffffffff1681526020018573ffffffffffffffffffffffffffffffffffffffff16815260200184815260200183815260200182151581526020019550505050505060405180910390f35b6105d6600480360360208110156105c057600080fd5b8101908080359060200190929190505050611a7e565b6040518082815260200191505060405180910390f35b61062e6004803603602081101561060257600080fd5b81019080803573ffffffffffffffffffffffffffffffffffffffff169060200190929190505050611a9f565b005b6060600360008373ffffffffffffffffffffffffffffffffffffffff1673ffffffffffffffffffffffffffffffffffffffff1681526020019081526020016000208054806020026020016040519081016040528092919081815260200182805480156106bb57602002820191906000526020600020905b8154815260200190600101908083116106a7575b50505050509050919050565b6004600082815260200190815260200160002060030154421015610753576040517f08c379a00000000000000000000000000000000000000000000000000000000081526004018080602001828103825260118152602001807f546f6b656e7320617265206c6f636b656400000000000000000000000000000081525060200191505060405180910390fd5b6004600082815260200190815260200160002060010160009054906101000a900473ffffffffffffffffffffffffffffffffffffffff1673ffffffffffffffffffffffffffffffffffffffff163373ffffffffffffffffffffffffffffffffffffffff161461080d576040517f08c379a0000000000000000000000000000000000000000000000000000000008152600401808060200182810382526027815260200180611dfe6027913960400191505060405180910390fd5b6004600082815260200190815260200160002060040160009054906101000a900460ff16156108a4576040517f08c379a00000000000000000000000000000000000000000000000000000000081526004018080602001828103825260188152602001807f546f6b656e7320616c72656164792077697468647261776e000000000000000081525060200191505060405180910390fd5b6004600082815260200190815260200160002060000160009054906101000a900473ffffffffffffffffffffffffffffffffffffffff1673ffffffffffffffffffffffffffffffffffffffff1663a9059cbb3360046000858152602001908152602001600020600201546040518363ffffffff1660e01b8152600401808373ffffffffffffffffffffffffffffffffffffffff16815260200182815260200192505050602060405180830381600087803b15801561096157600080fd5b505af1158015610975573d6000803e3d6000fd5b505050506040513d602081101561098b57600080fd5b8101908080519060200190929190505050610a0e576040517f08c379a00000000000000000000000000000000000000000000000000000000081526004018080602001828103825260198152602001807f5472616e73666572206f6620746f6b656e73206661696c65640000000000000081525060200191505060405180910390fd5b60016004600083815260200190815260200160002060040160006101000a81548160ff021916908315150217905550610b186004600083815260200190815260200160002060020154600560006004600086815260200190815260200160002060000160009054906101000a900473ffffffffffffffffffffffffffffffffffffffff1673ffffffffffffffffffffffffffffffffffffffff1673ffffffffffffffffffffffffffffffffffffffff16815260200190815260200160002060003373ffffffffffffffffffffffffffffffffffffffff1673ffffffffffffffffffffffffffffffffffffffff16815260200190815260200160002054611c9190919063ffffffff16565b600560006004600085815260200190815260200160002060000160009054906101000a900473ffffffffffffffffffffffffffffffffffffffff1673ffffffffffffffffffffffffffffffffffffffff1673ffffffffffffffffffffffffffffffffffffffff16815260200190815260200160002060003373ffffffffffffffffffffffffffffffffffffffff1673ffffffffffffffffffffffffffffffffffffffff16815260200190815260200160002081905550600080600090505b600360006004600086815260200190815260200160002060010160009054906101000a900473ffffffffffffffffffffffffffffffffffffffff1673ffffffffffffffffffffffffffffffffffffffff1673ffffffffffffffffffffffffffffffffffffffff16815260200190815260200160002080549050811015610f3e5782600360006004600087815260200190815260200160002060010160009054906101000a900473ffffffffffffffffffffffffffffffffffffffff1673ffffffffffffffffffffffffffffffffffffffff1673ffffffffffffffffffffffffffffffffffffffff1681526020019081526020016000208281548110610cd757fe5b90600052602060002001541415610f31578091505b6001600360006004600087815260200190815260200160002060010160009054906101000a900473ffffffffffffffffffffffffffffffffffffffff1673ffffffffffffffffffffffffffffffffffffffff1673ffffffffffffffffffffffffffffffffffffffff1681526020019081526020016000208054905003821015610e9857600360006004600086815260200190815260200160002060010160009054906101000a900473ffffffffffffffffffffffffffffffffffffffff1673ffffffffffffffffffffffffffffffffffffffff1673ffffffffffffffffffffffffffffffffffffffff1681526020019081526020016000206001830181548110610df257fe5b9060005260206000200154600360006004600087815260200190815260200160002060010160009054906101000a900473ffffffffffffffffffffffffffffffffffffffff1673ffffffffffffffffffffffffffffffffffffffff1673ffffffffffffffffffffffffffffffffffffffff1681526020019081526020016000208381548110610e7d57fe5b90600052602060002001819055508180600101925050610cec565b600360006004600086815260200190815260200160002060010160009054906101000a900473ffffffffffffffffffffffffffffffffffffffff1673ffffffffffffffffffffffffffffffffffffffff1673ffffffffffffffffffffffffffffffffffffffff168152602001908152602001600020805480610f1657fe5b60019003818190600052602060002001600090559055610f3e565b8080600101915050610bd6565b7fb4214c8c54fc7442f36d3682f59aebaf09358a4431835b30efb29d52cf9e1e91336004600086815260200190815260200160002060020154604051808373ffffffffffffffffffffffffffffffffffffffff1681526020018281526020019250505060405180910390a1505050565b6000600560008473ffffffffffffffffffffffffffffffffffffffff1673ffffffffffffffffffffffffffffffffffffffff16815260200190815260200160002060008373ffffffffffffffffffffffffffffffffffffffff1673ffffffffffffffffffffffffffffffffffffffff16815260200190815260200160002054905092915050565b6003602052816000526040600020818154811061104e57fe5b90600052602060002001600091509150505481565b606060028054806020026020016040519081016040528092919081815260200182805480156110b157602002820191906000526020600020905b81548152602001906001019080831161109d575b5050505050905090565b6110c3611d14565b73ffffffffffffffffffffffffffffffffffffffff166110e1611303565b73ffffffffffffffffffffffffffffffffffffffff161461116a576040517f08c379a00000000000000000000000000000000000000000000000000000000081526004018080602001828103825260208152602001807f4f776e61626c653a2063616c6c6572206973206e6f7420746865206f776e657281525060200191505060405180910390fd5b600073ffffffffffffffffffffffffffffffffffffffff1660008054906101000a900473ffffffffffffffffffffffffffffffffffffffff1673ffffffffffffffffffffffffffffffffffffffff167f8be0079c531659141344cd1fd0a4f28419497f9722a3daafe3b4186f6b6457e060405160405180910390a360008060006101000a81548173ffffffffffffffffffffffffffffffffffffffff021916908373ffffffffffffffffffffffffffffffffffffffff160217905550565b60008060008060006004600087815260200190815260200160002060000160009054906101000a900473ffffffffffffffffffffffffffffffffffffffff166004600088815260200190815260200160002060010160009054906101000a900473ffffffffffffffffffffffffffffffffffffffff166004600089815260200190815260200160002060020154600460008a815260200190815260200160002060030154600460008b815260200190815260200160002060040160009054906101000a900460ff169450945094509450945091939590929450565b60008060009054906101000a900473ffffffffffffffffffffffffffffffffffffffff16905090565b60015481565b60008083116113a9576040517f08c379a00000000000000000000000000000000000000000000000000000000081526004018080602001828103825260148152602001807f746f6b656e20616d6f756e74206973205a65726f00000000000000000000000081525060200191505060405180910390fd5b6402540be4008210611406576040517f08c379a0000000000000000000000000000000000000000000000000000000008152600401808060200182810382526033815260200180611da56033913960400191505060405180910390fd5b8373ffffffffffffffffffffffffffffffffffffffff1663095ea7b330856040518363ffffffff1660e01b8152600401808373ffffffffffffffffffffffffffffffffffffffff16815260200182815260200192505050602060405180830381600087803b15801561147757600080fd5b505af115801561148b573d6000803e3d6000fd5b505050506040513d60208110156114a157600080fd5b8101908080519060200190929190505050611524576040517f08c379a00000000000000000000000000000000000000000000000000000000081526004018080602001828103825260158152602001807f417070726f766520746f6b656e73206661696c6564000000000000000000000081525060200191505060405180910390fd5b8373ffffffffffffffffffffffffffffffffffffffff166323b872dd3330866040518463ffffffff1660e01b8152600401808473ffffffffffffffffffffffffffffffffffffffff1681526020018373ffffffffffffffffffffffffffffffffffffffff1681526020018281526020019350505050602060405180830381600087803b1580156115b357600080fd5b505af11580156115c7573d6000803e3d6000fd5b505050506040513d60208110156115dd57600080fd5b8101908080519060200190929190505050611660576040517f08c379a00000000000000000000000000000000000000000000000000000000081526004018080602001828103825260198152602001807f5472616e73666572206f6620746f6b656e73206661696c65640000000000000081525060200191505060405180910390fd5b6116ef83600560008773ffffffffffffffffffffffffffffffffffffffff1673ffffffffffffffffffffffffffffffffffffffff16815260200190815260200160002060003373ffffffffffffffffffffffffffffffffffffffff1673ffffffffffffffffffffffffffffffffffffffff16815260200190815260200160002054611d1c90919063ffffffff16565b600560008673ffffffffffffffffffffffffffffffffffffffff1673ffffffffffffffffffffffffffffffffffffffff16815260200190815260200160002060003373ffffffffffffffffffffffffffffffffffffffff1673ffffffffffffffffffffffffffffffffffffffff1681526020019081526020016000208190555060003390506001600081546001019190508190559150846004600084815260200190815260200160002060000160006101000a81548173ffffffffffffffffffffffffffffffffffffffff021916908373ffffffffffffffffffffffffffffffffffffffff160217905550806004600084815260200190815260200160002060010160006101000a81548173ffffffffffffffffffffffffffffffffffffffff021916908373ffffffffffffffffffffffffffffffffffffffff16021790555083600460008481526020019081526020016000206002018190555082600460008481526020019081526020016000206003018190555060006004600084815260200190815260200160002060040160006101000a81548160ff0219169083151502179055506002829080600181540180825580915050600190039060005260206000200160009091909190915055600360008273ffffffffffffffffffffffffffffffffffffffff1673ffffffffffffffffffffffffffffffffffffffff168152602001908152602001600020829080600181540180825580915050600190039060005260206000200160009091909190915055509392505050565b60008173ffffffffffffffffffffffffffffffffffffffff166370a08231306040518263ffffffff1660e01b8152600401808273ffffffffffffffffffffffffffffffffffffffff16815260200191505060206040518083038186803b15801561199457600080fd5b505afa1580156119a8573d6000803e3d6000fd5b505050506040513d60208110156119be57600080fd5b81019080805190602001909291905050509050919050565b6005602052816000526040600020602052806000526040600020600091509150505481565b60046020528060005260406000206000915090508060000160009054906101000a900473ffffffffffffffffffffffffffffffffffffffff16908060010160009054906101000a900473ffffffffffffffffffffffffffffffffffffffff16908060020154908060030154908060040160009054906101000a900460ff16905085565b60028181548110611a8b57fe5b906000526020600020016000915090505481565b611aa7611d14565b73ffffffffffffffffffffffffffffffffffffffff16611ac5611303565b73ffffffffffffffffffffffffffffffffffffffff1614611b4e576040517f08c379a00000000000000000000000000000000000000000000000000000000081526004018080602001828103825260208152602001807f4f776e61626c653a2063616c6c6572206973206e6f7420746865206f776e657281525060200191505060405180910390fd5b600073ffffffffffffffffffffffffffffffffffffffff168173ffffffffffffffffffffffffffffffffffffffff161415611bd4576040517f08c379a0000000000000000000000000000000000000000000000000000000008152600401808060200182810382526026815260200180611dd86026913960400191505060405180910390fd5b8073ffffffffffffffffffffffffffffffffffffffff1660008054906101000a900473ffffffffffffffffffffffffffffffffffffffff1673ffffffffffffffffffffffffffffffffffffffff167f8be0079c531659141344cd1fd0a4f28419497f9722a3daafe3b4186f6b6457e060405160405180910390a3806000806101000a81548173ffffffffffffffffffffffffffffffffffffffff021916908373ffffffffffffffffffffffffffffffffffffffff16021790555050565b600082821115611d09576040517f08c379a000000000000000000000000000000000000000000000000000000000815260040180806020018281038252601e8152602001807f536166654d6174683a207375627472616374696f6e206f766572666c6f77000081525060200191505060405180910390fd5b818303905092915050565b600033905090565b600080828401905083811015611d9a576040517f08c379a000000000000000000000000000000000000000000000000000000000815260040180806020018281038252601b8152602001807f536166654d6174683a206164646974696f6e206f766572666c6f77000000000081525060200191505060405180910390fd5b809150509291505056fe456e74657220616e20756e69782074696d657374616d7020696e207365636f6e64732c206e6f74206d696c697365636f6e64734f776e61626c653a206e6577206f776e657220697320746865207a65726f206164647265737343616e207769746864726177206279207769746864726177616c2041646472657373206f6e6c79a26469706673582212205e342fb1d234882d237f2459a8e1f3ec64d9afe84baf8b685662557005db957064736f6c634300060c0033",
  "immutableReferences": {},
  "source": "// SPDX-License-Identifier: MIT\npragma solidity ^0.6.12;\n\nimport \"@openzeppelin/contracts/token/ERC20/IERC20.sol\";\nimport \"@openzeppelin/contracts/math/SafeMath.sol\";\nimport \"@openzeppelin/contracts/access/Ownable.sol\";\n\n/*\n  Depositor = EOA that owns tokens in any contract (but is this specifically for XDP?)\n  Depositor transfers tokens to this contract, which will allow them to be transferred back by depositor after a specified time\n\n  Not called by any known contracts: who does this, when, and why?\n*/\ncontract XDSTVesting is Ownable {\n    using SafeMath for uint256;\n    \n    /*\n     * deposit vars\n    */\n    struct Items {\n        address tokenAddress;       // address of token locked/deposited\n        address withdrawalAddress;  // address of depositor\n        uint256 tokenAmount;        // amount locked\n        uint256 unlockTime;         // time when withdraw becomes allowed\n        bool withdrawn;\n    }\n    \n    uint256 public depositId; // counter\n    uint256[] public allDepositIds; // will always be an array from 0 to depositId (?)\n    mapping (address => uint256[]) public depositsByWithdrawalAddress; // call this to find user's deposit ids\n    mapping (uint256 => Items) public lockedToken;\n    mapping (address => mapping(address => uint256)) public walletTokenBalance; // token quantities locked in this contract by owner\n    \n    event LogWithdrawal(address SentToAddress, uint256 AmountTransferred);\n    \n    /**\n     * Constructor function\n    */\n    constructor() public {}\n\n    /**\n     *lock tokens\n    */\n    function lockTokens(address _tokenAddress, uint256 _amount, uint256 _unlockTime) public returns (uint256 _id) {\n        require(_amount > 0, 'token amount is Zero');\n        require(_unlockTime < 10000000000, 'Enter an unix timestamp in seconds, not miliseconds');\n        require(IERC20(_tokenAddress).approve(address(this), _amount), 'Approve tokens failed');\n        require(IERC20(_tokenAddress).transferFrom(msg.sender, address(this), _amount), 'Transfer of tokens failed');\n        \n        //update balance in address\n        walletTokenBalance[_tokenAddress][msg.sender] = walletTokenBalance[_tokenAddress][msg.sender].add(_amount);\n        \n        address _withdrawalAddress = msg.sender;\n        _id = ++depositId;\n        lockedToken[_id].tokenAddress = _tokenAddress;\n        lockedToken[_id].withdrawalAddress = _withdrawalAddress;\n        lockedToken[_id].tokenAmount = _amount;\n        lockedToken[_id].unlockTime = _unlockTime;\n        lockedToken[_id].withdrawn = false;\n        \n        allDepositIds.push(_id);\n        depositsByWithdrawalAddress[_withdrawalAddress].push(_id);\n    }\n    \n    /**\n     *withdraw tokens\n    */\n    function withdrawTokens(uint256 _id) public {\n        require(block.timestamp >= lockedToken[_id].unlockTime, 'Tokens are locked');\n        require(msg.sender == lockedToken[_id].withdrawalAddress, 'Can withdraw by withdrawal Address only');\n        require(!lockedToken[_id].withdrawn, 'Tokens already withdrawn');\n        require(IERC20(lockedToken[_id].tokenAddress).transfer(msg.sender, lockedToken[_id].tokenAmount), 'Transfer of tokens failed');\n        \n        lockedToken[_id].withdrawn = true;\n        \n        //update balance in address\n        walletTokenBalance[lockedToken[_id].tokenAddress][msg.sender] = walletTokenBalance[lockedToken[_id].tokenAddress][msg.sender].sub(lockedToken[_id].tokenAmount);\n        \n        //remove this id from this address\n        uint256 i; uint256 j;\n        for(j=0; j<depositsByWithdrawalAddress[lockedToken[_id].withdrawalAddress].length; j++){\n            if(depositsByWithdrawalAddress[lockedToken[_id].withdrawalAddress][j] == _id){\n                for (i = j; i<depositsByWithdrawalAddress[lockedToken[_id].withdrawalAddress].length-1; i++){\n                    depositsByWithdrawalAddress[lockedToken[_id].withdrawalAddress][i] = depositsByWithdrawalAddress[lockedToken[_id].withdrawalAddress][i+1];\n                }\n                depositsByWithdrawalAddress[lockedToken[_id].withdrawalAddress].pop();\n                break;\n            }\n        }\n        emit LogWithdrawal(msg.sender, lockedToken[_id].tokenAmount);\n    }\n\n     /*get total token balance in contract*/\n    function getTotalTokenBalance(address _tokenAddress) view public returns (uint256)\n    {\n       return IERC20(_tokenAddress).balanceOf(address(this));\n    }\n    \n    /*get total token balance by address*/\n    function getTokenBalanceByAddress(address _tokenAddress, address _walletAddress) view public returns (uint256)\n    {\n       return walletTokenBalance[_tokenAddress][_walletAddress];\n    }\n    \n    /*get allDepositIds*/\n    function getAllDepositIds() view public returns (uint256[] memory)\n    {\n        return allDepositIds;\n    }\n    \n    /*get getDepositDetails*/\n    function getDepositDetails(uint256 _id) view public returns (address, address, uint256, uint256, bool)\n    {\n        return(lockedToken[_id].tokenAddress,lockedToken[_id].withdrawalAddress,lockedToken[_id].tokenAmount,\n        lockedToken[_id].unlockTime,lockedToken[_id].withdrawn);\n    }\n    \n    /*get DepositsByWithdrawalAddress*/\n    function getDepositsByWithdrawalAddress(address _withdrawalAddress) view public returns (uint256[] memory)\n    {\n        return depositsByWithdrawalAddress[_withdrawalAddress];\n    }\n    \n}",
  "sourcePath": "/Users/macuser/Documents/Projects/Programming/xDaiStarterParent/xDaiStarter/contracts/XDSVesting.sol",
  "compiler": {
    "name": "solc",
    "version": "0.6.12+commit.27d51765.Emscripten.clang"
  },
  "schemaVersion": "3.3.4",
  "updatedAt": "2021-04-24T02:43:26.568Z",
  "devdoc": {
    "kind": "dev",
    "methods": {
      "owner()": {
        "details": "Returns the address of the current owner."
      },
      "renounceOwnership()": {
        "details": "Leaves the contract without owner. It will not be possible to call `onlyOwner` functions anymore. Can only be called by the current owner. NOTE: Renouncing ownership will leave the contract without an owner, thereby removing any functionality that is only available to the owner."
      },
      "transferOwnership(address)": {
        "details": "Transfers ownership of the contract to a new account (`newOwner`). Can only be called by the current owner."
      }
    },
    "version": 1
  },
  "userdoc": {
    "kind": "user",
    "methods": {
      "constructor": "Constructor function",
      "lockTokens(address,uint256,uint256)": {
        "notice": "lock tokens"
      },
      "withdrawTokens(uint256)": {
        "notice": "withdraw tokens"
      }
    },
    "version": 1
  }
}