{
  "contractName": "XDSTPresale",
  "abi": [
    {
      "inputs": [
        {
          "internalType": "address",
          "name": "_xdsDevAddress",
          "type": "address"
        }
      ],
      "stateMutability": "nonpayable",
      "type": "constructor"
    },
    {
      "inputs": [],
      "name": "auditInformation",
      "outputs": [
        {
          "internalType": "bytes32",
          "name": "auditor",
          "type": "bytes32"
        },
        {
          "internalType": "bool",
          "name": "isVerified",
          "type": "bool"
        },
        {
          "internalType": "bool",
          "name": "isWarning",
          "type": "bool"
        },
        {
          "internalType": "string",
          "name": "verifiedHash",
          "type": "string"
        },
        {
          "internalType": "string",
          "name": "warningHash",
          "type": "string"
        }
      ],
      "stateMutability": "view",
      "type": "function"
    },
    {
      "inputs": [
        {
          "internalType": "address",
          "name": "",
          "type": "address"
        }
      ],
      "name": "auditorWhitelistedAddresses",
      "outputs": [
        {
          "internalType": "bool",
          "name": "",
          "type": "bool"
        }
      ],
      "stateMutability": "view",
      "type": "function"
    },
    {
      "inputs": [],
      "name": "claimAllowed",
      "outputs": [
        {
          "internalType": "bool",
          "name": "",
          "type": "bool"
        }
      ],
      "stateMutability": "view",
      "type": "function"
    },
    {
      "inputs": [],
      "name": "claimCycle",
      "outputs": [
        {
          "internalType": "uint256",
          "name": "",
          "type": "uint256"
        }
      ],
      "stateMutability": "view",
      "type": "function"
    },
    {
      "inputs": [
        {
          "internalType": "address",
          "name": "",
          "type": "address"
        }
      ],
      "name": "claimed",
      "outputs": [
        {
          "internalType": "uint256",
          "name": "",
          "type": "uint256"
        }
      ],
      "stateMutability": "view",
      "type": "function"
    },
    {
      "inputs": [],
      "name": "closeTime",
      "outputs": [
        {
          "internalType": "uint256",
          "name": "",
          "type": "uint256"
        }
      ],
      "stateMutability": "view",
      "type": "function"
    },
    {
      "inputs": [],
      "name": "hardCapInWei",
      "outputs": [
        {
          "internalType": "uint256",
          "name": "",
          "type": "uint256"
        }
      ],
      "stateMutability": "view",
      "type": "function"
    },
    {
      "inputs": [],
      "name": "honeyLiquidityAddingTime",
      "outputs": [
        {
          "internalType": "uint256",
          "name": "",
          "type": "uint256"
        }
      ],
      "stateMutability": "view",
      "type": "function"
    },
    {
      "inputs": [
        {
          "internalType": "address",
          "name": "",
          "type": "address"
        }
      ],
      "name": "investments",
      "outputs": [
        {
          "internalType": "uint256",
          "name": "",
          "type": "uint256"
        }
      ],
      "stateMutability": "view",
      "type": "function"
    },
    {
      "inputs": [],
      "name": "isAudited",
      "outputs": [
        {
          "internalType": "bool",
          "name": "",
          "type": "bool"
        }
      ],
      "stateMutability": "view",
      "type": "function"
    },
    {
      "inputs": [],
      "name": "linkGithub",
      "outputs": [
        {
          "internalType": "bytes32",
          "name": "",
          "type": "bytes32"
        }
      ],
      "stateMutability": "view",
      "type": "function"
    },
    {
      "inputs": [],
      "name": "linkLogo",
      "outputs": [
        {
          "internalType": "bytes32",
          "name": "",
          "type": "bytes32"
        }
      ],
      "stateMutability": "view",
      "type": "function"
    },
    {
      "inputs": [],
      "name": "linkTelegram",
      "outputs": [
        {
          "internalType": "bytes32",
          "name": "",
          "type": "bytes32"
        }
      ],
      "stateMutability": "view",
      "type": "function"
    },
    {
      "inputs": [],
      "name": "linkTwitter",
      "outputs": [
        {
          "internalType": "bytes32",
          "name": "",
          "type": "bytes32"
        }
      ],
      "stateMutability": "view",
      "type": "function"
    },
    {
      "inputs": [],
      "name": "linkWebsite",
      "outputs": [
        {
          "internalType": "bytes32",
          "name": "",
          "type": "bytes32"
        }
      ],
      "stateMutability": "view",
      "type": "function"
    },
    {
      "inputs": [],
      "name": "maxInvestInWei",
      "outputs": [
        {
          "internalType": "uint256",
          "name": "",
          "type": "uint256"
        }
      ],
      "stateMutability": "view",
      "type": "function"
    },
    {
      "inputs": [],
      "name": "minInvestInWei",
      "outputs": [
        {
          "internalType": "uint256",
          "name": "",
          "type": "uint256"
        }
      ],
      "stateMutability": "view",
      "type": "function"
    },
    {
      "inputs": [],
      "name": "openTime",
      "outputs": [
        {
          "internalType": "uint256",
          "name": "",
          "type": "uint256"
        }
      ],
      "stateMutability": "view",
      "type": "function"
    },
    {
      "inputs": [],
      "name": "presaleCancelled",
      "outputs": [
        {
          "internalType": "bool",
          "name": "",
          "type": "bool"
        }
      ],
      "stateMutability": "view",
      "type": "function"
    },
    {
      "inputs": [],
      "name": "refundAllowed",
      "outputs": [
        {
          "internalType": "bool",
          "name": "",
          "type": "bool"
        }
      ],
      "stateMutability": "view",
      "type": "function"
    },
    {
      "inputs": [],
      "name": "saleTitle",
      "outputs": [
        {
          "internalType": "bytes32",
          "name": "",
          "type": "bytes32"
        }
      ],
      "stateMutability": "view",
      "type": "function"
    },
    {
      "inputs": [],
      "name": "softCapInWei",
      "outputs": [
        {
          "internalType": "uint256",
          "name": "",
          "type": "uint256"
        }
      ],
      "stateMutability": "view",
      "type": "function"
    },
    {
      "inputs": [],
      "name": "token",
      "outputs": [
        {
          "internalType": "contract IERC20",
          "name": "",
          "type": "address"
        }
      ],
      "stateMutability": "view",
      "type": "function"
    },
    {
      "inputs": [],
      "name": "tokenPriceInWei",
      "outputs": [
        {
          "internalType": "uint256",
          "name": "",
          "type": "uint256"
        }
      ],
      "stateMutability": "view",
      "type": "function"
    },
    {
      "inputs": [],
      "name": "tokensLeft",
      "outputs": [
        {
          "internalType": "uint256",
          "name": "",
          "type": "uint256"
        }
      ],
      "stateMutability": "view",
      "type": "function"
    },
    {
      "inputs": [],
      "name": "totalCollectedWei",
      "outputs": [
        {
          "internalType": "uint256",
          "name": "",
          "type": "uint256"
        }
      ],
      "stateMutability": "view",
      "type": "function"
    },
    {
      "inputs": [],
      "name": "totalInvestorsCount",
      "outputs": [
        {
          "internalType": "uint256",
          "name": "",
          "type": "uint256"
        }
      ],
      "stateMutability": "view",
      "type": "function"
    },
    {
      "inputs": [],
      "name": "totalTokens",
      "outputs": [
        {
          "internalType": "uint256",
          "name": "",
          "type": "uint256"
        }
      ],
      "stateMutability": "view",
      "type": "function"
    },
    {
      "inputs": [],
      "name": "unsoldTokensDumpAddress",
      "outputs": [
        {
          "internalType": "address",
          "name": "",
          "type": "address"
        }
      ],
      "stateMutability": "view",
      "type": "function"
    },
    {
      "inputs": [
        {
          "internalType": "address",
          "name": "",
          "type": "address"
        }
      ],
      "name": "whitelistedAddresses",
      "outputs": [
        {
          "internalType": "bool",
          "name": "",
          "type": "bool"
        }
      ],
      "stateMutability": "view",
      "type": "function"
    },
    {
      "inputs": [],
      "name": "xdsDevAddress",
      "outputs": [
        {
          "internalType": "address payable",
          "name": "",
          "type": "address"
        }
      ],
      "stateMutability": "view",
      "type": "function"
    },
    {
      "stateMutability": "payable",
      "type": "receive"
    },
    {
      "inputs": [
        {
          "internalType": "address",
          "name": "_tokenAddress",
          "type": "address"
        },
        {
          "internalType": "address",
          "name": "_unsoldTokensDumpAddress",
          "type": "address"
        }
      ],
      "name": "setAddressInfo",
      "outputs": [],
      "stateMutability": "nonpayable",
      "type": "function"
    },
    {
      "inputs": [
        {
          "internalType": "uint256",
          "name": "_totalTokens",
          "type": "uint256"
        },
        {
          "internalType": "uint256",
          "name": "_tokenPriceInWei",
          "type": "uint256"
        },
        {
          "internalType": "uint256",
          "name": "_hardCapInWei",
          "type": "uint256"
        },
        {
          "internalType": "uint256",
          "name": "_softCapInWei",
          "type": "uint256"
        },
        {
          "internalType": "uint256",
          "name": "_maxInvestInWei",
          "type": "uint256"
        },
        {
          "internalType": "uint256",
          "name": "_minInvestInWei",
          "type": "uint256"
        },
        {
          "internalType": "uint256",
          "name": "_openTime",
          "type": "uint256"
        },
        {
          "internalType": "uint256",
          "name": "_closeTime",
          "type": "uint256"
        }
      ],
      "name": "setGeneralInfo",
      "outputs": [],
      "stateMutability": "nonpayable",
      "type": "function"
    },
    {
      "inputs": [
        {
          "internalType": "bytes32",
          "name": "_saleTitle",
          "type": "bytes32"
        },
        {
          "internalType": "bytes32",
          "name": "_linkTelegram",
          "type": "bytes32"
        },
        {
          "internalType": "bytes32",
          "name": "_linkGithub",
          "type": "bytes32"
        },
        {
          "internalType": "bytes32",
          "name": "_linkTwitter",
          "type": "bytes32"
        },
        {
          "internalType": "bytes32",
          "name": "_linkWebsite",
          "type": "bytes32"
        },
        {
          "internalType": "bytes32",
          "name": "_linkLogo",
          "type": "bytes32"
        }
      ],
      "name": "setStringInfo",
      "outputs": [],
      "stateMutability": "nonpayable",
      "type": "function"
    },
    {
      "inputs": [
        {
          "internalType": "bytes32",
          "name": "_auditor",
          "type": "bytes32"
        },
        {
          "internalType": "bool",
          "name": "_isVerified",
          "type": "bool"
        },
        {
          "internalType": "bool",
          "name": "_isWarning",
          "type": "bool"
        },
        {
          "internalType": "string",
          "name": "_verifiedHash",
          "type": "string"
        },
        {
          "internalType": "string",
          "name": "_warningHash",
          "type": "string"
        }
      ],
      "name": "setAuditorInfo",
      "outputs": [],
      "stateMutability": "nonpayable",
      "type": "function"
    },
    {
      "inputs": [
        {
          "internalType": "address[]",
          "name": "_whitelistedAddresses",
          "type": "address[]"
        }
      ],
      "name": "addWhitelistedAddresses",
      "outputs": [],
      "stateMutability": "nonpayable",
      "type": "function"
    },
    {
      "inputs": [
        {
          "internalType": "address[]",
          "name": "_whitelistedAddresses",
          "type": "address[]"
        }
      ],
      "name": "addAuditorWhitelistedAddresses",
      "outputs": [],
      "stateMutability": "nonpayable",
      "type": "function"
    },
    {
      "inputs": [
        {
          "internalType": "bool",
          "name": "_refundAllowed",
          "type": "bool"
        }
      ],
      "name": "setRefundAllowed",
      "outputs": [],
      "stateMutability": "nonpayable",
      "type": "function"
    },
    {
      "inputs": [
        {
          "internalType": "uint256",
          "name": "_honeyLiquidityAddingTime",
          "type": "uint256"
        }
      ],
      "name": "allowClaim",
      "outputs": [],
      "stateMutability": "nonpayable",
      "type": "function"
    },
    {
      "inputs": [
        {
          "internalType": "uint256",
          "name": "_claimCycle",
          "type": "uint256"
        }
      ],
      "name": "setClaimCycle",
      "outputs": [],
      "stateMutability": "nonpayable",
      "type": "function"
    },
    {
      "inputs": [],
      "name": "invest",
      "outputs": [],
      "stateMutability": "payable",
      "type": "function"
    },
    {
      "inputs": [],
      "name": "transferUnsoldTokens",
      "outputs": [],
      "stateMutability": "nonpayable",
      "type": "function"
    },
    {
      "inputs": [],
      "name": "claimTokens",
      "outputs": [],
      "stateMutability": "nonpayable",
      "type": "function"
    },
    {
      "inputs": [],
      "name": "getRefund",
      "outputs": [],
      "stateMutability": "nonpayable",
      "type": "function"
    },
    {
      "inputs": [],
      "name": "cancelAndTransferTokensToDev",
      "outputs": [],
      "stateMutability": "nonpayable",
      "type": "function"
    },
    {
      "inputs": [],
      "name": "collectFundsRaised",
      "outputs": [],
      "stateMutability": "nonpayable",
      "type": "function"
    }
  ],
  "bytecode": "0x608060405262278d006012556000601360006101000a81548160ff0219169083151502179055506000601360016101000a81548160ff0219169083151502179055506000601360026101000a81548160ff0219169083151502179055506000601360036101000a81548160ff02191690831515021790555034801561008357600080fd5b50604051620034db380380620034db833981810160405260208110156100a857600080fd5b8101908080519060200190929190505050600073ffffffffffffffffffffffffffffffffffffffff168173ffffffffffffffffffffffffffffffffffffffff1614156100f357600080fd5b806000806101000a81548173ffffffffffffffffffffffffffffffffffffffff021916908373ffffffffffffffffffffffffffffffffffffffff1602179055505061339780620001446000396000f3fe6080604052600436106102815760003560e01c806396b988621161014f578063c6a42669116100c1578063d6c86b1b1161007a578063d6c86b1b14610cce578063e861e34d14610cf9578063e8b5e51f14610d24578063ebc9afcc14610d2e578063f59eb57514610e2b578063fc0c546a14610e4257610290565b8063c6a4266914610ada578063c884ef8314610b05578063ca2cfc2014610b6a578063cc9fb9fd14610bf0578063d5933c2c14610c1b578063d64d313814610c4857610290565b8063b2d5ae4411610113578063b2d5ae44146109ea578063b31f8f9314610a01578063b425688814610a2c578063bc89ff2b14610a57578063c502b13b14610a84578063c51d16b614610aaf57610290565b806396b98862146108c35780639767b58c146109285780639fa1eccc14610953578063a2460d2e1461097e578063b13aaebd146109bf57610290565b806341038a77116101f357806374458306116101ac57806374458306146106c5578063762789a8146106f05780637e1c0c091461072b5780637f0feacc14610756578063872f0b971461086b57806389771dd81461089857610290565b806341038a771461058f57806345af6115146105d057806348c54b9d14610641578063627749e6146106585780636cb96287146106835780637275ae141461069a57610290565b80631c194ba9116102455780631c194ba9146103d05780631c3cb17714610452578063245fc1831461048f5780632b24a878146104ca5780632f8de810146105375780633fa911ae1461056257610290565b806306c933d8146102955780630ca99ca8146102fc5780630cdc1fc5146103275780630ce40c8f1461035257806316bc4f0e1461036957610290565b366102905761028e610e83565b005b600080fd5b3480156102a157600080fd5b506102e4600480360360208110156102b857600080fd5b81019080803573ffffffffffffffffffffffffffffffffffffffff1690602001909291905050506113c5565b60405180821515815260200191505060405180910390f35b34801561030857600080fd5b506103116113e5565b6040518082815260200191505060405180910390f35b34801561033357600080fd5b5061033c6113eb565b6040518082815260200191505060405180910390f35b34801561035e57600080fd5b506103676113f1565b005b34801561037557600080fd5b506103b86004803603602081101561038c57600080fd5b81019080803573ffffffffffffffffffffffffffffffffffffffff16906020019092919050505061169a565b60405180821515815260200191505060405180910390f35b3480156103dc57600080fd5b5061045060048036036101008110156103f457600080fd5b8101908080359060200190929190803590602001909291908035906020019092919080359060200190929190803590602001909291908035906020019092919080359060200190929190803590602001909291905050506116ba565b005b34801561045e57600080fd5b5061048d6004803603602081101561047557600080fd5b810190808035151590602001909291905050506117e1565b005b34801561049b57600080fd5b506104c8600480360360208110156104b257600080fd5b8101908080359060200190929190505050611856565b005b3480156104d657600080fd5b50610535600480360360c08110156104ed57600080fd5b810190808035906020019092919080359060200190929190803590602001909291908035906020019092919080359060200190929190803590602001909291905050506118b8565b005b34801561054357600080fd5b5061054c611942565b6040518082815260200191505060405180910390f35b34801561056e57600080fd5b50610577611948565b60405180821515815260200191505060405180910390f35b34801561059b57600080fd5b506105a461195b565b604051808273ffffffffffffffffffffffffffffffffffffffff16815260200191505060405180910390f35b3480156105dc57600080fd5b5061063f600480360360408110156105f357600080fd5b81019080803573ffffffffffffffffffffffffffffffffffffffff169060200190929190803573ffffffffffffffffffffffffffffffffffffffff16906020019092919050505061197f565b005b34801561064d57600080fd5b50610656611ad1565b005b34801561066457600080fd5b5061066d6120c1565b6040518082815260200191505060405180910390f35b34801561068f57600080fd5b506106986120c7565b005b3480156106a657600080fd5b506106af6121ac565b6040518082815260200191505060405180910390f35b3480156106d157600080fd5b506106da6121b2565b6040518082815260200191505060405180910390f35b3480156106fc57600080fd5b506107296004803603602081101561071357600080fd5b81019080803590602001909291905050506121b8565b005b34801561073757600080fd5b50610740612260565b6040518082815260200191505060405180910390f35b34801561076257600080fd5b5061076b612266565b60405180868152602001851515815260200184151581526020018060200180602001838103835285818151815260200191508051906020019080838360005b838110156107c55780820151818401526020810190506107aa565b50505050905090810190601f1680156107f25780820380516001836020036101000a031916815260200191505b50838103825284818151815260200191508051906020019080838360005b8381101561082b578082015181840152602081019050610810565b50505050905090810190601f1680156108585780820380516001836020036101000a031916815260200191505b5097505050505050505060405180910390f35b34801561087757600080fd5b506108806123d4565b60405180821515815260200191505060405180910390f35b3480156108a457600080fd5b506108ad6123e7565b6040518082815260200191505060405180910390f35b3480156108cf57600080fd5b50610912600480360360208110156108e657600080fd5b81019080803573ffffffffffffffffffffffffffffffffffffffff1690602001909291905050506123ed565b6040518082815260200191505060405180910390f35b34801561093457600080fd5b5061093d612405565b6040518082815260200191505060405180910390f35b34801561095f57600080fd5b5061096861240b565b6040518082815260200191505060405180910390f35b34801561098a57600080fd5b50610993612411565b604051808273ffffffffffffffffffffffffffffffffffffffff16815260200191505060405180910390f35b3480156109cb57600080fd5b506109d4612437565b6040518082815260200191505060405180910390f35b3480156109f657600080fd5b506109ff61243d565b005b348015610a0d57600080fd5b50610a166129da565b6040518082815260200191505060405180910390f35b348015610a3857600080fd5b50610a416129e0565b6040518082815260200191505060405180910390f35b348015610a6357600080fd5b50610a6c6129e6565b60405180821515815260200191505060405180910390f35b348015610a9057600080fd5b50610a996129f9565b6040518082815260200191505060405180910390f35b348015610abb57600080fd5b50610ac46129ff565b6040518082815260200191505060405180910390f35b348015610ae657600080fd5b50610aef612a05565b6040518082815260200191505060405180910390f35b348015610b1157600080fd5b50610b5460048036036020811015610b2857600080fd5b81019080803573ffffffffffffffffffffffffffffffffffffffff169060200190929190505050612a0b565b6040518082815260200191505060405180910390f35b348015610b7657600080fd5b50610bee60048036036020811015610b8d57600080fd5b8101908080359060200190640100000000811115610baa57600080fd5b820183602082011115610bbc57600080fd5b80359060200191846020830284011164010000000083111715610bde57600080fd5b9091929391929390505050612a23565b005b348015610bfc57600080fd5b50610c05612b1b565b6040518082815260200191505060405180910390f35b348015610c2757600080fd5b50610c30612b21565b60405180821515815260200191505060405180910390f35b348015610c5457600080fd5b50610ccc60048036036020811015610c6b57600080fd5b8101908080359060200190640100000000811115610c8857600080fd5b820183602082011115610c9a57600080fd5b80359060200191846020830284011164010000000083111715610cbc57600080fd5b9091929391929390505050612b34565b005b348015610cda57600080fd5b50610ce3612c2c565b6040518082815260200191505060405180910390f35b348015610d0557600080fd5b50610d0e612c32565b6040518082815260200191505060405180910390f35b610d2c610e83565b005b348015610d3a57600080fd5b50610e29600480360360a0811015610d5157600080fd5b810190808035906020019092919080351515906020019092919080351515906020019092919080359060200190640100000000811115610d9057600080fd5b820183602082011115610da257600080fd5b80359060200191846001830284011164010000000083111715610dc457600080fd5b909192939192939080359060200190640100000000811115610de557600080fd5b820183602082011115610df757600080fd5b80359060200191846001830284011164010000000083111715610e1957600080fd5b9091929391929390505050612c38565b005b348015610e3757600080fd5b50610e40612d6e565b005b348015610e4e57600080fd5b50610e5761302b565b604051808273ffffffffffffffffffffffffffffffffffffffff16815260200191505060405180910390f35b600460003373ffffffffffffffffffffffffffffffffffffffff1673ffffffffffffffffffffffffffffffffffffffff16815260200190815260200160002060009054906101000a900460ff16610f42576040517f08c379a00000000000000000000000000000000000000000000000000000000081526004018080602001828103825260178152602001807f41646472657373206e6f742077686974656c697374656400000000000000000081525060200191505060405180910390fd5b601360009054906101000a900460ff1615610fc5576040517f08c379a00000000000000000000000000000000000000000000000000000000081526004018080602001828103825260098152602001807f43616e63656c6c6564000000000000000000000000000000000000000000000081525060200191505060405180910390fd5b600f5442101561103d576040517f08c379a000000000000000000000000000000000000000000000000000000000815260040180806020018281038252600e8152602001807f4e6f7420796574206f70656e656400000000000000000000000000000000000081525060200191505060405180910390fd5b60105442106110b4576040517f08c379a00000000000000000000000000000000000000000000000000000000081526004018080602001828103825260068152602001807f436c6f736564000000000000000000000000000000000000000000000000000081525060200191505060405180910390fd5b600b546007541061112d576040517f08c379a00000000000000000000000000000000000000000000000000000000081526004018080602001828103825260108152602001807f486172642063617020726561636865640000000000000000000000000000000081525060200191505060405180910390fd5b60006009541161113c57600080fd5b611153600a5460095461305190919063ffffffff16565b34111561115f57600080fd5b60006111b334600360003373ffffffffffffffffffffffffffffffffffffffff1673ffffffffffffffffffffffffffffffffffffffff168152602001908152602001600020546130d790919063ffffffff16565b9050600e54811015806111e457506111de670de0b6b3a7640000600b5461315f90919063ffffffff16565b60075410155b611256576040517f08c379a000000000000000000000000000000000000000000000000000000000815260040180806020018281038252601a8152602001807f4d696e20696e766573746d656e74206e6f74207265616368656400000000000081525060200191505060405180910390fd5b6000600d5414806112695750600d548111155b6112db576040517f08c379a00000000000000000000000000000000000000000000000000000000081526004018080602001828103825260168152602001807f4d617820696e766573746d656e7420726561636865640000000000000000000081525060200191505060405180910390fd5b6000600360003373ffffffffffffffffffffffffffffffffffffffff1673ffffffffffffffffffffffffffffffffffffffff1681526020019081526020016000205414156113405761133960016006546130d790919063ffffffff16565b6006819055505b611355346007546130d790919063ffffffff16565b60078190555080600360003373ffffffffffffffffffffffffffffffffffffffff1673ffffffffffffffffffffffffffffffffffffffff168152602001908152602001600020819055506113bc6113ab346131e2565b60095461315f90919063ffffffff16565b60098190555050565b60046020528060005260406000206000915054906101000a900460ff1681565b600b5481565b60165481565b3373ffffffffffffffffffffffffffffffffffffffff1660008054906101000a900473ffffffffffffffffffffffffffffffffffffffff1673ffffffffffffffffffffffffffffffffffffffff161461144957600080fd5b3373ffffffffffffffffffffffffffffffffffffffff1660008054906101000a900473ffffffffffffffffffffffffffffffffffffffff1673ffffffffffffffffffffffffffffffffffffffff16146114a157600080fd5b601360009054906101000a900460ff16156114bb57600080fd5b6001601360006101000a81548160ff0219169083151502179055506000600160009054906101000a900473ffffffffffffffffffffffffffffffffffffffff1673ffffffffffffffffffffffffffffffffffffffff166370a08231306040518263ffffffff1660e01b8152600401808273ffffffffffffffffffffffffffffffffffffffff16815260200191505060206040518083038186803b15801561156157600080fd5b505afa158015611575573d6000803e3d6000fd5b505050506040513d602081101561158b57600080fd5b81019080805190602001909291905050509050600081111561169757600160009054906101000a900473ffffffffffffffffffffffffffffffffffffffff1673ffffffffffffffffffffffffffffffffffffffff1663a9059cbb60008054906101000a900473ffffffffffffffffffffffffffffffffffffffff16836040518363ffffffff1660e01b8152600401808373ffffffffffffffffffffffffffffffffffffffff16815260200182815260200192505050602060405180830381600087803b15801561165a57600080fd5b505af115801561166e573d6000803e3d6000fd5b505050506040513d602081101561168457600080fd5b8101908080519060200190929190505050505b50565b601a6020528060005260406000206000915054906101000a900460ff1681565b3373ffffffffffffffffffffffffffffffffffffffff1660008054906101000a900473ffffffffffffffffffffffffffffffffffffffff1673ffffffffffffffffffffffffffffffffffffffff161461171257600080fd5b6000881161171f57600080fd5b6000871161172c57600080fd5b6000821161173957600080fd5b6000811161174657600080fd5b6000861161175357600080fd5b611766878961305190919063ffffffff16565b86111561177257600080fd5b8585111561177f57600080fd5b8383111561178c57600080fd5b80821061179857600080fd5b876008819055508760098190555086600a8190555085600b8190555084600c8190555083600d8190555082600e8190555081600f81905550806010819055505050505050505050565b3373ffffffffffffffffffffffffffffffffffffffff1660008054906101000a900473ffffffffffffffffffffffffffffffffffffffff1673ffffffffffffffffffffffffffffffffffffffff161461183957600080fd5b80601360016101000a81548160ff02191690831515021790555050565b3373ffffffffffffffffffffffffffffffffffffffff1660008054906101000a900473ffffffffffffffffffffffffffffffffffffffff1673ffffffffffffffffffffffffffffffffffffffff16146118ae57600080fd5b8060128190555050565b3373ffffffffffffffffffffffffffffffffffffffff1660008054906101000a900473ffffffffffffffffffffffffffffffffffffffff1673ffffffffffffffffffffffffffffffffffffffff161461191057600080fd5b856014819055508460158190555083601781905550826016819055508160188190555080601981905550505050505050565b600a5481565b601360019054906101000a900460ff1681565b60008054906101000a900473ffffffffffffffffffffffffffffffffffffffff1681565b3373ffffffffffffffffffffffffffffffffffffffff1660008054906101000a900473ffffffffffffffffffffffffffffffffffffffff1673ffffffffffffffffffffffffffffffffffffffff16146119d757600080fd5b600073ffffffffffffffffffffffffffffffffffffffff168273ffffffffffffffffffffffffffffffffffffffff161415611a1157600080fd5b600073ffffffffffffffffffffffffffffffffffffffff168173ffffffffffffffffffffffffffffffffffffffff161415611a4b57600080fd5b81600160006101000a81548173ffffffffffffffffffffffffffffffffffffffff021916908373ffffffffffffffffffffffffffffffffffffffff16021790555080600260006101000a81548173ffffffffffffffffffffffffffffffffffffffff021916908373ffffffffffffffffffffffffffffffffffffffff1602179055505050565b600460003373ffffffffffffffffffffffffffffffffffffffff1673ffffffffffffffffffffffffffffffffffffffff16815260200190815260200160002060009054906101000a900460ff16611b90576040517f08c379a00000000000000000000000000000000000000000000000000000000081526004018080602001828103825260178152602001807f41646472657373206e6f742077686974656c697374656400000000000000000081525060200191505060405180910390fd5b601360009054906101000a900460ff1615611c13576040517f08c379a00000000000000000000000000000000000000000000000000000000081526004018080602001828103825260098152602001807f43616e63656c6c6564000000000000000000000000000000000000000000000081525060200191505060405180910390fd5b6000600360003373ffffffffffffffffffffffffffffffffffffffff1673ffffffffffffffffffffffffffffffffffffffff1681526020019081526020016000205411611cc8576040517f08c379a000000000000000000000000000000000000000000000000000000000815260040180806020018281038252600f8152602001807f4e6f7420616e20696e766573746f72000000000000000000000000000000000081525060200191505060405180910390fd5b60006011544210158015611ce157506012546011540142105b15611ceb57600190505b601254601154014210158015611d0957506002601254026011540142105b15611d1357600290505b600260125402601154014210158015611d3457506003601254026011540142105b15611d3e57600390505b600360125402601154014210611d5357600490505b60008111611dc9576040517f08c379a00000000000000000000000000000000000000000000000000000000081526004018080602001828103825260138152602001807f4c697374696e67206e6f7420737461727465640000000000000000000000000081525060200191505060405180910390fd5b80600560003373ffffffffffffffffffffffffffffffffffffffff1673ffffffffffffffffffffffffffffffffffffffff1681526020019081526020016000205410611e7d576040517f08c379a000000000000000000000000000000000000000000000000000000000815260040180806020018281038252601b8152602001807f416c726561647920636c61696d6564206f7220726566756e646564000000000081525060200191505060405180910390fd5b601360029054906101000a900460ff16611eff576040517f08c379a00000000000000000000000000000000000000000000000000000000081526004018080602001828103825260138152602001807f436c61696d20697320646973616c6c6f7765640000000000000000000000000081525060200191505060405180910390fd5b611f526001600560003373ffffffffffffffffffffffffffffffffffffffff1673ffffffffffffffffffffffffffffffffffffffff168152602001908152602001600020546130d790919063ffffffff16565b600560003373ffffffffffffffffffffffffffffffffffffffff1673ffffffffffffffffffffffffffffffffffffffff16815260200190815260200160002081905550600160009054906101000a900473ffffffffffffffffffffffffffffffffffffffff1673ffffffffffffffffffffffffffffffffffffffff1663a9059cbb3361202f61202a6004600360003373ffffffffffffffffffffffffffffffffffffffff1673ffffffffffffffffffffffffffffffffffffffff1681526020019081526020016000205461321a90919063ffffffff16565b6131e2565b6040518363ffffffff1660e01b8152600401808373ffffffffffffffffffffffffffffffffffffffff16815260200182815260200192505050602060405180830381600087803b15801561208257600080fd5b505af1158015612096573d6000803e3d6000fd5b505050506040513d60208110156120ac57600080fd5b81019080805190602001909291905050505050565b60105481565b3373ffffffffffffffffffffffffffffffffffffffff1660008054906101000a900473ffffffffffffffffffffffffffffffffffffffff1673ffffffffffffffffffffffffffffffffffffffff161461211f57600080fd5b601360009054906101000a900460ff161561213957600080fd5b60004711156121aa5760008054906101000a900473ffffffffffffffffffffffffffffffffffffffff1673ffffffffffffffffffffffffffffffffffffffff166108fc479081150290604051600060405180830381858888f193505050501580156121a8573d6000803e3d6000fd5b505b565b60065481565b60155481565b3373ffffffffffffffffffffffffffffffffffffffff1660008054906101000a900473ffffffffffffffffffffffffffffffffffffffff1673ffffffffffffffffffffffffffffffffffffffff161461221057600080fd5b6000811161221d57600080fd5b60006010541161222c57600080fd5b60105481101561223b57600080fd5b6001601360026101000a81548160ff0219169083151502179055508060118190555050565b60085481565b601b8060000154908060010160009054906101000a900460ff16908060010160019054906101000a900460ff1690806002018054600181600116156101000203166002900480601f01602080910402602001604051908101604052809291908181526020018280546001816001161561010002031660029004801561232c5780601f106123015761010080835404028352916020019161232c565b820191906000526020600020905b81548152906001019060200180831161230f57829003601f168201915b505050505090806003018054600181600116156101000203166002900480601f0160208091040260200160405190810160405280929190818152602001828054600181600116156101000203166002900480156123ca5780601f1061239f576101008083540402835291602001916123ca565b820191906000526020600020905b8154815290600101906020018083116123ad57829003601f168201915b5050505050905085565b601360029054906101000a900460ff1681565b60185481565b60036020528060005260406000206000915090505481565b60175481565b600d5481565b600260009054906101000a900473ffffffffffffffffffffffffffffffffffffffff1681565b60125481565b600460003373ffffffffffffffffffffffffffffffffffffffff1673ffffffffffffffffffffffffffffffffffffffff16815260200190815260200160002060009054906101000a900460ff166124fc576040517f08c379a00000000000000000000000000000000000000000000000000000000081526004018080602001828103825260178152602001807f41646472657373206e6f742077686974656c697374656400000000000000000081525060200191505060405180910390fd5b6000600360003373ffffffffffffffffffffffffffffffffffffffff1673ffffffffffffffffffffffffffffffffffffffff16815260200190815260200160002054116125b1576040517f08c379a000000000000000000000000000000000000000000000000000000000815260040180806020018281038252600f8152602001807f4e6f7420616e20696e766573746f72000000000000000000000000000000000081525060200191505060405180910390fd5b601360019054906101000a900460ff16612633576040517f08c379a00000000000000000000000000000000000000000000000000000000081526004018080602001828103825260148152602001807f526566756e6420697320646973616c6c6f77656400000000000000000000000081525060200191505060405180910390fd5b601360009054906101000a900460ff166128de57600f544210156126bf576040517f08c379a000000000000000000000000000000000000000000000000000000000815260040180806020018281038252600e8152602001807f4e6f7420796574206f70656e656400000000000000000000000000000000000081525060200191505060405180910390fd5b601054421015612737576040517f08c379a000000000000000000000000000000000000000000000000000000000815260040180806020018281038252600e8152602001807f4e6f742079657420636c6f73656400000000000000000000000000000000000081525060200191505060405180910390fd5b6000600c54116127af576040517f08c379a000000000000000000000000000000000000000000000000000000000815260040180806020018281038252600b8152602001807f4e6f20736f66742063617000000000000000000000000000000000000000000081525060200191505060405180910390fd5b600c5460075410612828576040517f08c379a00000000000000000000000000000000000000000000000000000000081526004018080602001828103825260108152602001807f536f66742063617020726561636865640000000000000000000000000000000081525060200191505060405180910390fd5b6000600560003373ffffffffffffffffffffffffffffffffffffffff1673ffffffffffffffffffffffffffffffffffffffff16815260200190815260200160002054146128dd576040517f08c379a000000000000000000000000000000000000000000000000000000000815260040180806020018281038252600f8152602001807f416c726561647920636c61696d6564000000000000000000000000000000000081525060200191505060405180910390fd5b5b6004600560003373ffffffffffffffffffffffffffffffffffffffff1673ffffffffffffffffffffffffffffffffffffffff168152602001908152602001600020819055506000600360003373ffffffffffffffffffffffffffffffffffffffff1673ffffffffffffffffffffffffffffffffffffffff16815260200190815260200160002054905060004790506000811161297957600080fd5b80821115612985578091505b60008211156129d6573373ffffffffffffffffffffffffffffffffffffffff166108fc839081150290604051600060405180830381858888f193505050501580156129d4573d6000803e3d6000fd5b505b5050565b60095481565b600f5481565b601360039054906101000a900460ff1681565b60145481565b60075481565b60195481565b60056020528060005260406000206000915090505481565b3373ffffffffffffffffffffffffffffffffffffffff1660008054906101000a900473ffffffffffffffffffffffffffffffffffffffff1673ffffffffffffffffffffffffffffffffffffffff1614612a7b57600080fd5b60005b82829050811015612b1657600160046000858585818110612a9b57fe5b9050602002013573ffffffffffffffffffffffffffffffffffffffff1673ffffffffffffffffffffffffffffffffffffffff1673ffffffffffffffffffffffffffffffffffffffff16815260200190815260200160002060006101000a81548160ff0219169083151502179055508080600101915050612a7e565b505050565b60115481565b601360009054906101000a900460ff1681565b3373ffffffffffffffffffffffffffffffffffffffff1660008054906101000a900473ffffffffffffffffffffffffffffffffffffffff1673ffffffffffffffffffffffffffffffffffffffff1614612b8c57600080fd5b60005b82829050811015612c27576001601a6000858585818110612bac57fe5b9050602002013573ffffffffffffffffffffffffffffffffffffffff1673ffffffffffffffffffffffffffffffffffffffff1673ffffffffffffffffffffffffffffffffffffffff16815260200190815260200160002060006101000a81548160ff0219169083151502179055508080600101915050612b8f565b505050565b600c5481565b600e5481565b601a60003373ffffffffffffffffffffffffffffffffffffffff1673ffffffffffffffffffffffffffffffffffffffff16815260200190815260200160002060009054906101000a900460ff16612cf7576040517f08c379a000000000000000000000000000000000000000000000000000000000815260040180806020018281038252601f8152602001807f41756469746f722041646472657373206e6f742077686974656c69737465640081525060200191505060405180910390fd5b86601b6000018190555085601b60010160006101000a81548160ff02191690831515021790555084601b60010160016101000a81548160ff0219169083151502179055508383601b6002019190612d4f9291906132a3565b508181601b6003019190612d649291906132a3565b5050505050505050565b3373ffffffffffffffffffffffffffffffffffffffff1660008054906101000a900473ffffffffffffffffffffffffffffffffffffffff1673ffffffffffffffffffffffffffffffffffffffff1614612dc657600080fd5b601360009054906101000a900460ff1615612e49576040517f08c379a00000000000000000000000000000000000000000000000000000000081526004018080602001828103825260098152602001807f43616e63656c6c6564000000000000000000000000000000000000000000000081525060200191505060405180910390fd5b6000612f2b612e596007546131e2565b600160009054906101000a900473ffffffffffffffffffffffffffffffffffffffff1673ffffffffffffffffffffffffffffffffffffffff166370a08231306040518263ffffffff1660e01b8152600401808273ffffffffffffffffffffffffffffffffffffffff16815260200191505060206040518083038186803b158015612ee257600080fd5b505afa158015612ef6573d6000803e3d6000fd5b505050506040513d6020811015612f0c57600080fd5b810190808051906020019092919050505061315f90919063ffffffff16565b9050600081111561302857600160009054906101000a900473ffffffffffffffffffffffffffffffffffffffff1673ffffffffffffffffffffffffffffffffffffffff1663a9059cbb600260009054906101000a900473ffffffffffffffffffffffffffffffffffffffff16836040518363ffffffff1660e01b8152600401808373ffffffffffffffffffffffffffffffffffffffff16815260200182815260200192505050602060405180830381600087803b158015612feb57600080fd5b505af1158015612fff573d6000803e3d6000fd5b505050506040513d602081101561301557600080fd5b8101908080519060200190929190505050505b50565b600160009054906101000a900473ffffffffffffffffffffffffffffffffffffffff1681565b60008083141561306457600090506130d1565b600082840290508284828161307557fe5b04146130cc576040517f08c379a00000000000000000000000000000000000000000000000000000000081526004018080602001828103825260218152602001806133416021913960400191505060405180910390fd5b809150505b92915050565b600080828401905083811015613155576040517f08c379a000000000000000000000000000000000000000000000000000000000815260040180806020018281038252601b8152602001807f536166654d6174683a206164646974696f6e206f766572666c6f77000000000081525060200191505060405180910390fd5b8091505092915050565b6000828211156131d7576040517f08c379a000000000000000000000000000000000000000000000000000000000815260040180806020018281038252601e8152602001807f536166654d6174683a207375627472616374696f6e206f766572666c6f77000081525060200191505060405180910390fd5b818303905092915050565b6000613213600a54613205670de0b6b3a76400008561305190919063ffffffff16565b61321a90919063ffffffff16565b9050919050565b6000808211613291576040517f08c379a000000000000000000000000000000000000000000000000000000000815260040180806020018281038252601a8152602001807f536166654d6174683a206469766973696f6e206279207a65726f00000000000081525060200191505060405180910390fd5b81838161329a57fe5b04905092915050565b828054600181600116156101000203166002900490600052602060002090601f016020900481019282601f106132e457803560ff1916838001178555613312565b82800160010185558215613312579182015b828111156133115782358255916020019190600101906132f6565b5b50905061331f9190613323565b5090565b5b8082111561333c576000816000905550600101613324565b509056fe536166654d6174683a206d756c7469706c69636174696f6e206f766572666c6f77a2646970667358221220ff8c5b53ba0e4e2720b1f40733035f4da90f1e8556d9e3acfbe70c7472fee64464736f6c634300060c0033",
  "immutableReferences": {},
  "source": "// SPDX-License-Identifier: MIT\npragma solidity 0.6.12;\n\nimport \"@openzeppelin/contracts/math/SafeMath.sol\";\nimport \"@openzeppelin/contracts/token/ERC20/IERC20.sol\";\n\ncontract XDSTPresale {\n    using SafeMath for uint256;\n\n    address payable public xdsDevAddress; // address of contract dev\n\n    IERC20 public token; // token that will be sold\n    address public unsoldTokensDumpAddress; // address where unsold tokens will be transferred to\n\n    mapping(address => uint256) public investments; // total wei invested per address\n    mapping(address => bool) public whitelistedAddresses; // addresses eligible in presale\n    mapping(address => uint256) public claimed; // if claimed=1, first period is claimed, claimed=2, second period is claimed, claimed=0, nothing claimed.\n\n    uint256 public totalInvestorsCount; // total investors count\n    uint256 public totalCollectedWei; // total wei collected\n    uint256 public totalTokens; // total tokens to be sold\n    uint256 public tokensLeft; // available tokens to be sold\n    uint256 public tokenPriceInWei; // token presale wei price per 1 token\n    uint256 public hardCapInWei; // maximum wei amount that can be invested in presale\n    uint256 public softCapInWei; // minimum wei amount to invest in presale, if not met, invested wei will be returned\n    uint256 public maxInvestInWei; // maximum wei amount that can be invested per wallet address\n    uint256 public minInvestInWei; // minimum wei amount that can be invested per wallet address\n    uint256 public openTime; // time when presale starts, investing is allowed\n    uint256 public closeTime; // time when presale closes, investing is not allowed\n    uint256 public honeyLiquidityAddingTime; // time when adding of liquidity in HoneySwap starts, investors can claim their tokens afterwards\n\n    uint256 public claimCycle = 30 days;\n\n    bool public presaleCancelled = false; // if true, investing will not be allowed, investors can withdraw, presale creator can withdraw their tokens\n    bool public refundAllowed = false; // if true, investor can get refund his investment.\n    bool public claimAllowed = false; // if true, investory can claim tokens.\n\n    bool public isAudited = false; // if true, it's passed, false, it's not failed.\n    bytes32 public saleTitle;\n    bytes32 public linkTelegram;\n    bytes32 public linkTwitter;\n    bytes32 public linkGithub;\n    bytes32 public linkWebsite;\n    bytes32 public linkLogo;\n\n    mapping(address => bool) public auditorWhitelistedAddresses; // addresses eligible to perform audit\n    struct AuditorInfo {\n        bytes32 auditor; // auditor name\n        bool isVerified; // if true -> passed, false -> failed\n        bool isWarning; // if true -> warning, false -> no warning\n        string verifiedHash; // stores content of audit summary (actual text)\n        string warningHash; // stores content of warnings\n    }\n\n    AuditorInfo public auditInformation;\n\n    constructor(address _xdsDevAddress) public {\n        require(_xdsDevAddress != address(0));\n\n        xdsDevAddress = payable(_xdsDevAddress);\n    }\n\n    modifier onlyXdsDev() {\n        require(xdsDevAddress == msg.sender);\n        _;\n    }\n\n    modifier whitelistedAddressOnly() {\n        require(\n            whitelistedAddresses[msg.sender],\n            \"Address not whitelisted\"\n        );\n        _;\n    }\n\n    modifier presaleIsNotCancelled() {\n        require(!presaleCancelled, \"Cancelled\");\n        _;\n    }\n\n    modifier investorOnly() {\n        require(investments[msg.sender] > 0, \"Not an investor\");\n        _;\n    }\n\n    modifier isValidClaimPeriod() {\n        uint256 currentPeriod = 0;\n        if (\n            now >= honeyLiquidityAddingTime &&\n            now < honeyLiquidityAddingTime + claimCycle\n        ) {\n            currentPeriod = 1;\n        }\n        if (\n            now >= honeyLiquidityAddingTime + claimCycle &&\n            now < honeyLiquidityAddingTime + claimCycle * 2\n        ) {\n            currentPeriod = 2;\n        }\n        if (\n            now >= honeyLiquidityAddingTime + claimCycle * 2 &&\n            now < honeyLiquidityAddingTime + claimCycle * 3\n        ) {\n            currentPeriod = 3;\n        }\n        if (now >= honeyLiquidityAddingTime + claimCycle * 3) {\n            currentPeriod = 4;\n        }\n        require(currentPeriod > 0, \"Listing not started\");\n\n        require(\n            claimed[msg.sender] < currentPeriod,\n            \"Already claimed or refunded\"\n        );\n        _;\n    }\n\n    modifier onlyRefundAllowed() {\n        require(refundAllowed, \"Refund is disallowed\");\n        _;\n    }\n\n    modifier onlyClaimAllowed() {\n        require(claimAllowed, \"Claim is disallowed\");\n        _;\n    }\n\n    modifier whitelistedAuditorOnly() {\n        require(\n            auditorWhitelistedAddresses[msg.sender],\n            \"Auditor Address not whitelisted\"\n        );\n        _;\n    }\n\n    function setAddressInfo(\n        address _tokenAddress,\n        address _unsoldTokensDumpAddress\n    ) external onlyXdsDev {\n        require(_tokenAddress != address(0));\n        require(_unsoldTokensDumpAddress != address(0));\n\n        token = IERC20(_tokenAddress);\n        unsoldTokensDumpAddress = _unsoldTokensDumpAddress;\n    }\n\n    function setGeneralInfo(\n        uint256 _totalTokens,\n        uint256 _tokenPriceInWei,\n        uint256 _hardCapInWei,\n        uint256 _softCapInWei,\n        uint256 _maxInvestInWei,\n        uint256 _minInvestInWei,\n        uint256 _openTime,\n        uint256 _closeTime\n    ) external onlyXdsDev {\n        require(_totalTokens > 0);\n        require(_tokenPriceInWei > 0);\n        require(_openTime > 0);\n        require(_closeTime > 0);\n        require(_hardCapInWei > 0);\n\n        // Hard cap > (token amount * token price)\n        require(_hardCapInWei <= _totalTokens.mul(_tokenPriceInWei));\n        // Soft cap > to hard cap\n        require(_softCapInWei <= _hardCapInWei);\n        //  Min. wei investment > max. wei investment\n        require(_minInvestInWei <= _maxInvestInWei);\n        // Open time >= close time\n        require(_openTime < _closeTime);\n\n        totalTokens = _totalTokens;\n        tokensLeft = _totalTokens;\n        tokenPriceInWei = _tokenPriceInWei;\n        hardCapInWei = _hardCapInWei;\n        softCapInWei = _softCapInWei;\n        maxInvestInWei = _maxInvestInWei;\n        minInvestInWei = _minInvestInWei;\n        openTime = _openTime;\n        closeTime = _closeTime;\n    }\n\n    function setStringInfo(\n        bytes32 _saleTitle,\n        bytes32 _linkTelegram,\n        bytes32 _linkGithub,\n        bytes32 _linkTwitter,\n        bytes32 _linkWebsite,\n        bytes32 _linkLogo\n    ) external onlyXdsDev {\n        saleTitle = _saleTitle;\n        linkTelegram = _linkTelegram;\n        linkGithub = _linkGithub;\n        linkTwitter = _linkTwitter;\n        linkWebsite = _linkWebsite;\n        linkLogo = _linkLogo;\n    }\n\n    function setAuditorInfo(\n        bytes32 _auditor,\n        bool _isVerified,\n        bool _isWarning,\n        string calldata _verifiedHash,\n        string calldata _warningHash\n    ) external whitelistedAuditorOnly {\n        auditInformation.auditor = _auditor;\n        auditInformation.isVerified = _isVerified;\n        auditInformation.isWarning = _isWarning;\n        auditInformation.verifiedHash = _verifiedHash;\n        auditInformation.warningHash = _warningHash;\n    }\n\n    function addWhitelistedAddresses(address[] calldata _whitelistedAddresses)\n        external\n        onlyXdsDev\n    {\n        for (uint256 i = 0; i < _whitelistedAddresses.length; i++) {\n            whitelistedAddresses[_whitelistedAddresses[i]] = true;\n        }\n    }\n\n    function addAuditorWhitelistedAddresses(\n        address[] calldata _whitelistedAddresses\n    ) external onlyXdsDev {\n        for (uint256 i = 0; i < _whitelistedAddresses.length; i++) {\n            auditorWhitelistedAddresses[_whitelistedAddresses[i]] = true;\n        }\n    }\n\n    function setRefundAllowed(bool _refundAllowed)\n        external\n        onlyXdsDev\n    {\n        refundAllowed = _refundAllowed;\n    }\n\n    function allowClaim(uint256 _honeyLiquidityAddingTime) external onlyXdsDev {\n        require(_honeyLiquidityAddingTime > 0);\n        require(closeTime > 0);\n        require(_honeyLiquidityAddingTime >= closeTime);\n\n        claimAllowed = true;\n        honeyLiquidityAddingTime = _honeyLiquidityAddingTime;\n    }\n\n    function setClaimCycle(uint256 _claimCycle)\n        external\n        onlyXdsDev\n    {\n        claimCycle = _claimCycle;\n    }\n\n    function getTokenAmount(uint256 _weiAmount)\n        internal\n        view\n        returns (uint256)\n    {\n        return _weiAmount.mul(1e18).div(tokenPriceInWei);\n    }\n\n    function invest()\n        public\n        payable\n        whitelistedAddressOnly\n        presaleIsNotCancelled\n    {\n        require(block.timestamp >= openTime, \"Not yet opened\");\n        require(block.timestamp < closeTime, \"Closed\");\n        require(totalCollectedWei < hardCapInWei, \"Hard cap reached\");\n        require(tokensLeft > 0);\n        require(msg.value <= tokensLeft.mul(tokenPriceInWei));\n        uint256 totalInvestmentInWei = investments[msg.sender].add(msg.value);\n        require(\n            totalInvestmentInWei >= minInvestInWei ||\n                totalCollectedWei >= hardCapInWei.sub(1 ether),\n            \"Min investment not reached\"\n        );\n        require(\n            maxInvestInWei == 0 || totalInvestmentInWei <= maxInvestInWei,\n            \"Max investment reached\"\n        );\n\n        if (investments[msg.sender] == 0) {\n            totalInvestorsCount = totalInvestorsCount.add(1);\n        }\n\n        totalCollectedWei = totalCollectedWei.add(msg.value);\n        investments[msg.sender] = totalInvestmentInWei;\n        tokensLeft = tokensLeft.sub(getTokenAmount(msg.value));\n    }\n\n    receive() external payable {\n        invest();\n    }\n\n    function transferUnsoldTokens()\n        external\n        onlyXdsDev\n        presaleIsNotCancelled\n    {\n        uint256 unsoldTokensAmount =\n            token.balanceOf(address(this)).sub(\n                getTokenAmount(totalCollectedWei)\n            );\n        if (unsoldTokensAmount > 0) {\n            token.transfer(unsoldTokensDumpAddress, unsoldTokensAmount);\n        }\n    }\n\n    function claimTokens()\n        external\n        whitelistedAddressOnly\n        presaleIsNotCancelled\n        investorOnly\n        isValidClaimPeriod\n        onlyClaimAllowed\n    {\n        claimed[msg.sender] = claimed[msg.sender].add(1); // make sure this goes first before transfer to prevent reentrancy\n        token.transfer(\n            msg.sender,\n            getTokenAmount(investments[msg.sender].div(4))\n        );\n    }\n\n    function getRefund()\n        external\n        whitelistedAddressOnly\n        investorOnly\n        onlyRefundAllowed\n    {\n        if (!presaleCancelled) {\n            require(block.timestamp >= openTime, \"Not yet opened\");\n            require(block.timestamp >= closeTime, \"Not yet closed\");\n            require(softCapInWei > 0, \"No soft cap\");\n            require(totalCollectedWei < softCapInWei, \"Soft cap reached\");\n            require(claimed[msg.sender] == 0, \"Already claimed\");\n        }\n\n        claimed[msg.sender] = 4; // make sure this goes first before transfer to prevent reentrancy\n        uint256 investment = investments[msg.sender];\n        uint256 presaleBalance = address(this).balance;\n        require(presaleBalance > 0);\n\n        if (investment > presaleBalance) {\n            investment = presaleBalance;\n        }\n\n        if (investment > 0) {\n            msg.sender.transfer(investment);\n        }\n    }\n\n    function cancelAndTransferTokensToDev() external onlyXdsDev {\n        if (xdsDevAddress != msg.sender) {\n            revert();\n        }\n\n        require(!presaleCancelled);\n        presaleCancelled = true;\n\n        uint256 balance = token.balanceOf(address(this));\n        if (balance > 0) {\n            token.transfer(xdsDevAddress, balance);\n        }\n    }\n\n    function collectFundsRaised() external onlyXdsDev {\n        require(!presaleCancelled);\n\n        if (address(this).balance > 0) {\n            xdsDevAddress.transfer(address(this).balance);\n        }\n    }\n}",
  "sourcePath": "/Users/macuser/Documents/Projects/Programming/xDaiStarterParent/xDaiStarter/contracts/XDSTPresale.sol",
  "compiler": {
    "name": "solc",
    "version": "0.6.12+commit.27d51765.Emscripten.clang"
  },
  "schemaVersion": "3.3.4",
  "updatedAt": "2021-04-21T17:55:22.516Z",
  "devdoc": {
    "kind": "dev",
    "methods": {},
    "version": 1
  },
  "userdoc": {
    "kind": "user",
    "methods": {},
    "version": 1
  }
}