{
  "contractName": "XDSVesting",
  "abi": [
    {
      "inputs": [],
      "stateMutability": "nonpayable",
      "type": "constructor"
    },
    {
      "anonymous": false,
      "inputs": [
        {
          "indexed": false,
          "internalType": "address",
          "name": "SentToAddress",
          "type": "address"
        },
        {
          "indexed": false,
          "internalType": "uint256",
          "name": "AmountTransferred",
          "type": "uint256"
        }
      ],
      "name": "LogWithdrawal",
      "type": "event"
    },
    {
      "anonymous": false,
      "inputs": [
        {
          "indexed": true,
          "internalType": "address",
          "name": "previousOwner",
          "type": "address"
        },
        {
          "indexed": true,
          "internalType": "address",
          "name": "newOwner",
          "type": "address"
        }
      ],
      "name": "OwnershipTransferred",
      "type": "event"
    },
    {
      "inputs": [
        {
          "internalType": "uint256",
          "name": "",
          "type": "uint256"
        }
      ],
      "name": "allDepositIds",
      "outputs": [
        {
          "internalType": "uint256",
          "name": "",
          "type": "uint256"
        }
      ],
      "stateMutability": "view",
      "type": "function"
    },
    {
      "inputs": [],
      "name": "depositId",
      "outputs": [
        {
          "internalType": "uint256",
          "name": "",
          "type": "uint256"
        }
      ],
      "stateMutability": "view",
      "type": "function"
    },
    {
      "inputs": [
        {
          "internalType": "address",
          "name": "",
          "type": "address"
        },
        {
          "internalType": "uint256",
          "name": "",
          "type": "uint256"
        }
      ],
      "name": "depositsByWithdrawalAddress",
      "outputs": [
        {
          "internalType": "uint256",
          "name": "",
          "type": "uint256"
        }
      ],
      "stateMutability": "view",
      "type": "function"
    },
    {
      "inputs": [
        {
          "internalType": "uint256",
          "name": "",
          "type": "uint256"
        }
      ],
      "name": "lockedToken",
      "outputs": [
        {
          "internalType": "address",
          "name": "tokenAddress",
          "type": "address"
        },
        {
          "internalType": "address",
          "name": "withdrawalAddress",
          "type": "address"
        },
        {
          "internalType": "uint256",
          "name": "tokenAmount",
          "type": "uint256"
        },
        {
          "internalType": "uint256",
          "name": "unlockTime",
          "type": "uint256"
        },
        {
          "internalType": "bool",
          "name": "withdrawn",
          "type": "bool"
        }
      ],
      "stateMutability": "view",
      "type": "function"
    },
    {
      "inputs": [],
      "name": "owner",
      "outputs": [
        {
          "internalType": "address",
          "name": "",
          "type": "address"
        }
      ],
      "stateMutability": "view",
      "type": "function"
    },
    {
      "inputs": [],
      "name": "renounceOwnership",
      "outputs": [],
      "stateMutability": "nonpayable",
      "type": "function"
    },
    {
      "inputs": [
        {
          "internalType": "address",
          "name": "newOwner",
          "type": "address"
        }
      ],
      "name": "transferOwnership",
      "outputs": [],
      "stateMutability": "nonpayable",
      "type": "function"
    },
    {
      "inputs": [
        {
          "internalType": "address",
          "name": "",
          "type": "address"
        },
        {
          "internalType": "address",
          "name": "",
          "type": "address"
        }
      ],
      "name": "walletTokenBalance",
      "outputs": [
        {
          "internalType": "uint256",
          "name": "",
          "type": "uint256"
        }
      ],
      "stateMutability": "view",
      "type": "function"
    },
    {
      "inputs": [
        {
          "internalType": "address",
          "name": "_tokenAddress",
          "type": "address"
        },
        {
          "internalType": "uint256",
          "name": "_amount",
          "type": "uint256"
        },
        {
          "internalType": "uint256",
          "name": "_unlockTime",
          "type": "uint256"
        }
      ],
      "name": "lockTokens",
      "outputs": [
        {
          "internalType": "uint256",
          "name": "_id",
          "type": "uint256"
        }
      ],
      "stateMutability": "nonpayable",
      "type": "function"
    },
    {
      "inputs": [
        {
          "internalType": "uint256",
          "name": "_id",
          "type": "uint256"
        }
      ],
      "name": "withdrawTokens",
      "outputs": [],
      "stateMutability": "nonpayable",
      "type": "function"
    },
    {
      "inputs": [
        {
          "internalType": "address",
          "name": "_tokenAddress",
          "type": "address"
        }
      ],
      "name": "getTotalTokenBalance",
      "outputs": [
        {
          "internalType": "uint256",
          "name": "",
          "type": "uint256"
        }
      ],
      "stateMutability": "view",
      "type": "function"
    },
    {
      "inputs": [
        {
          "internalType": "address",
          "name": "_tokenAddress",
          "type": "address"
        },
        {
          "internalType": "address",
          "name": "_walletAddress",
          "type": "address"
        }
      ],
      "name": "getTokenBalanceByAddress",
      "outputs": [
        {
          "internalType": "uint256",
          "name": "",
          "type": "uint256"
        }
      ],
      "stateMutability": "view",
      "type": "function"
    },
    {
      "inputs": [],
      "name": "getAllDepositIds",
      "outputs": [
        {
          "internalType": "uint256[]",
          "name": "",
          "type": "uint256[]"
        }
      ],
      "stateMutability": "view",
      "type": "function"
    },
    {
      "inputs": [
        {
          "internalType": "uint256",
          "name": "_id",
          "type": "uint256"
        }
      ],
      "name": "getDepositDetails",
      "outputs": [
        {
          "internalType": "address",
          "name": "",
          "type": "address"
        },
        {
          "internalType": "address",
          "name": "",
          "type": "address"
        },
        {
          "internalType": "uint256",
          "name": "",
          "type": "uint256"
        },
        {
          "internalType": "uint256",
          "name": "",
          "type": "uint256"
        },
        {
          "internalType": "bool",
          "name": "",
          "type": "bool"
        }
      ],
      "stateMutability": "view",
      "type": "function"
    },
    {
      "inputs": [
        {
          "internalType": "address",
          "name": "_withdrawalAddress",
          "type": "address"
        }
      ],
      "name": "getDepositsByWithdrawalAddress",
      "outputs": [
        {
          "internalType": "uint256[]",
          "name": "",
          "type": "uint256[]"
        }
      ],
      "stateMutability": "view",
      "type": "function"
    }
  ],
  "bytecode": "0x608060405234801561001057600080fd5b50600061001b61006a565b600080546001600160a01b0319166001600160a01b0383169081178255604051929350917f8be0079c531659141344cd1fd0a4f28419497f9722a3daafe3b4186f6b6457e0908290a35061006e565b3390565b61109a8061007d6000396000f3fe608060405234801561001057600080fd5b50600436106100f55760003560e01c80638da5cb5b11610097578063b9e7df1c11610066578063b9e7df1c146102e5578063bb941cff14610313578063c9028aff14610330578063f2fde38b1461034d576100f5565b80638da5cb5b146102615780639852099c14610285578063a25983e51461028d578063adad19bd146102bf576100f5565b8063530680d8116100d3578063530680d8146101cf5780636ba03924146101fb578063715018a614610203578063890db72f1461020b576100f5565b80630bd59ad3146100fa578063315a095d14610170578063347c80ba1461018f575b600080fd5b6101206004803603602081101561011057600080fd5b50356001600160a01b0316610373565b60408051602080825283518183015283519192839290830191858101910280838360005b8381101561015c578181015183820152602001610144565b505050509050019250505060405180910390f35b61018d6004803603602081101561018657600080fd5b50356103df565b005b6101bd600480360360408110156101a557600080fd5b506001600160a01b0381358116916020013516610831565b60408051918252519081900360200190f35b6101bd600480360360408110156101e557600080fd5b506001600160a01b03813516906020013561085c565b61012061088a565b61018d6108e2565b6102286004803603602081101561022157600080fd5b50356109a0565b604080516001600160a01b0396871681529490951660208501528385019290925260608301521515608082015290519081900360a00190f35b6102696109e2565b604080516001600160a01b039092168252519081900360200190f35b6101bd6109f1565b6101bd600480360360608110156102a357600080fd5b506001600160a01b0381351690602081013590604001356109f7565b6101bd600480360360208110156102d557600080fd5b50356001600160a01b0316610d13565b6101bd600480360360408110156102fb57600080fd5b506001600160a01b0381358116916020013516610d94565b6102286004803603602081101561032957600080fd5b5035610db1565b6101bd6004803603602081101561034657600080fd5b5035610df0565b61018d6004803603602081101561036357600080fd5b50356001600160a01b0316610e0e565b6001600160a01b0381166000908152600360209081526040918290208054835181840281018401909452808452606093928301828280156103d357602002820191906000526020600020905b8154815260200190600101908083116103bf575b50505050509050919050565b600081815260046020526040902060030154421015610439576040805162461bcd60e51b8152602060048201526011602482015270151bdad95b9cc8185c99481b1bd8dad959607a1b604482015290519081900360640190fd5b6000818152600460205260409020600101546001600160a01b031633146104915760405162461bcd60e51b815260040180806020018281038252602781526020018061103e6027913960400191505060405180910390fd5b6000818152600460208190526040909120015460ff16156104f9576040805162461bcd60e51b815260206004820152601860248201527f546f6b656e7320616c72656164792077697468647261776e0000000000000000604482015290519081900360640190fd5b60008181526004602081815260408084208054600290910154825163a9059cbb60e01b81523395810195909552602485015290516001600160a01b039091169363a9059cbb936044808201949392918390030190829087803b15801561055e57600080fd5b505af1158015610572573d6000803e3d6000fd5b505050506040513d602081101561058857600080fd5b50516105d7576040805162461bcd60e51b8152602060048201526019602482015278151c985b9cd9995c881bd9881d1bdad95b9cc819985a5b1959603a1b604482015290519081900360640190fd5b6000818152600460208181526040808420928301805460ff19166001179055600283015492546001600160a01b03168452600582528084203385529091529091205461062291610f22565b6000828152600460209081526040808320546001600160a01b0316835260058252808320338452909152812091909155805b6000838152600460209081526040808320600101546001600160a01b0316835260039091529020548110156107e0576000838152600460209081526040808320600101546001600160a01b03168352600390915290208054849190839081106106b957fe5b906000526020600020015414156107d8578091505b6000838152600460209081526040808320600101546001600160a01b0316835260039091529020546000190182101561078d5760008381526004602090815260408083206001908101546001600160a01b03168452600390925290912080549091840190811061073a57fe5b6000918252602080832090910154858352600482526040808420600101546001600160a01b031684526003909252912080548490811061077657fe5b6000918252602090912001556001909101906106ce565b6000838152600460209081526040808320600101546001600160a01b03168352600390915290208054806107bd57fe5b600190038181906000526020600020016000905590556107e0565b600101610654565b6000838152600460209081526040918290206002015482513381529182015281517fb4214c8c54fc7442f36d3682f59aebaf09358a4431835b30efb29d52cf9e1e91929181900390910190a1505050565b6001600160a01b03918216600090815260056020908152604080832093909416825291909152205490565b6003602052816000526040600020818154811061087557fe5b90600052602060002001600091509150505481565b606060028054806020026020016040519081016040528092919081815260200182805480156108d857602002820191906000526020600020905b8154815260200190600101908083116108c4575b5050505050905090565b6108ea610f7f565b6001600160a01b03166108fb6109e2565b6001600160a01b031614610956576040805162461bcd60e51b815260206004820181905260248201527f4f776e61626c653a2063616c6c6572206973206e6f7420746865206f776e6572604482015290519081900360640190fd5b600080546040516001600160a01b03909116907f8be0079c531659141344cd1fd0a4f28419497f9722a3daafe3b4186f6b6457e0908390a3600080546001600160a01b0319169055565b6000908152600460208190526040909120805460018201546002830154600384015493909401546001600160a01b03928316959290911693929160ff90911690565b6000546001600160a01b031690565b60015481565b6000808311610a44576040805162461bcd60e51b8152602060048201526014602482015273746f6b656e20616d6f756e74206973205a65726f60601b604482015290519081900360640190fd5b6402540be4008210610a875760405162461bcd60e51b8152600401808060200182810382526033815260200180610fe56033913960400191505060405180910390fd5b6040805163095ea7b360e01b81523060048201526024810185905290516001600160a01b0386169163095ea7b39160448083019260209291908290030181600087803b158015610ad657600080fd5b505af1158015610aea573d6000803e3d6000fd5b505050506040513d6020811015610b0057600080fd5b5051610b4b576040805162461bcd60e51b8152602060048201526015602482015274105c1c1c9bdd99481d1bdad95b9cc819985a5b1959605a1b604482015290519081900360640190fd5b604080516323b872dd60e01b81523360048201523060248201526044810185905290516001600160a01b038616916323b872dd9160648083019260209291908290030181600087803b158015610ba057600080fd5b505af1158015610bb4573d6000803e3d6000fd5b505050506040513d6020811015610bca57600080fd5b5051610c19576040805162461bcd60e51b8152602060048201526019602482015278151c985b9cd9995c881bd9881d1bdad95b9cc819985a5b1959603a1b604482015290519081900360640190fd5b6001600160a01b0384166000908152600560209081526040808320338452909152902054610c479084610f83565b6001600160a01b0390941660008181526005602090815260408083203380855290835281842098909855600180548101808255808552600480855283862080546001600160a01b0319908116909817815580840180549098168c1790975560028088019a909a5560038088019990995595909501805460ff1916905587548082019098557f405787fa12a823e0f2b7631cc41b3ba8828b3321ca811111fa75cd3aa3bb5ace90970184905596825293845294852080549485018155855291909320909101819055919050565b6000816001600160a01b03166370a08231306040518263ffffffff1660e01b815260040180826001600160a01b0316815260200191505060206040518083038186803b158015610d6257600080fd5b505afa158015610d76573d6000803e3d6000fd5b505050506040513d6020811015610d8c57600080fd5b505192915050565b600560209081526000928352604080842090915290825290205481565b6004602081905260009182526040909120805460018201546002830154600384015493909401546001600160a01b039283169492909116929060ff1685565b60028181548110610dfd57fe5b600091825260209091200154905081565b610e16610f7f565b6001600160a01b0316610e276109e2565b6001600160a01b031614610e82576040805162461bcd60e51b815260206004820181905260248201527f4f776e61626c653a2063616c6c6572206973206e6f7420746865206f776e6572604482015290519081900360640190fd5b6001600160a01b038116610ec75760405162461bcd60e51b81526004018080602001828103825260268152602001806110186026913960400191505060405180910390fd5b600080546040516001600160a01b03808516939216917f8be0079c531659141344cd1fd0a4f28419497f9722a3daafe3b4186f6b6457e091a3600080546001600160a01b0319166001600160a01b0392909216919091179055565b600082821115610f79576040805162461bcd60e51b815260206004820152601e60248201527f536166654d6174683a207375627472616374696f6e206f766572666c6f770000604482015290519081900360640190fd5b50900390565b3390565b600082820183811015610fdd576040805162461bcd60e51b815260206004820152601b60248201527f536166654d6174683a206164646974696f6e206f766572666c6f770000000000604482015290519081900360640190fd5b939250505056fe456e74657220616e20756e69782074696d657374616d7020696e207365636f6e64732c206e6f74206d696c697365636f6e64734f776e61626c653a206e6577206f776e657220697320746865207a65726f206164647265737343616e207769746864726177206279207769746864726177616c2041646472657373206f6e6c79a2646970667358221220e709b2ec7eb27bcc5062ebb778d525c850899b9142421b0b08bd9f6519e7aead64736f6c634300060c0033",
  "immutableReferences": {},
  "source": "// SPDX-License-Identifier: MIT\npragma solidity ^0.6.12;\n\nimport \"@openzeppelin/contracts/token/ERC20/IERC20.sol\";\nimport \"@openzeppelin/contracts/math/SafeMath.sol\";\nimport \"@openzeppelin/contracts/access/Ownable.sol\";\n\n/*\n  Depositor = EOA that owns tokens in any contract (but is this specifically for XDP?)\n  Depositor transfers tokens to this contract, which will allow them to be transferred back by depositor after a specified time\n\n  Not called by any known contracts: who does this, when, and why?\n*/\ncontract XDSVesting is Ownable {\n    using SafeMath for uint256;\n    \n    /*\n     * deposit vars\n    */\n    struct Items {\n        address tokenAddress;       // address of token locked/deposited\n        address withdrawalAddress;  // address of depositor\n        uint256 tokenAmount;        // amount locked\n        uint256 unlockTime;         // time when withdraw becomes allowed\n        bool withdrawn;\n    }\n    \n    uint256 public depositId; // counter\n    uint256[] public allDepositIds; // will always be an array from 0 to depositId (?)\n    mapping (address => uint256[]) public depositsByWithdrawalAddress; // call this to find user's deposit ids\n    mapping (uint256 => Items) public lockedToken;\n    mapping (address => mapping(address => uint256)) public walletTokenBalance; // token quantities locked in this contract by owner\n    \n    event LogWithdrawal(address SentToAddress, uint256 AmountTransferred);\n    \n    /**\n     * Constructor function\n    */\n    constructor() public {}\n\n    /**\n     *lock tokens\n    */\n    function lockTokens(address _tokenAddress, uint256 _amount, uint256 _unlockTime) public returns (uint256 _id) {\n        require(_amount > 0, 'token amount is Zero');\n        require(_unlockTime < 10000000000, 'Enter an unix timestamp in seconds, not miliseconds');\n        require(IERC20(_tokenAddress).approve(address(this), _amount), 'Approve tokens failed');\n        require(IERC20(_tokenAddress).transferFrom(msg.sender, address(this), _amount), 'Transfer of tokens failed');\n        \n        //update balance in address\n        walletTokenBalance[_tokenAddress][msg.sender] = walletTokenBalance[_tokenAddress][msg.sender].add(_amount);\n        \n        address _withdrawalAddress = msg.sender;\n        _id = ++depositId;\n        lockedToken[_id].tokenAddress = _tokenAddress;\n        lockedToken[_id].withdrawalAddress = _withdrawalAddress;\n        lockedToken[_id].tokenAmount = _amount;\n        lockedToken[_id].unlockTime = _unlockTime;\n        lockedToken[_id].withdrawn = false;\n        \n        allDepositIds.push(_id);\n        depositsByWithdrawalAddress[_withdrawalAddress].push(_id);\n    }\n    \n    /**\n     *withdraw tokens\n    */\n    function withdrawTokens(uint256 _id) public {\n        require(block.timestamp >= lockedToken[_id].unlockTime, 'Tokens are locked');\n        require(msg.sender == lockedToken[_id].withdrawalAddress, 'Can withdraw by withdrawal Address only');\n        require(!lockedToken[_id].withdrawn, 'Tokens already withdrawn');\n        require(IERC20(lockedToken[_id].tokenAddress).transfer(msg.sender, lockedToken[_id].tokenAmount), 'Transfer of tokens failed');\n        \n        lockedToken[_id].withdrawn = true;\n        \n        //update balance in address\n        walletTokenBalance[lockedToken[_id].tokenAddress][msg.sender] = walletTokenBalance[lockedToken[_id].tokenAddress][msg.sender].sub(lockedToken[_id].tokenAmount);\n        \n        //remove this id from this address\n        uint256 i; uint256 j;\n        for(j=0; j<depositsByWithdrawalAddress[lockedToken[_id].withdrawalAddress].length; j++){\n            if(depositsByWithdrawalAddress[lockedToken[_id].withdrawalAddress][j] == _id){\n                for (i = j; i<depositsByWithdrawalAddress[lockedToken[_id].withdrawalAddress].length-1; i++){\n                    depositsByWithdrawalAddress[lockedToken[_id].withdrawalAddress][i] = depositsByWithdrawalAddress[lockedToken[_id].withdrawalAddress][i+1];\n                }\n                depositsByWithdrawalAddress[lockedToken[_id].withdrawalAddress].pop();\n                break;\n            }\n        }\n        emit LogWithdrawal(msg.sender, lockedToken[_id].tokenAmount);\n    }\n\n     /*get total token balance in contract*/\n    function getTotalTokenBalance(address _tokenAddress) view public returns (uint256)\n    {\n       return IERC20(_tokenAddress).balanceOf(address(this));\n    }\n    \n    /*get total token balance by address*/\n    function getTokenBalanceByAddress(address _tokenAddress, address _walletAddress) view public returns (uint256)\n    {\n       return walletTokenBalance[_tokenAddress][_walletAddress];\n    }\n    \n    /*get allDepositIds*/\n    function getAllDepositIds() view public returns (uint256[] memory)\n    {\n        return allDepositIds;\n    }\n    \n    /*get getDepositDetails*/\n    function getDepositDetails(uint256 _id) view public returns (address, address, uint256, uint256, bool)\n    {\n        return(lockedToken[_id].tokenAddress,lockedToken[_id].withdrawalAddress,lockedToken[_id].tokenAmount,\n        lockedToken[_id].unlockTime,lockedToken[_id].withdrawn);\n    }\n    \n    /*get DepositsByWithdrawalAddress*/\n    function getDepositsByWithdrawalAddress(address _withdrawalAddress) view public returns (uint256[] memory)\n    {\n        return depositsByWithdrawalAddress[_withdrawalAddress];\n    }\n    \n}",
  "sourcePath": "/Users/macuser/Documents/Projects/Programming/xDaiStarterParent/xDaiStarter/contracts/XDSVesting.sol",
  "compiler": {
    "name": "solc",
    "version": "0.6.12+commit.27d51765.Emscripten.clang"
  },
  "schemaVersion": "3.3.4",
  "updatedAt": "2021-04-28T04:56:18.857Z",
  "devdoc": {
    "kind": "dev",
    "methods": {
      "owner()": {
        "details": "Returns the address of the current owner."
      },
      "renounceOwnership()": {
        "details": "Leaves the contract without owner. It will not be possible to call `onlyOwner` functions anymore. Can only be called by the current owner. NOTE: Renouncing ownership will leave the contract without an owner, thereby removing any functionality that is only available to the owner."
      },
      "transferOwnership(address)": {
        "details": "Transfers ownership of the contract to a new account (`newOwner`). Can only be called by the current owner."
      }
    },
    "version": 1
  },
  "userdoc": {
    "kind": "user",
    "methods": {
      "constructor": "Constructor function",
      "lockTokens(address,uint256,uint256)": {
        "notice": "lock tokens"
      },
      "withdrawTokens(uint256)": {
        "notice": "withdraw tokens"
      }
    },
    "version": 1
  }
}